{
  "_format": "hh-sol-artifact-1",
  "contractName": "ALCA",
  "sourceName": "contracts/ALCA.sol",
  "abi": [
    {
      "inputs": [
        {
          "internalType": "address",
          "name": "legacyToken_",
          "type": "address"
        }
      ],
      "stateMutability": "nonpayable",
      "type": "constructor"
    },
    {
      "inputs": [],
      "name": "InvalidAddress",
      "type": "error"
    },
    {
      "inputs": [],
      "name": "InvalidConversionAmount",
      "type": "error"
    },
    {
      "inputs": [
        {
          "internalType": "address",
          "name": "sender",
          "type": "address"
        },
        {
          "internalType": "address",
          "name": "expected",
          "type": "address"
        }
      ],
      "name": "OnlyALCABurner",
      "type": "error"
    },
    {
      "inputs": [
        {
          "internalType": "address",
          "name": "sender",
          "type": "address"
        },
        {
          "internalType": "address",
          "name": "expected",
          "type": "address"
        }
      ],
      "name": "OnlyALCAMinter",
      "type": "error"
    },
    {
      "inputs": [
        {
          "internalType": "address",
          "name": "sender",
          "type": "address"
        },
        {
          "internalType": "address",
          "name": "expected",
          "type": "address"
        }
      ],
      "name": "OnlyFactory",
      "type": "error"
    },
    {
      "anonymous": false,
      "inputs": [
        {
          "indexed": true,
          "internalType": "address",
          "name": "owner",
          "type": "address"
        },
        {
          "indexed": true,
          "internalType": "address",
          "name": "spender",
          "type": "address"
        },
        {
          "indexed": false,
          "internalType": "uint256",
          "name": "value",
          "type": "uint256"
        }
      ],
      "name": "Approval",
      "type": "event"
    },
    {
      "anonymous": false,
      "inputs": [
        {
          "indexed": true,
          "internalType": "address",
          "name": "from",
          "type": "address"
        },
        {
          "indexed": true,
          "internalType": "address",
          "name": "to",
          "type": "address"
        },
        {
          "indexed": false,
          "internalType": "uint256",
          "name": "value",
          "type": "uint256"
        }
      ],
      "name": "Transfer",
      "type": "event"
    },
    {
      "inputs": [
        {
          "internalType": "address",
          "name": "owner",
          "type": "address"
        },
        {
          "internalType": "address",
          "name": "spender",
          "type": "address"
        }
      ],
      "name": "allowance",
      "outputs": [
        {
          "internalType": "uint256",
          "name": "",
          "type": "uint256"
        }
      ],
      "stateMutability": "view",
      "type": "function"
    },
    {
      "inputs": [
        {
          "internalType": "address",
          "name": "spender",
          "type": "address"
        },
        {
          "internalType": "uint256",
          "name": "amount",
          "type": "uint256"
        }
      ],
      "name": "approve",
      "outputs": [
        {
          "internalType": "bool",
          "name": "",
          "type": "bool"
        }
      ],
      "stateMutability": "nonpayable",
      "type": "function"
    },
    {
      "inputs": [
        {
          "internalType": "address",
          "name": "account",
          "type": "address"
        }
      ],
      "name": "balanceOf",
      "outputs": [
        {
          "internalType": "uint256",
          "name": "",
          "type": "uint256"
        }
      ],
      "stateMutability": "view",
      "type": "function"
    },
    {
      "inputs": [
        {
          "internalType": "uint256",
          "name": "amount",
          "type": "uint256"
        }
      ],
      "name": "convert",
      "outputs": [
        {
          "internalType": "uint256",
          "name": "",
          "type": "uint256"
        }
      ],
      "stateMutability": "view",
      "type": "function"
    },
    {
      "inputs": [],
      "name": "decimals",
      "outputs": [
        {
          "internalType": "uint8",
          "name": "",
          "type": "uint8"
        }
      ],
      "stateMutability": "view",
      "type": "function"
    },
    {
      "inputs": [
        {
          "internalType": "address",
          "name": "spender",
          "type": "address"
        },
        {
          "internalType": "uint256",
          "name": "subtractedValue",
          "type": "uint256"
        }
      ],
      "name": "decreaseAllowance",
      "outputs": [
        {
          "internalType": "bool",
          "name": "",
          "type": "bool"
        }
      ],
      "stateMutability": "nonpayable",
      "type": "function"
    },
    {
      "inputs": [
        {
          "internalType": "address",
          "name": "from",
          "type": "address"
        },
        {
          "internalType": "uint256",
          "name": "amount",
          "type": "uint256"
        }
      ],
      "name": "externalBurn",
      "outputs": [],
      "stateMutability": "nonpayable",
      "type": "function"
    },
    {
      "inputs": [
        {
          "internalType": "address",
          "name": "to",
          "type": "address"
        },
        {
          "internalType": "uint256",
          "name": "amount",
          "type": "uint256"
        }
      ],
      "name": "externalMint",
      "outputs": [],
      "stateMutability": "nonpayable",
      "type": "function"
    },
    {
      "inputs": [],
      "name": "finishEarlyStage",
      "outputs": [],
      "stateMutability": "nonpayable",
      "type": "function"
    },
    {
      "inputs": [],
      "name": "getLegacyTokenAddress",
      "outputs": [
        {
          "internalType": "address",
          "name": "",
          "type": "address"
        }
      ],
      "stateMutability": "view",
      "type": "function"
    },
    {
      "inputs": [
        {
          "internalType": "bytes32",
          "name": "_salt",
          "type": "bytes32"
        },
        {
          "internalType": "address",
          "name": "_factory",
          "type": "address"
        }
      ],
      "name": "getMetamorphicContractAddress",
      "outputs": [
        {
          "internalType": "address",
          "name": "",
          "type": "address"
        }
      ],
      "stateMutability": "pure",
      "type": "function"
    },
    {
      "inputs": [
        {
          "internalType": "address",
          "name": "spender",
          "type": "address"
        },
        {
          "internalType": "uint256",
          "name": "addedValue",
          "type": "uint256"
        }
      ],
      "name": "increaseAllowance",
      "outputs": [
        {
          "internalType": "bool",
          "name": "",
          "type": "bool"
        }
      ],
      "stateMutability": "nonpayable",
      "type": "function"
    },
    {
      "inputs": [
        {
          "internalType": "uint256",
          "name": "amount",
          "type": "uint256"
        }
      ],
      "name": "migrate",
      "outputs": [
        {
          "internalType": "uint256",
          "name": "",
          "type": "uint256"
        }
      ],
      "stateMutability": "nonpayable",
      "type": "function"
    },
    {
      "inputs": [
        {
          "internalType": "address",
          "name": "to",
          "type": "address"
        },
        {
          "internalType": "uint256",
          "name": "amount",
          "type": "uint256"
        }
      ],
      "name": "migrateTo",
      "outputs": [
        {
          "internalType": "uint256",
          "name": "",
          "type": "uint256"
        }
      ],
      "stateMutability": "nonpayable",
      "type": "function"
    },
    {
      "inputs": [],
      "name": "name",
      "outputs": [
        {
          "internalType": "string",
          "name": "",
          "type": "string"
        }
      ],
      "stateMutability": "view",
      "type": "function"
    },
    {
      "inputs": [],
      "name": "symbol",
      "outputs": [
        {
          "internalType": "string",
          "name": "",
          "type": "string"
        }
      ],
      "stateMutability": "view",
      "type": "function"
    },
    {
      "inputs": [],
      "name": "totalSupply",
      "outputs": [
        {
          "internalType": "uint256",
          "name": "",
          "type": "uint256"
        }
      ],
      "stateMutability": "view",
      "type": "function"
    },
    {
      "inputs": [
        {
          "internalType": "address",
          "name": "to",
          "type": "address"
        },
        {
          "internalType": "uint256",
          "name": "amount",
          "type": "uint256"
        }
      ],
      "name": "transfer",
      "outputs": [
        {
          "internalType": "bool",
          "name": "",
          "type": "bool"
        }
      ],
      "stateMutability": "nonpayable",
      "type": "function"
    },
    {
      "inputs": [
        {
          "internalType": "address",
          "name": "from",
          "type": "address"
        },
        {
          "internalType": "address",
          "name": "to",
          "type": "address"
        },
        {
          "internalType": "uint256",
          "name": "amount",
          "type": "uint256"
        }
      ],
      "name": "transferFrom",
      "outputs": [
        {
          "internalType": "bool",
          "name": "",
          "type": "bool"
        }
      ],
      "stateMutability": "nonpayable",
      "type": "function"
    }
  ],
  "bytecode": "0x6101006040523480156200001257600080fd5b5060405162001b3538038062001b35833981016040819052620000359162000293565b336040518060400160405280601681526020017f416c6963654e6574205374616b696e6720546f6b656e0000000000000000000081525060405180604001604052806004815260200163414c434160e01b81525081600390816200009a919062000369565b506004620000a9828262000369565b5050506001600160a01b0316608052620000da6920a621a0a6b4b73a32b960b11b620000d460805190565b62000133565b6001600160a01b031660a052620001026920a621a0a13ab93732b960b11b620000d460805190565b6001600160a01b0390811660c052811660e0526200012c336aca331fe2cc911ff471c71c620001c8565b5062000457565b6040517fff0000000000000000000000000000000000000000000000000000000000000060208201526001600160601b0319606083901b166021820152603581018390527f1c0bf703a3415cada9785e89e9d70314c3111ae7d8e04f33bb42eb1d264088be605582018190526000916075016040516020818303038152906040528051906020012060001c9150505b92915050565b6001600160a01b038216620002235760405162461bcd60e51b815260206004820152601f60248201527f45524332303a206d696e7420746f20746865207a65726f206164647265737300604482015260640160405180910390fd5b806002600082825462000237919062000435565b90915550506001600160a01b038216600081815260208181526040808320805486019055518481527fddf252ad1be2c89b69c2b068fc378daa952ba7f163c4a11628f55a4df523b3ef910160405180910390a35050565b505050565b600060208284031215620002a657600080fd5b81516001600160a01b0381168114620002be57600080fd5b9392505050565b634e487b7160e01b600052604160045260246000fd5b600181811c90821680620002f057607f821691505b6020821081036200031157634e487b7160e01b600052602260045260246000fd5b50919050565b601f8211156200028e57600081815260208120601f850160051c81016020861015620003405750805b601f850160051c820191505b8181101562000361578281556001016200034c565b505050505050565b81516001600160401b03811115620003855762000385620002c5565b6200039d81620003968454620002db565b8462000317565b602080601f831160018114620003d55760008415620003bc5750858301515b600019600386901b1c1916600185901b17855562000361565b600085815260208120601f198616915b828110156200040657888601518255948401946001909101908401620003e5565b5085821015620004255787850151600019600388901b60f8161c191681555b5050505050600190811b01905550565b80820180821115620001c257634e487b7160e01b600052601160045260246000fd5b60805160a05160c05160e05161167a620004bb6000396000818161015801528181610ae101528181610b8a0152610c3e0152600081816105ae015261061601526000818161067d01526106e501526000818161081e0152610886015261167a6000f3fe608060405234801561001057600080fd5b50600436106101515760003560e01c80636f6ebec8116100cd578063a3908e1b11610081578063a9059cbb11610066578063a9059cbb146103ad578063ae424781146103c0578063dd62ed3e146103c857600080fd5b8063a3908e1b14610387578063a457c2d71461039a57600080fd5b80638653a465116100b25780638653a4651461029657806395d89b411461036c57806399f988981461037457600080fd5b80636f6ebec81461024b57806370a082311461026057600080fd5b806318160ddd11610124578063313ce56711610109578063313ce567146102165780633950935114610225578063454b06081461023857600080fd5b806318160ddd146101fb57806323b872dd1461020357600080fd5b8063035c70991461015657806306fdde03146101a2578063095ea7b3146101b75780630d213d31146101da575b600080fd5b7f00000000000000000000000000000000000000000000000000000000000000005b60405173ffffffffffffffffffffffffffffffffffffffff90911681526020015b60405180910390f35b6101aa61040e565b6040516101999190611369565b6101ca6101c53660046113f9565b6104a0565b6040519015158152602001610199565b6101ed6101e83660046113f9565b6104ba565b604051908152602001610199565b6002546101ed565b6101ca610211366004611423565b61051a565b60405160128152602001610199565b6101ca6102333660046113f9565b61053e565b6101ed61024636600461145f565b61058a565b61025e6102593660046113f9565b610596565b005b6101ed61026e366004611478565b73ffffffffffffffffffffffffffffffffffffffff1660009081526020819052604090205490565b6101786102a4366004611493565b6040517fff0000000000000000000000000000000000000000000000000000000000000060208201527fffffffffffffffffffffffffffffffffffffffff000000000000000000000000606083901b166021820152603581018390527f1c0bf703a3415cada9785e89e9d70314c3111ae7d8e04f33bb42eb1d264088be60558201819052600091607501604080517fffffffffffffffffffffffffffffffffffffffffffffffffffffffffffffffe08184030181529190528051602090910120949350505050565b6101aa610656565b61025e6103823660046113f9565b610665565b6101ed61039536600461145f565b61071c565b6101ca6103a83660046113f9565b610727565b6101ca6103bb3660046113f9565b6107f8565b61025e610806565b6101ed6103d63660046114bf565b73ffffffffffffffffffffffffffffffffffffffff918216600090815260016020908152604080832093909416825291909152205490565b60606003805461041d906114e9565b80601f0160208091040260200160405190810160405280929190818152602001828054610449906114e9565b80156104965780601f1061046b57610100808354040283529160200191610496565b820191906000526020600020905b81548152906001019060200180831161047957829003601f168201915b5050505050905090565b6000336104ae8185856108e5565b60019150505b92915050565b600073ffffffffffffffffffffffffffffffffffffffff8316610509576040517fe6c4247b00000000000000000000000000000000000000000000000000000000815260040160405180910390fd5b6105138383610a99565b9392505050565b600033610528858285610d25565b610533858585610dfc565b506001949350505050565b33600081815260016020908152604080832073ffffffffffffffffffffffffffffffffffffffff871684529091528120549091906104ae908290869061058590879061156b565b6108e5565b60006104b43383610a99565b3373ffffffffffffffffffffffffffffffffffffffff7f00000000000000000000000000000000000000000000000000000000000000001614610648576040517f245fab9500000000000000000000000000000000000000000000000000000000815233600482015273ffffffffffffffffffffffffffffffffffffffff7f00000000000000000000000000000000000000000000000000000000000000001660248201526044015b60405180910390fd5b610652828261106b565b5050565b60606004805461041d906114e9565b3373ffffffffffffffffffffffffffffffffffffffff7f00000000000000000000000000000000000000000000000000000000000000001614610712576040517f8a93edb000000000000000000000000000000000000000000000000000000000815233600482015273ffffffffffffffffffffffffffffffffffffffff7f000000000000000000000000000000000000000000000000000000000000000016602482015260440161063f565b6106528282611227565b60006104b48261131a565b33600081815260016020908152604080832073ffffffffffffffffffffffffffffffffffffffff87168452909152812054909190838110156107eb576040517f08c379a000000000000000000000000000000000000000000000000000000000815260206004820152602560248201527f45524332303a2064656372656173656420616c6c6f77616e63652062656c6f7760448201527f207a65726f000000000000000000000000000000000000000000000000000000606482015260840161063f565b61053382868684036108e5565b6000336104ae818585610dfc565b3373ffffffffffffffffffffffffffffffffffffffff7f000000000000000000000000000000000000000000000000000000000000000016146108b3576040517f0f634fbe00000000000000000000000000000000000000000000000000000000815233600482015273ffffffffffffffffffffffffffffffffffffffff7f000000000000000000000000000000000000000000000000000000000000000016602482015260440161063f565b6108e3600580547fffffffffffffffffffffffffffffffffffffffffffffffffffffffffffffff00166001179055565b565b73ffffffffffffffffffffffffffffffffffffffff8316610987576040517f08c379a0000000000000000000000000000000000000000000000000000000008152602060048201526024808201527f45524332303a20617070726f76652066726f6d20746865207a65726f2061646460448201527f7265737300000000000000000000000000000000000000000000000000000000606482015260840161063f565b73ffffffffffffffffffffffffffffffffffffffff8216610a2a576040517f08c379a000000000000000000000000000000000000000000000000000000000815260206004820152602260248201527f45524332303a20617070726f766520746f20746865207a65726f20616464726560448201527f7373000000000000000000000000000000000000000000000000000000000000606482015260840161063f565b73ffffffffffffffffffffffffffffffffffffffff83811660008181526001602090815260408083209487168084529482529182902085905590518481527f8c5be1e5ebec7d5bd14f71427d1e84f3dd0314c0f7b2291e5b200ac8c7c3b92591015b60405180910390a3505050565b6040517f70a08231000000000000000000000000000000000000000000000000000000008152306004820152600090819073ffffffffffffffffffffffffffffffffffffffff7f000000000000000000000000000000000000000000000000000000000000000016906370a0823190602401602060405180830381865afa158015610b28573d6000803e3d6000fd5b505050506040513d601f19601f82011682018060405250810190610b4c919061157e565b6040517f23b872dd000000000000000000000000000000000000000000000000000000008152336004820152306024820152604481018590529091507f000000000000000000000000000000000000000000000000000000000000000073ffffffffffffffffffffffffffffffffffffffff16906323b872dd906064016020604051808303816000875af1158015610be8573d6000803e3d6000fd5b505050506040513d601f19601f82011682018060405250810190610c0c9190611597565b506040517f70a082310000000000000000000000000000000000000000000000000000000081523060048201526000907f000000000000000000000000000000000000000000000000000000000000000073ffffffffffffffffffffffffffffffffffffffff16906370a0823190602401602060405180830381865afa158015610c9a573d6000803e3d6000fd5b505050506040513d601f19601f82011682018060405250810190610cbe919061157e565b9050818111610cf9576040517f52eed6f700000000000000000000000000000000000000000000000000000000815260040160405180910390fd5b6000610d0583836115b9565b9050610d108161131a565b9350610d1c8685611227565b50505092915050565b73ffffffffffffffffffffffffffffffffffffffff8381166000908152600160209081526040808320938616835292905220547fffffffffffffffffffffffffffffffffffffffffffffffffffffffffffffffff8114610df65781811015610de9576040517f08c379a000000000000000000000000000000000000000000000000000000000815260206004820152601d60248201527f45524332303a20696e73756666696369656e7420616c6c6f77616e6365000000604482015260640161063f565b610df684848484036108e5565b50505050565b73ffffffffffffffffffffffffffffffffffffffff8316610e9f576040517f08c379a000000000000000000000000000000000000000000000000000000000815260206004820152602560248201527f45524332303a207472616e736665722066726f6d20746865207a65726f20616460448201527f6472657373000000000000000000000000000000000000000000000000000000606482015260840161063f565b73ffffffffffffffffffffffffffffffffffffffff8216610f42576040517f08c379a000000000000000000000000000000000000000000000000000000000815260206004820152602360248201527f45524332303a207472616e7366657220746f20746865207a65726f206164647260448201527f6573730000000000000000000000000000000000000000000000000000000000606482015260840161063f565b73ffffffffffffffffffffffffffffffffffffffff831660009081526020819052604090205481811015610ff8576040517f08c379a000000000000000000000000000000000000000000000000000000000815260206004820152602660248201527f45524332303a207472616e7366657220616d6f756e742065786365656473206260448201527f616c616e63650000000000000000000000000000000000000000000000000000606482015260840161063f565b73ffffffffffffffffffffffffffffffffffffffff848116600081815260208181526040808320878703905593871680835291849020805487019055925185815290927fddf252ad1be2c89b69c2b068fc378daa952ba7f163c4a11628f55a4df523b3ef910160405180910390a3610df6565b73ffffffffffffffffffffffffffffffffffffffff821661110e576040517f08c379a000000000000000000000000000000000000000000000000000000000815260206004820152602160248201527f45524332303a206275726e2066726f6d20746865207a65726f2061646472657360448201527f7300000000000000000000000000000000000000000000000000000000000000606482015260840161063f565b73ffffffffffffffffffffffffffffffffffffffff8216600090815260208190526040902054818110156111c4576040517f08c379a000000000000000000000000000000000000000000000000000000000815260206004820152602260248201527f45524332303a206275726e20616d6f756e7420657863656564732062616c616e60448201527f6365000000000000000000000000000000000000000000000000000000000000606482015260840161063f565b73ffffffffffffffffffffffffffffffffffffffff83166000818152602081815260408083208686039055600280548790039055518581529192917fddf252ad1be2c89b69c2b068fc378daa952ba7f163c4a11628f55a4df523b3ef9101610a8c565b73ffffffffffffffffffffffffffffffffffffffff82166112a4576040517f08c379a000000000000000000000000000000000000000000000000000000000815260206004820152601f60248201527f45524332303a206d696e7420746f20746865207a65726f206164647265737300604482015260640161063f565b80600260008282546112b6919061156b565b909155505073ffffffffffffffffffffffffffffffffffffffff8216600081815260208181526040808320805486019055518481527fddf252ad1be2c89b69c2b068fc378daa952ba7f163c4a11628f55a4df523b3ef910160405180910390a35050565b60055460009060ff161561132c575090565b6104b48261133a565b919050565b60006b204fce5e3e2502611000000061135f6b3243410460ab5908c38e38e3846115cc565b6104b49190611609565b600060208083528351808285015260005b818110156113965785810183015185820160400152820161137a565b5060006040828601015260407fffffffffffffffffffffffffffffffffffffffffffffffffffffffffffffffe0601f8301168501019250505092915050565b803573ffffffffffffffffffffffffffffffffffffffff8116811461133557600080fd5b6000806040838503121561140c57600080fd5b611415836113d5565b946020939093013593505050565b60008060006060848603121561143857600080fd5b611441846113d5565b925061144f602085016113d5565b9150604084013590509250925092565b60006020828403121561147157600080fd5b5035919050565b60006020828403121561148a57600080fd5b610513826113d5565b600080604083850312156114a657600080fd5b823591506114b6602084016113d5565b90509250929050565b600080604083850312156114d257600080fd5b6114db836113d5565b91506114b6602084016113d5565b600181811c908216806114fd57607f821691505b602082108103611536577f4e487b7100000000000000000000000000000000000000000000000000000000600052602260045260246000fd5b50919050565b7f4e487b7100000000000000000000000000000000000000000000000000000000600052601160045260246000fd5b808201808211156104b4576104b461153c565b60006020828403121561159057600080fd5b5051919050565b6000602082840312156115a957600080fd5b8151801515811461051357600080fd5b818103818111156104b4576104b461153c565b6000817fffffffffffffffffffffffffffffffffffffffffffffffffffffffffffffffff04831182151516156116045761160461153c565b500290565b60008261163f577f4e487b7100000000000000000000000000000000000000000000000000000000600052601260045260246000fd5b50049056fea2646970667358221220365c118b6468842c11d28cb30d273590d98401c8a65a5b7ae36b65e133982d6464736f6c63430008100033",
  "linkReferences": {},
  "deployedLinkReferences": {}
}