{
    "_format": "hh-sol-artifact-1",
    "contractName": "Lockup",
    "sourceName": "contracts/Lockup.sol",
    "abi": [
        {
            "inputs": [
                {
                    "internalType": "uint256",
                    "name": "enrollmentPeriod_",
                    "type": "uint256"
                },
                {
                    "internalType": "uint256",
                    "name": "lockDuration_",
                    "type": "uint256"
                },
                {
                    "internalType": "uint256",
                    "name": "totalBonusAmount_",
                    "type": "uint256"
                }
            ],
            "stateMutability": "nonpayable",
            "type": "constructor"
        },
        {
            "inputs": [],
            "name": "AddressAlreadyLockedUp",
            "type": "error"
        },
        {
            "inputs": [],
            "name": "AddressNotAllowedToSendEther",
            "type": "error"
        },
        {
            "inputs": [],
            "name": "CannotCallContractMethodsOnZeroAddress",
            "type": "error"
        },
        {
            "inputs": [],
            "name": "CannotTransferToZeroAddress",
            "type": "error"
        },
        {
            "inputs": [
                {
                    "internalType": "uint256",
                    "name": "tokenID_",
                    "type": "uint256"
                }
            ],
            "name": "ContractDoesNotOwnTokenID",
            "type": "error"
        },
        {
            "inputs": [
                {
                    "internalType": "address",
                    "name": "erc20Address",
                    "type": "address"
                },
                {
                    "internalType": "address",
                    "name": "from",
                    "type": "address"
                },
                {
                    "internalType": "address",
                    "name": "to",
                    "type": "address"
                },
                {
                    "internalType": "uint256",
                    "name": "amount",
                    "type": "uint256"
                }
            ],
            "name": "Erc20TransferFailed",
            "type": "error"
        },
        {
            "inputs": [
                {
                    "internalType": "address",
                    "name": "from",
                    "type": "address"
                },
                {
                    "internalType": "address",
                    "name": "to",
                    "type": "address"
                },
                {
                    "internalType": "uint256",
                    "name": "amount",
                    "type": "uint256"
                }
            ],
            "name": "EthTransferFailed",
            "type": "error"
        },
        {
            "inputs": [],
            "name": "InLockStateRequired",
            "type": "error"
        },
        {
            "inputs": [
                {
                    "internalType": "uint256",
                    "name": "exitValue",
                    "type": "uint256"
                },
                {
                    "internalType": "uint256",
                    "name": "currentBalance",
                    "type": "uint256"
                }
            ],
            "name": "InsufficientBalanceForEarlyExit",
            "type": "error"
        },
        {
            "inputs": [
                {
                    "internalType": "uint256",
                    "name": "withdrawFreeAfter",
                    "type": "uint256"
                },
                {
                    "internalType": "uint256",
                    "name": "endBlock",
                    "type": "uint256"
                }
            ],
            "name": "InvalidPositionWithdrawPeriod",
            "type": "error"
        },
        {
            "inputs": [
                {
                    "internalType": "address",
                    "name": "sender",
                    "type": "address"
                },
                {
                    "internalType": "address",
                    "name": "expected",
                    "type": "address"
                }
            ],
            "name": "OnlyAToken",
            "type": "error"
        },
        {
            "inputs": [
                {
                    "internalType": "address",
                    "name": "sender",
                    "type": "address"
                },
                {
                    "internalType": "address",
                    "name": "expected",
                    "type": "address"
                }
            ],
            "name": "OnlyFactory",
            "type": "error"
        },
        {
            "inputs": [
                {
                    "internalType": "address",
                    "name": "sender",
                    "type": "address"
                },
                {
                    "internalType": "address",
                    "name": "expected",
                    "type": "address"
                }
            ],
            "name": "OnlyPublicStaking",
            "type": "error"
        },
        {
            "inputs": [],
            "name": "OnlyStakingNFTAllowed",
            "type": "error"
        },
        {
            "inputs": [],
            "name": "PayoutSafe",
            "type": "error"
        },
        {
            "inputs": [],
            "name": "PayoutUnsafe",
            "type": "error"
        },
        {
            "inputs": [],
            "name": "PostLockStateNotAllowed",
            "type": "error"
        },
        {
            "inputs": [],
            "name": "PostLockStateRequired",
            "type": "error"
        },
        {
            "inputs": [],
            "name": "PreLockStateNotAllowed",
            "type": "error"
        },
        {
            "inputs": [],
            "name": "PreLockStateRequired",
            "type": "error"
        },
        {
            "inputs": [
                {
                    "internalType": "uint256",
                    "name": "tokenID_",
                    "type": "uint256"
                }
            ],
            "name": "TokenIDAlreadyClaimed",
            "type": "error"
        },
        {
            "inputs": [
                {
                    "internalType": "uint256",
                    "name": "tokenID_",
                    "type": "uint256"
                }
            ],
            "name": "TokenIDNotLocked",
            "type": "error"
        },
        {
            "inputs": [],
            "name": "UserHasNoPosition",
            "type": "error"
        },
        {
            "anonymous": false,
            "inputs": [
                {
                    "indexed": false,
                    "internalType": "address",
                    "name": "to_",
                    "type": "address"
                },
                {
                    "indexed": false,
                    "internalType": "uint256",
                    "name": "tokenID_",
                    "type": "uint256"
                }
            ],
            "name": "EarlyExit",
            "type": "event"
        },
        {
            "anonymous": false,
            "inputs": [
                {
                    "indexed": false,
                    "internalType": "address",
                    "name": "from_",
                    "type": "address"
                },
                {
                    "indexed": false,
                    "internalType": "uint256",
                    "name": "tokenID_",
                    "type": "uint256"
                }
            ],
            "name": "NewLockup",
            "type": "event"
        },
        {
            "inputs": [],
            "name": "FRACTION_RESERVED",
            "outputs": [
                {
                    "internalType": "uint256",
                    "name": "",
                    "type": "uint256"
                }
            ],
            "stateMutability": "view",
            "type": "function"
        },
        {
            "inputs": [],
            "name": "SCALING_FACTOR",
            "outputs": [
                {
                    "internalType": "uint256",
                    "name": "",
                    "type": "uint256"
                }
            ],
            "stateMutability": "view",
            "type": "function"
        },
        {
            "inputs": [],
            "name": "aggregateProfits",
            "outputs": [],
            "stateMutability": "nonpayable",
            "type": "function"
        },
        {
            "inputs": [],
            "name": "collectAllProfits",
            "outputs": [
                {
                    "internalType": "uint256",
                    "name": "payoutEth",
                    "type": "uint256"
                },
                {
                    "internalType": "uint256",
                    "name": "payoutToken",
                    "type": "uint256"
                }
            ],
            "stateMutability": "nonpayable",
            "type": "function"
        },
        {
            "inputs": [
                {
                    "internalType": "uint256",
                    "name": "tokenID_",
                    "type": "uint256"
                }
            ],
            "name": "estimateFinalBonusWithProfits",
            "outputs": [
                {
                    "internalType": "uint256",
                    "name": "positionShares_",
                    "type": "uint256"
                },
                {
                    "internalType": "uint256",
                    "name": "bonusShares_",
                    "type": "uint256"
                },
                {
                    "internalType": "uint256",
                    "name": "payoutEth_",
                    "type": "uint256"
                },
                {
                    "internalType": "uint256",
                    "name": "payoutToken_",
                    "type": "uint256"
                }
            ],
            "stateMutability": "view",
            "type": "function"
        },
        {
            "inputs": [
                {
                    "internalType": "uint256",
                    "name": "tokenID_",
                    "type": "uint256"
                }
            ],
            "name": "estimateProfits",
            "outputs": [
                {
                    "internalType": "uint256",
                    "name": "payoutEth",
                    "type": "uint256"
                },
                {
                    "internalType": "uint256",
                    "name": "payoutToken",
                    "type": "uint256"
                }
            ],
            "stateMutability": "view",
            "type": "function"
        },
        {
            "inputs": [],
            "name": "getBonusPoolAddress",
            "outputs": [
                {
                    "internalType": "address",
                    "name": "",
                    "type": "address"
                }
            ],
            "stateMutability": "view",
            "type": "function"
        },
        {
            "inputs": [],
            "name": "getCurrentNumberOfLockedPositions",
            "outputs": [
                {
                    "internalType": "uint256",
                    "name": "",
                    "type": "uint256"
                }
            ],
            "stateMutability": "view",
            "type": "function"
        },
        {
            "inputs": [
                {
                    "internalType": "uint256",
                    "name": "tokenID_",
                    "type": "uint256"
                }
            ],
            "name": "getIndexByTokenId",
            "outputs": [
                {
                    "internalType": "uint256",
                    "name": "",
                    "type": "uint256"
                }
            ],
            "stateMutability": "view",
            "type": "function"
        },
        {
            "inputs": [],
            "name": "getLockupEndBlock",
            "outputs": [
                {
                    "internalType": "uint256",
                    "name": "",
                    "type": "uint256"
                }
            ],
            "stateMutability": "view",
            "type": "function"
        },
        {
            "inputs": [],
            "name": "getLockupStartBlock",
            "outputs": [
                {
                    "internalType": "uint256",
                    "name": "",
                    "type": "uint256"
                }
            ],
            "stateMutability": "view",
            "type": "function"
        },
        {
            "inputs": [
                {
                    "internalType": "bytes32",
                    "name": "_salt",
                    "type": "bytes32"
                },
                {
                    "internalType": "address",
                    "name": "_factory",
                    "type": "address"
                }
            ],
            "name": "getMetamorphicContractAddress",
            "outputs": [
                {
                    "internalType": "address",
                    "name": "",
                    "type": "address"
                }
            ],
            "stateMutability": "pure",
            "type": "function"
        },
        {
            "inputs": [],
            "name": "getOriginalLockedShares",
            "outputs": [
                {
                    "internalType": "uint256",
                    "name": "",
                    "type": "uint256"
                }
            ],
            "stateMutability": "view",
            "type": "function"
        },
        {
            "inputs": [
                {
                    "internalType": "uint256",
                    "name": "index_",
                    "type": "uint256"
                }
            ],
            "name": "getPositionByIndex",
            "outputs": [
                {
                    "internalType": "uint256",
                    "name": "",
                    "type": "uint256"
                }
            ],
            "stateMutability": "view",
            "type": "function"
        },
        {
            "inputs": [
                {
                    "internalType": "uint256",
                    "name": "amount_",
                    "type": "uint256"
                }
            ],
            "name": "getReservedAmount",
            "outputs": [
                {
                    "internalType": "uint256",
                    "name": "",
                    "type": "uint256"
                }
            ],
            "stateMutability": "pure",
            "type": "function"
        },
        {
            "inputs": [],
            "name": "getReservedPercentage",
            "outputs": [
                {
                    "internalType": "uint256",
                    "name": "",
                    "type": "uint256"
                }
            ],
            "stateMutability": "pure",
            "type": "function"
        },
        {
            "inputs": [],
            "name": "getRewardPoolAddress",
            "outputs": [
                {
                    "internalType": "address",
                    "name": "",
                    "type": "address"
                }
            ],
            "stateMutability": "view",
            "type": "function"
        },
        {
            "inputs": [],
            "name": "getState",
            "outputs": [
                {
                    "internalType": "enum Lockup.State",
                    "name": "",
                    "type": "uint8"
                }
            ],
            "stateMutability": "view",
            "type": "function"
        },
        {
            "inputs": [
                {
                    "internalType": "address",
                    "name": "user_",
                    "type": "address"
                }
            ],
            "name": "getTemporaryRewardBalance",
            "outputs": [
                {
                    "internalType": "uint256",
                    "name": "",
                    "type": "uint256"
                },
                {
                    "internalType": "uint256",
                    "name": "",
                    "type": "uint256"
                }
            ],
            "stateMutability": "view",
            "type": "function"
        },
        {
            "inputs": [],
            "name": "getTotalCurrentSharesLocked",
            "outputs": [
                {
                    "internalType": "uint256",
                    "name": "",
                    "type": "uint256"
                }
            ],
            "stateMutability": "view",
            "type": "function"
        },
        {
            "inputs": [
                {
                    "internalType": "uint256",
                    "name": "tokenID_",
                    "type": "uint256"
                }
            ],
            "name": "lockFromApproval",
            "outputs": [],
            "stateMutability": "nonpayable",
            "type": "function"
        },
        {
            "inputs": [
                {
                    "internalType": "uint256",
                    "name": "tokenID_",
                    "type": "uint256"
                },
                {
                    "internalType": "address",
                    "name": "tokenOwner_",
                    "type": "address"
                }
            ],
            "name": "lockFromTransfer",
            "outputs": [],
            "stateMutability": "nonpayable",
            "type": "function"
        },
        {
            "inputs": [
                {
                    "internalType": "address",
                    "name": "",
                    "type": "address"
                },
                {
                    "internalType": "address",
                    "name": "from_",
                    "type": "address"
                },
                {
                    "internalType": "uint256",
                    "name": "tokenID_",
                    "type": "uint256"
                },
                {
                    "internalType": "bytes",
                    "name": "",
                    "type": "bytes"
                }
            ],
            "name": "onERC721Received",
            "outputs": [
                {
                    "internalType": "bytes4",
                    "name": "",
                    "type": "bytes4"
                }
            ],
            "stateMutability": "nonpayable",
            "type": "function"
        },
        {
            "inputs": [
                {
                    "internalType": "uint256",
                    "name": "tokenID_",
                    "type": "uint256"
                }
            ],
            "name": "ownerOf",
            "outputs": [
                {
                    "internalType": "address payable",
                    "name": "",
                    "type": "address"
                }
            ],
            "stateMutability": "view",
            "type": "function"
        },
        {
            "inputs": [],
            "name": "payoutSafe",
            "outputs": [
                {
                    "internalType": "bool",
                    "name": "",
                    "type": "bool"
                }
            ],
            "stateMutability": "view",
            "type": "function"
        },
        {
            "inputs": [
                {
                    "internalType": "address",
                    "name": "acct_",
                    "type": "address"
                }
            ],
            "name": "tokenOf",
            "outputs": [
                {
                    "internalType": "uint256",
                    "name": "",
                    "type": "uint256"
                }
            ],
            "stateMutability": "view",
            "type": "function"
        },
        {
            "inputs": [
                {
                    "internalType": "address",
                    "name": "to_",
                    "type": "address"
                },
                {
                    "internalType": "bool",
                    "name": "stakeExit_",
                    "type": "bool"
                }
            ],
            "name": "unlock",
            "outputs": [
                {
                    "internalType": "uint256",
                    "name": "payoutEth",
                    "type": "uint256"
                },
                {
                    "internalType": "uint256",
                    "name": "payoutToken",
                    "type": "uint256"
                }
            ],
            "stateMutability": "nonpayable",
            "type": "function"
        },
        {
            "inputs": [
                {
                    "internalType": "uint256",
                    "name": "exitValue_",
                    "type": "uint256"
                },
                {
                    "internalType": "bool",
                    "name": "stakeExit_",
                    "type": "bool"
                }
            ],
            "name": "unlockEarly",
            "outputs": [
                {
                    "internalType": "uint256",
                    "name": "payoutEth",
                    "type": "uint256"
                },
                {
                    "internalType": "uint256",
                    "name": "payoutToken",
                    "type": "uint256"
                }
            ],
            "stateMutability": "nonpayable",
            "type": "function"
        },
        {
            "stateMutability": "payable",
            "type": "receive"
        }
    ],
    "bytecode": "0x6101606040523480156200001257600080fd5b50604051620053e1380380620053e18339810160408190526200003591620002a0565b336080526200005e6c5075626c69635374616b696e6760981b6200005860805190565b620001fd565b6001600160a01b0390811660a05260805160405163f39ec1f760e01b81526520aa37b5b2b760d11b600482015291169063f39ec1f790602401602060405180830381865afa158015620000b5573d6000803e3d6000fd5b505050506040513d601f19601f82011682018060405250810190620000db9190620002cf565b6001600160a01b031660c0526000620000f360c05190565b60805183604051620001059062000292565b6001600160a01b0393841681529290911660208301526040820152606001604051809103906000f08015801562000140573d6000803e3d6000fd5b509050806001600160a01b031660e0816001600160a01b031681525050806001600160a01b031663b5bd13206040518163ffffffff1660e01b8152600401602060405180830381865afa1580156200019c573d6000803e3d6000fd5b505050506040513d601f19601f82011682018060405250810190620001c29190620002cf565b6001600160a01b031661010052620001db844362000301565b610120819052620001ee90849062000301565b61014052506200032392505050565b6040517fff0000000000000000000000000000000000000000000000000000000000000060208201526001600160601b0319606083901b166021820152603581018390527f1c0bf703a3415cada9785e89e9d70314c3111ae7d8e04f33bb42eb1d264088be605582018190526000916075016040516020818303038152906040528051906020012060001c9150505b92915050565b6121ec80620031f583390190565b600080600060608486031215620002b657600080fd5b8351925060208401519150604084015190509250925092565b600060208284031215620002e257600080fd5b81516001600160a01b0381168114620002fa57600080fd5b9392505050565b808201808211156200028c57634e487b7160e01b600052601160045260246000fd5b60805160a05160c05160e051610100516101205161014051612db66200043f60003960008181610400015281816118c6015281816127fe015261285201526000818161077a015261189801526000818161069701528181610f8101526115fc015260008181610219015281816106f701528181611059015281816113240152818161213e015261219201526000818161097c01528181611e4f0152818161200f015261211d0152600081816101d8015281816108b5015281816109b801528181610ab201528181610dae01528181610e4a015281816110e5015281816117f40152818161198e01528181611d6c01528181611e8b01528181611f430152818161208e0152818161230b015261275b015260005050612db66000f3fe6080604052600436106101bb5760003560e01c80636352211e116100ec578063b30c7d7f1161008a578063cf6c533011610064578063cf6c5330146106e8578063e1eeec3e1461071b578063ed190bb01461076b578063ef4cadc51461079e57600080fd5b8063b30c7d7f14610668578063b5bd132014610688578063bf0f727c146106bb57600080fd5b80638905564c116100c65780638905564c14610614578063a0e91ed214610629578063a593fc781461063e578063a6c287561461065357600080fd5b80636352211e146104d75780637fc4e4b11461051c5780638653a4651461053157600080fd5b80631dd8abd01161015957806339350ccc1161013357806339350ccc146104555780633bd769e51461047557806342ec38e21461048a57806344ff7dc3146104aa57600080fd5b80631dd8abd0146103d15780631fe52cb2146103f1578063239973d21461042e57600080fd5b8063150b7a0211610195578063150b7a02146102fe5780631865c57d1461034f578063187980f1146103715780631d2ad0171461039157600080fd5b8063089a47821461027a5780630d40bccb146102b457806314567f37146102de57600080fd5b36610275573373ffffffffffffffffffffffffffffffffffffffff7f0000000000000000000000000000000000000000000000000000000000000000161480159061023c57503373ffffffffffffffffffffffffffffffffffffffff7f00000000000000000000000000000000000000000000000000000000000000001614155b15610273576040517f525e9a0200000000000000000000000000000000000000000000000000000000815260040160405180910390fd5b005b600080fd5b34801561028657600080fd5b5061029a6102953660046128cc565b6107ba565b604080519283526020830191909152015b60405180910390f35b3480156102c057600080fd5b506008546102ce9060ff1681565b60405190151581526020016102ab565b3480156102ea57600080fd5b506102736102f936600461291e565b610ce3565b34801561030a57600080fd5b5061031e610319366004612972565b610d43565b6040517fffffffff0000000000000000000000000000000000000000000000000000000090911681526020016102ab565b34801561035b57600080fd5b50610364610e39565b6040516102ab9190612a9f565b34801561037d57600080fd5b5061027361038c366004612ae0565b610e48565b34801561039d57600080fd5b506103b16103ac366004612ae0565b610efa565b6040805194855260208501939093529183015260608201526080016102ab565b3480156103dd57600080fd5b5061029a6103ec366004612af9565b61120c565b3480156103fd57600080fd5b507f00000000000000000000000000000000000000000000000000000000000000005b6040519081526020016102ab565b34801561043a57600080fd5b506000546fffffffffffffffffffffffffffffffff16610420565b34801561046157600080fd5b50610420610470366004612ae0565b61141b565b34801561048157600080fd5b5061042061144b565b34801561049657600080fd5b506104206104a5366004612b27565b611476565b3480156104b657600080fd5b506104206104c5366004612ae0565b60009081526003602052604090205490565b3480156104e357600080fd5b506104f76104f2366004612ae0565b6114a1565b60405173ffffffffffffffffffffffffffffffffffffffff90911681526020016102ab565b34801561052857600080fd5b506102736114cb565b34801561053d57600080fd5b506104f761054c36600461291e565b6040517fff0000000000000000000000000000000000000000000000000000000000000060208201527fffffffffffffffffffffffffffffffffffffffff000000000000000000000000606083901b166021820152603581018390527f1c0bf703a3415cada9785e89e9d70314c3111ae7d8e04f33bb42eb1d264088be60558201819052600091607501604080517fffffffffffffffffffffffffffffffffffffffffffffffffffffffffffffffe08184030181529190528051602090910120949350505050565b34801561062057600080fd5b50600554610420565b34801561063557600080fd5b5061029a61170e565b34801561064a57600080fd5b5061042061177c565b34801561065f57600080fd5b50610420611792565b34801561067457600080fd5b5061029a610683366004612ae0565b6117a4565b34801561069457600080fd5b507f00000000000000000000000000000000000000000000000000000000000000006104f7565b3480156106c757600080fd5b506104206106d6366004612ae0565b60009081526004602052604090205490565b3480156106f457600080fd5b507f00000000000000000000000000000000000000000000000000000000000000006104f7565b34801561072757600080fd5b5061029a610736366004612b27565b73ffffffffffffffffffffffffffffffffffffffff166000908152600660209081526040808320546007909252909120549091565b34801561077757600080fd5b507f0000000000000000000000000000000000000000000000000000000000000000610420565b3480156107aa57600080fd5b50610420670de0b6b3a764000081565b60008060026107c7611894565b60028111156107d8576107d8612a70565b0361080f576040517fab2d593500000000000000000000000000000000000000000000000000000000815260040160405180910390fd5b60006108196118f8565b9050600061082682611947565b905080861115610871576040517fe33b0e3400000000000000000000000000000000000000000000000000000000815260048101879052602481018290526044015b60405180910390fd5b6040517f42966c680000000000000000000000000000000000000000000000000000000081526004810183905273ffffffffffffffffffffffffffffffffffffffff7f000000000000000000000000000000000000000000000000000000000000000016906342966c689060240160408051808303816000875af11580156108fd573d6000803e3d6000fd5b505050506040513d601f19601f820116820180604052508101906109219190612b44565b90945092506109308184612b97565b600083815260016020526040812080547fffffffffffffffffffffffff0000000000000000000000000000000000000000169055909350806109728884612b97565b90508015610b86577f000000000000000000000000000000000000000000000000000000000000000073ffffffffffffffffffffffffffffffffffffffff1663095ea7b37f00000000000000000000000000000000000000000000000000000000000000006040517fffffffff0000000000000000000000000000000000000000000000000000000060e084901b16815273ffffffffffffffffffffffffffffffffffffffff9091166004820152602481018490526044016020604051808303816000875af1158015610a49573d6000803e3d6000fd5b505050506040513d601f19601f82011682018060405250810190610a6d9190612baa565b506040517fa0712d680000000000000000000000000000000000000000000000000000000081526004810182905273ffffffffffffffffffffffffffffffffffffffff7f0000000000000000000000000000000000000000000000000000000000000000169063a0712d68906024016020604051808303816000875af1158015610afb573d6000803e3d6000fd5b505050506040513d601f19601f82011682018060405250810190610b1f9190612bc7565b600081815260016020908152604080832080547fffffffffffffffffffffffff000000000000000000000000000000000000000016331790558783526004808352818420805490859055808552600384528285208690558585529252909120559150610b8f565b610b8f84611a04565b336000908152600260209081526040808320859055805180820190915291546fffffffffffffffffffffffffffffffff808216845270010000000000000000000000000000000090910416908201526001610be8611894565b6002811115610bf957610bf9612a70565b148015610c1a575060208101516fffffffffffffffffffffffffffffffff16155b15610c395780516fffffffffffffffffffffffffffffffff1660208201525b8881600001818151610c4b9190612be0565b6fffffffffffffffffffffffffffffffff9081169091528251602084015182167001000000000000000000000000000000000291161760005550610c98610c8f3390565b88888c8c611ab4565b60408051338152602081018990529299509097507fd48329b60fb879cd966b0702df731363e4402bac1b144c525e02dd02b9873485910160405180910390a150505050509250929050565b6000610ced611894565b6002811115610cfe57610cfe612a70565b14610d35576040517fb12988f500000000000000000000000000000000000000000000000000000000815260040160405180910390fd5b610d3f8282611bcd565b5050565b600080610d4e611894565b6002811115610d5f57610d5f612a70565b14610d96576040517fb12988f500000000000000000000000000000000000000000000000000000000815260040160405180910390fd5b3373ffffffffffffffffffffffffffffffffffffffff7f00000000000000000000000000000000000000000000000000000000000000001614610e05576040517f4b07173500000000000000000000000000000000000000000000000000000000815260040160405180910390fd5b610e0f8385611bcd565b507f150b7a0200000000000000000000000000000000000000000000000000000000949350505050565b6000610e43611894565b905090565b7f00000000000000000000000000000000000000000000000000000000000000006040517f42842e0e0000000000000000000000000000000000000000000000000000000081523360048201523060248201526044810183905273ffffffffffffffffffffffffffffffffffffffff91909116906342842e0e90606401600060405180830381600087803b158015610edf57600080fd5b505af1158015610ef3573d6000803e3d6000fd5b5050505050565b600080600080610f0985611bea565b610f1285611947565b9350600080610f1f611c4b565b90925090506000610f2e611894565b6002811115610f3f57610f3f612a70565b03611009576040517f0aff159a0000000000000000000000000000000000000000000000000000000081526004810183905260248101829052604481018790527f000000000000000000000000000000000000000000000000000000000000000073ffffffffffffffffffffffffffffffffffffffff1690630aff159a90606401606060405180830381865afa158015610fdd573d6000803e3d6000fd5b505050506040513d601f19601f820116820180604052508101906110019190612c09565b919650945092505b6040517f60df82970000000000000000000000000000000000000000000000000000000081526004810183905260248101879052600090819073ffffffffffffffffffffffffffffffffffffffff7f000000000000000000000000000000000000000000000000000000000000000016906360df8297906044016040805180830381865afa15801561109f573d6000803e3d6000fd5b505050506040513d601f19601f820116820180604052508101906110c39190612b44565b90925090506110d28287612c37565b95506110de8186612c37565b94506000807f000000000000000000000000000000000000000000000000000000000000000073ffffffffffffffffffffffffffffffffffffffff16634fc8638f8c6040518263ffffffff1660e01b815260040161113e91815260200190565b6040805180830381865afa15801561115a573d6000803e3d6000fd5b505050506040513d601f19601f8201168201806040525081019061117e9190612b44565b9150915060008061118f8484611cc5565b909250905061119e828b612c37565b99506111aa818a612c37565b9850505050506000806111e26107368c60009081526001602052604090205473ffffffffffffffffffffffffffffffffffffffff1690565b90925090506111f18289612c37565b97506111fd8188612c37565b96505050505050509193509193565b6000806002611219611894565b600281111561122a5761122a612a70565b14611261576040517f10ca2bad00000000000000000000000000000000000000000000000000000000815260040160405180910390fd5b60085460ff1661129d576040517f6d49151100000000000000000000000000000000000000000000000000000000815260040160405180910390fd5b60006112a76118f8565b905060006112b482611947565b6005549091506001146112c78333611d23565b600080546040517fa77ead160000000000000000000000000000000000000000000000000000000081526fffffffffffffffffffffffffffffffff90911660048201526024810186905284151560448201529297509095509081907f000000000000000000000000000000000000000000000000000000000000000073ffffffffffffffffffffffffffffffffffffffff169063a77ead169060640160408051808303816000875af1158015611381573d6000803e3d6000fd5b505050506040513d601f19601f820116820180604052508101906113a59190612b44565b90925090506113b48288612c37565b96506113c08187612c37565b33600090815260066020908152604080832080546007909352908320805491849055929092559197506113f3828a612c37565b98506113ff8189612c37565b975061140d8b8a8a8d611e47565b505050505050509250929050565b6000670de0b6b3a7640000611431600582612c4a565b61143b9084612c85565b6114459190612c4a565b92915050565b6000670de0b6b3a7640000611461600582612c4a565b61146c906064612c85565b610e439190612c4a565b73ffffffffffffffffffffffffffffffffffffffff8116600090815260026020526040812054611445565b60008181526001602052604081205473ffffffffffffffffffffffffffffffffffffffff16611445565b60085460ff1615611508576040517f0e672def00000000000000000000000000000000000000000000000000000000815260040160405180910390fd5b6002611512611894565b600281111561152357611523612a70565b1461155a576040517f10ca2bad00000000000000000000000000000000000000000000000000000000815260040160405180910390fd5b60005a905060008060095460016115719190612c37565b90505b6000818152600360205260409020548015158061167657600880547fffffffffffffffffffffffffffffffffffffffffffffffffffffffffffffff001660011790556000806115c1611c4b565b6040517f9cefeafb000000000000000000000000000000000000000000000000000000008152600481018390526024810182905291935091507f000000000000000000000000000000000000000000000000000000000000000073ffffffffffffffffffffffffffffffffffffffff1690639cefeafb90604401600060405180830381600087803b15801561165557600080fd5b505af1158015611669573d6000803e3d6000fd5b5050505050505050611707565b60008281526001602052604090205473ffffffffffffffffffffffffffffffffffffffff166116a58184612045565b505060005a9050856000036116e0576116be8188612b97565b95506116cb866005612c85565b95506116d986612710612c37565b95506116f0565b8581116116f05750505050611707565b5050505080806116ff90612cc2565b915050611574565b6009555050565b600080600261171b611894565b600281111561172c5761172c612a70565b03611763576040517fab2d593500000000000000000000000000000000000000000000000000000000815260040160405180910390fd5b6117743361176f6118f8565b612045565b915091509091565b61178f6005670de0b6b3a7640000612c4a565b81565b60008061179d611c4b565b9392505050565b6000806117b083611bea565b6040517f4fc8638f0000000000000000000000000000000000000000000000000000000081526004810184905273ffffffffffffffffffffffffffffffffffffffff7f00000000000000000000000000000000000000000000000000000000000000001690634fc8638f906024016040805180830381865afa15801561183a573d6000803e3d6000fd5b505050506040513d601f19601f8201168201806040525081019061185e9190612b44565b90925090506000806118708484611cc5565b909250905061187f8285612b97565b935061188b8184612b97565b92505050915091565b60007f00000000000000000000000000000000000000000000000000000000000000004310156118c45750600090565b7f00000000000000000000000000000000000000000000000000000000000000004310156118f25750600190565b50600290565b3360009081526002602052604081205480600003611942576040517f8efe8f0100000000000000000000000000000000000000000000000000000000815260040160405180910390fd5b919050565b6040517feb02c3010000000000000000000000000000000000000000000000000000000081526004810182905260009073ffffffffffffffffffffffffffffffffffffffff7f0000000000000000000000000000000000000000000000000000000000000000169063eb02c3019060240160a060405180830381865afa1580156119d5573d6000803e3d6000fd5b505050506040513d601f19601f820116820180604052508101906119f99190612cfa565b509295945050505050565b6005546000819003611a14575050565b80600103611a4557506000908152600460209081526040808320805490849055835260039091528120819055600555565b60008181526003602052604081208054919055611a63600183612b97565b600555828103611a80576000908152600460205260408120555050565b6000838152600460208181526040808420805490859055808552600383528185208690558585529290915290912055505050565b6000806000611ac1611894565b60085488945087935090915060ff16600080611add8686611cc5565b9092509050611aec8287612b97565b9550611af88186612b97565b9450611b048282612118565b82158015611b2357506002846002811115611b2157611b21612a70565b145b15611ba65773ffffffffffffffffffffffffffffffffffffffff8b1660009081526006602052604081208054889290611b5d908490612c37565b909155505073ffffffffffffffffffffffffffffffffffffffff8b1660009081526007602052604081208054879290611b97908490612c37565b90915550611bc3945050505050565b611bb08886612c37565b9450611bbe8b87878a611e47565b505050505b9550959350505050565b611bd78282612209565b611be0826122c5565b610d3f82826123c6565b60008181526001602052604090205473ffffffffffffffffffffffffffffffffffffffff16611c48576040517ff85aa73400000000000000000000000000000000000000000000000000000000815260048101829052602401610868565b50565b60408051808201909152600080546fffffffffffffffffffffffffffffffff8082168085527001000000000000000000000000000000009092041660208401819052919283929091908303611ca1578151611ca7565b81602001515b6fffffffffffffffffffffffffffffffff9182169591169350915050565b600080670de0b6b3a7640000611cdc600582612c4a565b611ce69086612c85565b611cf09190612c4a565b9150670de0b6b3a7640000611d06600582612c4a565b611d109085612c85565b611d1a9190612c4a565b90509250929050565b6040517f42966c6800000000000000000000000000000000000000000000000000000000815260048101839052600090819073ffffffffffffffffffffffffffffffffffffffff7f000000000000000000000000000000000000000000000000000000000000000016906342966c689060240160408051808303816000875af1158015611db4573d6000803e3d6000fd5b505050506040513d601f19601f82011682018060405250810190611dd89190612b44565b9092509050611de684611a04565b73ffffffffffffffffffffffffffffffffffffffff9092166000908152600260209081526040808320839055948252600190529290922080547fffffffffffffffffffffffff00000000000000000000000000000000000000001690559091565b801561200a577f000000000000000000000000000000000000000000000000000000000000000073ffffffffffffffffffffffffffffffffffffffff1663095ea7b37f00000000000000000000000000000000000000000000000000000000000000006040517fffffffff0000000000000000000000000000000000000000000000000000000060e084901b16815273ffffffffffffffffffffffffffffffffffffffff9091166004820152602481018590526044016020604051808303816000875af1158015611f1c573d6000803e3d6000fd5b505050506040513d601f19601f82011682018060405250810190611f409190612baa565b507f00000000000000000000000000000000000000000000000000000000000000006040517f2baf2acb00000000000000000000000000000000000000000000000000000000815273ffffffffffffffffffffffffffffffffffffffff868116600483015260248201859052600060448301529190911690632baf2acb906064016020604051808303816000875af1158015611fe0573d6000803e3d6000fd5b505050506040513d601f19601f820116820180604052508101906120049190612bc7565b50612035565b6120357f000000000000000000000000000000000000000000000000000000000000000085846124e0565b61203f848461263d565b50505050565b6040517f0df4b2dd00000000000000000000000000000000000000000000000000000000815260048101829052600090819073ffffffffffffffffffffffffffffffffffffffff7f00000000000000000000000000000000000000000000000000000000000000001690630df4b2dd9060240160408051808303816000875af11580156120d6573d6000803e3d6000fd5b505050506040513d601f19601f820116820180604052508101906120fa9190612b44565b909250905061210d848383600080611ab4565b915091509250929050565b6121637f00000000000000000000000000000000000000000000000000000000000000007f0000000000000000000000000000000000000000000000000000000000000000836124e0565b6040517fb6b55f25000000000000000000000000000000000000000000000000000000008152600481018290527f000000000000000000000000000000000000000000000000000000000000000073ffffffffffffffffffffffffffffffffffffffff169063b6b55f259084906024016000604051808303818588803b1580156121ec57600080fd5b505af1158015612200573d6000803e3d6000fd5b50505050505050565b60008281526001602052604090205473ffffffffffffffffffffffffffffffffffffffff1615612268576040517fd9edd04700000000000000000000000000000000000000000000000000000000815260048101839052602401610868565b73ffffffffffffffffffffffffffffffffffffffff811660009081526002602052604090205415610d3f576040517fa616504400000000000000000000000000000000000000000000000000000000815260040160405180910390fd5b6040517f6352211e00000000000000000000000000000000000000000000000000000000815260048101829052309073ffffffffffffffffffffffffffffffffffffffff7f00000000000000000000000000000000000000000000000000000000000000001690636352211e90602401602060405180830381865afa158015612352573d6000803e3d6000fd5b505050506040513d601f19601f820116820180604052508101906123769190612d3a565b73ffffffffffffffffffffffffffffffffffffffff1614611c48576040517f45131cda00000000000000000000000000000000000000000000000000000000815260048101829052602401610868565b60006123d183612755565b60008054919250829181906123f99084906fffffffffffffffffffffffffffffffff16612d57565b82546fffffffffffffffffffffffffffffffff9182166101009390930a92830291909202199091161790555073ffffffffffffffffffffffffffffffffffffffff821660008181526002602090815260408083208790558683526001909152902080547fffffffffffffffffffffffff000000000000000000000000000000000000000016909117905561248c83612885565b6040805173ffffffffffffffffffffffffffffffffffffffff84168152602081018590527f737fabc26fafc74f523485e7fe4e50fc50cf8e93822e60768c66970d8a19a534910160405180910390a1505050565b806000036124ed57505050565b73ffffffffffffffffffffffffffffffffffffffff831661253a576040517f2518928d00000000000000000000000000000000000000000000000000000000815260040160405180910390fd5b6040517fa9059cbb00000000000000000000000000000000000000000000000000000000815273ffffffffffffffffffffffffffffffffffffffff8381166004830152602482018390526000919085169063a9059cbb906044016020604051808303816000875af11580156125b3573d6000803e3d6000fd5b505050506040513d601f19601f820116820180604052508101906125d79190612baa565b90508061203f576040517ff0798c5100000000000000000000000000000000000000000000000000000000815273ffffffffffffffffffffffffffffffffffffffff80861660048301523060248301528416604482015260648101839052608401610868565b80600003612649575050565b73ffffffffffffffffffffffffffffffffffffffff8216612696576040517f6f5ec9ea00000000000000000000000000000000000000000000000000000000815260040160405180910390fd5b604051829060009073ffffffffffffffffffffffffffffffffffffffff83169084908381818185875af1925050503d80600081146126f0576040519150601f19603f3d011682016040523d82523d6000602084013e6126f5565b606091505b505090508061203f576040517fb250066300000000000000000000000000000000000000000000000000000000815230600482015273ffffffffffffffffffffffffffffffffffffffff8516602482015260448101849052606401610868565b600080807f000000000000000000000000000000000000000000000000000000000000000073ffffffffffffffffffffffffffffffffffffffff1663eb02c301856040518263ffffffff1660e01b81526004016127b491815260200190565b60a060405180830381865afa1580156127d1573d6000803e3d6000fd5b505050506040513d601f19601f820116820180604052508101906127f59190612cfa565b505092505091507f0000000000000000000000000000000000000000000000000000000000000000811061287e576040517ffddbcf09000000000000000000000000000000000000000000000000000000008152600481018290527f00000000000000000000000000000000000000000000000000000000000000006024820152604401610868565b5092915050565b600060055460016128969190612c37565b6000818152600360209081526040808320869055948252600490529290922082905550600555565b8015158114611c4857600080fd5b600080604083850312156128df57600080fd5b8235915060208301356128f1816128be565b809150509250929050565b73ffffffffffffffffffffffffffffffffffffffff81168114611c4857600080fd5b6000806040838503121561293157600080fd5b8235915060208301356128f1816128fc565b7f4e487b7100000000000000000000000000000000000000000000000000000000600052604160045260246000fd5b6000806000806080858703121561298857600080fd5b8435612993816128fc565b935060208501356129a3816128fc565b925060408501359150606085013567ffffffffffffffff808211156129c757600080fd5b818701915087601f8301126129db57600080fd5b8135818111156129ed576129ed612943565b604051601f82017fffffffffffffffffffffffffffffffffffffffffffffffffffffffffffffffe0908116603f01168101908382118183101715612a3357612a33612943565b816040528281528a6020848701011115612a4c57600080fd5b82602086016020830137600060208483010152809550505050505092959194509250565b7f4e487b7100000000000000000000000000000000000000000000000000000000600052602160045260246000fd5b6020810160038310612ada577f4e487b7100000000000000000000000000000000000000000000000000000000600052602160045260246000fd5b91905290565b600060208284031215612af257600080fd5b5035919050565b60008060408385031215612b0c57600080fd5b8235612b17816128fc565b915060208301356128f1816128be565b600060208284031215612b3957600080fd5b813561179d816128fc565b60008060408385031215612b5757600080fd5b505080516020909101519092909150565b7f4e487b7100000000000000000000000000000000000000000000000000000000600052601160045260246000fd5b8181038181111561144557611445612b68565b600060208284031215612bbc57600080fd5b815161179d816128be565b600060208284031215612bd957600080fd5b5051919050565b6fffffffffffffffffffffffffffffffff82811682821603908082111561287e5761287e612b68565b600080600060608486031215612c1e57600080fd5b8351925060208401519150604084015190509250925092565b8082018082111561144557611445612b68565b600082612c80577f4e487b7100000000000000000000000000000000000000000000000000000000600052601260045260246000fd5b500490565b6000817fffffffffffffffffffffffffffffffffffffffffffffffffffffffffffffffff0483118215151615612cbd57612cbd612b68565b500290565b60007fffffffffffffffffffffffffffffffffffffffffffffffffffffffffffffffff8203612cf357612cf3612b68565b5060010190565b600080600080600060a08688031215612d1257600080fd5b5050835160208501516040860151606087015160809097015192989197509594509092509050565b600060208284031215612d4c57600080fd5b815161179d816128fc565b6fffffffffffffffffffffffffffffffff81811683821601908082111561287e5761287e612b6856fea26469706673582212207aa4cffc164f3346d18478985ff50779cb175a29b4d697488c827c3204a75f0464736f6c6343000810003360e060405234801561001057600080fd5b506040516121ec3803806121ec83398101604081905261002f916100cd565b8133308360405161003f906100a4565b6001600160a01b0394851681529284166020840152921660408201526060810191909152608001604051809103906000f080158015610082573d6000803e3d6000fd5b506001600160a01b0390811660c0523360a05292909216608052506101099050565b61173480610ab883390190565b80516001600160a01b03811681146100c857600080fd5b919050565b6000806000606084860312156100e257600080fd5b6100eb846100b1565b92506100f9602085016100b1565b9150604084015190509250925092565b60805160a05160c0516109576101616000396000818160fd015261045301526000818161016601528181610215015281816103a3015281816103cd01526104120152600081816102e6015261038201526109576000f3fe6080604052600436106100705760003560e01c8063b5bd13201161004e578063b5bd1320146100ee578063b6b55f2514610142578063cfbb72e014610157578063f1d9f88b1461018a57600080fd5b806360df8297146100755780638a9118c0146100af578063a77ead16146100ce575b600080fd5b34801561008157600080fd5b5061009561009036600461079f565b61019f565b604080519283526020830191909152015b60405180910390f35b3480156100bb57600080fd5b506000545b6040519081526020016100a6565b3480156100da57600080fd5b506100956100e93660046107d2565b6101fa565b3480156100fa57600080fd5b507f00000000000000000000000000000000000000000000000000000000000000005b60405173ffffffffffffffffffffffffffffffffffffffff90911681526020016100a6565b61015561015036600461080b565b6103fa565b005b34801561016357600080fd5b507f000000000000000000000000000000000000000000000000000000000000000061011d565b34801561019657600080fd5b506001546100c0565b6000808315806101ae57508383115b156101e5576040517fa96b2ea000000000000000000000000000000000000000000000000000000000815260040160405180910390fd5b6101ef84846104df565b915091509250929050565b6000803373ffffffffffffffffffffffffffffffffffffffff7f0000000000000000000000000000000000000000000000000000000000000000161461026c576040517f52177e1400000000000000000000000000000000000000000000000000000000815260040160405180910390fd5b84158061027857508484115b156102af576040517fa96b2ea000000000000000000000000000000000000000000000000000000000815260040160405180910390fd5b821561036d576040517f70a082310000000000000000000000000000000000000000000000000000000081523060048201524792507f000000000000000000000000000000000000000000000000000000000000000073ffffffffffffffffffffffffffffffffffffffff16906370a0823190602401602060405180830381865afa158015610342573d6000803e3d6000fd5b505050506040513d601f19601f820116820180604052508101906103669190610824565b905061037d565b61037785856104df565b90925090505b6103c87f00000000000000000000000000000000000000000000000000000000000000007f00000000000000000000000000000000000000000000000000000000000000008361051f565b6103f27f000000000000000000000000000000000000000000000000000000000000000083610687565b935093915050565b3373ffffffffffffffffffffffffffffffffffffffff7f0000000000000000000000000000000000000000000000000000000000000000161480159061047657503373ffffffffffffffffffffffffffffffffffffffff7f00000000000000000000000000000000000000000000000000000000000000001614155b156104ad576040517f5771207d00000000000000000000000000000000000000000000000000000000815260040160405180910390fd5b80600160008282546104bf919061086c565b92505081905550346000808282546104d7919061086c565b909155505050565b60008083836000546104f19190610885565b6104fb91906108c2565b9150838360015461050c9190610885565b61051691906108c2565b90509250929050565b8060000361052c57505050565b73ffffffffffffffffffffffffffffffffffffffff8316610579576040517f2518928d00000000000000000000000000000000000000000000000000000000815260040160405180910390fd5b6040517fa9059cbb00000000000000000000000000000000000000000000000000000000815273ffffffffffffffffffffffffffffffffffffffff8381166004830152602482018390526000919085169063a9059cbb906044016020604051808303816000875af11580156105f2573d6000803e3d6000fd5b505050506040513d601f19601f8201168201806040525081019061061691906108fd565b905080610681576040517ff0798c5100000000000000000000000000000000000000000000000000000000815273ffffffffffffffffffffffffffffffffffffffff808616600483015230602483015284166044820152606481018390526084015b60405180910390fd5b50505050565b80600003610693575050565b73ffffffffffffffffffffffffffffffffffffffff82166106e0576040517f6f5ec9ea00000000000000000000000000000000000000000000000000000000815260040160405180910390fd5b604051829060009073ffffffffffffffffffffffffffffffffffffffff83169084908381818185875af1925050503d806000811461073a576040519150601f19603f3d011682016040523d82523d6000602084013e61073f565b606091505b5050905080610681576040517fb250066300000000000000000000000000000000000000000000000000000000815230600482015273ffffffffffffffffffffffffffffffffffffffff8516602482015260448101849052606401610678565b600080604083850312156107b257600080fd5b50508035926020909101359150565b80151581146107cf57600080fd5b50565b6000806000606084860312156107e757600080fd5b83359250602084013591506040840135610800816107c1565b809150509250925092565b60006020828403121561081d57600080fd5b5035919050565b60006020828403121561083657600080fd5b5051919050565b7f4e487b7100000000000000000000000000000000000000000000000000000000600052601160045260246000fd5b8082018082111561087f5761087f61083d565b92915050565b6000817fffffffffffffffffffffffffffffffffffffffffffffffffffffffffffffffff04831182151516156108bd576108bd61083d565b500290565b6000826108f8577f4e487b7100000000000000000000000000000000000000000000000000000000600052601260045260246000fd5b500490565b60006020828403121561090f57600080fd5b815161091a816107c1565b939250505056fea2646970667358221220fc4a95f62f4296c20fc64e185792a2926852ff30f198f4b91c910deff7fa9cc264736f6c634300081000336101606040523480156200001257600080fd5b5060405162001734380380620017348339810160408190526200003591620001d7565b6001600160a01b038416608081905260405163f39ec1f760e01b81526520aa37b5b2b760d11b600482015263f39ec1f790602401602060405180830381865afa15801562000087573d6000803e3d6000fd5b505050506040513d601f19601f82011682018060405250810190620000ad919062000229565b6001600160a01b031660a0526200016a6c5075626c69635374616b696e6760981b620000d860805190565b6040517fff0000000000000000000000000000000000000000000000000000000000000060208201526001600160601b0319606083901b166021820152603581018390527f1c0bf703a3415cada9785e89e9d70314c3111ae7d8e04f33bb42eb1d264088be6055820181905260009160750160408051601f198184030181529190528051602090910120949350505050565b6001600160a01b031660c05262000192692337bab73230ba34b7b760b11b620000d860805190565b6001600160a01b0390811660e05261010091909152918216610120521661014052506200024e565b80516001600160a01b0381168114620001d257600080fd5b919050565b60008060008060808587031215620001ee57600080fd5b620001f985620001ba565b93506200020960208601620001ba565b92506200021960408601620001ba565b6060959095015193969295505050565b6000602082840312156200023c57600080fd5b6200024782620001ba565b9392505050565b60805160a05160c05160e051610100516101205161014051611423620003116000396000818161035f01528181610b750152610ba5015260008181610392015261096301526000818161071f01528181610ae90152610e3f01526000610dfd01526000818160d20152818161045c015281816107a00152818161089d0152610a3e01526000818161066801528181610b5101528181610c4101528181610d010152610d43015260008181610590015281816105f80152610d2201526114236000f3fe6080604052600436106100b55760003560e01c80639cefeafb11610069578063cfbb72e01161004e578063cfbb72e014610383578063ef4cadc5146103b6578063eff6d617146103d257600080fd5b80639cefeafb14610330578063cf6c53301461035057600080fd5b8063150b7a021161009a578063150b7a021461019e578063646279cd146102135780638653a4651461022857600080fd5b80630a9cf144146101305780630aff159a1461016357600080fd5b3661012b573373ffffffffffffffffffffffffffffffffffffffff7f00000000000000000000000000000000000000000000000000000000000000001614610129576040517f525e9a0200000000000000000000000000000000000000000000000000000000815260040160405180910390fd5b005b600080fd5b34801561013c57600080fd5b5061015061014b3660046110d5565b6103e7565b6040519081526020015b60405180910390f35b34801561016f57600080fd5b5061018361017e3660046110ee565b6103f8565b6040805193845260208401929092529082015260600161015a565b3480156101aa57600080fd5b506101e26101b9366004611172565b7f150b7a0200000000000000000000000000000000000000000000000000000000949350505050565b6040517fffffffff00000000000000000000000000000000000000000000000000000000909116815260200161015a565b34801561021f57600080fd5b50610129610578565b34801561023457600080fd5b5061030b61024336600461126c565b6040517fff0000000000000000000000000000000000000000000000000000000000000060208201527fffffffffffffffffffffffffffffffffffffffff000000000000000000000000606083901b166021820152603581018390527f1c0bf703a3415cada9785e89e9d70314c3111ae7d8e04f33bb42eb1d264088be60558201819052600091607501604080517fffffffffffffffffffffffffffffffffffffffffffffffffffffffffffffffe08184030181529190528051602090910120949350505050565b60405173ffffffffffffffffffffffffffffffffffffffff909116815260200161015a565b34801561033c57600080fd5b5061012961034b366004611298565b61094b565b34801561035c57600080fd5b507f000000000000000000000000000000000000000000000000000000000000000061030b565b34801561038f57600080fd5b507f000000000000000000000000000000000000000000000000000000000000000061030b565b3480156103c257600080fd5b50610150670de0b6b3a764000081565b3480156103de57600080fd5b50600054610150565b60006103f282610e2e565b92915050565b600080600080546000036104145750600091508190508061056f565b84158061042057508486115b15610457576040517f95dc5bed00000000000000000000000000000000000000000000000000000000815260040160405180910390fd5b6000807f000000000000000000000000000000000000000000000000000000000000000073ffffffffffffffffffffffffffffffffffffffff16634fc8638f6000546040518263ffffffff1660e01b81526004016104b791815260200190565b6040805180830381865afa1580156104d3573d6000803e3d6000fd5b505050506040513d601f19601f820116820180604052508101906104f791906112ba565b9092509050600087610511670de0b6b3a76400008b61130d565b61051b919061134a565b905060008061052d8a848d8888610e6d565b925092505060008b670de0b6b3a76400008b610549919061130d565b610553919061134a565b90506105628b828c8686610e6d565b9850985098505050505050505b93509350939050565b3373ffffffffffffffffffffffffffffffffffffffff7f0000000000000000000000000000000000000000000000000000000000000000161461062a576040517f0f634fbe00000000000000000000000000000000000000000000000000000000815233600482015273ffffffffffffffffffffffffffffffffffffffff7f00000000000000000000000000000000000000000000000000000000000000001660248201526044015b60405180910390fd5b60005415610664576040517f0f12873500000000000000000000000000000000000000000000000000000000815260040160405180910390fd5b60007f00000000000000000000000000000000000000000000000000000000000000006040517f70a0823100000000000000000000000000000000000000000000000000000000815230600482015290915060009073ffffffffffffffffffffffffffffffffffffffff8316906370a0823190602401602060405180830381865afa1580156106f7573d6000803e3d6000fd5b505050506040513d601f19601f8201168201806040525081019061071b9190611385565b90507f000000000000000000000000000000000000000000000000000000000000000080821015610782576040517f3bd7532b0000000000000000000000000000000000000000000000000000000081526004810183905260248101829052604401610621565b73ffffffffffffffffffffffffffffffffffffffff831663095ea7b37f00000000000000000000000000000000000000000000000000000000000000006040517fffffffff0000000000000000000000000000000000000000000000000000000060e084901b16815273ffffffffffffffffffffffffffffffffffffffff9091166004820152602481018490526044016020604051808303816000875af1158015610831573d6000803e3d6000fd5b505050506040513d601f19601f82011682018060405250810190610855919061139e565b506040517fa0712d680000000000000000000000000000000000000000000000000000000081526004810182905260009073ffffffffffffffffffffffffffffffffffffffff7f0000000000000000000000000000000000000000000000000000000000000000169063a0712d68906024016020604051808303816000875af11580156108e6573d6000803e3d6000fd5b505050506040513d601f19601f8201168201806040525081019061090a9190611385565b60008190556040518181529091507fda02726d9c28425343ec682e51934569d02e0c9143e4b3d11c0019d29c4e73609060200160405180910390a150505050565b3373ffffffffffffffffffffffffffffffffffffffff7f000000000000000000000000000000000000000000000000000000000000000016146109ba576040517f52177e1400000000000000000000000000000000000000000000000000000000815260040160405180910390fd5b6000546000036109f6576040517fca2d357200000000000000000000000000000000000000000000000000000000815260040160405180910390fd5b801580610a0257508082115b15610a39576040517f95dc5bed00000000000000000000000000000000000000000000000000000000815260040160405180910390fd5b6000807f000000000000000000000000000000000000000000000000000000000000000073ffffffffffffffffffffffffffffffffffffffff166342966c686000546040518263ffffffff1660e01b8152600401610a9991815260200190565b60408051808303816000875af1158015610ab7573d6000803e3d6000fd5b505050506040513d601f19601f82011682018060405250810190610adb91906112ba565b600080559092509050610b0e7f0000000000000000000000000000000000000000000000000000000000000000826113c7565b9050600083610b25670de0b6b3a76400008761130d565b610b2f919061134a565b90506000806000610b4387858a8989610e6d565b925092509250610ba3610b737f000000000000000000000000000000000000000000000000000000000000000090565b7f0000000000000000000000000000000000000000000000000000000000000000610b9e84876113da565b610ee4565b7f000000000000000000000000000000000000000000000000000000000000000073ffffffffffffffffffffffffffffffffffffffff1663b6b55f2583610bea84876113da565b6040518363ffffffff1660e01b8152600401610c0891815260200190565b6000604051808303818588803b158015610c2157600080fd5b505af1158015610c35573d6000803e3d6000fd5b50505050506000610c637f000000000000000000000000000000000000000000000000000000000000000090565b6040517f70a0823100000000000000000000000000000000000000000000000000000000815230600482015273ffffffffffffffffffffffffffffffffffffffff91909116906370a0823190602401602060405180830381865afa158015610ccf573d6000803e3d6000fd5b505050506040513d601f19601f82011682018060405250810190610cf39190611385565b9050478115610df257610df27f00000000000000000000000000000000000000000000000000000000000000007f00000000000000000000000000000000000000000000000000000000000000007f00000000000000000000000000000000000000000000000000000000000000006040517f70a0823100000000000000000000000000000000000000000000000000000000815230600482015273ffffffffffffffffffffffffffffffffffffffff91909116906370a0823190602401602060405180830381865afa158015610dce573d6000803e3d6000fd5b505050506040513d601f19601f82011682018060405250810190610b9e9190611385565b8015610e2257610e227f000000000000000000000000000000000000000000000000000000000000000082611047565b50505050505050505050565b600081610e63670de0b6b3a76400007f000000000000000000000000000000000000000000000000000000000000000061130d565b6103f2919061134a565b6000806000670de0b6b3a764000086610e858a610e2e565b610e8f919061130d565b610e99919061134a565b9250670de0b6b3a7640000610eae868961130d565b610eb8919061134a565b9150670de0b6b3a7640000610ecd858961130d565b610ed7919061134a565b9050955095509592505050565b80600003610ef157505050565b73ffffffffffffffffffffffffffffffffffffffff8316610f3e576040517f2518928d00000000000000000000000000000000000000000000000000000000815260040160405180910390fd5b6040517fa9059cbb00000000000000000000000000000000000000000000000000000000815273ffffffffffffffffffffffffffffffffffffffff8381166004830152602482018390526000919085169063a9059cbb906044016020604051808303816000875af1158015610fb7573d6000803e3d6000fd5b505050506040513d601f19601f82011682018060405250810190610fdb919061139e565b905080611041576040517ff0798c5100000000000000000000000000000000000000000000000000000000815273ffffffffffffffffffffffffffffffffffffffff80861660048301523060248301528416604482015260648101839052608401610621565b50505050565b73ffffffffffffffffffffffffffffffffffffffff82166399a89ecc82602a6040517fffffffff0000000000000000000000000000000000000000000000000000000060e085901b16815260ff90911660048201526024016000604051808303818588803b1580156110b857600080fd5b505af11580156110cc573d6000803e3d6000fd5b50505050505050565b6000602082840312156110e757600080fd5b5035919050565b60008060006060848603121561110357600080fd5b505081359360208301359350604090920135919050565b803573ffffffffffffffffffffffffffffffffffffffff8116811461113e57600080fd5b919050565b7f4e487b7100000000000000000000000000000000000000000000000000000000600052604160045260246000fd5b6000806000806080858703121561118857600080fd5b6111918561111a565b935061119f6020860161111a565b925060408501359150606085013567ffffffffffffffff808211156111c357600080fd5b818701915087601f8301126111d757600080fd5b8135818111156111e9576111e9611143565b604051601f82017fffffffffffffffffffffffffffffffffffffffffffffffffffffffffffffffe0908116603f0116810190838211818310171561122f5761122f611143565b816040528281528a602084870101111561124857600080fd5b82602086016020830137600060208483010152809550505050505092959194509250565b6000806040838503121561127f57600080fd5b8235915061128f6020840161111a565b90509250929050565b600080604083850312156112ab57600080fd5b50508035926020909101359150565b600080604083850312156112cd57600080fd5b505080516020909101519092909150565b7f4e487b7100000000000000000000000000000000000000000000000000000000600052601160045260246000fd5b6000817fffffffffffffffffffffffffffffffffffffffffffffffffffffffffffffffff0483118215151615611345576113456112de565b500290565b600082611380577f4e487b7100000000000000000000000000000000000000000000000000000000600052601260045260246000fd5b500490565b60006020828403121561139757600080fd5b5051919050565b6000602082840312156113b057600080fd5b815180151581146113c057600080fd5b9392505050565b818103818111156103f2576103f26112de565b808201808211156103f2576103f26112de56fea2646970667358221220d31aac837cd462ad4a6832c74a4cb04027563d710f11dfb7d395654a6fd7fbe764736f6c63430008100033",
    "linkReferences": {},
    "deployedLinkReferences": {}
}