{
  "_format": "hh-sol-artifact-1",
  "contractName": "ALCB",
  "sourceName": "contracts/ALCB.sol",
  "abi": [
    {
      "inputs": [
        {
          "internalType": "address",
          "name": "centralBridgeRouterAddress_",
          "type": "address"
        }
      ],
      "stateMutability": "nonpayable",
      "type": "constructor"
    },
    {
      "inputs": [
        {
          "internalType": "uint8",
          "name": "accountType",
          "type": "uint8"
        }
      ],
      "name": "AccountTypeNotSupported",
      "type": "error"
    },
    {
      "inputs": [
        {
          "internalType": "uint256",
          "name": "amount",
          "type": "uint256"
        },
        {
          "internalType": "uint256",
          "name": "supply",
          "type": "uint256"
        }
      ],
      "name": "BurnAmountExceedsSupply",
      "type": "error"
    },
    {
      "inputs": [],
      "name": "CannotSetRouterToZeroAddress",
      "type": "error"
    },
    {
      "inputs": [],
      "name": "CannotTransferToZeroAddress",
      "type": "error"
    },
    {
      "inputs": [
        {
          "internalType": "address",
          "name": "toAddress",
          "type": "address"
        }
      ],
      "name": "ContractsDisallowedDeposits",
      "type": "error"
    },
    {
      "inputs": [],
      "name": "DepositAmountZero",
      "type": "error"
    },
    {
      "inputs": [
        {
          "internalType": "uint256",
          "name": "amount",
          "type": "uint256"
        }
      ],
      "name": "DepositBurnFail",
      "type": "error"
    },
    {
      "inputs": [
        {
          "internalType": "address",
          "name": "from",
          "type": "address"
        },
        {
          "internalType": "address",
          "name": "to",
          "type": "address"
        },
        {
          "internalType": "uint256",
          "name": "amount",
          "type": "uint256"
        }
      ],
      "name": "EthTransferFailed",
      "type": "error"
    },
    {
      "inputs": [
        {
          "internalType": "uint256",
          "name": "amount",
          "type": "uint256"
        },
        {
          "internalType": "uint256",
          "name": "minimum",
          "type": "uint256"
        }
      ],
      "name": "InsufficientEth",
      "type": "error"
    },
    {
      "inputs": [
        {
          "internalType": "uint256",
          "name": "amount",
          "type": "uint256"
        },
        {
          "internalType": "uint256",
          "name": "fee",
          "type": "uint256"
        }
      ],
      "name": "InsufficientFee",
      "type": "error"
    },
    {
      "inputs": [
        {
          "internalType": "uint256",
          "name": "contractBalance",
          "type": "uint256"
        },
        {
          "internalType": "uint256",
          "name": "poolBalance",
          "type": "uint256"
        }
      ],
      "name": "InvalidBalance",
      "type": "error"
    },
    {
      "inputs": [
        {
          "internalType": "uint256",
          "name": "amount",
          "type": "uint256"
        }
      ],
      "name": "InvalidBurnAmount",
      "type": "error"
    },
    {
      "inputs": [
        {
          "internalType": "uint256",
          "name": "depositID",
          "type": "uint256"
        }
      ],
      "name": "InvalidDepositId",
      "type": "error"
    },
    {
      "inputs": [
        {
          "internalType": "uint256",
          "name": "amount",
          "type": "uint256"
        },
        {
          "internalType": "uint256",
          "name": "minimum",
          "type": "uint256"
        }
      ],
      "name": "MinimumBurnNotMet",
      "type": "error"
    },
    {
      "inputs": [
        {
          "internalType": "uint256",
          "name": "amount",
          "type": "uint256"
        },
        {
          "internalType": "uint256",
          "name": "minimum",
          "type": "uint256"
        }
      ],
      "name": "MinimumMintNotMet",
      "type": "error"
    },
    {
      "inputs": [
        {
          "internalType": "uint256",
          "name": "amount",
          "type": "uint256"
        },
        {
          "internalType": "uint256",
          "name": "minimumValue",
          "type": "uint256"
        }
      ],
      "name": "MinimumValueNotMet",
      "type": "error"
    },
    {
      "inputs": [],
      "name": "MutexLocked",
      "type": "error"
    },
    {
      "inputs": [
        {
          "internalType": "address",
          "name": "sender",
          "type": "address"
        },
        {
          "internalType": "address",
          "name": "expected",
          "type": "address"
        }
      ],
      "name": "OnlyDistribution",
      "type": "error"
    },
    {
      "inputs": [
        {
          "internalType": "address",
          "name": "sender",
          "type": "address"
        },
        {
          "internalType": "address",
          "name": "expected",
          "type": "address"
        }
      ],
      "name": "OnlyFactory",
      "type": "error"
    },
    {
      "anonymous": false,
      "inputs": [
        {
          "indexed": true,
          "internalType": "address",
          "name": "owner",
          "type": "address"
        },
        {
          "indexed": true,
          "internalType": "address",
          "name": "spender",
          "type": "address"
        },
        {
          "indexed": false,
          "internalType": "uint256",
          "name": "value",
          "type": "uint256"
        }
      ],
      "name": "Approval",
      "type": "event"
    },
    {
      "anonymous": false,
      "inputs": [
        {
          "indexed": true,
          "internalType": "uint256",
          "name": "depositID",
          "type": "uint256"
        },
        {
          "indexed": true,
          "internalType": "uint8",
          "name": "accountType",
          "type": "uint8"
        },
        {
          "indexed": true,
          "internalType": "address",
          "name": "depositor",
          "type": "address"
        },
        {
          "indexed": false,
          "internalType": "uint256",
          "name": "amount",
          "type": "uint256"
        }
      ],
      "name": "DepositReceived",
      "type": "event"
    },
    {
      "anonymous": false,
      "inputs": [
        {
          "indexed": true,
          "internalType": "address",
          "name": "from",
          "type": "address"
        },
        {
          "indexed": true,
          "internalType": "address",
          "name": "to",
          "type": "address"
        },
        {
          "indexed": false,
          "internalType": "uint256",
          "name": "value",
          "type": "uint256"
        }
      ],
      "name": "Transfer",
      "type": "event"
    },
    {
      "inputs": [
        {
          "internalType": "address",
          "name": "owner",
          "type": "address"
        },
        {
          "internalType": "address",
          "name": "spender",
          "type": "address"
        }
      ],
      "name": "allowance",
      "outputs": [
        {
          "internalType": "uint256",
          "name": "",
          "type": "uint256"
        }
      ],
      "stateMutability": "view",
      "type": "function"
    },
    {
      "inputs": [
        {
          "internalType": "address",
          "name": "spender",
          "type": "address"
        },
        {
          "internalType": "uint256",
          "name": "amount",
          "type": "uint256"
        }
      ],
      "name": "approve",
      "outputs": [
        {
          "internalType": "bool",
          "name": "",
          "type": "bool"
        }
      ],
      "stateMutability": "nonpayable",
      "type": "function"
    },
    {
      "inputs": [
        {
          "internalType": "address",
          "name": "account",
          "type": "address"
        }
      ],
      "name": "balanceOf",
      "outputs": [
        {
          "internalType": "uint256",
          "name": "",
          "type": "uint256"
        }
      ],
      "stateMutability": "view",
      "type": "function"
    },
    {
      "inputs": [
        {
          "internalType": "uint256",
          "name": "amount_",
          "type": "uint256"
        },
        {
          "internalType": "uint256",
          "name": "minEth_",
          "type": "uint256"
        }
      ],
      "name": "burn",
      "outputs": [
        {
          "internalType": "uint256",
          "name": "numEth",
          "type": "uint256"
        }
      ],
      "stateMutability": "nonpayable",
      "type": "function"
    },
    {
      "inputs": [
        {
          "internalType": "address",
          "name": "to_",
          "type": "address"
        },
        {
          "internalType": "uint256",
          "name": "amount_",
          "type": "uint256"
        },
        {
          "internalType": "uint256",
          "name": "minEth_",
          "type": "uint256"
        }
      ],
      "name": "burnTo",
      "outputs": [
        {
          "internalType": "uint256",
          "name": "numEth",
          "type": "uint256"
        }
      ],
      "stateMutability": "nonpayable",
      "type": "function"
    },
    {
      "inputs": [],
      "name": "decimals",
      "outputs": [
        {
          "internalType": "uint8",
          "name": "",
          "type": "uint8"
        }
      ],
      "stateMutability": "view",
      "type": "function"
    },
    {
      "inputs": [
        {
          "internalType": "address",
          "name": "spender",
          "type": "address"
        },
        {
          "internalType": "uint256",
          "name": "subtractedValue",
          "type": "uint256"
        }
      ],
      "name": "decreaseAllowance",
      "outputs": [
        {
          "internalType": "bool",
          "name": "",
          "type": "bool"
        }
      ],
      "stateMutability": "nonpayable",
      "type": "function"
    },
    {
      "inputs": [
        {
          "internalType": "uint8",
          "name": "accountType_",
          "type": "uint8"
        },
        {
          "internalType": "address",
          "name": "to_",
          "type": "address"
        },
        {
          "internalType": "uint256",
          "name": "amount_",
          "type": "uint256"
        }
      ],
      "name": "deposit",
      "outputs": [
        {
          "internalType": "uint256",
          "name": "",
          "type": "uint256"
        }
      ],
      "stateMutability": "nonpayable",
      "type": "function"
    },
    {
      "inputs": [
        {
          "internalType": "uint8",
          "name": "routerVersion_",
          "type": "uint8"
        },
        {
          "internalType": "bytes",
          "name": "data_",
          "type": "bytes"
        }
      ],
      "name": "depositTokensOnBridges",
      "outputs": [],
      "stateMutability": "payable",
      "type": "function"
    },
    {
      "inputs": [
        {
          "internalType": "uint256",
          "name": "numBTK_",
          "type": "uint256"
        }
      ],
      "name": "destroyTokens",
      "outputs": [
        {
          "internalType": "bool",
          "name": "",
          "type": "bool"
        }
      ],
      "stateMutability": "nonpayable",
      "type": "function"
    },
    {
      "inputs": [],
      "name": "distribute",
      "outputs": [
        {
          "internalType": "bool",
          "name": "",
          "type": "bool"
        }
      ],
      "stateMutability": "nonpayable",
      "type": "function"
    },
    {
      "inputs": [],
      "name": "getCentralBridgeRouterAddress",
      "outputs": [
        {
          "internalType": "address",
          "name": "",
          "type": "address"
        }
      ],
      "stateMutability": "view",
      "type": "function"
    },
    {
      "inputs": [
        {
          "internalType": "uint256",
          "name": "depositID",
          "type": "uint256"
        }
      ],
      "name": "getDeposit",
      "outputs": [
        {
          "components": [
            {
              "internalType": "uint8",
              "name": "accountType",
              "type": "uint8"
            },
            {
              "internalType": "address",
              "name": "account",
              "type": "address"
            },
            {
              "internalType": "uint256",
              "name": "value",
              "type": "uint256"
            }
          ],
          "internalType": "struct Deposit",
          "name": "",
          "type": "tuple"
        }
      ],
      "stateMutability": "view",
      "type": "function"
    },
    {
      "inputs": [],
      "name": "getDepositID",
      "outputs": [
        {
          "internalType": "uint256",
          "name": "",
          "type": "uint256"
        }
      ],
      "stateMutability": "view",
      "type": "function"
    },
    {
      "inputs": [
        {
          "internalType": "uint256",
          "name": "poolBalance_",
          "type": "uint256"
        },
        {
          "internalType": "uint256",
          "name": "totalSupply_",
          "type": "uint256"
        },
        {
          "internalType": "uint256",
          "name": "numBTK_",
          "type": "uint256"
        }
      ],
      "name": "getEthFromTokensBurn",
      "outputs": [
        {
          "internalType": "uint256",
          "name": "numEth",
          "type": "uint256"
        }
      ],
      "stateMutability": "pure",
      "type": "function"
    },
    {
      "inputs": [
        {
          "internalType": "uint256",
          "name": "totalSupply_",
          "type": "uint256"
        },
        {
          "internalType": "uint256",
          "name": "numBTK_",
          "type": "uint256"
        }
      ],
      "name": "getEthToMintTokens",
      "outputs": [
        {
          "internalType": "uint256",
          "name": "numEth",
          "type": "uint256"
        }
      ],
      "stateMutability": "pure",
      "type": "function"
    },
    {
      "inputs": [
        {
          "internalType": "uint256",
          "name": "numBTK_",
          "type": "uint256"
        }
      ],
      "name": "getLatestEthFromTokensBurn",
      "outputs": [
        {
          "internalType": "uint256",
          "name": "numEth",
          "type": "uint256"
        }
      ],
      "stateMutability": "view",
      "type": "function"
    },
    {
      "inputs": [
        {
          "internalType": "uint256",
          "name": "numBTK_",
          "type": "uint256"
        }
      ],
      "name": "getLatestEthToMintTokens",
      "outputs": [
        {
          "internalType": "uint256",
          "name": "numEth",
          "type": "uint256"
        }
      ],
      "stateMutability": "view",
      "type": "function"
    },
    {
      "inputs": [
        {
          "internalType": "uint256",
          "name": "numEth_",
          "type": "uint256"
        }
      ],
      "name": "getLatestMintedTokensFromEth",
      "outputs": [
        {
          "internalType": "uint256",
          "name": "",
          "type": "uint256"
        }
      ],
      "stateMutability": "view",
      "type": "function"
    },
    {
      "inputs": [],
      "name": "getMarketSpread",
      "outputs": [
        {
          "internalType": "uint256",
          "name": "",
          "type": "uint256"
        }
      ],
      "stateMutability": "pure",
      "type": "function"
    },
    {
      "inputs": [
        {
          "internalType": "bytes32",
          "name": "_salt",
          "type": "bytes32"
        },
        {
          "internalType": "address",
          "name": "_factory",
          "type": "address"
        }
      ],
      "name": "getMetamorphicContractAddress",
      "outputs": [
        {
          "internalType": "address",
          "name": "",
          "type": "address"
        }
      ],
      "stateMutability": "pure",
      "type": "function"
    },
    {
      "inputs": [
        {
          "internalType": "uint256",
          "name": "poolBalance_",
          "type": "uint256"
        },
        {
          "internalType": "uint256",
          "name": "numEth_",
          "type": "uint256"
        }
      ],
      "name": "getMintedTokensFromEth",
      "outputs": [
        {
          "internalType": "uint256",
          "name": "",
          "type": "uint256"
        }
      ],
      "stateMutability": "pure",
      "type": "function"
    },
    {
      "inputs": [],
      "name": "getPoolBalance",
      "outputs": [
        {
          "internalType": "uint256",
          "name": "",
          "type": "uint256"
        }
      ],
      "stateMutability": "view",
      "type": "function"
    },
    {
      "inputs": [],
      "name": "getTotalTokensDeposited",
      "outputs": [
        {
          "internalType": "uint256",
          "name": "",
          "type": "uint256"
        }
      ],
      "stateMutability": "view",
      "type": "function"
    },
    {
      "inputs": [],
      "name": "getYield",
      "outputs": [
        {
          "internalType": "uint256",
          "name": "",
          "type": "uint256"
        }
      ],
      "stateMutability": "view",
      "type": "function"
    },
    {
      "inputs": [
        {
          "internalType": "address",
          "name": "spender",
          "type": "address"
        },
        {
          "internalType": "uint256",
          "name": "addedValue",
          "type": "uint256"
        }
      ],
      "name": "increaseAllowance",
      "outputs": [
        {
          "internalType": "bool",
          "name": "",
          "type": "bool"
        }
      ],
      "stateMutability": "nonpayable",
      "type": "function"
    },
    {
      "inputs": [
        {
          "internalType": "uint256",
          "name": "minBTK_",
          "type": "uint256"
        }
      ],
      "name": "mint",
      "outputs": [
        {
          "internalType": "uint256",
          "name": "numBTK",
          "type": "uint256"
        }
      ],
      "stateMutability": "payable",
      "type": "function"
    },
    {
      "inputs": [
        {
          "internalType": "uint8",
          "name": "accountType_",
          "type": "uint8"
        },
        {
          "internalType": "address",
          "name": "to_",
          "type": "address"
        },
        {
          "internalType": "uint256",
          "name": "minBTK_",
          "type": "uint256"
        }
      ],
      "name": "mintDeposit",
      "outputs": [
        {
          "internalType": "uint256",
          "name": "",
          "type": "uint256"
        }
      ],
      "stateMutability": "payable",
      "type": "function"
    },
    {
      "inputs": [
        {
          "internalType": "address",
          "name": "to_",
          "type": "address"
        },
        {
          "internalType": "uint256",
          "name": "minBTK_",
          "type": "uint256"
        }
      ],
      "name": "mintTo",
      "outputs": [
        {
          "internalType": "uint256",
          "name": "numBTK",
          "type": "uint256"
        }
      ],
      "stateMutability": "payable",
      "type": "function"
    },
    {
      "inputs": [],
      "name": "name",
      "outputs": [
        {
          "internalType": "string",
          "name": "",
          "type": "string"
        }
      ],
      "stateMutability": "view",
      "type": "function"
    },
    {
      "inputs": [
        {
          "internalType": "uint8",
          "name": "accountType_",
          "type": "uint8"
        },
        {
          "internalType": "bool",
          "name": "allowed_",
          "type": "bool"
        }
      ],
      "name": "setAccountType",
      "outputs": [],
      "stateMutability": "nonpayable",
      "type": "function"
    },
    {
      "inputs": [],
      "name": "symbol",
      "outputs": [
        {
          "internalType": "string",
          "name": "",
          "type": "string"
        }
      ],
      "stateMutability": "view",
      "type": "function"
    },
    {
      "inputs": [],
      "name": "totalSupply",
      "outputs": [
        {
          "internalType": "uint256",
          "name": "",
          "type": "uint256"
        }
      ],
      "stateMutability": "view",
      "type": "function"
    },
    {
      "inputs": [
        {
          "internalType": "address",
          "name": "to",
          "type": "address"
        },
        {
          "internalType": "uint256",
          "name": "amount",
          "type": "uint256"
        }
      ],
      "name": "transfer",
      "outputs": [
        {
          "internalType": "bool",
          "name": "",
          "type": "bool"
        }
      ],
      "stateMutability": "nonpayable",
      "type": "function"
    },
    {
      "inputs": [
        {
          "internalType": "address",
          "name": "from",
          "type": "address"
        },
        {
          "internalType": "address",
          "name": "to",
          "type": "address"
        },
        {
          "internalType": "uint256",
          "name": "amount",
          "type": "uint256"
        }
      ],
      "name": "transferFrom",
      "outputs": [
        {
          "internalType": "bool",
          "name": "",
          "type": "bool"
        }
      ],
      "stateMutability": "nonpayable",
      "type": "function"
    },
    {
      "inputs": [
        {
          "internalType": "uint8",
          "name": "accountType_",
          "type": "uint8"
        },
        {
          "internalType": "address",
          "name": "to_",
          "type": "address"
        },
        {
          "internalType": "uint256",
          "name": "amount_",
          "type": "uint256"
        }
      ],
      "name": "virtualMintDeposit",
      "outputs": [
        {
          "internalType": "uint256",
          "name": "",
          "type": "uint256"
        }
      ],
      "stateMutability": "nonpayable",
      "type": "function"
    }
  ],
  "bytecode": "0x60e06040523480156200001157600080fd5b506040516200304038038062003040833981016040819052620000349162000409565b336040518060400160405280601681526020017f416c6963654e6574205574696c69747920546f6b656e000000000000000000008152506040518060400160405280600481526020016320a621a160e11b8152508160039081620000999190620004e0565b506004620000a88282620004e0565b5050506001600160a01b0316608052620000db6b2234b9ba3934b13aba34b7b760a11b620000d560805190565b620001a8565b6001600160a01b0390811660a0528116620001095760405163f8783d8960e01b815260040160405180910390fd5b600a6020527fbbc70db1b6c7afd11e79c0fb0051300458f1a3acb8ee9789d9b6b26c61ad9bc78054600160ff19918216811790925560026000527fbff4442b8ed600beeb8e26b1279a0f0d14c6edfaec26d968ee13c86f7d4c2ba88054909116821790556001600160a01b03821660c052620001a09073ba7809a4114eef598132461f3202b5013e834cd564746a5288006200023d565b5050620005ce565b6040517fff0000000000000000000000000000000000000000000000000000000000000060208201526001600160601b0319606083901b166021820152603581018390527f1c0bf703a3415cada9785e89e9d70314c3111ae7d8e04f33bb42eb1d264088be605582018190526000916075016040516020818303038152906040528051906020012060001c9150505b92915050565b60006200025e836001600160a01b0316620002c460201b62000e971760201c565b156200028d576040516398d63c0960e01b81526001600160a01b03841660048201526024015b60405180910390fd5b81600003620002af57604051635d66204960e11b815260040160405180910390fd5b620002bc848484620002d3565b949350505050565b6001600160a01b03163b151590565b60ff8084166000908152600a60205260408120549091166200030e57604051631f80931f60e11b815260ff8516600482015260240162000284565b60006007546001620003219190620005ac565b6040805160608082018352600080835260208084018290529284018190528351918201845260ff8a811683526001600160a01b038a81168486019081528487018b81528885526009909652958320935184549651909116610100026001600160a81b03199096169116179390931781559051600190910155600880549293508592909190620003b2908490620005ac565b909155505060078190556040518381526001600160a01b0385169060ff87169083907f9d291e7244fa9bf5a85ec47d5a52012ccc92231b41c94308155ad2702eef9d4d9060200160405180910390a4949350505050565b6000602082840312156200041c57600080fd5b81516001600160a01b03811681146200043457600080fd5b9392505050565b634e487b7160e01b600052604160045260246000fd5b600181811c908216806200046657607f821691505b6020821081036200048757634e487b7160e01b600052602260045260246000fd5b50919050565b601f821115620004db57600081815260208120601f850160051c81016020861015620004b65750805b601f850160051c820191505b81811015620004d757828155600101620004c2565b5050505b505050565b81516001600160401b03811115620004fc57620004fc6200043b565b62000514816200050d845462000451565b846200048d565b602080601f8311600181146200054c5760008415620005335750858301515b600019600386901b1c1916600185901b178555620004d7565b600085815260208120601f198616915b828110156200057d578886015182559484019460019091019084016200055c565b50858210156200059c5787850151600019600388901b60f8161c191681555b5050505050600190811b01905550565b808201808211156200023757634e487b7160e01b600052601160045260246000fd5b60805160a05160c051612a266200061a600039600081816107d10152610d4e01526000611ab20152600081816108ce0152818161093601528181610ab80152610b200152612a266000f3fe60806040526004361061024e5760003560e01c80638d40782311610138578063abd70aa2116100b0578063dd62ed3e1161007f578063e51b55e311610064578063e51b55e314610782578063f14a28f9146107a2578063ff32fefc146107c257600080fd5b8063dd62ed3e1461071a578063e4fc6b6d1461076d57600080fd5b8063abd70aa2146106b2578063b390c0ab146106c7578063c4602af3146106e7578063c67cb8d1146106fa57600080fd5b80639b05720311610107578063a0712d68116100ec578063a0712d681461065f578063a457c2d714610672578063a9059cbb1461069257600080fd5b80639b057203146105e45780639f9fb9681461060457600080fd5b80638d40782314610585578063921782781461059a57806394f70c8a146105ba57806395d89b41146105cf57600080fd5b8063449a52f8116101cb57806367fbd2891161019a57806370a082311161017f57806370a08231146104255780637c262871146104685780638653a4651461047d57600080fd5b806367fbd289146103e5578063688727c51461040557600080fd5b8063449a52f81461037f57806346711773146103925780634f232628146103b2578063679f742d146103c557600080fd5b806314c8d8761161022257806323b872dd1161020757806323b872dd14610323578063313ce56714610343578063395093511461035f57600080fd5b806314c8d876146102ec57806318160ddd1461030e57600080fd5b80628381721461025357806306fdde0314610286578063086cfefd146102a8578063095ea7b3146102bc575b600080fd5b34801561025f57600080fd5b5061027361026e366004612431565b6107f5565b6040519081526020015b60405180910390f35b34801561029257600080fd5b5061029b61080a565b60405161027d919061246d565b3480156102b457600080fd5b506004610273565b3480156102c857600080fd5b506102dc6102d73660046124d9565b61089c565b604051901515815260200161027d565b3480156102f857600080fd5b5061030c610307366004612503565b6108b6565b005b34801561031a57600080fd5b50600254610273565b34801561032f57600080fd5b506102dc61033e36600461253f565b6109ab565b34801561034f57600080fd5b506040516012815260200161027d565b34801561036b57600080fd5b506102dc61037a3660046124d9565b6109cf565b61027361038d3660046124d9565b610a1b565b34801561039e57600080fd5b506102736103ad36600461255d565b610a2f565b6102736103c0366004612431565b610a49565b3480156103d157600080fd5b506102736103e0366004612576565b610a57565b3480156103f157600080fd5b506102dc61040036600461255d565b610a68565b34801561041157600080fd5b50610273610420366004612576565b610a7d565b34801561043157600080fd5b50610273610440366004612598565b73ffffffffffffffffffffffffffffffffffffffff1660009081526020819052604090205490565b34801561047457600080fd5b50610273610a89565b34801561048957600080fd5b506105606104983660046125b3565b6040517fff0000000000000000000000000000000000000000000000000000000000000060208201527fffffffffffffffffffffffffffffffffffffffff000000000000000000000000606083901b166021820152603581018390527f1c0bf703a3415cada9785e89e9d70314c3111ae7d8e04f33bb42eb1d264088be60558201819052600091607501604080517fffffffffffffffffffffffffffffffffffffffffffffffffffffffffffffffe08184030181529190528051602090910120949350505050565b60405173ffffffffffffffffffffffffffffffffffffffff909116815260200161027d565b34801561059157600080fd5b50600854610273565b3480156105a657600080fd5b506102736105b5366004612431565b610a9e565b3480156105c657600080fd5b50600754610273565b3480156105db57600080fd5b5061029b610b58565b3480156105f057600080fd5b506102736105ff3660046125df565b610b67565b34801561061057600080fd5b5061062461061f36600461255d565b610b75565b60408051825160ff16815260208084015173ffffffffffffffffffffffffffffffffffffffff1690820152918101519082015260600161027d565b61027361066d36600461255d565b610c14565b34801561067e57600080fd5b506102dc61068d3660046124d9565b610c21565b34801561069e57600080fd5b506102dc6106ad3660046124d9565b610cf2565b3480156106be57600080fd5b50600654610273565b3480156106d357600080fd5b506102736106e2366004612576565b610d00565b61030c6106f5366004612612565b610d0e565b34801561070657600080fd5b50610273610715366004612695565b610e5b565b34801561072657600080fd5b506102736107353660046126c1565b73ffffffffffffffffffffffffffffffffffffffff918216600090815260016020908152604080832093909416825291909152205490565b34801561077957600080fd5b506102dc610e68565b34801561078e57600080fd5b5061027361079d36600461255d565b610e72565b3480156107ae57600080fd5b506102736107bd36600461255d565b610e89565b3480156107ce57600080fd5b507f0000000000000000000000000000000000000000000000000000000000000000610560565b6000610802848484610eb3565b949350505050565b606060038054610819906126eb565b80601f0160208091040260200160405190810160405280929190818152602001828054610845906126eb565b80156108925780601f1061086757610100808354040283529160200191610892565b820191906000526020600020905b81548152906001019060200180831161087557829003601f168201915b5050505050905090565b6000336108aa818585610fa4565b60019150505b92915050565b3373ffffffffffffffffffffffffffffffffffffffff7f00000000000000000000000000000000000000000000000000000000000000001614610968576040517f0f634fbe00000000000000000000000000000000000000000000000000000000815233600482015273ffffffffffffffffffffffffffffffffffffffff7f00000000000000000000000000000000000000000000000000000000000000001660248201526044015b60405180910390fd5b60ff919091166000908152600a6020526040902080547fffffffffffffffffffffffffffffffffffffffffffffffffffffffffffffff0016911515919091179055565b6000336109b9858285611157565b6109c485858561122e565b506001949350505050565b33600081815260016020908152604080832073ffffffffffffffffffffffffffffffffffffffff871684529091528120549091906108aa9082908690610a16908790612767565b610fa4565b6000610a2883348461149d565b9392505050565b60006108b0600654600484610a4491906127a9565b611567565b60006108028484843461158e565b6000610a2883610a446004856127a9565b6000610a7433836116b1565b50600192915050565b6000610a288383611720565b600060065447610a9991906127e4565b905090565b60003373ffffffffffffffffffffffffffffffffffffffff7f00000000000000000000000000000000000000000000000000000000000000001614610b4d576040517f0f634fbe00000000000000000000000000000000000000000000000000000000815233600482015273ffffffffffffffffffffffffffffffffffffffff7f000000000000000000000000000000000000000000000000000000000000000016602482015260440161095f565b610802848484611753565b606060048054610819906126eb565b6000610802338585856117f6565b604080516060808201835260008083526020808401829052838501829052858252600981529084902084519283018552805460ff81168452610100900473ffffffffffffffffffffffffffffffffffffffff16918301829052600101549382019390935290916108b0576040517f78ad7caa0000000000000000000000000000000000000000000000000000000081526004810184905260240161095f565b60006108b033348461149d565b33600081815260016020908152604080832073ffffffffffffffffffffffffffffffffffffffff8716845290915281205490919083811015610ce5576040517f08c379a000000000000000000000000000000000000000000000000000000000815260206004820152602560248201527f45524332303a2064656372656173656420616c6c6f77616e63652062656c6f7760448201527f207a65726f000000000000000000000000000000000000000000000000000000606482015260840161095f565b6109c48286868403610fa4565b6000336108aa81858561122e565b6000610a28333385856117f6565b6040517ff6d5d54700000000000000000000000000000000000000000000000000000000815260009073ffffffffffffffffffffffffffffffffffffffff7f0000000000000000000000000000000000000000000000000000000000000000169063f6d5d54790610d899033908890889088906004016127f7565b6020604051808303816000875af1158015610da8573d6000803e3d6000fd5b505050506040513d601f19601f82011682018060405250810190610dcc919061286b565b90503415610e4a576000610de8610de260025490565b83611720565b905034811115610e2d576040517fa458261b0000000000000000000000000000000000000000000000000000000081523460048201526024810182905260440161095f565b34818103908214610e4257610e4233826118bf565b505050505050565b610e5433826116b1565b5050505050565b60006108028484846119d7565b6000610a99611a46565b60006108b0600654610e8360025490565b846119d7565b60006108b0610de260025490565b73ffffffffffffffffffffffffffffffffffffffff163b151590565b600073ffffffffffffffffffffffffffffffffffffffff83163b15610f1c576040517f98d63c0900000000000000000000000000000000000000000000000000000000815273ffffffffffffffffffffffffffffffffffffffff8416600482015260240161095f565b81600003610f56576040517fbacc409200000000000000000000000000000000000000000000000000000000815260040160405180910390fd5b610f6033836116b1565b610f99576040517f5377cd3a0000000000000000000000000000000000000000000000000000000081526004810183905260240161095f565b610802848484611b29565b73ffffffffffffffffffffffffffffffffffffffff8316611046576040517f08c379a0000000000000000000000000000000000000000000000000000000008152602060048201526024808201527f45524332303a20617070726f76652066726f6d20746865207a65726f2061646460448201527f7265737300000000000000000000000000000000000000000000000000000000606482015260840161095f565b73ffffffffffffffffffffffffffffffffffffffff82166110e9576040517f08c379a000000000000000000000000000000000000000000000000000000000815260206004820152602260248201527f45524332303a20617070726f766520746f20746865207a65726f20616464726560448201527f7373000000000000000000000000000000000000000000000000000000000000606482015260840161095f565b73ffffffffffffffffffffffffffffffffffffffff83811660008181526001602090815260408083209487168084529482529182902085905590518481527f8c5be1e5ebec7d5bd14f71427d1e84f3dd0314c0f7b2291e5b200ac8c7c3b925910160405180910390a3505050565b73ffffffffffffffffffffffffffffffffffffffff8381166000908152600160209081526040808320938616835292905220547fffffffffffffffffffffffffffffffffffffffffffffffffffffffffffffffff8114611228578181101561121b576040517f08c379a000000000000000000000000000000000000000000000000000000000815260206004820152601d60248201527f45524332303a20696e73756666696369656e7420616c6c6f77616e6365000000604482015260640161095f565b6112288484848403610fa4565b50505050565b73ffffffffffffffffffffffffffffffffffffffff83166112d1576040517f08c379a000000000000000000000000000000000000000000000000000000000815260206004820152602560248201527f45524332303a207472616e736665722066726f6d20746865207a65726f20616460448201527f6472657373000000000000000000000000000000000000000000000000000000606482015260840161095f565b73ffffffffffffffffffffffffffffffffffffffff8216611374576040517f08c379a000000000000000000000000000000000000000000000000000000000815260206004820152602360248201527f45524332303a207472616e7366657220746f20746865207a65726f206164647260448201527f6573730000000000000000000000000000000000000000000000000000000000606482015260840161095f565b73ffffffffffffffffffffffffffffffffffffffff83166000908152602081905260409020548181101561142a576040517f08c379a000000000000000000000000000000000000000000000000000000000815260206004820152602660248201527f45524332303a207472616e7366657220616d6f756e742065786365656473206260448201527f616c616e63650000000000000000000000000000000000000000000000000000606482015260840161095f565b73ffffffffffffffffffffffffffffffffffffffff848116600081815260208181526040808320878703905593871680835291849020805487019055925185815290927fddf252ad1be2c89b69c2b068fc378daa952ba7f163c4a11628f55a4df523b3ef910160405180910390a3611228565b600060048310156114e3576040517fdbf2fcf30000000000000000000000000000000000000000000000000000000081526004818101859052602482015260440161095f565b6114ee6004846127a9565b6006549093506114fe8185611567565b915082821015611544576040517ff08ba6b5000000000000000000000000000000000000000000000000000000008152600481018390526024810184905260440161095f565b61154e8482612767565b6006819055905061155f8583611ca4565b509392505050565b600061157283611d97565b61158461157f8486612767565b611d97565b610a2891906127e4565b600073ffffffffffffffffffffffffffffffffffffffff84163b156115f7576040517f98d63c0900000000000000000000000000000000000000000000000000000000815273ffffffffffffffffffffffffffffffffffffffff8516600482015260240161095f565b600482101561163b576040517fdbf2fcf30000000000000000000000000000000000000000000000000000000081526004818101849052602482015260440161095f565b6116466004836127a9565b9150600061165660065484611567565b90508381101561169c576040517f3ebbc337000000000000000000000000000000000000000000000000000000008152600481018290526024810185905260440161095f565b6116a7868683611b29565b9695505050505050565b6000816000036116f0576040517f37fad59a0000000000000000000000000000000000000000000000000000000081526004810183905260240161095f565b6116ff600654610e8360025490565b6006600082825461171091906127e4565b90915550610a7490508383611e32565b6000600461172d84611ff6565b61173f61173a8587612767565b611ff6565b61174991906127e4565b610a289190612884565b600073ffffffffffffffffffffffffffffffffffffffff83163b156117bc576040517f98d63c0900000000000000000000000000000000000000000000000000000000815273ffffffffffffffffffffffffffffffffffffffff8416600482015260240161095f565b81600003610f99576040517fbacc409200000000000000000000000000000000000000000000000000000000815260040160405180910390fd5b600082600003611835576040517f37fad59a0000000000000000000000000000000000000000000000000000000081526004810184905260240161095f565b60065461184b8161184560025490565b866119d7565b915082821015611891576040517f3ca38bd0000000000000000000000000000000000000000000000000000000008152600481018390526024810184905260440161095f565b61189b82826127e4565b600681905590506118ac8685611e32565b6118b685836118bf565b50949350505050565b806000036118cb575050565b73ffffffffffffffffffffffffffffffffffffffff8216611918576040517f6f5ec9ea00000000000000000000000000000000000000000000000000000000815260040160405180910390fd5b604051829060009073ffffffffffffffffffffffffffffffffffffffff83169084908381818185875af1925050503d8060008114611972576040519150601f19603f3d011682016040523d82523d6000602084013e611977565b606091505b5050905080611228576040517fb250066300000000000000000000000000000000000000000000000000000000815230600482015273ffffffffffffffffffffffffffffffffffffffff851660248201526044810184905260640161095f565b600081831015611a1d576040517f3f09b88e000000000000000000000000000000000000000000000000000000008152600481018390526024810184905260440161095f565b61080284611a2e61173a85876127e4565b611a3786611ff6565b611a4191906127e4565b612159565b6000600160055403611a84576040517f1de1b9af00000000000000000000000000000000000000000000000000000000815260040160405180910390fd5b60016005556006546000611a9882476127e4565b905080600003611aad57600192505050611b21565b611ad77f00000000000000000000000000000000000000000000000000000000000000008261216f565b81471015611b1a576040517f8a74c5140000000000000000000000000000000000000000000000000000000081524760048201526024810183905260440161095f565b6001925050505b600260055590565b60ff8084166000908152600a6020526040812054909116611b7b576040517f3f01263e00000000000000000000000000000000000000000000000000000000815260ff8516600482015260240161095f565b60006007546001611b8c9190612767565b6040805160608082018352600080835260208084018290529284018190528351918201845260ff8a8116835273ffffffffffffffffffffffffffffffffffffffff8a81168486019081528487018b81528885526009909652958320935184549651909116610100027fffffffffffffffffffffff0000000000000000000000000000000000000000009096169116179390931781559051600190910155600880549293508592909190611c40908490612767565b9091555050600781905560405183815273ffffffffffffffffffffffffffffffffffffffff85169060ff87169083907f9d291e7244fa9bf5a85ec47d5a52012ccc92231b41c94308155ad2702eef9d4d9060200160405180910390a4949350505050565b73ffffffffffffffffffffffffffffffffffffffff8216611d21576040517f08c379a000000000000000000000000000000000000000000000000000000000815260206004820152601f60248201527f45524332303a206d696e7420746f20746865207a65726f206164647265737300604482015260640161095f565b8060026000828254611d339190612767565b909155505073ffffffffffffffffffffffffffffffffffffffff8216600081815260208181526040808320805486019055518481527fddf252ad1be2c89b69c2b068fc378daa952ba7f163c4a11628f55a4df523b3ef910160405180910390a35050565b6000611df371016f578c4e0a0610001239056923109ffb906002611dc468878678326eac900000866121fd565b611dce91906129e1565b611dd89190612767565b611de4600260c86129e1565b611dee9190612884565b612213565b611e076888dfb255fe11c2f3ac60c8612884565b83611e14600460c8612767565b611e1e9190612884565b611e289190612767565b6108b091906127e4565b73ffffffffffffffffffffffffffffffffffffffff8216611ed5576040517f08c379a000000000000000000000000000000000000000000000000000000000815260206004820152602160248201527f45524332303a206275726e2066726f6d20746865207a65726f2061646472657360448201527f7300000000000000000000000000000000000000000000000000000000000000606482015260840161095f565b73ffffffffffffffffffffffffffffffffffffffff821660009081526020819052604090205481811015611f8b576040517f08c379a000000000000000000000000000000000000000000000000000000000815260206004820152602260248201527f45524332303a206275726e20616d6f756e7420657863656564732062616c616e60448201527f6365000000000000000000000000000000000000000000000000000000000000606482015260840161095f565b73ffffffffffffffffffffffffffffffffffffffff83166000818152602081815260408083208686039055600280548790039055518581529192917fddf252ad1be2c89b69c2b068fc378daa952ba7f163c4a11628f55a4df523b3ef910160405180910390a3505050565b6000600461200660c86002612884565b6120109190612767565b61201b906004612884565b61202f68878678326eac90000060c8612884565b6888dfb255fe11c2f3ac612045600460c8612767565b61204f9190612884565b6120599190612767565b6120649060c8612884565b6121248468878678326eac90000061207e600460c8612767565b6120889190612884565b61209c6888dfb255fe11c2f3ac60c8612884565b6120a69190612767565b6120b1906002612884565b6120bb9190612884565b60026120d168878678326eac90000060c8612884565b6888dfb255fe11c2f3ac6120e7600460c8612767565b6120f19190612884565b6120fb9190612767565b61210591906129e1565b6121106002886129e1565b61211a9190612767565b611dd891906127e4565b84612131600460c8612767565b61213b9190612884565b6121459190612767565b61214f91906127e4565b6108b091906127a9565b60008183116121695750816108b0565b50919050565b73ffffffffffffffffffffffffffffffffffffffff82166399a89ecc82602a6040517fffffffff0000000000000000000000000000000000000000000000000000000060e085901b16815260ff90911660048201526024016000604051808303818588803b1580156121e057600080fd5b505af11580156121f4573d6000803e3d6000fd5b50505050505050565b60006122098383612159565b61158484846123e7565b600060018211612221575090565b7ffffffffffffffffffffffffffffffffe00000000000000000000000000000001821061225f57506fffffffffffffffffffffffffffffffff919050565b6001827001000000000000000000000000000000008110612282576080918201911c5b68010000000000000000811061229a576040918201911c5b64010000000081106122ae576020918201911c5b6201000081106122c0576010918201911c5b61010081106122d1576008918201911c5b601081106122e1576004918201911c5b600481106122f1576002918201911c5b60028110612300576001820191505b5061010003600190811c906002820284901b60fe81901c909101908160fb82901c8161232e5761232e61277a565b04600183901b0191508160f582901c8161234a5761234a61277a565b04600383901b0191508160e982901c816123665761236661277a565b04600783901b0191508160d182901c816123825761238261277a565b04600f83901b0191508160a182901c8161239e5761239e61277a565b04601f83901b01915081604182901c816123ba576123ba61277a565b04603f83901b0191508282901c91508482830211156123dc57600182036123de565b815b95945050505050565b60008183106121695750816108b0565b803560ff8116811461240857600080fd5b919050565b803573ffffffffffffffffffffffffffffffffffffffff8116811461240857600080fd5b60008060006060848603121561244657600080fd5b61244f846123f7565b925061245d6020850161240d565b9150604084013590509250925092565b600060208083528351808285015260005b8181101561249a5785810183015185820160400152820161247e565b5060006040828601015260407fffffffffffffffffffffffffffffffffffffffffffffffffffffffffffffffe0601f8301168501019250505092915050565b600080604083850312156124ec57600080fd5b6124f58361240d565b946020939093013593505050565b6000806040838503121561251657600080fd5b61251f836123f7565b91506020830135801515811461253457600080fd5b809150509250929050565b60008060006060848603121561255457600080fd5b61244f8461240d565b60006020828403121561256f57600080fd5b5035919050565b6000806040838503121561258957600080fd5b50508035926020909101359150565b6000602082840312156125aa57600080fd5b610a288261240d565b600080604083850312156125c657600080fd5b823591506125d66020840161240d565b90509250929050565b6000806000606084860312156125f457600080fd5b6125fd8461240d565b95602085013595506040909401359392505050565b60008060006040848603121561262757600080fd5b612630846123f7565b9250602084013567ffffffffffffffff8082111561264d57600080fd5b818601915086601f83011261266157600080fd5b81358181111561267057600080fd5b87602082850101111561268257600080fd5b6020830194508093505050509250925092565b6000806000606084860312156126aa57600080fd5b505081359360208301359350604090920135919050565b600080604083850312156126d457600080fd5b6126dd8361240d565b91506125d66020840161240d565b600181811c908216806126ff57607f821691505b602082108103612169577f4e487b7100000000000000000000000000000000000000000000000000000000600052602260045260246000fd5b7f4e487b7100000000000000000000000000000000000000000000000000000000600052601160045260246000fd5b808201808211156108b0576108b0612738565b7f4e487b7100000000000000000000000000000000000000000000000000000000600052601260045260246000fd5b6000826127df577f4e487b7100000000000000000000000000000000000000000000000000000000600052601260045260246000fd5b500490565b818103818111156108b0576108b0612738565b73ffffffffffffffffffffffffffffffffffffffff8516815260ff8416602082015260606040820152816060820152818360808301376000818301608090810191909152601f9092017fffffffffffffffffffffffffffffffffffffffffffffffffffffffffffffffe01601019392505050565b60006020828403121561287d57600080fd5b5051919050565b6000817fffffffffffffffffffffffffffffffffffffffffffffffffffffffffffffffff04831182151516156128bc576128bc612738565b500290565b600181815b8085111561291a57817fffffffffffffffffffffffffffffffffffffffffffffffffffffffffffffffff0482111561290057612900612738565b8085161561290d57918102915b93841c93908002906128c6565b509250929050565b600082612931575060016108b0565b8161293e575060006108b0565b8160018114612954576002811461295e5761297a565b60019150506108b0565b60ff84111561296f5761296f612738565b50506001821b6108b0565b5060208310610133831016604e8410600b841016171561299d575081810a6108b0565b6129a783836128c1565b807fffffffffffffffffffffffffffffffffffffffffffffffffffffffffffffffff048211156129d9576129d9612738565b029392505050565b6000610a2860ff84168361292256fea26469706673582212207e72254a50960feab8ecf5ebb73d1ffc98d965e9d2b5274ff08ce37fce49bab764736f6c63430008100033",
  "linkReferences": {},
  "deployedLinkReferences": {}
}