{
    "_format": "hh-sol-artifact-1",
    "contractName": "AToken",
    "sourceName": "contracts/AToken.sol",
    "abi": [
        {
            "inputs": [
                {
                    "internalType": "address",
                    "name": "legacyToken_",
                    "type": "address"
                }
            ],
            "stateMutability": "nonpayable",
            "type": "constructor"
        },
        {
            "inputs": [],
            "name": "InvalidConversionAmount",
            "type": "error"
        },
        {
            "inputs": [
                {
                    "internalType": "address",
                    "name": "sender",
                    "type": "address"
                },
                {
                    "internalType": "address",
                    "name": "expected",
                    "type": "address"
                }
            ],
            "name": "OnlyATokenBurner",
            "type": "error"
        },
        {
            "inputs": [
                {
                    "internalType": "address",
                    "name": "sender",
                    "type": "address"
                },
                {
                    "internalType": "address",
                    "name": "expected",
                    "type": "address"
                }
            ],
            "name": "OnlyATokenMinter",
            "type": "error"
        },
        {
            "inputs": [
                {
                    "internalType": "address",
                    "name": "sender",
                    "type": "address"
                },
                {
                    "internalType": "address",
                    "name": "expected",
                    "type": "address"
                }
            ],
            "name": "OnlyFactory",
            "type": "error"
        },
        {
            "anonymous": false,
            "inputs": [
                {
                    "indexed": true,
                    "internalType": "address",
                    "name": "owner",
                    "type": "address"
                },
                {
                    "indexed": true,
                    "internalType": "address",
                    "name": "spender",
                    "type": "address"
                },
                {
                    "indexed": false,
                    "internalType": "uint256",
                    "name": "value",
                    "type": "uint256"
                }
            ],
            "name": "Approval",
            "type": "event"
        },
        {
            "anonymous": false,
            "inputs": [
                {
                    "indexed": true,
                    "internalType": "address",
                    "name": "from",
                    "type": "address"
                },
                {
                    "indexed": true,
                    "internalType": "address",
                    "name": "to",
                    "type": "address"
                },
                {
                    "indexed": false,
                    "internalType": "uint256",
                    "name": "value",
                    "type": "uint256"
                }
            ],
            "name": "Transfer",
            "type": "event"
        },
        {
            "inputs": [
                {
                    "internalType": "address",
                    "name": "owner",
                    "type": "address"
                },
                {
                    "internalType": "address",
                    "name": "spender",
                    "type": "address"
                }
            ],
            "name": "allowance",
            "outputs": [
                {
                    "internalType": "uint256",
                    "name": "",
                    "type": "uint256"
                }
            ],
            "stateMutability": "view",
            "type": "function"
        },
        {
            "inputs": [
                {
                    "internalType": "address",
                    "name": "spender",
                    "type": "address"
                },
                {
                    "internalType": "uint256",
                    "name": "amount",
                    "type": "uint256"
                }
            ],
            "name": "approve",
            "outputs": [
                {
                    "internalType": "bool",
                    "name": "",
                    "type": "bool"
                }
            ],
            "stateMutability": "nonpayable",
            "type": "function"
        },
        {
            "inputs": [
                {
                    "internalType": "address",
                    "name": "account",
                    "type": "address"
                }
            ],
            "name": "balanceOf",
            "outputs": [
                {
                    "internalType": "uint256",
                    "name": "",
                    "type": "uint256"
                }
            ],
            "stateMutability": "view",
            "type": "function"
        },
        {
            "inputs": [
                {
                    "internalType": "uint256",
                    "name": "amount",
                    "type": "uint256"
                }
            ],
            "name": "convert",
            "outputs": [
                {
                    "internalType": "uint256",
                    "name": "",
                    "type": "uint256"
                }
            ],
            "stateMutability": "view",
            "type": "function"
        },
        {
            "inputs": [],
            "name": "decimals",
            "outputs": [
                {
                    "internalType": "uint8",
                    "name": "",
                    "type": "uint8"
                }
            ],
            "stateMutability": "view",
            "type": "function"
        },
        {
            "inputs": [
                {
                    "internalType": "address",
                    "name": "spender",
                    "type": "address"
                },
                {
                    "internalType": "uint256",
                    "name": "subtractedValue",
                    "type": "uint256"
                }
            ],
            "name": "decreaseAllowance",
            "outputs": [
                {
                    "internalType": "bool",
                    "name": "",
                    "type": "bool"
                }
            ],
            "stateMutability": "nonpayable",
            "type": "function"
        },
        {
            "inputs": [
                {
                    "internalType": "address",
                    "name": "from",
                    "type": "address"
                },
                {
                    "internalType": "uint256",
                    "name": "amount",
                    "type": "uint256"
                }
            ],
            "name": "externalBurn",
            "outputs": [],
            "stateMutability": "nonpayable",
            "type": "function"
        },
        {
            "inputs": [
                {
                    "internalType": "address",
                    "name": "to",
                    "type": "address"
                },
                {
                    "internalType": "uint256",
                    "name": "amount",
                    "type": "uint256"
                }
            ],
            "name": "externalMint",
            "outputs": [],
            "stateMutability": "nonpayable",
            "type": "function"
        },
        {
            "inputs": [],
            "name": "finishEarlyStage",
            "outputs": [],
            "stateMutability": "nonpayable",
            "type": "function"
        },
        {
            "inputs": [],
            "name": "getLegacyTokenAddress",
            "outputs": [
                {
                    "internalType": "address",
                    "name": "",
                    "type": "address"
                }
            ],
            "stateMutability": "view",
            "type": "function"
        },
        {
            "inputs": [
                {
                    "internalType": "bytes32",
                    "name": "_salt",
                    "type": "bytes32"
                },
                {
                    "internalType": "address",
                    "name": "_factory",
                    "type": "address"
                }
            ],
            "name": "getMetamorphicContractAddress",
            "outputs": [
                {
                    "internalType": "address",
                    "name": "",
                    "type": "address"
                }
            ],
            "stateMutability": "pure",
            "type": "function"
        },
        {
            "inputs": [
                {
                    "internalType": "address",
                    "name": "spender",
                    "type": "address"
                },
                {
                    "internalType": "uint256",
                    "name": "addedValue",
                    "type": "uint256"
                }
            ],
            "name": "increaseAllowance",
            "outputs": [
                {
                    "internalType": "bool",
                    "name": "",
                    "type": "bool"
                }
            ],
            "stateMutability": "nonpayable",
            "type": "function"
        },
        {
            "inputs": [
                {
                    "internalType": "uint256",
                    "name": "amount",
                    "type": "uint256"
                }
            ],
            "name": "migrate",
            "outputs": [
                {
                    "internalType": "uint256",
                    "name": "",
                    "type": "uint256"
                }
            ],
            "stateMutability": "nonpayable",
            "type": "function"
        },
        {
            "inputs": [
                {
                    "internalType": "address",
                    "name": "to",
                    "type": "address"
                },
                {
                    "internalType": "uint256",
                    "name": "amount",
                    "type": "uint256"
                }
            ],
            "name": "migrateTo",
            "outputs": [
                {
                    "internalType": "uint256",
                    "name": "",
                    "type": "uint256"
                }
            ],
            "stateMutability": "nonpayable",
            "type": "function"
        },
        {
            "inputs": [],
            "name": "name",
            "outputs": [
                {
                    "internalType": "string",
                    "name": "",
                    "type": "string"
                }
            ],
            "stateMutability": "view",
            "type": "function"
        },
        {
            "inputs": [],
            "name": "symbol",
            "outputs": [
                {
                    "internalType": "string",
                    "name": "",
                    "type": "string"
                }
            ],
            "stateMutability": "view",
            "type": "function"
        },
        {
            "inputs": [],
            "name": "totalSupply",
            "outputs": [
                {
                    "internalType": "uint256",
                    "name": "",
                    "type": "uint256"
                }
            ],
            "stateMutability": "view",
            "type": "function"
        },
        {
            "inputs": [
                {
                    "internalType": "address",
                    "name": "to",
                    "type": "address"
                },
                {
                    "internalType": "uint256",
                    "name": "amount",
                    "type": "uint256"
                }
            ],
            "name": "transfer",
            "outputs": [
                {
                    "internalType": "bool",
                    "name": "",
                    "type": "bool"
                }
            ],
            "stateMutability": "nonpayable",
            "type": "function"
        },
        {
            "inputs": [
                {
                    "internalType": "address",
                    "name": "from",
                    "type": "address"
                },
                {
                    "internalType": "address",
                    "name": "to",
                    "type": "address"
                },
                {
                    "internalType": "uint256",
                    "name": "amount",
                    "type": "uint256"
                }
            ],
            "name": "transferFrom",
            "outputs": [
                {
                    "internalType": "bool",
                    "name": "",
                    "type": "bool"
                }
            ],
            "stateMutability": "nonpayable",
            "type": "function"
        }
    ],
    "bytecode": "0x6101006040523480156200001257600080fd5b5060405162001ba838038062001ba88339810160408190526200003591620002b9565b336040518060400160405280601681526020017f416c6963654e6574205374616b696e6720546f6b656e0000000000000000000081525060405180604001604052806004815260200163414c434160e01b81525081600390816200009a91906200038f565b506004620000a982826200038f565b5050506001600160a01b0316608052620000dc6b20aa37b5b2b726b4b73a32b960a11b620000d660805190565b62000137565b6001600160a01b031660a052620001066b20aa37b5b2b7213ab93732b960a11b620000d660805190565b6001600160a01b0390811660c052811660e05262000130336aca331fe2cc911ff471c71c620001cc565b506200047d565b6040517fff0000000000000000000000000000000000000000000000000000000000000060208201526001600160601b0319606083901b166021820152603581018390527f1c0bf703a3415cada9785e89e9d70314c3111ae7d8e04f33bb42eb1d264088be605582018190526000916075016040516020818303038152906040528051906020012060001c9150505b92915050565b6001600160a01b038216620002275760405162461bcd60e51b815260206004820152601f60248201527f45524332303a206d696e7420746f20746865207a65726f206164647265737300604482015260640160405180910390fd5b80600260008282546200023b91906200045b565b90915550506001600160a01b038216600090815260208190526040812080548392906200026a9084906200045b565b90915550506040518181526001600160a01b038316906000907fddf252ad1be2c89b69c2b068fc378daa952ba7f163c4a11628f55a4df523b3ef9060200160405180910390a35050565b505050565b600060208284031215620002cc57600080fd5b81516001600160a01b0381168114620002e457600080fd5b9392505050565b634e487b7160e01b600052604160045260246000fd5b600181811c908216806200031657607f821691505b6020821081036200033757634e487b7160e01b600052602260045260246000fd5b50919050565b601f821115620002b457600081815260208120601f850160051c81016020861015620003665750805b601f850160051c820191505b81811015620003875782815560010162000372565b505050505050565b81516001600160401b03811115620003ab57620003ab620002eb565b620003c381620003bc845462000301565b846200033d565b602080601f831160018114620003fb5760008415620003e25750858301515b600019600386901b1c1916600185901b17855562000387565b600085815260208120601f198616915b828110156200042c578886015182559484019460019091019084016200040b565b50858210156200044b5787850151600019600388901b60f8161c191681555b5050505050600190811b01905550565b80820180821115620001c657634e487b7160e01b600052601160045260246000fd5b60805160a05160c05160e0516116c7620004e16000396000818161015801528181610a9401528181610b3d0152610bf101526000818161056101526105c901526000818161063001526106980152600081816107d1015261083901526116c76000f3fe608060405234801561001057600080fd5b50600436106101515760003560e01c80636f6ebec8116100cd578063a3908e1b11610081578063a9059cbb11610066578063a9059cbb146103ad578063ae424781146103c0578063dd62ed3e146103c857600080fd5b8063a3908e1b14610387578063a457c2d71461039a57600080fd5b80638653a465116100b25780638653a4651461029657806395d89b411461036c57806399f988981461037457600080fd5b80636f6ebec81461024b57806370a082311461026057600080fd5b806318160ddd11610124578063313ce56711610109578063313ce567146102165780633950935114610225578063454b06081461023857600080fd5b806318160ddd146101fb57806323b872dd1461020357600080fd5b8063035c70991461015657806306fdde03146101a2578063095ea7b3146101b75780630d213d31146101da575b600080fd5b7f00000000000000000000000000000000000000000000000000000000000000005b60405173ffffffffffffffffffffffffffffffffffffffff90911681526020015b60405180910390f35b6101aa61040e565b60405161019991906113b6565b6101ca6101c5366004611446565b6104a0565b6040519015158152602001610199565b6101ed6101e8366004611446565b6104ba565b604051908152602001610199565b6002546101ed565b6101ca610211366004611470565b6104cd565b60405160128152602001610199565b6101ca610233366004611446565b6104f1565b6101ed6102463660046114ac565b61053d565b61025e610259366004611446565b610549565b005b6101ed61026e3660046114c5565b73ffffffffffffffffffffffffffffffffffffffff1660009081526020819052604090205490565b6101786102a43660046114e0565b6040517fff0000000000000000000000000000000000000000000000000000000000000060208201527fffffffffffffffffffffffffffffffffffffffff000000000000000000000000606083901b166021820152603581018390527f1c0bf703a3415cada9785e89e9d70314c3111ae7d8e04f33bb42eb1d264088be60558201819052600091607501604080517fffffffffffffffffffffffffffffffffffffffffffffffffffffffffffffffe08184030181529190528051602090910120949350505050565b6101aa610609565b61025e610382366004611446565b610618565b6101ed6103953660046114ac565b6106cf565b6101ca6103a8366004611446565b6106da565b6101ca6103bb366004611446565b6107ab565b61025e6107b9565b6101ed6103d636600461150c565b73ffffffffffffffffffffffffffffffffffffffff918216600090815260016020908152604080832093909416825291909152205490565b60606003805461041d90611536565b80601f016020809104026020016040519081016040528092919081815260200182805461044990611536565b80156104965780601f1061046b57610100808354040283529160200191610496565b820191906000526020600020905b81548152906001019060200180831161047957829003601f168201915b5050505050905090565b6000336104ae818585610898565b60019150505b92915050565b60006104c68383610a4c565b9392505050565b6000336104db858285610cd8565b6104e6858585610daf565b506001949350505050565b33600081815260016020908152604080832073ffffffffffffffffffffffffffffffffffffffff871684529091528120549091906104ae90829086906105389087906115b8565b610898565b60006104b43383610a4c565b3373ffffffffffffffffffffffffffffffffffffffff7f000000000000000000000000000000000000000000000000000000000000000016146105fb576040517f1353cce700000000000000000000000000000000000000000000000000000000815233600482015273ffffffffffffffffffffffffffffffffffffffff7f00000000000000000000000000000000000000000000000000000000000000001660248201526044015b60405180910390fd5b6106058282611062565b5050565b60606004805461041d90611536565b3373ffffffffffffffffffffffffffffffffffffffff7f000000000000000000000000000000000000000000000000000000000000000016146106c5576040517f02175c1700000000000000000000000000000000000000000000000000000000815233600482015273ffffffffffffffffffffffffffffffffffffffff7f00000000000000000000000000000000000000000000000000000000000000001660248201526044016105f2565b6106058282611247565b60006104b482611367565b33600081815260016020908152604080832073ffffffffffffffffffffffffffffffffffffffff871684529091528120549091908381101561079e576040517f08c379a000000000000000000000000000000000000000000000000000000000815260206004820152602560248201527f45524332303a2064656372656173656420616c6c6f77616e63652062656c6f7760448201527f207a65726f00000000000000000000000000000000000000000000000000000060648201526084016105f2565b6104e68286868403610898565b6000336104ae818585610daf565b3373ffffffffffffffffffffffffffffffffffffffff7f00000000000000000000000000000000000000000000000000000000000000001614610866576040517f0f634fbe00000000000000000000000000000000000000000000000000000000815233600482015273ffffffffffffffffffffffffffffffffffffffff7f00000000000000000000000000000000000000000000000000000000000000001660248201526044016105f2565b610896600580547fffffffffffffffffffffffffffffffffffffffffffffffffffffffffffffff00166001179055565b565b73ffffffffffffffffffffffffffffffffffffffff831661093a576040517f08c379a0000000000000000000000000000000000000000000000000000000008152602060048201526024808201527f45524332303a20617070726f76652066726f6d20746865207a65726f2061646460448201527f726573730000000000000000000000000000000000000000000000000000000060648201526084016105f2565b73ffffffffffffffffffffffffffffffffffffffff82166109dd576040517f08c379a000000000000000000000000000000000000000000000000000000000815260206004820152602260248201527f45524332303a20617070726f766520746f20746865207a65726f20616464726560448201527f737300000000000000000000000000000000000000000000000000000000000060648201526084016105f2565b73ffffffffffffffffffffffffffffffffffffffff83811660008181526001602090815260408083209487168084529482529182902085905590518481527f8c5be1e5ebec7d5bd14f71427d1e84f3dd0314c0f7b2291e5b200ac8c7c3b92591015b60405180910390a3505050565b6040517f70a08231000000000000000000000000000000000000000000000000000000008152306004820152600090819073ffffffffffffffffffffffffffffffffffffffff7f000000000000000000000000000000000000000000000000000000000000000016906370a0823190602401602060405180830381865afa158015610adb573d6000803e3d6000fd5b505050506040513d601f19601f82011682018060405250810190610aff91906115cb565b6040517f23b872dd000000000000000000000000000000000000000000000000000000008152336004820152306024820152604481018590529091507f000000000000000000000000000000000000000000000000000000000000000073ffffffffffffffffffffffffffffffffffffffff16906323b872dd906064016020604051808303816000875af1158015610b9b573d6000803e3d6000fd5b505050506040513d601f19601f82011682018060405250810190610bbf91906115e4565b506040517f70a082310000000000000000000000000000000000000000000000000000000081523060048201526000907f000000000000000000000000000000000000000000000000000000000000000073ffffffffffffffffffffffffffffffffffffffff16906370a0823190602401602060405180830381865afa158015610c4d573d6000803e3d6000fd5b505050506040513d601f19601f82011682018060405250810190610c7191906115cb565b9050818111610cac576040517f52eed6f700000000000000000000000000000000000000000000000000000000815260040160405180910390fd5b6000610cb88383611606565b9050610cc381611367565b9350610ccf8685611247565b50505092915050565b73ffffffffffffffffffffffffffffffffffffffff8381166000908152600160209081526040808320938616835292905220547fffffffffffffffffffffffffffffffffffffffffffffffffffffffffffffffff8114610da95781811015610d9c576040517f08c379a000000000000000000000000000000000000000000000000000000000815260206004820152601d60248201527f45524332303a20696e73756666696369656e7420616c6c6f77616e636500000060448201526064016105f2565b610da98484848403610898565b50505050565b73ffffffffffffffffffffffffffffffffffffffff8316610e52576040517f08c379a000000000000000000000000000000000000000000000000000000000815260206004820152602560248201527f45524332303a207472616e736665722066726f6d20746865207a65726f20616460448201527f647265737300000000000000000000000000000000000000000000000000000060648201526084016105f2565b73ffffffffffffffffffffffffffffffffffffffff8216610ef5576040517f08c379a000000000000000000000000000000000000000000000000000000000815260206004820152602360248201527f45524332303a207472616e7366657220746f20746865207a65726f206164647260448201527f657373000000000000000000000000000000000000000000000000000000000060648201526084016105f2565b73ffffffffffffffffffffffffffffffffffffffff831660009081526020819052604090205481811015610fab576040517f08c379a000000000000000000000000000000000000000000000000000000000815260206004820152602660248201527f45524332303a207472616e7366657220616d6f756e742065786365656473206260448201527f616c616e6365000000000000000000000000000000000000000000000000000060648201526084016105f2565b73ffffffffffffffffffffffffffffffffffffffff808516600090815260208190526040808220858503905591851681529081208054849290610fef9084906115b8565b925050819055508273ffffffffffffffffffffffffffffffffffffffff168473ffffffffffffffffffffffffffffffffffffffff167fddf252ad1be2c89b69c2b068fc378daa952ba7f163c4a11628f55a4df523b3ef8460405161105591815260200190565b60405180910390a3610da9565b73ffffffffffffffffffffffffffffffffffffffff8216611105576040517f08c379a000000000000000000000000000000000000000000000000000000000815260206004820152602160248201527f45524332303a206275726e2066726f6d20746865207a65726f2061646472657360448201527f730000000000000000000000000000000000000000000000000000000000000060648201526084016105f2565b73ffffffffffffffffffffffffffffffffffffffff8216600090815260208190526040902054818110156111bb576040517f08c379a000000000000000000000000000000000000000000000000000000000815260206004820152602260248201527f45524332303a206275726e20616d6f756e7420657863656564732062616c616e60448201527f636500000000000000000000000000000000000000000000000000000000000060648201526084016105f2565b73ffffffffffffffffffffffffffffffffffffffff831660009081526020819052604081208383039055600280548492906111f7908490611606565b909155505060405182815260009073ffffffffffffffffffffffffffffffffffffffff8516907fddf252ad1be2c89b69c2b068fc378daa952ba7f163c4a11628f55a4df523b3ef90602001610a3f565b73ffffffffffffffffffffffffffffffffffffffff82166112c4576040517f08c379a000000000000000000000000000000000000000000000000000000000815260206004820152601f60248201527f45524332303a206d696e7420746f20746865207a65726f20616464726573730060448201526064016105f2565b80600260008282546112d691906115b8565b909155505073ffffffffffffffffffffffffffffffffffffffff8216600090815260208190526040812080548392906113109084906115b8565b909155505060405181815273ffffffffffffffffffffffffffffffffffffffff8316906000907fddf252ad1be2c89b69c2b068fc378daa952ba7f163c4a11628f55a4df523b3ef9060200160405180910390a35050565b60055460009060ff1615611379575090565b6104b482611387565b919050565b60006b204fce5e3e250261100000006113ac6b3243410460ab5908c38e38e384611619565b6104b49190611656565b600060208083528351808285015260005b818110156113e3578581018301518582016040015282016113c7565b5060006040828601015260407fffffffffffffffffffffffffffffffffffffffffffffffffffffffffffffffe0601f8301168501019250505092915050565b803573ffffffffffffffffffffffffffffffffffffffff8116811461138257600080fd5b6000806040838503121561145957600080fd5b61146283611422565b946020939093013593505050565b60008060006060848603121561148557600080fd5b61148e84611422565b925061149c60208501611422565b9150604084013590509250925092565b6000602082840312156114be57600080fd5b5035919050565b6000602082840312156114d757600080fd5b6104c682611422565b600080604083850312156114f357600080fd5b8235915061150360208401611422565b90509250929050565b6000806040838503121561151f57600080fd5b61152883611422565b915061150360208401611422565b600181811c9082168061154a57607f821691505b602082108103611583577f4e487b7100000000000000000000000000000000000000000000000000000000600052602260045260246000fd5b50919050565b7f4e487b7100000000000000000000000000000000000000000000000000000000600052601160045260246000fd5b808201808211156104b4576104b4611589565b6000602082840312156115dd57600080fd5b5051919050565b6000602082840312156115f657600080fd5b815180151581146104c657600080fd5b818103818111156104b4576104b4611589565b6000817fffffffffffffffffffffffffffffffffffffffffffffffffffffffffffffffff048311821515161561165157611651611589565b500290565b60008261168c577f4e487b7100000000000000000000000000000000000000000000000000000000600052601260045260246000fd5b50049056fea2646970667358221220467c320525a0a41ac5bc517de368758f850b9529716c3321172deaf1ff45baab64736f6c63430008100033",
    "linkReferences": {},
    "deployedLinkReferences": {}
}