{
    "_format": "hh-sol-artifact-1",
    "contractName": "BToken",
    "sourceName": "contracts/BToken.sol",
    "abi": [
        {
            "inputs": [
                {
                    "internalType": "address",
                    "name": "centralBridgeRouterAddress_",
                    "type": "address"
                }
            ],
            "stateMutability": "nonpayable",
            "type": "constructor"
        },
        {
            "inputs": [
                {
                    "internalType": "uint256",
                    "name": "amount",
                    "type": "uint256"
                },
                {
                    "internalType": "uint256",
                    "name": "supply",
                    "type": "uint256"
                }
            ],
            "name": "BurnAmountExceedsSupply",
            "type": "error"
        },
        {
            "inputs": [],
            "name": "CannotSetRouterToZeroAddress",
            "type": "error"
        },
        {
            "inputs": [],
            "name": "CannotTransferToZeroAddress",
            "type": "error"
        },
        {
            "inputs": [
                {
                    "internalType": "address",
                    "name": "toAddress",
                    "type": "address"
                }
            ],
            "name": "ContractsDisallowedDeposits",
            "type": "error"
        },
        {
            "inputs": [],
            "name": "DepositAmountZero",
            "type": "error"
        },
        {
            "inputs": [
                {
                    "internalType": "uint256",
                    "name": "amount",
                    "type": "uint256"
                }
            ],
            "name": "DepositBurnFail",
            "type": "error"
        },
        {
            "inputs": [
                {
                    "internalType": "address",
                    "name": "from",
                    "type": "address"
                },
                {
                    "internalType": "address",
                    "name": "to",
                    "type": "address"
                },
                {
                    "internalType": "uint256",
                    "name": "amount",
                    "type": "uint256"
                }
            ],
            "name": "EthTransferFailed",
            "type": "error"
        },
        {
            "inputs": [
                {
                    "internalType": "uint256",
                    "name": "amount",
                    "type": "uint256"
                },
                {
                    "internalType": "uint256",
                    "name": "minimum",
                    "type": "uint256"
                }
            ],
            "name": "InsufficientEth",
            "type": "error"
        },
        {
            "inputs": [
                {
                    "internalType": "uint256",
                    "name": "amount",
                    "type": "uint256"
                },
                {
                    "internalType": "uint256",
                    "name": "fee",
                    "type": "uint256"
                }
            ],
            "name": "InsufficientFee",
            "type": "error"
        },
        {
            "inputs": [
                {
                    "internalType": "uint256",
                    "name": "contractBalance",
                    "type": "uint256"
                },
                {
                    "internalType": "uint256",
                    "name": "poolBalance",
                    "type": "uint256"
                }
            ],
            "name": "InvalidBalance",
            "type": "error"
        },
        {
            "inputs": [
                {
                    "internalType": "uint256",
                    "name": "amount",
                    "type": "uint256"
                }
            ],
            "name": "InvalidBurnAmount",
            "type": "error"
        },
        {
            "inputs": [
                {
                    "internalType": "uint256",
                    "name": "depositID",
                    "type": "uint256"
                }
            ],
            "name": "InvalidDepositId",
            "type": "error"
        },
        {
            "inputs": [
                {
                    "internalType": "uint256",
                    "name": "amount",
                    "type": "uint256"
                },
                {
                    "internalType": "uint256",
                    "name": "minimum",
                    "type": "uint256"
                }
            ],
            "name": "MinimumBurnNotMet",
            "type": "error"
        },
        {
            "inputs": [
                {
                    "internalType": "uint256",
                    "name": "amount",
                    "type": "uint256"
                },
                {
                    "internalType": "uint256",
                    "name": "minimum",
                    "type": "uint256"
                }
            ],
            "name": "MinimumMintNotMet",
            "type": "error"
        },
        {
            "inputs": [
                {
                    "internalType": "uint256",
                    "name": "amount",
                    "type": "uint256"
                },
                {
                    "internalType": "uint256",
                    "name": "minimumValue",
                    "type": "uint256"
                }
            ],
            "name": "MinimumValueNotMet",
            "type": "error"
        },
        {
            "inputs": [],
            "name": "MutexLocked",
            "type": "error"
        },
        {
            "inputs": [
                {
                    "internalType": "address",
                    "name": "sender",
                    "type": "address"
                },
                {
                    "internalType": "address",
                    "name": "expected",
                    "type": "address"
                }
            ],
            "name": "OnlyDistribution",
            "type": "error"
        },
        {
            "inputs": [
                {
                    "internalType": "address",
                    "name": "sender",
                    "type": "address"
                },
                {
                    "internalType": "address",
                    "name": "expected",
                    "type": "address"
                }
            ],
            "name": "OnlyFactory",
            "type": "error"
        },
        {
            "anonymous": false,
            "inputs": [
                {
                    "indexed": true,
                    "internalType": "address",
                    "name": "owner",
                    "type": "address"
                },
                {
                    "indexed": true,
                    "internalType": "address",
                    "name": "spender",
                    "type": "address"
                },
                {
                    "indexed": false,
                    "internalType": "uint256",
                    "name": "value",
                    "type": "uint256"
                }
            ],
            "name": "Approval",
            "type": "event"
        },
        {
            "anonymous": false,
            "inputs": [
                {
                    "indexed": true,
                    "internalType": "uint256",
                    "name": "depositID",
                    "type": "uint256"
                },
                {
                    "indexed": true,
                    "internalType": "uint8",
                    "name": "accountType",
                    "type": "uint8"
                },
                {
                    "indexed": true,
                    "internalType": "address",
                    "name": "depositor",
                    "type": "address"
                },
                {
                    "indexed": false,
                    "internalType": "uint256",
                    "name": "amount",
                    "type": "uint256"
                }
            ],
            "name": "DepositReceived",
            "type": "event"
        },
        {
            "anonymous": false,
            "inputs": [
                {
                    "indexed": true,
                    "internalType": "address",
                    "name": "from",
                    "type": "address"
                },
                {
                    "indexed": true,
                    "internalType": "address",
                    "name": "to",
                    "type": "address"
                },
                {
                    "indexed": false,
                    "internalType": "uint256",
                    "name": "value",
                    "type": "uint256"
                }
            ],
            "name": "Transfer",
            "type": "event"
        },
        {
            "inputs": [
                {
                    "internalType": "address",
                    "name": "owner",
                    "type": "address"
                },
                {
                    "internalType": "address",
                    "name": "spender",
                    "type": "address"
                }
            ],
            "name": "allowance",
            "outputs": [
                {
                    "internalType": "uint256",
                    "name": "",
                    "type": "uint256"
                }
            ],
            "stateMutability": "view",
            "type": "function"
        },
        {
            "inputs": [
                {
                    "internalType": "address",
                    "name": "spender",
                    "type": "address"
                },
                {
                    "internalType": "uint256",
                    "name": "amount",
                    "type": "uint256"
                }
            ],
            "name": "approve",
            "outputs": [
                {
                    "internalType": "bool",
                    "name": "",
                    "type": "bool"
                }
            ],
            "stateMutability": "nonpayable",
            "type": "function"
        },
        {
            "inputs": [
                {
                    "internalType": "address",
                    "name": "account",
                    "type": "address"
                }
            ],
            "name": "balanceOf",
            "outputs": [
                {
                    "internalType": "uint256",
                    "name": "",
                    "type": "uint256"
                }
            ],
            "stateMutability": "view",
            "type": "function"
        },
        {
            "inputs": [
                {
                    "internalType": "uint256",
                    "name": "amount_",
                    "type": "uint256"
                },
                {
                    "internalType": "uint256",
                    "name": "minEth_",
                    "type": "uint256"
                }
            ],
            "name": "burn",
            "outputs": [
                {
                    "internalType": "uint256",
                    "name": "numEth",
                    "type": "uint256"
                }
            ],
            "stateMutability": "nonpayable",
            "type": "function"
        },
        {
            "inputs": [
                {
                    "internalType": "address",
                    "name": "to_",
                    "type": "address"
                },
                {
                    "internalType": "uint256",
                    "name": "amount_",
                    "type": "uint256"
                },
                {
                    "internalType": "uint256",
                    "name": "minEth_",
                    "type": "uint256"
                }
            ],
            "name": "burnTo",
            "outputs": [
                {
                    "internalType": "uint256",
                    "name": "numEth",
                    "type": "uint256"
                }
            ],
            "stateMutability": "nonpayable",
            "type": "function"
        },
        {
            "inputs": [],
            "name": "decimals",
            "outputs": [
                {
                    "internalType": "uint8",
                    "name": "",
                    "type": "uint8"
                }
            ],
            "stateMutability": "view",
            "type": "function"
        },
        {
            "inputs": [
                {
                    "internalType": "address",
                    "name": "spender",
                    "type": "address"
                },
                {
                    "internalType": "uint256",
                    "name": "subtractedValue",
                    "type": "uint256"
                }
            ],
            "name": "decreaseAllowance",
            "outputs": [
                {
                    "internalType": "bool",
                    "name": "",
                    "type": "bool"
                }
            ],
            "stateMutability": "nonpayable",
            "type": "function"
        },
        {
            "inputs": [
                {
                    "internalType": "uint8",
                    "name": "accountType_",
                    "type": "uint8"
                },
                {
                    "internalType": "address",
                    "name": "to_",
                    "type": "address"
                },
                {
                    "internalType": "uint256",
                    "name": "amount_",
                    "type": "uint256"
                }
            ],
            "name": "deposit",
            "outputs": [
                {
                    "internalType": "uint256",
                    "name": "",
                    "type": "uint256"
                }
            ],
            "stateMutability": "nonpayable",
            "type": "function"
        },
        {
            "inputs": [
                {
                    "internalType": "uint8",
                    "name": "routerVersion_",
                    "type": "uint8"
                },
                {
                    "internalType": "bytes",
                    "name": "data_",
                    "type": "bytes"
                }
            ],
            "name": "depositTokensOnBridges",
            "outputs": [],
            "stateMutability": "payable",
            "type": "function"
        },
        {
            "inputs": [
                {
                    "internalType": "uint256",
                    "name": "numBTK_",
                    "type": "uint256"
                }
            ],
            "name": "destroyBTokens",
            "outputs": [
                {
                    "internalType": "bool",
                    "name": "",
                    "type": "bool"
                }
            ],
            "stateMutability": "nonpayable",
            "type": "function"
        },
        {
            "inputs": [],
            "name": "distribute",
            "outputs": [
                {
                    "internalType": "bool",
                    "name": "",
                    "type": "bool"
                }
            ],
            "stateMutability": "nonpayable",
            "type": "function"
        },
        {
            "inputs": [],
            "name": "getCentralBridgeRouterAddress",
            "outputs": [
                {
                    "internalType": "address",
                    "name": "",
                    "type": "address"
                }
            ],
            "stateMutability": "view",
            "type": "function"
        },
        {
            "inputs": [
                {
                    "internalType": "uint256",
                    "name": "depositID",
                    "type": "uint256"
                }
            ],
            "name": "getDeposit",
            "outputs": [
                {
                    "components": [
                        {
                            "internalType": "uint8",
                            "name": "accountType",
                            "type": "uint8"
                        },
                        {
                            "internalType": "address",
                            "name": "account",
                            "type": "address"
                        },
                        {
                            "internalType": "uint256",
                            "name": "value",
                            "type": "uint256"
                        }
                    ],
                    "internalType": "struct Deposit",
                    "name": "",
                    "type": "tuple"
                }
            ],
            "stateMutability": "view",
            "type": "function"
        },
        {
            "inputs": [],
            "name": "getDepositID",
            "outputs": [
                {
                    "internalType": "uint256",
                    "name": "",
                    "type": "uint256"
                }
            ],
            "stateMutability": "view",
            "type": "function"
        },
        {
            "inputs": [
                {
                    "internalType": "uint256",
                    "name": "poolBalance_",
                    "type": "uint256"
                },
                {
                    "internalType": "uint256",
                    "name": "totalSupply_",
                    "type": "uint256"
                },
                {
                    "internalType": "uint256",
                    "name": "numBTK_",
                    "type": "uint256"
                }
            ],
            "name": "getEthFromBTokensBurn",
            "outputs": [
                {
                    "internalType": "uint256",
                    "name": "numEth",
                    "type": "uint256"
                }
            ],
            "stateMutability": "pure",
            "type": "function"
        },
        {
            "inputs": [
                {
                    "internalType": "uint256",
                    "name": "totalSupply_",
                    "type": "uint256"
                },
                {
                    "internalType": "uint256",
                    "name": "numBTK_",
                    "type": "uint256"
                }
            ],
            "name": "getEthToMintBTokens",
            "outputs": [
                {
                    "internalType": "uint256",
                    "name": "numEth",
                    "type": "uint256"
                }
            ],
            "stateMutability": "pure",
            "type": "function"
        },
        {
            "inputs": [
                {
                    "internalType": "uint256",
                    "name": "numBTK_",
                    "type": "uint256"
                }
            ],
            "name": "getLatestEthFromBTokensBurn",
            "outputs": [
                {
                    "internalType": "uint256",
                    "name": "numEth",
                    "type": "uint256"
                }
            ],
            "stateMutability": "view",
            "type": "function"
        },
        {
            "inputs": [
                {
                    "internalType": "uint256",
                    "name": "numBTK_",
                    "type": "uint256"
                }
            ],
            "name": "getLatestEthToMintBTokens",
            "outputs": [
                {
                    "internalType": "uint256",
                    "name": "numEth",
                    "type": "uint256"
                }
            ],
            "stateMutability": "view",
            "type": "function"
        },
        {
            "inputs": [
                {
                    "internalType": "uint256",
                    "name": "numEth_",
                    "type": "uint256"
                }
            ],
            "name": "getLatestMintedBTokensFromEth",
            "outputs": [
                {
                    "internalType": "uint256",
                    "name": "",
                    "type": "uint256"
                }
            ],
            "stateMutability": "view",
            "type": "function"
        },
        {
            "inputs": [],
            "name": "getMarketSpread",
            "outputs": [
                {
                    "internalType": "uint256",
                    "name": "",
                    "type": "uint256"
                }
            ],
            "stateMutability": "pure",
            "type": "function"
        },
        {
            "inputs": [
                {
                    "internalType": "bytes32",
                    "name": "_salt",
                    "type": "bytes32"
                },
                {
                    "internalType": "address",
                    "name": "_factory",
                    "type": "address"
                }
            ],
            "name": "getMetamorphicContractAddress",
            "outputs": [
                {
                    "internalType": "address",
                    "name": "",
                    "type": "address"
                }
            ],
            "stateMutability": "pure",
            "type": "function"
        },
        {
            "inputs": [
                {
                    "internalType": "uint256",
                    "name": "poolBalance_",
                    "type": "uint256"
                },
                {
                    "internalType": "uint256",
                    "name": "numEth_",
                    "type": "uint256"
                }
            ],
            "name": "getMintedBTokensFromEth",
            "outputs": [
                {
                    "internalType": "uint256",
                    "name": "",
                    "type": "uint256"
                }
            ],
            "stateMutability": "pure",
            "type": "function"
        },
        {
            "inputs": [],
            "name": "getPoolBalance",
            "outputs": [
                {
                    "internalType": "uint256",
                    "name": "",
                    "type": "uint256"
                }
            ],
            "stateMutability": "view",
            "type": "function"
        },
        {
            "inputs": [],
            "name": "getTotalBTokensDeposited",
            "outputs": [
                {
                    "internalType": "uint256",
                    "name": "",
                    "type": "uint256"
                }
            ],
            "stateMutability": "view",
            "type": "function"
        },
        {
            "inputs": [],
            "name": "getYield",
            "outputs": [
                {
                    "internalType": "uint256",
                    "name": "",
                    "type": "uint256"
                }
            ],
            "stateMutability": "view",
            "type": "function"
        },
        {
            "inputs": [
                {
                    "internalType": "address",
                    "name": "spender",
                    "type": "address"
                },
                {
                    "internalType": "uint256",
                    "name": "addedValue",
                    "type": "uint256"
                }
            ],
            "name": "increaseAllowance",
            "outputs": [
                {
                    "internalType": "bool",
                    "name": "",
                    "type": "bool"
                }
            ],
            "stateMutability": "nonpayable",
            "type": "function"
        },
        {
            "inputs": [
                {
                    "internalType": "uint256",
                    "name": "minBTK_",
                    "type": "uint256"
                }
            ],
            "name": "mint",
            "outputs": [
                {
                    "internalType": "uint256",
                    "name": "numBTK",
                    "type": "uint256"
                }
            ],
            "stateMutability": "payable",
            "type": "function"
        },
        {
            "inputs": [
                {
                    "internalType": "uint8",
                    "name": "accountType_",
                    "type": "uint8"
                },
                {
                    "internalType": "address",
                    "name": "to_",
                    "type": "address"
                },
                {
                    "internalType": "uint256",
                    "name": "minBTK_",
                    "type": "uint256"
                }
            ],
            "name": "mintDeposit",
            "outputs": [
                {
                    "internalType": "uint256",
                    "name": "",
                    "type": "uint256"
                }
            ],
            "stateMutability": "payable",
            "type": "function"
        },
        {
            "inputs": [
                {
                    "internalType": "address",
                    "name": "to_",
                    "type": "address"
                },
                {
                    "internalType": "uint256",
                    "name": "minBTK_",
                    "type": "uint256"
                }
            ],
            "name": "mintTo",
            "outputs": [
                {
                    "internalType": "uint256",
                    "name": "numBTK",
                    "type": "uint256"
                }
            ],
            "stateMutability": "payable",
            "type": "function"
        },
        {
            "inputs": [],
            "name": "name",
            "outputs": [
                {
                    "internalType": "string",
                    "name": "",
                    "type": "string"
                }
            ],
            "stateMutability": "view",
            "type": "function"
        },
        {
            "inputs": [],
            "name": "symbol",
            "outputs": [
                {
                    "internalType": "string",
                    "name": "",
                    "type": "string"
                }
            ],
            "stateMutability": "view",
            "type": "function"
        },
        {
            "inputs": [],
            "name": "totalSupply",
            "outputs": [
                {
                    "internalType": "uint256",
                    "name": "",
                    "type": "uint256"
                }
            ],
            "stateMutability": "view",
            "type": "function"
        },
        {
            "inputs": [
                {
                    "internalType": "address",
                    "name": "to",
                    "type": "address"
                },
                {
                    "internalType": "uint256",
                    "name": "amount",
                    "type": "uint256"
                }
            ],
            "name": "transfer",
            "outputs": [
                {
                    "internalType": "bool",
                    "name": "",
                    "type": "bool"
                }
            ],
            "stateMutability": "nonpayable",
            "type": "function"
        },
        {
            "inputs": [
                {
                    "internalType": "address",
                    "name": "from",
                    "type": "address"
                },
                {
                    "internalType": "address",
                    "name": "to",
                    "type": "address"
                },
                {
                    "internalType": "uint256",
                    "name": "amount",
                    "type": "uint256"
                }
            ],
            "name": "transferFrom",
            "outputs": [
                {
                    "internalType": "bool",
                    "name": "",
                    "type": "bool"
                }
            ],
            "stateMutability": "nonpayable",
            "type": "function"
        },
        {
            "inputs": [
                {
                    "internalType": "uint8",
                    "name": "accountType_",
                    "type": "uint8"
                },
                {
                    "internalType": "address",
                    "name": "to_",
                    "type": "address"
                },
                {
                    "internalType": "uint256",
                    "name": "amount_",
                    "type": "uint256"
                }
            ],
            "name": "virtualMintDeposit",
            "outputs": [
                {
                    "internalType": "uint256",
                    "name": "",
                    "type": "uint256"
                }
            ],
            "stateMutability": "nonpayable",
            "type": "function"
        }
    ],
    "bytecode": "0x60e06040523480156200001157600080fd5b5060405162002de738038062002de783398101604081905262000034916200033f565b336040518060400160405280601681526020017f416c6963654e6574205574696c69747920546f6b656e000000000000000000008152506040518060400160405280600481526020016320a621a160e11b815250816003908162000099919062000416565b506004620000a8828262000416565b5050506001600160a01b0316608052620000db6b2234b9ba3934b13aba34b7b760a11b620000d560805190565b62000145565b6001600160a01b0390811660a0528116620001095760405163f8783d8960e01b815260040160405180910390fd5b6001600160a01b03811660c0526200013d600173ba7809a4114eef598132461f3202b5013e834cd564746a528800620001da565b505062000504565b6040517fff0000000000000000000000000000000000000000000000000000000000000060208201526001600160601b0319606083901b166021820152603581018390527f1c0bf703a3415cada9785e89e9d70314c3111ae7d8e04f33bb42eb1d264088be605582018190526000916075016040516020818303038152906040528051906020012060001c9150505b92915050565b6000823b156200020c576040516398d63c0960e01b81526001600160a01b038416600482015260240160405180910390fd5b816000036200022e57604051635d66204960e11b815260040160405180910390fd5b6200023b84848462000243565b949350505050565b6000806007546001620002579190620004e2565b6040805160608082018352600080835260208084018290529284018190528351918201845260ff8a811683526001600160a01b038a81168486019081528487018b81528885526009909652958320935184549651909116610100026001600160a81b03199096169116179390931781559051600190910155600880549293508592909190620002e8908490620004e2565b909155505060078190556040518381526001600160a01b0385169060ff87169083907f9d291e7244fa9bf5a85ec47d5a52012ccc92231b41c94308155ad2702eef9d4d9060200160405180910390a4949350505050565b6000602082840312156200035257600080fd5b81516001600160a01b03811681146200036a57600080fd5b9392505050565b634e487b7160e01b600052604160045260246000fd5b600181811c908216806200039c57607f821691505b602082108103620003bd57634e487b7160e01b600052602260045260246000fd5b50919050565b601f8211156200041157600081815260208120601f850160051c81016020861015620003ec5750805b601f850160051c820191505b818110156200040d57828155600101620003f8565b5050505b505050565b81516001600160401b0381111562000432576200043262000371565b6200044a8162000443845462000387565b84620003c3565b602080601f831160018114620004825760008415620004695750858301515b600019600386901b1c1916600185901b1785556200040d565b600085815260208120601f198616915b82811015620004b35788860151825594840194600190910190840162000492565b5085821015620004d25787850151600019600388901b60f8161c191681555b5050505050600190811b01905550565b80820180821115620001d457634e487b7160e01b600052601160045260246000fd5b60805160a05160c0516128a562000542600039600081816107960152610c5b0152600061196d01526000818161098801526109f001526128a56000f3fe6080604052600436106102335760003560e01c80638653a46511610138578063abd70aa2116100b0578063c425d3a01161007f578063dd62ed3e11610064578063dd62ed3e1461071f578063e4fc6b6d14610772578063ff32fefc1461078757600080fd5b8063c425d3a0146106ea578063c4602af31461070a57600080fd5b8063abd70aa214610675578063b390c0ab1461068a578063bcd6abb4146106aa578063c3559a18146106ca57600080fd5b80639b05720311610107578063a0712d68116100ec578063a0712d6814610622578063a457c2d714610635578063a9059cbb1461065557600080fd5b80639b057203146105a75780639f9fb968146105c757600080fd5b80638653a46514610455578063921782781461055d57806394f70c8a1461057d57806395d89b411461059257600080fd5b8063313ce567116101cb5780635878677c1161019a57806370a082311161017f57806370a08231146103dd5780637c26287114610420578063823fa03a1461043557600080fd5b80635878677c146103a85780635ecef3af146103c857600080fd5b8063313ce567146103465780633950935114610362578063449a52f8146103825780634f2326281461039557600080fd5b8063095ea7b311610207578063095ea7b3146102c157806318160ddd146102f157806323b872dd146103065780632dc6b0241461032657600080fd5b80628381721461023857806306f1ad831461026b57806306fdde031461028b578063086cfefd146102ad575b600080fd5b34801561024457600080fd5b506102586102533660046122ec565b6107ba565b6040519081526020015b60405180910390f35b34801561027757600080fd5b50610258610286366004612328565b6107cf565b34801561029757600080fd5b506102a06107e4565b604051610262919061234a565b3480156102b957600080fd5b506004610258565b3480156102cd57600080fd5b506102e16102dc3660046123b6565b610876565b6040519015158152602001610262565b3480156102fd57600080fd5b50600254610258565b34801561031257600080fd5b506102e16103213660046123e0565b61088e565b34801561033257600080fd5b506102e16103413660046123fe565b6108b2565b34801561035257600080fd5b5060405160128152602001610262565b34801561036e57600080fd5b506102e161037d3660046123b6565b6108c7565b6102586103903660046123b6565b610913565b6102586103a33660046122ec565b610920565b3480156103b457600080fd5b506102586103c33660046123fe565b61092e565b3480156103d457600080fd5b50600854610258565b3480156103e957600080fd5b506102586103f8366004612417565b73ffffffffffffffffffffffffffffffffffffffff1660009081526020819052604090205490565b34801561042c57600080fd5b50610258610948565b34801561044157600080fd5b50610258610450366004612328565b61095d565b34801561046157600080fd5b50610538610470366004612432565b6040517fff0000000000000000000000000000000000000000000000000000000000000060208201527fffffffffffffffffffffffffffffffffffffffff000000000000000000000000606083901b166021820152603581018390527f1c0bf703a3415cada9785e89e9d70314c3111ae7d8e04f33bb42eb1d264088be60558201819052600091607501604080517fffffffffffffffffffffffffffffffffffffffffffffffffffffffffffffffe08184030181529190528051602090910120949350505050565b60405173ffffffffffffffffffffffffffffffffffffffff9091168152602001610262565b34801561056957600080fd5b506102586105783660046122ec565b61096e565b34801561058957600080fd5b50600754610258565b34801561059e57600080fd5b506102a0610a2d565b3480156105b357600080fd5b506102586105c236600461245e565b610a3c565b3480156105d357600080fd5b506105e76105e23660046123fe565b610a4a565b60408051825160ff16815260208084015173ffffffffffffffffffffffffffffffffffffffff16908201529181015190820152606001610262565b6102586106303660046123fe565b610ae9565b34801561064157600080fd5b506102e16106503660046123b6565b610af6565b34801561066157600080fd5b506102e16106703660046123b6565b610bc7565b34801561068157600080fd5b50600654610258565b34801561069657600080fd5b506102586106a5366004612328565b610bd5565b3480156106b657600080fd5b506102586106c53660046123fe565b610be3565b3480156106d657600080fd5b506102586106e5366004612491565b610bf7565b3480156106f657600080fd5b506102586107053660046123fe565b610c04565b61071d6107183660046124bd565b610c1b565b005b34801561072b57600080fd5b5061025861073a366004612540565b73ffffffffffffffffffffffffffffffffffffffff918216600090815260016020908152604080832093909416825291909152205490565b34801561077e57600080fd5b506102e1610d62565b34801561079357600080fd5b507f0000000000000000000000000000000000000000000000000000000000000000610538565b60006107c7848484610d6c565b949350505050565b60006107db8383610e47565b90505b92915050565b6060600380546107f39061256a565b80601f016020809104026020016040519081016040528092919081815260200182805461081f9061256a565b801561086c5780601f106108415761010080835404028352916020019161086c565b820191906000526020600020905b81548152906001019060200180831161084f57829003601f168201915b5050505050905090565b600033610884818585610e7a565b5060019392505050565b60003361089c85828561102d565b6108a7858585611104565b506001949350505050565b60006108be33836113b7565b50600192915050565b33600081815260016020908152604080832073ffffffffffffffffffffffffffffffffffffffff87168452909152812054909190610884908290869061090e9087906125e6565b610e7a565b60006107db833484611426565b60006107c7848484346114f0565b60006107de6006546004846109439190612628565b6115fd565b6000600654476109589190612663565b905090565b60006107db83610943600485612628565b60003373ffffffffffffffffffffffffffffffffffffffff7f00000000000000000000000000000000000000000000000000000000000000001614610a22576040517f0f634fbe00000000000000000000000000000000000000000000000000000000815233600482015273ffffffffffffffffffffffffffffffffffffffff7f00000000000000000000000000000000000000000000000000000000000000001660248201526044015b60405180910390fd5b6107c7848484611624565b6060600480546107f39061256a565b60006107c7338585856116b1565b604080516060808201835260008083526020808401829052838501829052858252600981529084902084519283018552805460ff81168452610100900473ffffffffffffffffffffffffffffffffffffffff16918301829052600101549382019390935290916107de576040517f78ad7caa00000000000000000000000000000000000000000000000000000000815260048101849052602401610a19565b60006107de333484611426565b33600081815260016020908152604080832073ffffffffffffffffffffffffffffffffffffffff8716845290915281205490919083811015610bba576040517f08c379a000000000000000000000000000000000000000000000000000000000815260206004820152602560248201527f45524332303a2064656372656173656420616c6c6f77616e63652062656c6f7760448201527f207a65726f0000000000000000000000000000000000000000000000000000006064820152608401610a19565b6108a78286868403610e7a565b600033610884818585611104565b60006107db333385856116b1565b60006107de610bf160025490565b83610e47565b60006107c784848461177a565b60006107de600654610c1560025490565b8461177a565b6040517ff6d5d54700000000000000000000000000000000000000000000000000000000815260009073ffffffffffffffffffffffffffffffffffffffff7f0000000000000000000000000000000000000000000000000000000000000000169063f6d5d54790610c96903390889088908890600401612676565b6020604051808303816000875af1158015610cb5573d6000803e3d6000fd5b505050506040513d601f19601f82011682018060405250810190610cd991906126ea565b90503415610d51576000610cef610bf160025490565b905034811115610d34576040517fa458261b00000000000000000000000000000000000000000000000000000000815234600482015260248101829052604401610a19565b34818103908214610d4957610d4933826117e9565b505050505050565b610d5b33826113b7565b5050505050565b6000610958611901565b6000823b15610dbf576040517f98d63c0900000000000000000000000000000000000000000000000000000000815273ffffffffffffffffffffffffffffffffffffffff84166004820152602401610a19565b81600003610df9576040517fbacc409200000000000000000000000000000000000000000000000000000000815260040160405180910390fd5b610e0333836113b7565b610e3c576040517f5377cd3a00000000000000000000000000000000000000000000000000000000815260048101839052602401610a19565b6107c78484846119e4565b60006004610e5484611b0e565b610e66610e6185876125e6565b611b0e565b610e709190612663565b6107db9190612703565b73ffffffffffffffffffffffffffffffffffffffff8316610f1c576040517f08c379a0000000000000000000000000000000000000000000000000000000008152602060048201526024808201527f45524332303a20617070726f76652066726f6d20746865207a65726f2061646460448201527f72657373000000000000000000000000000000000000000000000000000000006064820152608401610a19565b73ffffffffffffffffffffffffffffffffffffffff8216610fbf576040517f08c379a000000000000000000000000000000000000000000000000000000000815260206004820152602260248201527f45524332303a20617070726f766520746f20746865207a65726f20616464726560448201527f73730000000000000000000000000000000000000000000000000000000000006064820152608401610a19565b73ffffffffffffffffffffffffffffffffffffffff83811660008181526001602090815260408083209487168084529482529182902085905590518481527f8c5be1e5ebec7d5bd14f71427d1e84f3dd0314c0f7b2291e5b200ac8c7c3b925910160405180910390a3505050565b73ffffffffffffffffffffffffffffffffffffffff8381166000908152600160209081526040808320938616835292905220547fffffffffffffffffffffffffffffffffffffffffffffffffffffffffffffffff81146110fe57818110156110f1576040517f08c379a000000000000000000000000000000000000000000000000000000000815260206004820152601d60248201527f45524332303a20696e73756666696369656e7420616c6c6f77616e63650000006044820152606401610a19565b6110fe8484848403610e7a565b50505050565b73ffffffffffffffffffffffffffffffffffffffff83166111a7576040517f08c379a000000000000000000000000000000000000000000000000000000000815260206004820152602560248201527f45524332303a207472616e736665722066726f6d20746865207a65726f20616460448201527f64726573730000000000000000000000000000000000000000000000000000006064820152608401610a19565b73ffffffffffffffffffffffffffffffffffffffff821661124a576040517f08c379a000000000000000000000000000000000000000000000000000000000815260206004820152602360248201527f45524332303a207472616e7366657220746f20746865207a65726f206164647260448201527f65737300000000000000000000000000000000000000000000000000000000006064820152608401610a19565b73ffffffffffffffffffffffffffffffffffffffff831660009081526020819052604090205481811015611300576040517f08c379a000000000000000000000000000000000000000000000000000000000815260206004820152602660248201527f45524332303a207472616e7366657220616d6f756e742065786365656473206260448201527f616c616e636500000000000000000000000000000000000000000000000000006064820152608401610a19565b73ffffffffffffffffffffffffffffffffffffffff8085166000908152602081905260408082208585039055918516815290812080548492906113449084906125e6565b925050819055508273ffffffffffffffffffffffffffffffffffffffff168473ffffffffffffffffffffffffffffffffffffffff167fddf252ad1be2c89b69c2b068fc378daa952ba7f163c4a11628f55a4df523b3ef846040516113aa91815260200190565b60405180910390a36110fe565b6000816000036113f6576040517f37fad59a00000000000000000000000000000000000000000000000000000000815260048101839052602401610a19565b611405600654610c1560025490565b600660008282546114169190612663565b909155506108be90508383611c8c565b6000600483101561146c576040517fdbf2fcf300000000000000000000000000000000000000000000000000000000815260048181018590526024820152604401610a19565b611477600484612628565b60065490935061148781856115fd565b9150828210156114cd576040517ff08ba6b50000000000000000000000000000000000000000000000000000000081526004810183905260248101849052604401610a19565b6114d784826125e6565b600681905590506114e88583611e79565b509392505050565b6000833b15611543576040517f98d63c0900000000000000000000000000000000000000000000000000000000815273ffffffffffffffffffffffffffffffffffffffff85166004820152602401610a19565b6004821015611587576040517fdbf2fcf300000000000000000000000000000000000000000000000000000000815260048181018490526024820152604401610a19565b611592600483612628565b915060006115a2600654846115fd565b9050838110156115e8576040517f3ebbc3370000000000000000000000000000000000000000000000000000000081526004810182905260248101859052604401610a19565b6115f38686836119e4565b9695505050505050565b600061160883611f99565b61161a61161584866125e6565b611f99565b6107db9190612663565b6000823b15611677576040517f98d63c0900000000000000000000000000000000000000000000000000000000815273ffffffffffffffffffffffffffffffffffffffff84166004820152602401610a19565b81600003610e3c576040517fbacc409200000000000000000000000000000000000000000000000000000000815260040160405180910390fd5b6000826000036116f0576040517f37fad59a00000000000000000000000000000000000000000000000000000000815260048101849052602401610a19565b6006546117068161170060025490565b8661177a565b91508282101561174c576040517f3ca38bd00000000000000000000000000000000000000000000000000000000081526004810183905260248101849052604401610a19565b6117568282612663565b600681905590506117678685611c8c565b61177185836117e9565b50949350505050565b6000818310156117c0576040517f3f09b88e0000000000000000000000000000000000000000000000000000000081526004810183905260248101849052604401610a19565b6107c7846117d1610e618587612663565b6117da86611b0e565b6117e49190612663565b612019565b806000036117f5575050565b73ffffffffffffffffffffffffffffffffffffffff8216611842576040517f6f5ec9ea00000000000000000000000000000000000000000000000000000000815260040160405180910390fd5b604051829060009073ffffffffffffffffffffffffffffffffffffffff83169084908381818185875af1925050503d806000811461189c576040519150601f19603f3d011682016040523d82523d6000602084013e6118a1565b606091505b50509050806110fe576040517fb250066300000000000000000000000000000000000000000000000000000000815230600482015273ffffffffffffffffffffffffffffffffffffffff8516602482015260448101849052606401610a19565b600060016005540361193f576040517f1de1b9af00000000000000000000000000000000000000000000000000000000815260040160405180910390fd5b600160055560065460006119538247612663565b905080600003611968576001925050506119dc565b6119927f00000000000000000000000000000000000000000000000000000000000000008261202f565b814710156119d5576040517f8a74c51400000000000000000000000000000000000000000000000000000000815247600482015260248101839052604401610a19565b6001925050505b600260055590565b60008060075460016119f691906125e6565b6040805160608082018352600080835260208084018290529284018190528351918201845260ff8a8116835273ffffffffffffffffffffffffffffffffffffffff8a81168486019081528487018b81528885526009909652958320935184549651909116610100027fffffffffffffffffffffff0000000000000000000000000000000000000000009096169116179390931781559051600190910155600880549293508592909190611aaa9084906125e6565b9091555050600781905560405183815273ffffffffffffffffffffffffffffffffffffffff85169060ff87169083907f9d291e7244fa9bf5a85ec47d5a52012ccc92231b41c94308155ad2702eef9d4d9060200160405180910390a4949350505050565b60006004611b1e60c86002612703565b611b2891906125e6565b611b33906004612703565b611b4768878678326eac90000060c8612703565b6888dfb255fe11c2f3ac611b5d600460c86125e6565b611b679190612703565b611b7191906125e6565b611b7c9060c8612703565b611c578468878678326eac900000611b96600460c86125e6565b611ba09190612703565b611bb46888dfb255fe11c2f3ac60c8612703565b611bbe91906125e6565b611bc9906002612703565b611bd39190612703565b6002611be968878678326eac90000060c8612703565b6888dfb255fe11c2f3ac611bff600460c86125e6565b611c099190612703565b611c1391906125e6565b611c1d9190612860565b611c28600288612860565b611c3291906125e6565b611c3c9190612663565b611c48600260c8612860565b611c529190612703565b6120bd565b84611c64600460c86125e6565b611c6e9190612703565b611c7891906125e6565b611c829190612663565b6107de9190612628565b73ffffffffffffffffffffffffffffffffffffffff8216611d2f576040517f08c379a000000000000000000000000000000000000000000000000000000000815260206004820152602160248201527f45524332303a206275726e2066726f6d20746865207a65726f2061646472657360448201527f73000000000000000000000000000000000000000000000000000000000000006064820152608401610a19565b73ffffffffffffffffffffffffffffffffffffffff821660009081526020819052604090205481811015611de5576040517f08c379a000000000000000000000000000000000000000000000000000000000815260206004820152602260248201527f45524332303a206275726e20616d6f756e7420657863656564732062616c616e60448201527f63650000000000000000000000000000000000000000000000000000000000006064820152608401610a19565b73ffffffffffffffffffffffffffffffffffffffff83166000908152602081905260408120838303905560028054849290611e21908490612663565b909155505060405182815260009073ffffffffffffffffffffffffffffffffffffffff8516907fddf252ad1be2c89b69c2b068fc378daa952ba7f163c4a11628f55a4df523b3ef9060200160405180910390a3505050565b73ffffffffffffffffffffffffffffffffffffffff8216611ef6576040517f08c379a000000000000000000000000000000000000000000000000000000000815260206004820152601f60248201527f45524332303a206d696e7420746f20746865207a65726f2061646472657373006044820152606401610a19565b8060026000828254611f0891906125e6565b909155505073ffffffffffffffffffffffffffffffffffffffff821660009081526020819052604081208054839290611f429084906125e6565b909155505060405181815273ffffffffffffffffffffffffffffffffffffffff8316906000907fddf252ad1be2c89b69c2b068fc378daa952ba7f163c4a11628f55a4df523b3ef9060200160405180910390a35050565b6000611fda71016f578c4e0a0610001239056923109ffb906002611fc668878678326eac90000086612291565b611fd09190612860565b611c3c91906125e6565b611fee6888dfb255fe11c2f3ac60c8612703565b83611ffb600460c86125e6565b6120059190612703565b61200f91906125e6565b6107de9190612663565b60008183116120295750816107de565b50919050565b73ffffffffffffffffffffffffffffffffffffffff82166399a89ecc82602a6040517fffffffff0000000000000000000000000000000000000000000000000000000060e085901b16815260ff90911660048201526024016000604051808303818588803b1580156120a057600080fd5b505af11580156120b4573d6000803e3d6000fd5b50505050505050565b6000600182116120cb575090565b7ffffffffffffffffffffffffffffffffe00000000000000000000000000000001821061210957506fffffffffffffffffffffffffffffffff919050565b600182700100000000000000000000000000000000811061212c576080918201911c5b680100000000000000008110612144576040918201911c5b6401000000008110612158576020918201911c5b62010000811061216a576010918201911c5b610100811061217b576008918201911c5b6010811061218b576004918201911c5b6004811061219b576002918201911c5b600281106121aa576001820191505b5061010003600190811c906002820284901b60fe81901c909101908160fb82901c816121d8576121d86125f9565b04600183901b0191508160f582901c816121f4576121f46125f9565b04600383901b0191508160e982901c81612210576122106125f9565b04600783901b0191508160d182901c8161222c5761222c6125f9565b04600f83901b0191508160a182901c81612248576122486125f9565b04601f83901b01915081604182901c81612264576122646125f9565b04603f83901b0191508282901c91508482830211156122865760018203612288565b815b95945050505050565b600061229d8383612019565b61161a848460008183106120295750816107de565b803560ff811681146122c357600080fd5b919050565b803573ffffffffffffffffffffffffffffffffffffffff811681146122c357600080fd5b60008060006060848603121561230157600080fd5b61230a846122b2565b9250612318602085016122c8565b9150604084013590509250925092565b6000806040838503121561233b57600080fd5b50508035926020909101359150565b600060208083528351808285015260005b818110156123775785810183015185820160400152820161235b565b5060006040828601015260407fffffffffffffffffffffffffffffffffffffffffffffffffffffffffffffffe0601f8301168501019250505092915050565b600080604083850312156123c957600080fd5b6123d2836122c8565b946020939093013593505050565b6000806000606084860312156123f557600080fd5b61230a846122c8565b60006020828403121561241057600080fd5b5035919050565b60006020828403121561242957600080fd5b6107db826122c8565b6000806040838503121561244557600080fd5b82359150612455602084016122c8565b90509250929050565b60008060006060848603121561247357600080fd5b61247c846122c8565b95602085013595506040909401359392505050565b6000806000606084860312156124a657600080fd5b505081359360208301359350604090920135919050565b6000806000604084860312156124d257600080fd5b6124db846122b2565b9250602084013567ffffffffffffffff808211156124f857600080fd5b818601915086601f83011261250c57600080fd5b81358181111561251b57600080fd5b87602082850101111561252d57600080fd5b6020830194508093505050509250925092565b6000806040838503121561255357600080fd5b61255c836122c8565b9150612455602084016122c8565b600181811c9082168061257e57607f821691505b602082108103612029577f4e487b7100000000000000000000000000000000000000000000000000000000600052602260045260246000fd5b7f4e487b7100000000000000000000000000000000000000000000000000000000600052601160045260246000fd5b808201808211156107de576107de6125b7565b7f4e487b7100000000000000000000000000000000000000000000000000000000600052601260045260246000fd5b60008261265e577f4e487b7100000000000000000000000000000000000000000000000000000000600052601260045260246000fd5b500490565b818103818111156107de576107de6125b7565b73ffffffffffffffffffffffffffffffffffffffff8516815260ff8416602082015260606040820152816060820152818360808301376000818301608090810191909152601f9092017fffffffffffffffffffffffffffffffffffffffffffffffffffffffffffffffe01601019392505050565b6000602082840312156126fc57600080fd5b5051919050565b6000817fffffffffffffffffffffffffffffffffffffffffffffffffffffffffffffffff048311821515161561273b5761273b6125b7565b500290565b600181815b8085111561279957817fffffffffffffffffffffffffffffffffffffffffffffffffffffffffffffffff0482111561277f5761277f6125b7565b8085161561278c57918102915b93841c9390800290612745565b509250929050565b6000826127b0575060016107de565b816127bd575060006107de565b81600181146127d357600281146127dd576127f9565b60019150506107de565b60ff8411156127ee576127ee6125b7565b50506001821b6107de565b5060208310610133831016604e8410600b841016171561281c575081810a6107de565b6128268383612740565b807fffffffffffffffffffffffffffffffffffffffffffffffffffffffffffffffff04821115612858576128586125b7565b029392505050565b60006107db60ff8416836127a156fea26469706673582212206ace2c067238958c265c6dfa923aae3b324007970e89af28dc98816aa7474b5764736f6c63430008100033",
    "linkReferences": {},
    "deployedLinkReferences": {}
}