{
  "_format": "hh-sol-artifact-1",
  "contractName": "AliceNetFactory",
  "sourceName": "contracts/AliceNetFactory.sol",
  "abi": [
    {
      "inputs": [
        {
          "internalType": "address",
          "name": "legacyToken_",
          "type": "address"
        }
      ],
      "stateMutability": "nonpayable",
      "type": "constructor"
    },
    {
      "inputs": [],
      "name": "CodeSizeZero",
      "type": "error"
    },
    {
      "inputs": [
        {
          "internalType": "address",
          "name": "current",
          "type": "address"
        },
        {
          "internalType": "address",
          "name": "expected",
          "type": "address"
        }
      ],
      "name": "IncorrectProxyImplementation",
      "type": "error"
    },
    {
      "inputs": [
        {
          "internalType": "bytes32",
          "name": "salt",
          "type": "bytes32"
        }
      ],
      "name": "SaltAlreadyInUse",
      "type": "error"
    },
    {
      "inputs": [],
      "name": "Unauthorized",
      "type": "error"
    },
    {
      "anonymous": false,
      "inputs": [
        {
          "indexed": false,
          "internalType": "bytes32",
          "name": "salt",
          "type": "bytes32"
        },
        {
          "indexed": false,
          "internalType": "address",
          "name": "contractAddr",
          "type": "address"
        }
      ],
      "name": "Deployed",
      "type": "event"
    },
    {
      "anonymous": false,
      "inputs": [
        {
          "indexed": false,
          "internalType": "address",
          "name": "contractAddr",
          "type": "address"
        }
      ],
      "name": "DeployedProxy",
      "type": "event"
    },
    {
      "anonymous": false,
      "inputs": [
        {
          "indexed": false,
          "internalType": "address",
          "name": "contractAddr",
          "type": "address"
        }
      ],
      "name": "DeployedRaw",
      "type": "event"
    },
    {
      "anonymous": false,
      "inputs": [
        {
          "indexed": false,
          "internalType": "address",
          "name": "contractAddr",
          "type": "address"
        }
      ],
      "name": "DeployedStatic",
      "type": "event"
    },
    {
      "anonymous": false,
      "inputs": [
        {
          "indexed": false,
          "internalType": "address",
          "name": "contractAddr",
          "type": "address"
        }
      ],
      "name": "DeployedTemplate",
      "type": "event"
    },
    {
      "anonymous": false,
      "inputs": [
        {
          "indexed": false,
          "internalType": "bytes32",
          "name": "salt",
          "type": "bytes32"
        },
        {
          "indexed": false,
          "internalType": "address",
          "name": "proxyAddr",
          "type": "address"
        },
        {
          "indexed": false,
          "internalType": "address",
          "name": "newlogicAddr",
          "type": "address"
        }
      ],
      "name": "UpgradedProxy",
      "type": "event"
    },
    {
      "stateMutability": "nonpayable",
      "type": "fallback"
    },
    {
      "inputs": [
        {
          "internalType": "bytes32",
          "name": "salt_",
          "type": "bytes32"
        },
        {
          "internalType": "address",
          "name": "newContractAddress_",
          "type": "address"
        }
      ],
      "name": "addNewExternalContract",
      "outputs": [],
      "stateMutability": "nonpayable",
      "type": "function"
    },
    {
      "inputs": [
        {
          "internalType": "address",
          "name": "target_",
          "type": "address"
        },
        {
          "internalType": "uint256",
          "name": "value_",
          "type": "uint256"
        },
        {
          "internalType": "bytes",
          "name": "cdata_",
          "type": "bytes"
        }
      ],
      "name": "callAny",
      "outputs": [
        {
          "internalType": "bytes",
          "name": "",
          "type": "bytes"
        }
      ],
      "stateMutability": "payable",
      "type": "function"
    },
    {
      "inputs": [],
      "name": "contracts",
      "outputs": [
        {
          "internalType": "bytes32[]",
          "name": "contracts_",
          "type": "bytes32[]"
        }
      ],
      "stateMutability": "view",
      "type": "function"
    },
    {
      "inputs": [
        {
          "internalType": "bytes",
          "name": "deployCode_",
          "type": "bytes"
        }
      ],
      "name": "deployCreate",
      "outputs": [
        {
          "internalType": "address",
          "name": "contractAddr",
          "type": "address"
        }
      ],
      "stateMutability": "nonpayable",
      "type": "function"
    },
    {
      "inputs": [
        {
          "internalType": "uint256",
          "name": "value_",
          "type": "uint256"
        },
        {
          "internalType": "bytes32",
          "name": "salt_",
          "type": "bytes32"
        },
        {
          "internalType": "bytes",
          "name": "deployCode_",
          "type": "bytes"
        }
      ],
      "name": "deployCreate2",
      "outputs": [
        {
          "internalType": "address",
          "name": "contractAddr",
          "type": "address"
        }
      ],
      "stateMutability": "payable",
      "type": "function"
    },
    {
      "inputs": [
        {
          "internalType": "bytes",
          "name": "deployCode_",
          "type": "bytes"
        },
        {
          "internalType": "bytes32",
          "name": "salt_",
          "type": "bytes32"
        }
      ],
      "name": "deployCreateAndRegister",
      "outputs": [
        {
          "internalType": "address",
          "name": "contractAddr",
          "type": "address"
        }
      ],
      "stateMutability": "nonpayable",
      "type": "function"
    },
    {
      "inputs": [
        {
          "internalType": "bytes32",
          "name": "salt_",
          "type": "bytes32"
        }
      ],
      "name": "deployProxy",
      "outputs": [
        {
          "internalType": "address",
          "name": "contractAddr",
          "type": "address"
        }
      ],
      "stateMutability": "nonpayable",
      "type": "function"
    },
    {
      "inputs": [],
      "name": "getALCAAddress",
      "outputs": [
        {
          "internalType": "address",
          "name": "",
          "type": "address"
        }
      ],
      "stateMutability": "view",
      "type": "function"
    },
    {
      "inputs": [],
      "name": "getALCACreationCodeHash",
      "outputs": [
        {
          "internalType": "bytes32",
          "name": "",
          "type": "bytes32"
        }
      ],
      "stateMutability": "view",
      "type": "function"
    },
    {
      "inputs": [],
      "name": "getImplementation",
      "outputs": [
        {
          "internalType": "address",
          "name": "",
          "type": "address"
        }
      ],
      "stateMutability": "view",
      "type": "function"
    },
    {
      "inputs": [
        {
          "internalType": "bytes32",
          "name": "_salt",
          "type": "bytes32"
        },
        {
          "internalType": "address",
          "name": "_factory",
          "type": "address"
        }
      ],
      "name": "getMetamorphicContractAddress",
      "outputs": [
        {
          "internalType": "address",
          "name": "",
          "type": "address"
        }
      ],
      "stateMutability": "pure",
      "type": "function"
    },
    {
      "inputs": [],
      "name": "getNumContracts",
      "outputs": [
        {
          "internalType": "uint256",
          "name": "",
          "type": "uint256"
        }
      ],
      "stateMutability": "view",
      "type": "function"
    },
    {
      "inputs": [
        {
          "internalType": "address",
          "name": "proxyAddress_",
          "type": "address"
        }
      ],
      "name": "getProxyImplementation",
      "outputs": [
        {
          "internalType": "address",
          "name": "",
          "type": "address"
        }
      ],
      "stateMutability": "view",
      "type": "function"
    },
    {
      "inputs": [
        {
          "internalType": "address",
          "name": "contract_",
          "type": "address"
        },
        {
          "internalType": "bytes",
          "name": "initCallData_",
          "type": "bytes"
        }
      ],
      "name": "initializeContract",
      "outputs": [],
      "stateMutability": "nonpayable",
      "type": "function"
    },
    {
      "inputs": [
        {
          "internalType": "bytes32",
          "name": "salt_",
          "type": "bytes32"
        }
      ],
      "name": "lookup",
      "outputs": [
        {
          "internalType": "address",
          "name": "",
          "type": "address"
        }
      ],
      "stateMutability": "view",
      "type": "function"
    },
    {
      "inputs": [
        {
          "components": [
            {
              "internalType": "address",
              "name": "target",
              "type": "address"
            },
            {
              "internalType": "uint256",
              "name": "value",
              "type": "uint256"
            },
            {
              "internalType": "bytes",
              "name": "data",
              "type": "bytes"
            }
          ],
          "internalType": "struct AliceNetFactoryBase.MultiCallArgs[]",
          "name": "cdata_",
          "type": "tuple[]"
        }
      ],
      "name": "multiCall",
      "outputs": [
        {
          "internalType": "bytes[]",
          "name": "",
          "type": "bytes[]"
        }
      ],
      "stateMutability": "nonpayable",
      "type": "function"
    },
    {
      "inputs": [],
      "name": "owner",
      "outputs": [
        {
          "internalType": "address",
          "name": "owner_",
          "type": "address"
        }
      ],
      "stateMutability": "view",
      "type": "function"
    },
    {
      "inputs": [
        {
          "internalType": "address",
          "name": "newOwner_",
          "type": "address"
        }
      ],
      "name": "setOwner",
      "outputs": [],
      "stateMutability": "nonpayable",
      "type": "function"
    },
    {
      "inputs": [
        {
          "internalType": "bytes32",
          "name": "salt_",
          "type": "bytes32"
        },
        {
          "internalType": "address",
          "name": "newImpl_",
          "type": "address"
        },
        {
          "internalType": "bytes",
          "name": "initCallData_",
          "type": "bytes"
        }
      ],
      "name": "upgradeProxy",
      "outputs": [],
      "stateMutability": "nonpayable",
      "type": "function"
    }
  ],
  "bytecode": "0x60e06040523480156200001157600080fd5b5060405162003926380380620039268339810160408190526200003491620001c0565b6040516000906738585839386009f360c01b906200005560208201620001a4565b601f1982820381018352601f9091011660408190526200007c929190309060200162000224565b604051602081830303815290604052905060008151602083016000f0905080620000aa573d6000803e3d6000fd5b6001600160a01b031660805250600080546001600160a01b03191633178155604051620000da60208201620001b2565b601f1982820381018352601f9091011660408190526200010991906001600160a01b0385169060200162000250565b6040516020818303038152906040529050600063414c434160e01b8251602084016000f590506200013d813b151562000182565b6001600160a01b03811660c0526040516200015d9083906020016200026b565b60408051601f19818403018152919052805160209091012060a0525062000279915050565b80620001a157604051632f1c9d9360e11b815260040160405180910390fd5b50565b6102db8062001b1683390190565b611b358062001df183390190565b600060208284031215620001d357600080fd5b81516001600160a01b0381168114620001eb57600080fd5b9392505050565b6000815160005b81811015620002155760208185018101518683015201620001f9565b50600093019283525090919050565b6001600160c01b0319841681526000620002426008830185620001f2565b928352505060200192915050565b60006200025e8285620001f2565b9283525050602001919050565b6000620001eb8284620001f2565b60805160a05160c051611866620002b060003960008181610454015261088c015260006103ec01526000610d1e01526118666000f3fe6080604052600436106101445760003560e01c80636c0f79b6116100c0578063b8a8732c11610074578063cfe10b3011610059578063cfe10b3014610498578063e1d7a8e4146104ad578063f39ec1f7146104cd57610144565b8063b8a8732c14610445578063c56ca9ed1461047857610144565b80638da5cb5b116100a55780638da5cb5b146103b2578063a9c6e2cc146103dd578063aaf10f421461041a57610144565b80636c0f79b6146102ad5780638653a465146102cf57610144565b8063248b17011161011757806339cab472116100fc57806339cab4721461025a57806356f2a7611461027a5780636973694c1461028d57610144565b8063248b17011461020d57806327fe18221461023a57610144565b8063043c94141461015d57806312e6bf6a1461017f57806313af4035146101a8578063204e1c7a146101c8575b34801561015057600080fd5b5060025460005260206000f35b34801561016957600080fd5b5061017d6101783660046112c3565b6104ed565b005b61019261018d36600461131d565b610559565b60405161019f91906113cd565b60405180910390f35b3480156101b457600080fd5b5061017d6101c33660046113e0565b6105da565b3480156101d457600080fd5b506101e86101e33660046113e0565b61064b565b60405173ffffffffffffffffffffffffffffffffffffffff909116815260200161019f565b34801561021957600080fd5b5061022d6102283660046113fb565b61065c565b60405161019f9190611470565b34801561024657600080fd5b506101e86102553660046114f0565b610699565b34801561026657600080fd5b506101e8610275366004611532565b6106cf565b6101e861028836600461154b565b610704565b34801561029957600080fd5b5061017d6102a8366004611586565b610745565b3480156102b957600080fd5b506102c261078a565b60405161019f91906115b2565b3480156102db57600080fd5b506101e86102ea366004611586565b6040517fff0000000000000000000000000000000000000000000000000000000000000060208201527fffffffffffffffffffffffffffffffffffffffff000000000000000000000000606083901b166021820152603581018390527f1c0bf703a3415cada9785e89e9d70314c3111ae7d8e04f33bb42eb1d264088be60558201819052600091607501604080517fffffffffffffffffffffffffffffffffffffffffffffffffffffffffffffffe08184030181529190528051602090910120949350505050565b3480156103be57600080fd5b5060005473ffffffffffffffffffffffffffffffffffffffff166101e8565b3480156103e957600080fd5b507f00000000000000000000000000000000000000000000000000000000000000005b60405190815260200161019f565b34801561042657600080fd5b5060025473ffffffffffffffffffffffffffffffffffffffff166101e8565b34801561045157600080fd5b507f00000000000000000000000000000000000000000000000000000000000000006101e8565b34801561048457600080fd5b506101e86104933660046115f6565b6107e2565b3480156104a457600080fd5b5060015461040c565b3480156104b957600080fd5b5061017d6104c8366004611642565b610826565b3480156104d957600080fd5b506101e86104e8366004611532565b610860565b61054733301480610542575060005473ffffffffffffffffffffffffffffffffffffffff165b73ffffffffffffffffffffffffffffffffffffffff163373ffffffffffffffffffffffffffffffffffffffff16145b6108da565b61055384848484610914565b50505050565b606061058533301480610542575060005473ffffffffffffffffffffffffffffffffffffffff16610513565b600083838080601f0160208091040260200160405190810160405280939291908181526020018383808284376000920191909152509293506105ce925088915087905083610abf565b9150505b949350505050565b61060433301480610542575060005473ffffffffffffffffffffffffffffffffffffffff16610513565b600080547fffffffffffffffffffffffff00000000000000000000000000000000000000001673ffffffffffffffffffffffffffffffffffffffff92909216919091179055565b600061065682610ae2565b92915050565b606061068833301480610542575060005473ffffffffffffffffffffffffffffffffffffffff16610513565b6106928383610b4c565b9392505050565b60006106c533301480610542575060005473ffffffffffffffffffffffffffffffffffffffff16610513565b6106928383610ca8565b60006106fb33301480610542575060005473ffffffffffffffffffffffffffffffffffffffff16610513565b61065682610d19565b600061073033301480610542575060005473ffffffffffffffffffffffffffffffffffffffff16610513565b61073c85858585610dd8565b95945050505050565b61076f33301480610542575060005473ffffffffffffffffffffffffffffffffffffffff16610513565b61077c813b5b1515610e63565b6107868282610e9a565b5050565b606060018054806020026020016040519081016040528092919081815260200182805480156107d857602002820191906000526020600020905b8154815260200190600101908083116107c4575b5050505050905090565b600061080e33301480610542575060005473ffffffffffffffffffffffffffffffffffffffff16610513565b600061081a8585610ca8565b90506105d28382610e9a565b61085033301480610542575060005473ffffffffffffffffffffffffffffffffffffffff16610513565b61085b838383610f7b565b505050565b60007fbeb3bcbf0000000000000000000000000000000000000000000000000000000082016108b057507f0000000000000000000000000000000000000000000000000000000000000000919050565b60008281526003602052604090205473ffffffffffffffffffffffffffffffffffffffff16610656565b80610911576040517f82b4290000000000000000000000000000000000000000000000000000000000815260040160405180910390fd5b50565b604080517fff000000000000000000000000000000000000000000000000000000000000006020808301919091523060601b7fffffffffffffffffffffffffffffffffffffffff000000000000000000000000166021830152603582018790527f1c0bf703a3415cada9785e89e9d70314c3111ae7d8e04f33bb42eb1d264088be60558084019190915283518084039091018152607590920190925280519101206109bf8185610fb0565b60006109ca82610ae2565b90508473ffffffffffffffffffffffffffffffffffffffff168173ffffffffffffffffffffffffffffffffffffffff1614610a56576040517f35da668500000000000000000000000000000000000000000000000000000000815273ffffffffffffffffffffffffffffffffffffffff8083166004830152861660248201526044015b60405180910390fd5b610a61828585610f7b565b6040805187815273ffffffffffffffffffffffffffffffffffffffff848116602083015287168183015290517f430fbfc2698f4e110d994ecf59c30881703dc7b8cd50bc5f12e4e48d21e144a39181900360600190a1505050505050565b60606105d273ffffffffffffffffffffffffffffffffffffffff85168385611038565b6000806040518060400160405280600581526020017f0cbcae703c0000000000000000000000000000000000000000000000000000008152509050600080825160208401865afa6040513d81016040523d6000823e81610b40573d81fd5b5160601c949350505050565b60608167ffffffffffffffff811115610b6757610b67611695565b604051908082528060200260200182016040528015610b9a57816020015b6060815260200190600190039081610b855790505b50905060005b82811015610ca157610c71848483818110610bbd57610bbd6116c4565b9050602002810190610bcf91906116f3565b610bdd9060208101906113e0565b858584818110610bef57610bef6116c4565b9050602002810190610c0191906116f3565b60200135868685818110610c1757610c176116c4565b9050602002810190610c2991906116f3565b610c37906040810190611731565b8080601f016020809104026020016040519081016040528093929190818152602001838380828437600092019190915250610abf92505050565b828281518110610c8357610c836116c4565b60200260200101819052508080610c9990611796565b915050610ba0565b5092915050565b600060405180838582378301818103826000f092505050610cca610775823b90565b60405173ffffffffffffffffffffffffffffffffffffffff821681527fd3acf0da590cfcd8f020afd7f40b7e6e4c8bd2fc9eb7aec9836837b667685b3a9060200160405180910390a192915050565b6000807f000000000000000000000000000000000000000000000000000000000000000090508060025560405160208101604052766020363636335afa1536363636515af43d36363e3d36f360481b8152836017826000f5925050610d7f610775833b90565b610d898383610e9a565b60405173ffffffffffffffffffffffffffffffffffffffff831681527f06690e5b52be10a3d5820ec875c3dd3327f3077954a09f104201e40e5f7082c69060200160405180910390a150919050565b600060405180838582378301858282038389f592505050610e128173ffffffffffffffffffffffffffffffffffffffff1660001415610e63565b60405173ffffffffffffffffffffffffffffffffffffffff821681527fd3acf0da590cfcd8f020afd7f40b7e6e4c8bd2fc9eb7aec9836837b667685b3a9060200160405180910390a1949350505050565b80610911576040517f5e393b2600000000000000000000000000000000000000000000000000000000815260040160405180910390fd5b60008281526003602052604090205473ffffffffffffffffffffffffffffffffffffffff1615610ef9576040517fcd3b7fe100000000000000000000000000000000000000000000000000000000815260048101839052602401610a4d565b600180548082019091557fb10e2d527612073b26eecdfd717e6a320cf44b4afac2b0732d9fcbe2b7fa0cf60182905560009182526003602052604090912080547fffffffffffffffffffffffff00000000000000000000000000000000000000001673ffffffffffffffffffffffffffffffffffffffff909216919091179055565b801561085b576040518082016040528183823760008083836000885af1610553576040519050803d016040523d6000823e3d81fd5b6040517fca11c0de11000000000000000000000000000000000000000000000000000000602082015273ffffffffffffffffffffffffffffffffffffffff8216602582015260009060450160405160208183030381529060405290506000808251602084016000875af16040513d81016040523d6000823e81611031573d81fd5b5050505050565b60606105d2848484604051806060016040528060298152602001611808602991396060824710156110eb576040517f08c379a000000000000000000000000000000000000000000000000000000000815260206004820152602660248201527f416464726573733a20696e73756666696369656e742062616c616e636520666f60448201527f722063616c6c00000000000000000000000000000000000000000000000000006064820152608401610a4d565b6000808673ffffffffffffffffffffffffffffffffffffffff16858760405161111491906117f5565b60006040518083038185875af1925050503d8060008114611151576040519150601f19603f3d011682016040523d82523d6000602084013e611156565b606091505b509150915061116787838387611172565b979650505050505050565b606083156112085782516000036112015773ffffffffffffffffffffffffffffffffffffffff85163b611201576040517f08c379a000000000000000000000000000000000000000000000000000000000815260206004820152601d60248201527f416464726573733a2063616c6c20746f206e6f6e2d636f6e74726163740000006044820152606401610a4d565b50816105d2565b6105d2838381511561121d5781518083602001fd5b806040517f08c379a0000000000000000000000000000000000000000000000000000000008152600401610a4d91906113cd565b803573ffffffffffffffffffffffffffffffffffffffff8116811461127557600080fd5b919050565b60008083601f84011261128c57600080fd5b50813567ffffffffffffffff8111156112a457600080fd5b6020830191508360208285010111156112bc57600080fd5b9250929050565b600080600080606085870312156112d957600080fd5b843593506112e960208601611251565b9250604085013567ffffffffffffffff81111561130557600080fd5b6113118782880161127a565b95989497509550505050565b6000806000806060858703121561133357600080fd5b61133c85611251565b935060208501359250604085013567ffffffffffffffff81111561130557600080fd5b60005b8381101561137a578181015183820152602001611362565b50506000910152565b6000815180845261139b81602086016020860161135f565b601f017fffffffffffffffffffffffffffffffffffffffffffffffffffffffffffffffe0169290920160200192915050565b6020815260006106926020830184611383565b6000602082840312156113f257600080fd5b61069282611251565b6000806020838503121561140e57600080fd5b823567ffffffffffffffff8082111561142657600080fd5b818501915085601f83011261143a57600080fd5b81358181111561144957600080fd5b8660208260051b850101111561145e57600080fd5b60209290920196919550909350505050565b6000602080830181845280855180835260408601915060408160051b870101925083870160005b828110156114e3577fffffffffffffffffffffffffffffffffffffffffffffffffffffffffffffffc08886030184526114d1858351611383565b94509285019290850190600101611497565b5092979650505050505050565b6000806020838503121561150357600080fd5b823567ffffffffffffffff81111561151a57600080fd5b6115268582860161127a565b90969095509350505050565b60006020828403121561154457600080fd5b5035919050565b6000806000806060858703121561156157600080fd5b8435935060208501359250604085013567ffffffffffffffff81111561130557600080fd5b6000806040838503121561159957600080fd5b823591506115a960208401611251565b90509250929050565b6020808252825182820181905260009190848201906040850190845b818110156115ea578351835292840192918401916001016115ce565b50909695505050505050565b60008060006040848603121561160b57600080fd5b833567ffffffffffffffff81111561162257600080fd5b61162e8682870161127a565b909790965060209590950135949350505050565b60008060006040848603121561165757600080fd5b61166084611251565b9250602084013567ffffffffffffffff81111561167c57600080fd5b6116888682870161127a565b9497909650939450505050565b7f4e487b7100000000000000000000000000000000000000000000000000000000600052604160045260246000fd5b7f4e487b7100000000000000000000000000000000000000000000000000000000600052603260045260246000fd5b600082357fffffffffffffffffffffffffffffffffffffffffffffffffffffffffffffffa183360301811261172757600080fd5b9190910192915050565b60008083357fffffffffffffffffffffffffffffffffffffffffffffffffffffffffffffffe184360301811261176657600080fd5b83018035915067ffffffffffffffff82111561178157600080fd5b6020019150368190038213156112bc57600080fd5b60007fffffffffffffffffffffffffffffffffffffffffffffffffffffffffffffffff82036117ee577f4e487b7100000000000000000000000000000000000000000000000000000000600052601160045260246000fd5b5060010190565b6000825161172781846020870161135f56fe416464726573733a206c6f772d6c6576656c2063616c6c20776974682076616c7565206661696c6564a2646970667358221220172f5664be05bcf5a5f35af59041ae486733b7e52488f777261307c150ed235b64736f6c6343000810003360a060405234801561001057600080fd5b50336080526080516102ac61002f6000396000601b01526102ac6000f3fe60806040523661001357610011610017565b005b6100115b60007f00000000000000000000000000000000000000000000000000000000000000009050600536146025361417156101275760003560d81c80640cbcae703c81146100995764ca11c0de1181146100ea5761009460127f66756e6374696f6e206e6f7420666f756e640000000000000000000000000000610132565b610124565b6040517fffffffffffffffffffffffffffffffffffffffffffffffffffffffffffffffff5460601b7fffffffffffffffffffffffffffffffffffffffff000000000000000000000000168152601481f35b82331461011c5761011c600c7f756e617574686f72697a65640000000000000000000000000000000000000000610132565b610124610177565b50505b61012f6101fa565b50565b6040517f08c379a00000000000000000000000000000000000000000000000000000000081526020600482015260248101839052604481018290526064808201919081fd5b6bca11c0de15dead10deadc0de6000195460a01c036101bb576101bb600d7f757064617465206c6f636b656400000000000000000000000000000000000000610132565b73ffffffffffffffffffffffffffffffffffffffff600535167fffffffffffffffffffffffffffffffffffffffffffffffffffffffffffffffff819055005b7fffffffffffffffffffffffffffffffffffffffffffffffffffffffffffffffff548061024c5761024c600d7f6c6f676963206e6f742073657400000000000000000000000000000000000000610132565b60405136810160405236600082376000803683855af491503d6000823e81610272573d81fd5b3d81f3fea264697066735822122098e1a3978ed798812f95a472327380f1f508e5cd2c9d67d0852ffec2959ea5ce64736f6c634300081000336101006040523480156200001257600080fd5b5060405162001b3538038062001b35833981016040819052620000359162000293565b336040518060400160405280601681526020017f416c6963654e6574205374616b696e6720546f6b656e0000000000000000000081525060405180604001604052806004815260200163414c434160e01b81525081600390816200009a919062000369565b506004620000a9828262000369565b5050506001600160a01b0316608052620000da6920a621a0a6b4b73a32b960b11b620000d460805190565b62000133565b6001600160a01b031660a052620001026920a621a0a13ab93732b960b11b620000d460805190565b6001600160a01b0390811660c052811660e0526200012c336aca331fe2cc911ff471c71c620001c8565b5062000457565b6040517fff0000000000000000000000000000000000000000000000000000000000000060208201526001600160601b0319606083901b166021820152603581018390527f1c0bf703a3415cada9785e89e9d70314c3111ae7d8e04f33bb42eb1d264088be605582018190526000916075016040516020818303038152906040528051906020012060001c9150505b92915050565b6001600160a01b038216620002235760405162461bcd60e51b815260206004820152601f60248201527f45524332303a206d696e7420746f20746865207a65726f206164647265737300604482015260640160405180910390fd5b806002600082825462000237919062000435565b90915550506001600160a01b038216600081815260208181526040808320805486019055518481527fddf252ad1be2c89b69c2b068fc378daa952ba7f163c4a11628f55a4df523b3ef910160405180910390a35050565b505050565b600060208284031215620002a657600080fd5b81516001600160a01b0381168114620002be57600080fd5b9392505050565b634e487b7160e01b600052604160045260246000fd5b600181811c90821680620002f057607f821691505b6020821081036200031157634e487b7160e01b600052602260045260246000fd5b50919050565b601f8211156200028e57600081815260208120601f850160051c81016020861015620003405750805b601f850160051c820191505b8181101562000361578281556001016200034c565b505050505050565b81516001600160401b03811115620003855762000385620002c5565b6200039d81620003968454620002db565b8462000317565b602080601f831160018114620003d55760008415620003bc5750858301515b600019600386901b1c1916600185901b17855562000361565b600085815260208120601f198616915b828110156200040657888601518255948401946001909101908401620003e5565b5085821015620004255787850151600019600388901b60f8161c191681555b5050505050600190811b01905550565b80820180821115620001c257634e487b7160e01b600052601160045260246000fd5b60805160a05160c05160e05161167a620004bb6000396000818161015801528181610ae101528181610b8a0152610c3e0152600081816105ae015261061601526000818161067d01526106e501526000818161081e0152610886015261167a6000f3fe608060405234801561001057600080fd5b50600436106101515760003560e01c80636f6ebec8116100cd578063a3908e1b11610081578063a9059cbb11610066578063a9059cbb146103ad578063ae424781146103c0578063dd62ed3e146103c857600080fd5b8063a3908e1b14610387578063a457c2d71461039a57600080fd5b80638653a465116100b25780638653a4651461029657806395d89b411461036c57806399f988981461037457600080fd5b80636f6ebec81461024b57806370a082311461026057600080fd5b806318160ddd11610124578063313ce56711610109578063313ce567146102165780633950935114610225578063454b06081461023857600080fd5b806318160ddd146101fb57806323b872dd1461020357600080fd5b8063035c70991461015657806306fdde03146101a2578063095ea7b3146101b75780630d213d31146101da575b600080fd5b7f00000000000000000000000000000000000000000000000000000000000000005b60405173ffffffffffffffffffffffffffffffffffffffff90911681526020015b60405180910390f35b6101aa61040e565b6040516101999190611369565b6101ca6101c53660046113f9565b6104a0565b6040519015158152602001610199565b6101ed6101e83660046113f9565b6104ba565b604051908152602001610199565b6002546101ed565b6101ca610211366004611423565b61051a565b60405160128152602001610199565b6101ca6102333660046113f9565b61053e565b6101ed61024636600461145f565b61058a565b61025e6102593660046113f9565b610596565b005b6101ed61026e366004611478565b73ffffffffffffffffffffffffffffffffffffffff1660009081526020819052604090205490565b6101786102a4366004611493565b6040517fff0000000000000000000000000000000000000000000000000000000000000060208201527fffffffffffffffffffffffffffffffffffffffff000000000000000000000000606083901b166021820152603581018390527f1c0bf703a3415cada9785e89e9d70314c3111ae7d8e04f33bb42eb1d264088be60558201819052600091607501604080517fffffffffffffffffffffffffffffffffffffffffffffffffffffffffffffffe08184030181529190528051602090910120949350505050565b6101aa610656565b61025e6103823660046113f9565b610665565b6101ed61039536600461145f565b61071c565b6101ca6103a83660046113f9565b610727565b6101ca6103bb3660046113f9565b6107f8565b61025e610806565b6101ed6103d63660046114bf565b73ffffffffffffffffffffffffffffffffffffffff918216600090815260016020908152604080832093909416825291909152205490565b60606003805461041d906114e9565b80601f0160208091040260200160405190810160405280929190818152602001828054610449906114e9565b80156104965780601f1061046b57610100808354040283529160200191610496565b820191906000526020600020905b81548152906001019060200180831161047957829003601f168201915b5050505050905090565b6000336104ae8185856108e5565b60019150505b92915050565b600073ffffffffffffffffffffffffffffffffffffffff8316610509576040517fe6c4247b00000000000000000000000000000000000000000000000000000000815260040160405180910390fd5b6105138383610a99565b9392505050565b600033610528858285610d25565b610533858585610dfc565b506001949350505050565b33600081815260016020908152604080832073ffffffffffffffffffffffffffffffffffffffff871684529091528120549091906104ae908290869061058590879061156b565b6108e5565b60006104b43383610a99565b3373ffffffffffffffffffffffffffffffffffffffff7f00000000000000000000000000000000000000000000000000000000000000001614610648576040517f245fab9500000000000000000000000000000000000000000000000000000000815233600482015273ffffffffffffffffffffffffffffffffffffffff7f00000000000000000000000000000000000000000000000000000000000000001660248201526044015b60405180910390fd5b610652828261106b565b5050565b60606004805461041d906114e9565b3373ffffffffffffffffffffffffffffffffffffffff7f00000000000000000000000000000000000000000000000000000000000000001614610712576040517f8a93edb000000000000000000000000000000000000000000000000000000000815233600482015273ffffffffffffffffffffffffffffffffffffffff7f000000000000000000000000000000000000000000000000000000000000000016602482015260440161063f565b6106528282611227565b60006104b48261131a565b33600081815260016020908152604080832073ffffffffffffffffffffffffffffffffffffffff87168452909152812054909190838110156107eb576040517f08c379a000000000000000000000000000000000000000000000000000000000815260206004820152602560248201527f45524332303a2064656372656173656420616c6c6f77616e63652062656c6f7760448201527f207a65726f000000000000000000000000000000000000000000000000000000606482015260840161063f565b61053382868684036108e5565b6000336104ae818585610dfc565b3373ffffffffffffffffffffffffffffffffffffffff7f000000000000000000000000000000000000000000000000000000000000000016146108b3576040517f0f634fbe00000000000000000000000000000000000000000000000000000000815233600482015273ffffffffffffffffffffffffffffffffffffffff7f000000000000000000000000000000000000000000000000000000000000000016602482015260440161063f565b6108e3600580547fffffffffffffffffffffffffffffffffffffffffffffffffffffffffffffff00166001179055565b565b73ffffffffffffffffffffffffffffffffffffffff8316610987576040517f08c379a0000000000000000000000000000000000000000000000000000000008152602060048201526024808201527f45524332303a20617070726f76652066726f6d20746865207a65726f2061646460448201527f7265737300000000000000000000000000000000000000000000000000000000606482015260840161063f565b73ffffffffffffffffffffffffffffffffffffffff8216610a2a576040517f08c379a000000000000000000000000000000000000000000000000000000000815260206004820152602260248201527f45524332303a20617070726f766520746f20746865207a65726f20616464726560448201527f7373000000000000000000000000000000000000000000000000000000000000606482015260840161063f565b73ffffffffffffffffffffffffffffffffffffffff83811660008181526001602090815260408083209487168084529482529182902085905590518481527f8c5be1e5ebec7d5bd14f71427d1e84f3dd0314c0f7b2291e5b200ac8c7c3b92591015b60405180910390a3505050565b6040517f70a08231000000000000000000000000000000000000000000000000000000008152306004820152600090819073ffffffffffffffffffffffffffffffffffffffff7f000000000000000000000000000000000000000000000000000000000000000016906370a0823190602401602060405180830381865afa158015610b28573d6000803e3d6000fd5b505050506040513d601f19601f82011682018060405250810190610b4c919061157e565b6040517f23b872dd000000000000000000000000000000000000000000000000000000008152336004820152306024820152604481018590529091507f000000000000000000000000000000000000000000000000000000000000000073ffffffffffffffffffffffffffffffffffffffff16906323b872dd906064016020604051808303816000875af1158015610be8573d6000803e3d6000fd5b505050506040513d601f19601f82011682018060405250810190610c0c9190611597565b506040517f70a082310000000000000000000000000000000000000000000000000000000081523060048201526000907f000000000000000000000000000000000000000000000000000000000000000073ffffffffffffffffffffffffffffffffffffffff16906370a0823190602401602060405180830381865afa158015610c9a573d6000803e3d6000fd5b505050506040513d601f19601f82011682018060405250810190610cbe919061157e565b9050818111610cf9576040517f52eed6f700000000000000000000000000000000000000000000000000000000815260040160405180910390fd5b6000610d0583836115b9565b9050610d108161131a565b9350610d1c8685611227565b50505092915050565b73ffffffffffffffffffffffffffffffffffffffff8381166000908152600160209081526040808320938616835292905220547fffffffffffffffffffffffffffffffffffffffffffffffffffffffffffffffff8114610df65781811015610de9576040517f08c379a000000000000000000000000000000000000000000000000000000000815260206004820152601d60248201527f45524332303a20696e73756666696369656e7420616c6c6f77616e6365000000604482015260640161063f565b610df684848484036108e5565b50505050565b73ffffffffffffffffffffffffffffffffffffffff8316610e9f576040517f08c379a000000000000000000000000000000000000000000000000000000000815260206004820152602560248201527f45524332303a207472616e736665722066726f6d20746865207a65726f20616460448201527f6472657373000000000000000000000000000000000000000000000000000000606482015260840161063f565b73ffffffffffffffffffffffffffffffffffffffff8216610f42576040517f08c379a000000000000000000000000000000000000000000000000000000000815260206004820152602360248201527f45524332303a207472616e7366657220746f20746865207a65726f206164647260448201527f6573730000000000000000000000000000000000000000000000000000000000606482015260840161063f565b73ffffffffffffffffffffffffffffffffffffffff831660009081526020819052604090205481811015610ff8576040517f08c379a000000000000000000000000000000000000000000000000000000000815260206004820152602660248201527f45524332303a207472616e7366657220616d6f756e742065786365656473206260448201527f616c616e63650000000000000000000000000000000000000000000000000000606482015260840161063f565b73ffffffffffffffffffffffffffffffffffffffff848116600081815260208181526040808320878703905593871680835291849020805487019055925185815290927fddf252ad1be2c89b69c2b068fc378daa952ba7f163c4a11628f55a4df523b3ef910160405180910390a3610df6565b73ffffffffffffffffffffffffffffffffffffffff821661110e576040517f08c379a000000000000000000000000000000000000000000000000000000000815260206004820152602160248201527f45524332303a206275726e2066726f6d20746865207a65726f2061646472657360448201527f7300000000000000000000000000000000000000000000000000000000000000606482015260840161063f565b73ffffffffffffffffffffffffffffffffffffffff8216600090815260208190526040902054818110156111c4576040517f08c379a000000000000000000000000000000000000000000000000000000000815260206004820152602260248201527f45524332303a206275726e20616d6f756e7420657863656564732062616c616e60448201527f6365000000000000000000000000000000000000000000000000000000000000606482015260840161063f565b73ffffffffffffffffffffffffffffffffffffffff83166000818152602081815260408083208686039055600280548790039055518581529192917fddf252ad1be2c89b69c2b068fc378daa952ba7f163c4a11628f55a4df523b3ef9101610a8c565b73ffffffffffffffffffffffffffffffffffffffff82166112a4576040517f08c379a000000000000000000000000000000000000000000000000000000000815260206004820152601f60248201527f45524332303a206d696e7420746f20746865207a65726f206164647265737300604482015260640161063f565b80600260008282546112b6919061156b565b909155505073ffffffffffffffffffffffffffffffffffffffff8216600081815260208181526040808320805486019055518481527fddf252ad1be2c89b69c2b068fc378daa952ba7f163c4a11628f55a4df523b3ef910160405180910390a35050565b60055460009060ff161561132c575090565b6104b48261133a565b919050565b60006b204fce5e3e2502611000000061135f6b3243410460ab5908c38e38e3846115cc565b6104b49190611609565b600060208083528351808285015260005b818110156113965785810183015185820160400152820161137a565b5060006040828601015260407fffffffffffffffffffffffffffffffffffffffffffffffffffffffffffffffe0601f8301168501019250505092915050565b803573ffffffffffffffffffffffffffffffffffffffff8116811461133557600080fd5b6000806040838503121561140c57600080fd5b611415836113d5565b946020939093013593505050565b60008060006060848603121561143857600080fd5b611441846113d5565b925061144f602085016113d5565b9150604084013590509250925092565b60006020828403121561147157600080fd5b5035919050565b60006020828403121561148a57600080fd5b610513826113d5565b600080604083850312156114a657600080fd5b823591506114b6602084016113d5565b90509250929050565b600080604083850312156114d257600080fd5b6114db836113d5565b91506114b6602084016113d5565b600181811c908216806114fd57607f821691505b602082108103611536577f4e487b7100000000000000000000000000000000000000000000000000000000600052602260045260246000fd5b50919050565b7f4e487b7100000000000000000000000000000000000000000000000000000000600052601160045260246000fd5b808201808211156104b4576104b461153c565b60006020828403121561159057600080fd5b5051919050565b6000602082840312156115a957600080fd5b8151801515811461051357600080fd5b818103818111156104b4576104b461153c565b6000817fffffffffffffffffffffffffffffffffffffffffffffffffffffffffffffffff04831182151516156116045761160461153c565b500290565b60008261163f577f4e487b7100000000000000000000000000000000000000000000000000000000600052601260045260246000fd5b50049056fea2646970667358221220365c118b6468842c11d28cb30d273590d98401c8a65a5b7ae36b65e133982d6464736f6c63430008100033",
  "linkReferences": {},
  "deployedLinkReferences": {}
}