{
    "_format": "hh-sol-artifact-1",
    "contractName": "PublicStaking",
    "sourceName": "contracts/PublicStaking.sol",
    "abi": [
        {
            "inputs": [],
            "stateMutability": "nonpayable",
            "type": "constructor"
        },
        {
            "inputs": [
                {
                    "internalType": "uint256",
                    "name": "magic",
                    "type": "uint256"
                }
            ],
            "name": "BadMagic",
            "type": "error"
        },
        {
            "inputs": [
                {
                    "internalType": "uint256",
                    "name": "balance",
                    "type": "uint256"
                },
                {
                    "internalType": "uint256",
                    "name": "reserve",
                    "type": "uint256"
                }
            ],
            "name": "BalanceLessThanReserve",
            "type": "error"
        },
        {
            "inputs": [
                {
                    "internalType": "address",
                    "name": "caller",
                    "type": "address"
                }
            ],
            "name": "CallerNotTokenOwner",
            "type": "error"
        },
        {
            "inputs": [],
            "name": "CannotCallContractMethodsOnZeroAddress",
            "type": "error"
        },
        {
            "inputs": [],
            "name": "CannotTransferToZeroAddress",
            "type": "error"
        },
        {
            "inputs": [],
            "name": "CircuitBreakerOpened",
            "type": "error"
        },
        {
            "inputs": [
                {
                    "internalType": "address",
                    "name": "erc20Address",
                    "type": "address"
                },
                {
                    "internalType": "address",
                    "name": "from",
                    "type": "address"
                },
                {
                    "internalType": "address",
                    "name": "to",
                    "type": "address"
                },
                {
                    "internalType": "uint256",
                    "name": "amount",
                    "type": "uint256"
                }
            ],
            "name": "Erc20TransferFailed",
            "type": "error"
        },
        {
            "inputs": [
                {
                    "internalType": "address",
                    "name": "from",
                    "type": "address"
                },
                {
                    "internalType": "address",
                    "name": "to",
                    "type": "address"
                },
                {
                    "internalType": "uint256",
                    "name": "amount",
                    "type": "uint256"
                }
            ],
            "name": "EthTransferFailed",
            "type": "error"
        },
        {
            "inputs": [],
            "name": "FreeAfterTimeNotReached",
            "type": "error"
        },
        {
            "inputs": [
                {
                    "internalType": "uint256",
                    "name": "tokenId",
                    "type": "uint256"
                }
            ],
            "name": "InvalidTokenId",
            "type": "error"
        },
        {
            "inputs": [],
            "name": "LockDurationGreaterThanGovernanceLock",
            "type": "error"
        },
        {
            "inputs": [],
            "name": "LockDurationGreaterThanMintLock",
            "type": "error"
        },
        {
            "inputs": [],
            "name": "LockDurationWithdrawTimeNotReached",
            "type": "error"
        },
        {
            "inputs": [],
            "name": "MintAmountExceedsMaximumSupply",
            "type": "error"
        },
        {
            "inputs": [],
            "name": "MintAmountZero",
            "type": "error"
        },
        {
            "inputs": [
                {
                    "internalType": "address",
                    "name": "sender",
                    "type": "address"
                },
                {
                    "internalType": "address",
                    "name": "expected",
                    "type": "address"
                }
            ],
            "name": "OnlyAToken",
            "type": "error"
        },
        {
            "inputs": [
                {
                    "internalType": "address",
                    "name": "sender",
                    "type": "address"
                },
                {
                    "internalType": "address",
                    "name": "expected",
                    "type": "address"
                }
            ],
            "name": "OnlyFactory",
            "type": "error"
        },
        {
            "inputs": [
                {
                    "internalType": "address",
                    "name": "sender",
                    "type": "address"
                },
                {
                    "internalType": "address",
                    "name": "expected",
                    "type": "address"
                }
            ],
            "name": "OnlyGovernance",
            "type": "error"
        },
        {
            "inputs": [
                {
                    "internalType": "address",
                    "name": "sender",
                    "type": "address"
                },
                {
                    "internalType": "address",
                    "name": "expected",
                    "type": "address"
                }
            ],
            "name": "OnlyStakingPositionDescriptor",
            "type": "error"
        },
        {
            "inputs": [
                {
                    "internalType": "address",
                    "name": "sender",
                    "type": "address"
                },
                {
                    "internalType": "address",
                    "name": "expected",
                    "type": "address"
                }
            ],
            "name": "OnlyValidatorPool",
            "type": "error"
        },
        {
            "inputs": [
                {
                    "internalType": "uint256",
                    "name": "slush",
                    "type": "uint256"
                }
            ],
            "name": "SlushTooLarge",
            "type": "error"
        },
        {
            "anonymous": false,
            "inputs": [
                {
                    "indexed": true,
                    "internalType": "address",
                    "name": "owner",
                    "type": "address"
                },
                {
                    "indexed": true,
                    "internalType": "address",
                    "name": "approved",
                    "type": "address"
                },
                {
                    "indexed": true,
                    "internalType": "uint256",
                    "name": "tokenId",
                    "type": "uint256"
                }
            ],
            "name": "Approval",
            "type": "event"
        },
        {
            "anonymous": false,
            "inputs": [
                {
                    "indexed": true,
                    "internalType": "address",
                    "name": "owner",
                    "type": "address"
                },
                {
                    "indexed": true,
                    "internalType": "address",
                    "name": "operator",
                    "type": "address"
                },
                {
                    "indexed": false,
                    "internalType": "bool",
                    "name": "approved",
                    "type": "bool"
                }
            ],
            "name": "ApprovalForAll",
            "type": "event"
        },
        {
            "anonymous": false,
            "inputs": [
                {
                    "indexed": false,
                    "internalType": "uint8",
                    "name": "version",
                    "type": "uint8"
                }
            ],
            "name": "Initialized",
            "type": "event"
        },
        {
            "anonymous": false,
            "inputs": [
                {
                    "indexed": true,
                    "internalType": "address",
                    "name": "from",
                    "type": "address"
                },
                {
                    "indexed": true,
                    "internalType": "address",
                    "name": "to",
                    "type": "address"
                },
                {
                    "indexed": true,
                    "internalType": "uint256",
                    "name": "tokenId",
                    "type": "uint256"
                }
            ],
            "name": "Transfer",
            "type": "event"
        },
        {
            "inputs": [
                {
                    "internalType": "address",
                    "name": "to",
                    "type": "address"
                },
                {
                    "internalType": "uint256",
                    "name": "tokenId",
                    "type": "uint256"
                }
            ],
            "name": "approve",
            "outputs": [],
            "stateMutability": "nonpayable",
            "type": "function"
        },
        {
            "inputs": [
                {
                    "internalType": "address",
                    "name": "owner",
                    "type": "address"
                }
            ],
            "name": "balanceOf",
            "outputs": [
                {
                    "internalType": "uint256",
                    "name": "",
                    "type": "uint256"
                }
            ],
            "stateMutability": "view",
            "type": "function"
        },
        {
            "inputs": [
                {
                    "internalType": "uint256",
                    "name": "tokenID_",
                    "type": "uint256"
                }
            ],
            "name": "burn",
            "outputs": [
                {
                    "internalType": "uint256",
                    "name": "payoutEth",
                    "type": "uint256"
                },
                {
                    "internalType": "uint256",
                    "name": "payoutAToken",
                    "type": "uint256"
                }
            ],
            "stateMutability": "nonpayable",
            "type": "function"
        },
        {
            "inputs": [
                {
                    "internalType": "address",
                    "name": "to_",
                    "type": "address"
                },
                {
                    "internalType": "uint256",
                    "name": "tokenID_",
                    "type": "uint256"
                }
            ],
            "name": "burnTo",
            "outputs": [
                {
                    "internalType": "uint256",
                    "name": "payoutEth",
                    "type": "uint256"
                },
                {
                    "internalType": "uint256",
                    "name": "payoutAToken",
                    "type": "uint256"
                }
            ],
            "stateMutability": "nonpayable",
            "type": "function"
        },
        {
            "inputs": [],
            "name": "circuitBreakerState",
            "outputs": [
                {
                    "internalType": "bool",
                    "name": "",
                    "type": "bool"
                }
            ],
            "stateMutability": "view",
            "type": "function"
        },
        {
            "inputs": [
                {
                    "internalType": "uint256",
                    "name": "tokenID_",
                    "type": "uint256"
                }
            ],
            "name": "collectAllProfits",
            "outputs": [
                {
                    "internalType": "uint256",
                    "name": "payoutEth",
                    "type": "uint256"
                },
                {
                    "internalType": "uint256",
                    "name": "payoutToken",
                    "type": "uint256"
                }
            ],
            "stateMutability": "nonpayable",
            "type": "function"
        },
        {
            "inputs": [
                {
                    "internalType": "address",
                    "name": "to_",
                    "type": "address"
                },
                {
                    "internalType": "uint256",
                    "name": "tokenID_",
                    "type": "uint256"
                }
            ],
            "name": "collectAllProfitsTo",
            "outputs": [
                {
                    "internalType": "uint256",
                    "name": "payoutEth",
                    "type": "uint256"
                },
                {
                    "internalType": "uint256",
                    "name": "payoutToken",
                    "type": "uint256"
                }
            ],
            "stateMutability": "nonpayable",
            "type": "function"
        },
        {
            "inputs": [
                {
                    "internalType": "uint256",
                    "name": "tokenID_",
                    "type": "uint256"
                }
            ],
            "name": "collectEth",
            "outputs": [
                {
                    "internalType": "uint256",
                    "name": "payout",
                    "type": "uint256"
                }
            ],
            "stateMutability": "nonpayable",
            "type": "function"
        },
        {
            "inputs": [
                {
                    "internalType": "address",
                    "name": "to_",
                    "type": "address"
                },
                {
                    "internalType": "uint256",
                    "name": "tokenID_",
                    "type": "uint256"
                }
            ],
            "name": "collectEthTo",
            "outputs": [
                {
                    "internalType": "uint256",
                    "name": "payout",
                    "type": "uint256"
                }
            ],
            "stateMutability": "nonpayable",
            "type": "function"
        },
        {
            "inputs": [
                {
                    "internalType": "uint256",
                    "name": "tokenID_",
                    "type": "uint256"
                }
            ],
            "name": "collectToken",
            "outputs": [
                {
                    "internalType": "uint256",
                    "name": "payout",
                    "type": "uint256"
                }
            ],
            "stateMutability": "nonpayable",
            "type": "function"
        },
        {
            "inputs": [
                {
                    "internalType": "address",
                    "name": "to_",
                    "type": "address"
                },
                {
                    "internalType": "uint256",
                    "name": "tokenID_",
                    "type": "uint256"
                }
            ],
            "name": "collectTokenTo",
            "outputs": [
                {
                    "internalType": "uint256",
                    "name": "payout",
                    "type": "uint256"
                }
            ],
            "stateMutability": "nonpayable",
            "type": "function"
        },
        {
            "inputs": [
                {
                    "internalType": "uint8",
                    "name": "magic_",
                    "type": "uint8"
                }
            ],
            "name": "depositEth",
            "outputs": [],
            "stateMutability": "payable",
            "type": "function"
        },
        {
            "inputs": [
                {
                    "internalType": "uint8",
                    "name": "magic_",
                    "type": "uint8"
                },
                {
                    "internalType": "uint256",
                    "name": "amount_",
                    "type": "uint256"
                }
            ],
            "name": "depositToken",
            "outputs": [],
            "stateMutability": "nonpayable",
            "type": "function"
        },
        {
            "inputs": [
                {
                    "internalType": "uint256",
                    "name": "tokenID_",
                    "type": "uint256"
                }
            ],
            "name": "estimateAllProfits",
            "outputs": [
                {
                    "internalType": "uint256",
                    "name": "payoutEth",
                    "type": "uint256"
                },
                {
                    "internalType": "uint256",
                    "name": "payoutToken",
                    "type": "uint256"
                }
            ],
            "stateMutability": "view",
            "type": "function"
        },
        {
            "inputs": [
                {
                    "internalType": "uint256",
                    "name": "tokenID_",
                    "type": "uint256"
                }
            ],
            "name": "estimateEthCollection",
            "outputs": [
                {
                    "internalType": "uint256",
                    "name": "payout",
                    "type": "uint256"
                }
            ],
            "stateMutability": "view",
            "type": "function"
        },
        {
            "inputs": [],
            "name": "estimateExcessEth",
            "outputs": [
                {
                    "internalType": "uint256",
                    "name": "excess",
                    "type": "uint256"
                }
            ],
            "stateMutability": "view",
            "type": "function"
        },
        {
            "inputs": [],
            "name": "estimateExcessToken",
            "outputs": [
                {
                    "internalType": "uint256",
                    "name": "excess",
                    "type": "uint256"
                }
            ],
            "stateMutability": "view",
            "type": "function"
        },
        {
            "inputs": [
                {
                    "internalType": "uint256",
                    "name": "tokenID_",
                    "type": "uint256"
                }
            ],
            "name": "estimateTokenCollection",
            "outputs": [
                {
                    "internalType": "uint256",
                    "name": "payout",
                    "type": "uint256"
                }
            ],
            "stateMutability": "view",
            "type": "function"
        },
        {
            "inputs": [],
            "name": "getAccumulatorScaleFactor",
            "outputs": [
                {
                    "internalType": "uint256",
                    "name": "",
                    "type": "uint256"
                }
            ],
            "stateMutability": "pure",
            "type": "function"
        },
        {
            "inputs": [
                {
                    "internalType": "uint256",
                    "name": "tokenId",
                    "type": "uint256"
                }
            ],
            "name": "getApproved",
            "outputs": [
                {
                    "internalType": "address",
                    "name": "",
                    "type": "address"
                }
            ],
            "stateMutability": "view",
            "type": "function"
        },
        {
            "inputs": [],
            "name": "getEthAccumulator",
            "outputs": [
                {
                    "internalType": "uint256",
                    "name": "accumulator",
                    "type": "uint256"
                },
                {
                    "internalType": "uint256",
                    "name": "slush",
                    "type": "uint256"
                }
            ],
            "stateMutability": "view",
            "type": "function"
        },
        {
            "inputs": [],
            "name": "getLatestMintedPositionID",
            "outputs": [
                {
                    "internalType": "uint256",
                    "name": "",
                    "type": "uint256"
                }
            ],
            "stateMutability": "view",
            "type": "function"
        },
        {
            "inputs": [],
            "name": "getMaxGovernanceLock",
            "outputs": [
                {
                    "internalType": "uint256",
                    "name": "",
                    "type": "uint256"
                }
            ],
            "stateMutability": "pure",
            "type": "function"
        },
        {
            "inputs": [],
            "name": "getMaxMintLock",
            "outputs": [
                {
                    "internalType": "uint256",
                    "name": "",
                    "type": "uint256"
                }
            ],
            "stateMutability": "pure",
            "type": "function"
        },
        {
            "inputs": [
                {
                    "internalType": "bytes32",
                    "name": "_salt",
                    "type": "bytes32"
                },
                {
                    "internalType": "address",
                    "name": "_factory",
                    "type": "address"
                }
            ],
            "name": "getMetamorphicContractAddress",
            "outputs": [
                {
                    "internalType": "address",
                    "name": "",
                    "type": "address"
                }
            ],
            "stateMutability": "pure",
            "type": "function"
        },
        {
            "inputs": [
                {
                    "internalType": "uint256",
                    "name": "tokenID_",
                    "type": "uint256"
                }
            ],
            "name": "getPosition",
            "outputs": [
                {
                    "internalType": "uint256",
                    "name": "shares",
                    "type": "uint256"
                },
                {
                    "internalType": "uint256",
                    "name": "freeAfter",
                    "type": "uint256"
                },
                {
                    "internalType": "uint256",
                    "name": "withdrawFreeAfter",
                    "type": "uint256"
                },
                {
                    "internalType": "uint256",
                    "name": "accumulatorEth",
                    "type": "uint256"
                },
                {
                    "internalType": "uint256",
                    "name": "accumulatorToken",
                    "type": "uint256"
                }
            ],
            "stateMutability": "view",
            "type": "function"
        },
        {
            "inputs": [],
            "name": "getTokenAccumulator",
            "outputs": [
                {
                    "internalType": "uint256",
                    "name": "accumulator",
                    "type": "uint256"
                },
                {
                    "internalType": "uint256",
                    "name": "slush",
                    "type": "uint256"
                }
            ],
            "stateMutability": "view",
            "type": "function"
        },
        {
            "inputs": [],
            "name": "getTotalReserveAToken",
            "outputs": [
                {
                    "internalType": "uint256",
                    "name": "",
                    "type": "uint256"
                }
            ],
            "stateMutability": "view",
            "type": "function"
        },
        {
            "inputs": [],
            "name": "getTotalReserveEth",
            "outputs": [
                {
                    "internalType": "uint256",
                    "name": "",
                    "type": "uint256"
                }
            ],
            "stateMutability": "view",
            "type": "function"
        },
        {
            "inputs": [],
            "name": "getTotalShares",
            "outputs": [
                {
                    "internalType": "uint256",
                    "name": "",
                    "type": "uint256"
                }
            ],
            "stateMutability": "view",
            "type": "function"
        },
        {
            "inputs": [],
            "name": "initialize",
            "outputs": [],
            "stateMutability": "nonpayable",
            "type": "function"
        },
        {
            "inputs": [
                {
                    "internalType": "address",
                    "name": "owner",
                    "type": "address"
                },
                {
                    "internalType": "address",
                    "name": "operator",
                    "type": "address"
                }
            ],
            "name": "isApprovedForAll",
            "outputs": [
                {
                    "internalType": "bool",
                    "name": "",
                    "type": "bool"
                }
            ],
            "stateMutability": "view",
            "type": "function"
        },
        {
            "inputs": [
                {
                    "internalType": "uint256",
                    "name": "tokenID_",
                    "type": "uint256"
                },
                {
                    "internalType": "uint256",
                    "name": "lockDuration_",
                    "type": "uint256"
                }
            ],
            "name": "lockOwnPosition",
            "outputs": [
                {
                    "internalType": "uint256",
                    "name": "",
                    "type": "uint256"
                }
            ],
            "stateMutability": "nonpayable",
            "type": "function"
        },
        {
            "inputs": [
                {
                    "internalType": "address",
                    "name": "caller_",
                    "type": "address"
                },
                {
                    "internalType": "uint256",
                    "name": "tokenID_",
                    "type": "uint256"
                },
                {
                    "internalType": "uint256",
                    "name": "lockDuration_",
                    "type": "uint256"
                }
            ],
            "name": "lockPosition",
            "outputs": [
                {
                    "internalType": "uint256",
                    "name": "",
                    "type": "uint256"
                }
            ],
            "stateMutability": "nonpayable",
            "type": "function"
        },
        {
            "inputs": [
                {
                    "internalType": "uint256",
                    "name": "tokenID_",
                    "type": "uint256"
                },
                {
                    "internalType": "uint256",
                    "name": "lockDuration_",
                    "type": "uint256"
                }
            ],
            "name": "lockWithdraw",
            "outputs": [
                {
                    "internalType": "uint256",
                    "name": "",
                    "type": "uint256"
                }
            ],
            "stateMutability": "nonpayable",
            "type": "function"
        },
        {
            "inputs": [
                {
                    "internalType": "uint256",
                    "name": "amount_",
                    "type": "uint256"
                }
            ],
            "name": "mint",
            "outputs": [
                {
                    "internalType": "uint256",
                    "name": "tokenID",
                    "type": "uint256"
                }
            ],
            "stateMutability": "nonpayable",
            "type": "function"
        },
        {
            "inputs": [
                {
                    "internalType": "address",
                    "name": "to_",
                    "type": "address"
                },
                {
                    "internalType": "uint256",
                    "name": "amount_",
                    "type": "uint256"
                },
                {
                    "internalType": "uint256",
                    "name": "lockDuration_",
                    "type": "uint256"
                }
            ],
            "name": "mintTo",
            "outputs": [
                {
                    "internalType": "uint256",
                    "name": "tokenID",
                    "type": "uint256"
                }
            ],
            "stateMutability": "nonpayable",
            "type": "function"
        },
        {
            "inputs": [],
            "name": "name",
            "outputs": [
                {
                    "internalType": "string",
                    "name": "",
                    "type": "string"
                }
            ],
            "stateMutability": "view",
            "type": "function"
        },
        {
            "inputs": [
                {
                    "internalType": "uint256",
                    "name": "tokenId",
                    "type": "uint256"
                }
            ],
            "name": "ownerOf",
            "outputs": [
                {
                    "internalType": "address",
                    "name": "",
                    "type": "address"
                }
            ],
            "stateMutability": "view",
            "type": "function"
        },
        {
            "inputs": [
                {
                    "internalType": "address",
                    "name": "from",
                    "type": "address"
                },
                {
                    "internalType": "address",
                    "name": "to",
                    "type": "address"
                },
                {
                    "internalType": "uint256",
                    "name": "tokenId",
                    "type": "uint256"
                }
            ],
            "name": "safeTransferFrom",
            "outputs": [],
            "stateMutability": "nonpayable",
            "type": "function"
        },
        {
            "inputs": [
                {
                    "internalType": "address",
                    "name": "from",
                    "type": "address"
                },
                {
                    "internalType": "address",
                    "name": "to",
                    "type": "address"
                },
                {
                    "internalType": "uint256",
                    "name": "tokenId",
                    "type": "uint256"
                },
                {
                    "internalType": "bytes",
                    "name": "data",
                    "type": "bytes"
                }
            ],
            "name": "safeTransferFrom",
            "outputs": [],
            "stateMutability": "nonpayable",
            "type": "function"
        },
        {
            "inputs": [
                {
                    "internalType": "address",
                    "name": "operator",
                    "type": "address"
                },
                {
                    "internalType": "bool",
                    "name": "approved",
                    "type": "bool"
                }
            ],
            "name": "setApprovalForAll",
            "outputs": [],
            "stateMutability": "nonpayable",
            "type": "function"
        },
        {
            "inputs": [
                {
                    "internalType": "address",
                    "name": "to_",
                    "type": "address"
                }
            ],
            "name": "skimExcessEth",
            "outputs": [
                {
                    "internalType": "uint256",
                    "name": "excess",
                    "type": "uint256"
                }
            ],
            "stateMutability": "nonpayable",
            "type": "function"
        },
        {
            "inputs": [
                {
                    "internalType": "address",
                    "name": "to_",
                    "type": "address"
                }
            ],
            "name": "skimExcessToken",
            "outputs": [
                {
                    "internalType": "uint256",
                    "name": "excess",
                    "type": "uint256"
                }
            ],
            "stateMutability": "nonpayable",
            "type": "function"
        },
        {
            "inputs": [
                {
                    "internalType": "bytes4",
                    "name": "interfaceId",
                    "type": "bytes4"
                }
            ],
            "name": "supportsInterface",
            "outputs": [
                {
                    "internalType": "bool",
                    "name": "",
                    "type": "bool"
                }
            ],
            "stateMutability": "view",
            "type": "function"
        },
        {
            "inputs": [],
            "name": "symbol",
            "outputs": [
                {
                    "internalType": "string",
                    "name": "",
                    "type": "string"
                }
            ],
            "stateMutability": "view",
            "type": "function"
        },
        {
            "inputs": [
                {
                    "internalType": "uint256",
                    "name": "index",
                    "type": "uint256"
                }
            ],
            "name": "tokenByIndex",
            "outputs": [
                {
                    "internalType": "uint256",
                    "name": "",
                    "type": "uint256"
                }
            ],
            "stateMutability": "view",
            "type": "function"
        },
        {
            "inputs": [
                {
                    "internalType": "address",
                    "name": "owner",
                    "type": "address"
                },
                {
                    "internalType": "uint256",
                    "name": "index",
                    "type": "uint256"
                }
            ],
            "name": "tokenOfOwnerByIndex",
            "outputs": [
                {
                    "internalType": "uint256",
                    "name": "",
                    "type": "uint256"
                }
            ],
            "stateMutability": "view",
            "type": "function"
        },
        {
            "inputs": [
                {
                    "internalType": "uint256",
                    "name": "tokenID_",
                    "type": "uint256"
                }
            ],
            "name": "tokenURI",
            "outputs": [
                {
                    "internalType": "string",
                    "name": "",
                    "type": "string"
                }
            ],
            "stateMutability": "view",
            "type": "function"
        },
        {
            "inputs": [],
            "name": "totalSupply",
            "outputs": [
                {
                    "internalType": "uint256",
                    "name": "",
                    "type": "uint256"
                }
            ],
            "stateMutability": "view",
            "type": "function"
        },
        {
            "inputs": [
                {
                    "internalType": "address",
                    "name": "from",
                    "type": "address"
                },
                {
                    "internalType": "address",
                    "name": "to",
                    "type": "address"
                },
                {
                    "internalType": "uint256",
                    "name": "tokenId",
                    "type": "uint256"
                }
            ],
            "name": "transferFrom",
            "outputs": [],
            "stateMutability": "nonpayable",
            "type": "function"
        },
        {
            "inputs": [],
            "name": "tripCB",
            "outputs": [],
            "stateMutability": "nonpayable",
            "type": "function"
        }
    ],
    "bytecode": "0x6101206040523480156200001257600080fd5b5033608052620000c86c15985b1a59185d1bdc941bdbdb609a1b6200003660805190565b6040517fff0000000000000000000000000000000000000000000000000000000000000060208201526001600160601b0319606083901b166021820152603581018390527f1c0bf703a3415cada9785e89e9d70314c3111ae7d8e04f33bb42eb1d264088be6055820181905260009160750160408051601f198184030181529190528051602090910120949350505050565b6001600160a01b0390811660a05260805160405163f39ec1f760e01b81526520aa37b5b2b760d11b600482015291169063f39ec1f790602401602060405180830381865afa1580156200011f573d6000803e3d6000fd5b505050506040513d601f19601f82011682018060405250810190620001459190620001bb565b6001600160a01b031660c0526200016d69476f7665726e616e636560b01b6200003660805190565b6001600160a01b031660e052620001a87f5374616b696e67506f736974696f6e44657363726970746f72000000000000006200003660805190565b6001600160a01b031661010052620001ed565b600060208284031215620001ce57600080fd5b81516001600160a01b0381168114620001e657600080fd5b9392505050565b60805160a05160c05160e051610100516151386200028360003960006120ad015260008181610da60152610e0e015260008181611b150152818161282b01528181612ff8015281816131db01526135120152600050506000818161172d01528181611795015281816117f80152818161186001528181611cfe01528181611d6601528181611eee0152611f5601526151386000f3fe60806040526004361061033f5760003560e01c80638191f5e5116101b0578063a22cb465116100ec578063d5002f2e11610095578063e985e9c51161006f578063e985e9c5146109c2578063ea785a5e14610a18578063eb02c30114610a38578063f44d258b14610a8057600080fd5b8063d5002f2e1461096d578063e35c3e2814610982578063e42a673c146109a257600080fd5b8063be444379116100c6578063be44437914610915578063c47c6e1414610935578063c87b56dd1461094d57600080fd5b8063a22cb465146108c0578063adfdc03f146108e0578063b88d4fde146108f557600080fd5b8063905953ed11610159578063971b505b11610133578063971b505b14610852578063997851321461087257806399a89ecc1461088d578063a0712d68146108a057600080fd5b8063905953ed1461080857806393c5748d1461081d57806395d89b411461083d57600080fd5b80638653a4651161018a5780638653a465146106ed5780638853b950146107d057806389465c62146107f057600080fd5b80638191f5e5146106985780638303fef7146106b8578063856de8d2146106d857600080fd5b80632baf2acb1161027f5780634fc8638f1161022857806370a082311161020257806370a082311461062e57806379bb09851461064e5780637aa507fb146106635780638129fc1c1461068357600080fd5b80634fc8638f146105d6578063548652d2146105f65780636352211e1461060e57600080fd5b806342842e0e1161025957806342842e0e1461057657806342966c68146105965780634f6ccce7146105b657600080fd5b80632baf2acb146105215780632f745c59146105415780633eed3eff1461056157600080fd5b80630df4b2dd116102ec57806319b8be2f116102c657806319b8be2f146104ac57806320ea0d48146104c157806323b872dd146104e15780632a0d8bd11461050157600080fd5b80630df4b2dd146104425780630e4eb15b1461047757806318160ddd1461049757600080fd5b8063090f70f01161031d578063090f70f0146103e0578063095ea7b3146104005780630cc65dfb1461042257600080fd5b806301ffc9a71461034457806306fdde0314610379578063081812fc1461039b575b600080fd5b34801561035057600080fd5b5061036461035f36600461492d565b610a96565b60405190151581526020015b60405180910390f35b34801561038557600080fd5b5061038e610af2565b60405161037091906149b8565b3480156103a757600080fd5b506103bb6103b63660046149cb565b610b84565b60405173ffffffffffffffffffffffffffffffffffffffff9091168152602001610370565b3480156103ec57600080fd5b5062100a405b604051908152602001610370565b34801561040c57600080fd5b5061042061041b366004614a08565b610bb8565b005b34801561042e57600080fd5b506103f261043d366004614a32565b610d49565b34801561044e57600080fd5b5061046261045d3660046149cb565b610efb565b60408051928352602083019190915201610370565b34801561048357600080fd5b506103f2610492366004614a65565b610f1b565b3480156104a357600080fd5b506099546103f2565b3480156104b857600080fd5b5060d1546103f2565b3480156104cd57600080fd5b506103f26104dc3660046149cb565b611016565b3480156104ed57600080fd5b506104206104fc366004614a87565b61113a565b34801561050d57600080fd5b506103f261051c3660046149cb565b6111db565b34801561052d57600080fd5b506103f261053c366004614a32565b6111e7565b34801561054d57600080fd5b506103f261055c366004614a08565b61128d565b34801561056d57600080fd5b506103f261135c565b34801561058257600080fd5b50610420610591366004614a87565b611366565b3480156105a257600080fd5b506104626105b13660046149cb565b611381565b3480156105c257600080fd5b506103f26105d13660046149cb565b611398565b3480156105e257600080fd5b506104626105f13660046149cb565b611456565b34801561060257600080fd5b5060ce5460cf54610462565b34801561061a57600080fd5b506103bb6106293660046149cb565b6115a9565b34801561063a57600080fd5b506103f2610649366004614ac3565b611635565b34801561065a57600080fd5b506103f2611703565b34801561066f57600080fd5b506103f261067e366004614ac3565b611713565b34801561068f57600080fd5b506104206117e0565b3480156106a457600080fd5b506104206106b3366004614aef565b611a8b565b3480156106c457600080fd5b506104626106d3366004614a08565b611b89565b3480156106e457600080fd5b5060d2546103f2565b3480156106f957600080fd5b506103bb610708366004614b0b565b6040517fff0000000000000000000000000000000000000000000000000000000000000060208201527fffffffffffffffffffffffffffffffffffffffff000000000000000000000000606083901b166021820152603581018390527f1c0bf703a3415cada9785e89e9d70314c3111ae7d8e04f33bb42eb1d264088be60558201819052600091607501604080517fffffffffffffffffffffffffffffffffffffffffffffffffffffffffffffffe08184030181529190528051602090910120949350505050565b3480156107dc57600080fd5b506103f26107eb366004614a08565b611bab565b3480156107fc57600080fd5b5060c95460ff16610364565b34801561081457600080fd5b506103f2611bb7565b34801561082957600080fd5b506103f26108383660046149cb565b611bc1565b34801561084957600080fd5b5061038e611cd5565b34801561085e57600080fd5b506103f261086d366004614ac3565b611ce4565b34801561087e57600080fd5b50670de0b6b3a76400006103f2565b61042061089b366004614b37565b611da7565b3480156108ac57600080fd5b506103f26108bb3660046149cb565b611e78565b3480156108cc57600080fd5b506104206108db366004614b60565b611ec7565b3480156108ec57600080fd5b50610420611ed6565b34801561090157600080fd5b50610420610910366004614c5b565b611f8d565b34801561092157600080fd5b506103f2610930366004614a08565b612035565b34801561094157600080fd5b5060cc5460cd54610462565b34801561095957600080fd5b5061038e6109683660046149cb565b612041565b34801561097957600080fd5b5060cb546103f2565b34801561098e57600080fd5b506103f261099d3660046149cb565b612185565b3480156109ae57600080fd5b506103f26109bd366004614a65565b612191565b3480156109ce57600080fd5b506103646109dd366004614d06565b73ffffffffffffffffffffffffffffffffffffffff9182166000908152606a6020908152604080832093909416825291909152205460ff1690565b348015610a2457600080fd5b50610462610a33366004614a08565b61228c565b348015610a4457600080fd5b50610a58610a533660046149cb565b6122a5565b604080519586526020860194909452928401919091526060830152608082015260a001610370565b348015610a8c57600080fd5b506202a3006103f2565b60007fffffffff0000000000000000000000000000000000000000000000000000000082167f780e9d63000000000000000000000000000000000000000000000000000000001480610aec5750610aec826123b3565b92915050565b606060658054610b0190614d30565b80601f0160208091040260200160405190810160405280929190818152602001828054610b2d90614d30565b8015610b7a5780601f10610b4f57610100808354040283529160200191610b7a565b820191906000526020600020905b815481529060010190602001808311610b5d57829003601f168201915b5050505050905090565b6000610b8f82612496565b5060009081526069602052604090205473ffffffffffffffffffffffffffffffffffffffff1690565b6000610bc3826115a9565b90508073ffffffffffffffffffffffffffffffffffffffff168373ffffffffffffffffffffffffffffffffffffffff1603610c85576040517f08c379a000000000000000000000000000000000000000000000000000000000815260206004820152602160248201527f4552433732313a20617070726f76616c20746f2063757272656e74206f776e6560448201527f720000000000000000000000000000000000000000000000000000000000000060648201526084015b60405180910390fd5b3373ffffffffffffffffffffffffffffffffffffffff82161480610cae5750610cae81336109dd565b610d3a576040517f08c379a000000000000000000000000000000000000000000000000000000000815260206004820152603e60248201527f4552433732313a20617070726f76652063616c6c6572206973206e6f7420746f60448201527f6b656e206f776e6572206e6f7220617070726f76656420666f7220616c6c00006064820152608401610c7c565b610d448383612521565b505050565b60c95460009060ff16151560001901610d8e576040517f19efee7900000000000000000000000000000000000000000000000000000000815260040160405180910390fd5b3373ffffffffffffffffffffffffffffffffffffffff7f00000000000000000000000000000000000000000000000000000000000000001614610e3b576040517f4cb12bb900000000000000000000000000000000000000000000000000000000815233600482015273ffffffffffffffffffffffffffffffffffffffff7f0000000000000000000000000000000000000000000000000000000000000000166024820152604401610c7c565b610e44836115a9565b73ffffffffffffffffffffffffffffffffffffffff168473ffffffffffffffffffffffffffffffffffffffff1614610eaa576040517fc9c0713c000000000000000000000000000000000000000000000000000000008152336004820152602401610c7c565b6202a300821115610ee7576040517f2d2e18e400000000000000000000000000000000000000000000000000000000815260040160405180910390fd5b610ef183836125c1565b90505b9392505050565b600080610f08338461276d565b9050610f143384612851565b9150915091565b60c95460009060ff16151560001901610f60576040517f19efee7900000000000000000000000000000000000000000000000000000000815260040160405180910390fd5b610f69836115a9565b73ffffffffffffffffffffffffffffffffffffffff163373ffffffffffffffffffffffffffffffffffffffff1614610fcf576040517fc9c0713c000000000000000000000000000000000000000000000000000000008152336004820152602401610c7c565b6202a30082111561100c576040517f2d2e18e400000000000000000000000000000000000000000000000000000000815260040160405180910390fd5b610ef48383612914565b600081815260676020526040812054829073ffffffffffffffffffffffffffffffffffffffff16611076576040517fed15e6cf00000000000000000000000000000000000000000000000000000000815260048101829052602401610c7c565b600083815260d06020908152604091829020825160a08101845281547bffffffffffffffffffffffffffffffffffffffffffffffffffffffff811682527c0100000000000000000000000000000000000000000000000000000000900463ffffffff16818401526001820154818501526002820154606082019081526003909201546080820152835180850190945260ce54845260cf549284019290925260cb54905191929161112b90829084908690612aae565b97505050505050505b50919050565b6111443382612c2f565b6111d0576040517f08c379a000000000000000000000000000000000000000000000000000000000815260206004820152602e60248201527f4552433732313a2063616c6c6572206973206e6f7420746f6b656e206f776e6560448201527f72206e6f7220617070726f7665640000000000000000000000000000000000006064820152608401610c7c565b610d44838383612cef565b6000610aec3383612851565b60c95460009060ff1615156000190161122c576040517f19efee7900000000000000000000000000000000000000000000000000000000815260040160405180910390fd5b62100a40821115611269576040517f4125ab7600000000000000000000000000000000000000000000000000000000815260040160405180910390fd5b6112738484612f61565b90508115610ef45761128581836125c1565b509392505050565b600061129883611635565b8210611326576040517f08c379a000000000000000000000000000000000000000000000000000000000815260206004820152602b60248201527f455243373231456e756d657261626c653a206f776e657220696e646578206f7560448201527f74206f6620626f756e64730000000000000000000000000000000000000000006064820152608401610c7c565b5073ffffffffffffffffffffffffffffffffffffffff919091166000908152609760209081526040808320938352929052205490565b6000610aec6131d1565b610d4483838360405180602001604052806000815250611f8d565b60008061138f3333856132e6565b91509150915091565b60006113a360995490565b8210611431576040517f08c379a000000000000000000000000000000000000000000000000000000000815260206004820152602c60248201527f455243373231456e756d657261626c653a20676c6f62616c20696e646578206f60448201527f7574206f6620626f756e647300000000000000000000000000000000000000006064820152608401610c7c565b6099828154811061144457611444614d7d565b90600052602060002001549050919050565b6000818152606760205260408120548190839073ffffffffffffffffffffffffffffffffffffffff166114b8576040517fed15e6cf00000000000000000000000000000000000000000000000000000000815260048101829052602401610c7c565b600084815260d06020908152604091829020825160a08101845281547bffffffffffffffffffffffffffffffffffffffffffffffffffffffff811682527c0100000000000000000000000000000000000000000000000000000000900463ffffffff1681840152600182015481850152600282015460608201908152600390920154608082015260cb54845180860190955260ce54855260cf54938501939093529051909261156b918391908590612aae565b6040805180820190915260cc54815260cd546020820152608087015191995061159b945085935091508590612aae565b979997985050505050505050565b60008181526067602052604081205473ffffffffffffffffffffffffffffffffffffffff1680610aec576040517f08c379a000000000000000000000000000000000000000000000000000000000815260206004820152601860248201527f4552433732313a20696e76616c696420746f6b656e20494400000000000000006044820152606401610c7c565b600073ffffffffffffffffffffffffffffffffffffffff82166116da576040517f08c379a000000000000000000000000000000000000000000000000000000000815260206004820152602960248201527f4552433732313a2061646472657373207a65726f206973206e6f74206120766160448201527f6c6964206f776e657200000000000000000000000000000000000000000000006064820152608401610c7c565b5073ffffffffffffffffffffffffffffffffffffffff1660009081526068602052604090205490565b600061170e60ca5490565b905090565b60003373ffffffffffffffffffffffffffffffffffffffff7f000000000000000000000000000000000000000000000000000000000000000016146117c2576040517f0f634fbe00000000000000000000000000000000000000000000000000000000815233600482015273ffffffffffffffffffffffffffffffffffffffff7f0000000000000000000000000000000000000000000000000000000000000000166024820152604401610c7c565b60006117cc6131d1565b9250905061113481848461354c565b919050565b3373ffffffffffffffffffffffffffffffffffffffff7f0000000000000000000000000000000000000000000000000000000000000000161461188d576040517f0f634fbe00000000000000000000000000000000000000000000000000000000815233600482015273ffffffffffffffffffffffffffffffffffffffff7f0000000000000000000000000000000000000000000000000000000000000000166024820152604401610c7c565b600054610100900460ff16158080156118ad5750600054600160ff909116105b806118c75750303b1580156118c7575060005460ff166001145b611953576040517f08c379a000000000000000000000000000000000000000000000000000000000815260206004820152602e60248201527f496e697469616c697a61626c653a20636f6e747261637420697320616c72656160448201527f647920696e697469616c697a65640000000000000000000000000000000000006064820152608401610c7c565b600080547fffffffffffffffffffffffffffffffffffffffffffffffffffffffffffffff0016600117905580156119b157600080547fffffffffffffffffffffffffffffffffffffffffffffffffffffffffffff00ff166101001790555b611a256040518060400160405280600681526020017f4150534e465400000000000000000000000000000000000000000000000000008152506040518060400160405280600381526020017f41505300000000000000000000000000000000000000000000000000000000008152506136a9565b8015611a8857600080547fffffffffffffffffffffffffffffffffffffffffffffffffffffffffffff00ff169055604051600181527f7f26b83ff96e1f2b6a682f133852f6798a09c465da95921460cefb38474024989060200160405180910390a15b50565b60c95460ff16151560001901611acd576040517f19efee7900000000000000000000000000000000000000000000000000000000815260040160405180910390fd5b8160ff8116602a14611b10576040517fe25155e900000000000000000000000000000000000000000000000000000000815260ff82166004820152602401610c7c565b611b3c7f00000000000000000000000000000000000000000000000000000000000000005b338461374a565b6040805180820190915260cc54815260cd546020820152611b5e9083906138ad565b805160cc556020015160cd5560d28054839190600090611b7f908490614ddb565b9091555050505050565b600080611b96848461276d565b9050611ba28484612851565b91509250929050565b6000610ef4838361276d565b600061170e613941565b600081815260676020526040812054829073ffffffffffffffffffffffffffffffffffffffff16611c21576040517fed15e6cf00000000000000000000000000000000000000000000000000000000815260048101829052602401610c7c565b600083815260d06020908152604091829020825160a08101845281547bffffffffffffffffffffffffffffffffffffffffffffffffffffffff811682527c0100000000000000000000000000000000000000000000000000000000900463ffffffff1681840152600182015481850152600282015460608201526003909101546080820190815260cb54845180860190955260cc54855260cd54938501939093525190929061112b90839083908690612aae565b606060668054610b0190614d30565b60003373ffffffffffffffffffffffffffffffffffffffff7f00000000000000000000000000000000000000000000000000000000000000001614611d93576040517f0f634fbe00000000000000000000000000000000000000000000000000000000815233600482015273ffffffffffffffffffffffffffffffffffffffff7f0000000000000000000000000000000000000000000000000000000000000000166024820152604401610c7c565b611d9b613941565b90506117db828261399d565b60c95460ff16151560001901611de9576040517f19efee7900000000000000000000000000000000000000000000000000000000815260040160405180910390fd5b8060ff8116602a14611e2c576040517fe25155e900000000000000000000000000000000000000000000000000000000815260ff82166004820152602401610c7c565b6040805180820190915260ce54815260cf546020820152611e4e9034906138ad565b805160ce556020015160cf5560d18054349190600090611e6f908490614ddb565b90915550505050565b60c95460009060ff16151560001901611ebd576040517f19efee7900000000000000000000000000000000000000000000000000000000815260040160405180910390fd5b610aec3383612f61565b611ed2338383613ab5565b5050565b3373ffffffffffffffffffffffffffffffffffffffff7f00000000000000000000000000000000000000000000000000000000000000001614611f83576040517f0f634fbe00000000000000000000000000000000000000000000000000000000815233600482015273ffffffffffffffffffffffffffffffffffffffff7f0000000000000000000000000000000000000000000000000000000000000000166024820152604401610c7c565b611f8b613be2565b565b611f973383612c2f565b612023576040517f08c379a000000000000000000000000000000000000000000000000000000000815260206004820152602e60248201527f4552433732313a2063616c6c6572206973206e6f7420746f6b656e206f776e6560448201527f72206e6f7220617070726f7665640000000000000000000000000000000000006064820152608401610c7c565b61202f84848484613c51565b50505050565b6000610ef48383612851565b6060816120728160009081526067602052604090205473ffffffffffffffffffffffffffffffffffffffff16151590565b6120ab576040517fed15e6cf00000000000000000000000000000000000000000000000000000000815260048101829052602401610c7c565b7f00000000000000000000000000000000000000000000000000000000000000006040517fe9dc63750000000000000000000000000000000000000000000000000000000081523060048201526024810185905273ffffffffffffffffffffffffffffffffffffffff919091169063e9dc637590604401600060405180830381865afa15801561213f573d6000803e3d6000fd5b505050506040513d6000823e601f3d9081017fffffffffffffffffffffffffffffffffffffffffffffffffffffffffffffffe0168201604052610ef49190810190614dee565b6000610aec338361276d565b60c95460009060ff161515600019016121d6576040517f19efee7900000000000000000000000000000000000000000000000000000000815260040160405180910390fd5b6121df836115a9565b73ffffffffffffffffffffffffffffffffffffffff163373ffffffffffffffffffffffffffffffffffffffff1614612245576040517fc9c0713c000000000000000000000000000000000000000000000000000000008152336004820152602401610c7c565b6202a300821115612282576040517f2d2e18e400000000000000000000000000000000000000000000000000000000815260040160405180910390fd5b610ef483836125c1565b60008061229a3385856132e6565b915091509250929050565b6000806000806000856122dc8160009081526067602052604090205473ffffffffffffffffffffffffffffffffffffffff16151590565b612315576040517fed15e6cf00000000000000000000000000000000000000000000000000000000815260048101829052602401610c7c565b5050506000938452505060d06020908152604092839020835160a08101855281547bffffffffffffffffffffffffffffffffffffffffffffffffffffffff81168083527c010000000000000000000000000000000000000000000000000000000090910463ffffffff169382018490526001830154958201869052600283015460608301819052600390930154608090920182905295929493509091565b60007fffffffff0000000000000000000000000000000000000000000000000000000082167f80ac58cd00000000000000000000000000000000000000000000000000000000148061244657507fffffffff0000000000000000000000000000000000000000000000000000000082167f5b5e139f00000000000000000000000000000000000000000000000000000000145b80610aec57507f01ffc9a7000000000000000000000000000000000000000000000000000000007fffffffff00000000000000000000000000000000000000000000000000000000831614610aec565b60008181526067602052604090205473ffffffffffffffffffffffffffffffffffffffff16611a88576040517f08c379a000000000000000000000000000000000000000000000000000000000815260206004820152601860248201527f4552433732313a20696e76616c696420746f6b656e20494400000000000000006044820152606401610c7c565b600081815260696020526040902080547fffffffffffffffffffffffff00000000000000000000000000000000000000001673ffffffffffffffffffffffffffffffffffffffff8416908117909155819061257b826115a9565b73ffffffffffffffffffffffffffffffffffffffff167f8c5be1e5ebec7d5bd14f71427d1e84f3dd0314c0f7b2291e5b200ac8c7c3b92560405160405180910390a45050565b600082815260676020526040812054839073ffffffffffffffffffffffffffffffffffffffff16612621576040517fed15e6cf00000000000000000000000000000000000000000000000000000000815260048101829052602401610c7c565b600084815260d060209081526040808320815160a08101835281547bffffffffffffffffffffffffffffffffffffffffffffffffffffffff811682527c0100000000000000000000000000000000000000000000000000000000900463ffffffff169381019390935260018101549183019190915260028101546060830152600301546080820152906126b48543614e65565b9050816020015163ffffffff168163ffffffff16116126d75781602001516126d9565b805b63ffffffff9081166020808501918252600089815260d0909152604090819020855192519093167c0100000000000000000000000000000000000000000000000000000000027bffffffffffffffffffffffffffffffffffffffffffffffffffffffff90921691821783558401516001830155606084015160028301556080909301516003909101555091505b5092915050565b60008061277983613cf4565b905061278760cb5482613e70565b600085815260d06020908152604080832085519286015163ffffffff167c0100000000000000000000000000000000000000000000000000000000027bffffffffffffffffffffffffffffffffffffffffffffffffffffffff90931692909217825584015160018201556060840151600282015560809093015160039093019290925560d2805491945084929091612820908490614e82565b9091555061276690507f0000000000000000000000000000000000000000000000000000000000000000858461354c565b60008061285d83613cf4565b905061286b60cb5482613f15565b600085815260d06020908152604080832085519286015163ffffffff167c0100000000000000000000000000000000000000000000000000000000027bffffffffffffffffffffffffffffffffffffffffffffffffffffffff90931692909217825584015160018201556060840151600282015560809093015160039093019290925560d1805491945084929091612904908490614e82565b909155506127669050848361399d565b600082815260676020526040812054839073ffffffffffffffffffffffffffffffffffffffff16612974576040517fed15e6cf00000000000000000000000000000000000000000000000000000000815260048101829052602401610c7c565b600084815260d060209081526040808320815160a08101835281547bffffffffffffffffffffffffffffffffffffffffffffffffffffffff811682527c0100000000000000000000000000000000000000000000000000000000900463ffffffff16938101939093526001810154918301919091526002810154606083015260030154608082015290612a078543614ddb565b905081604001518111612a1e578160400151612a20565b805b6040808401918252600088815260d0602090815291902084519185015163ffffffff167c0100000000000000000000000000000000000000000000000000000000027bffffffffffffffffffffffffffffffffffffffffffffffffffffffff909216918217815591516001830155606084015160028301556080909301516003909101555091505092915050565b60408051808201825260008082526020808301829052835160a08101855282815290810182905292830181905260608301819052608083015290600080612afe8888600001518960200151613fba565b6020890152808852600090861115612b4a57612b30867501000000000000000000000000000000000000000000614e82565b8851909150612b3f9082614ddb565b885196509050612b66565b8751612b57908790614e82565b9050612b638187614ddb565b95505b8651600090612b93907bffffffffffffffffffffffffffffffffffffffffffffffffffffffff1683614e95565b88519091507bffffffffffffffffffffffffffffffffffffffffffffffffffffffff168a03612bd5576020890151612bcb9082614ddb565b600060208b015290505b80612be8670de0b6b3a764000082614ee3565b9150612bfc670de0b6b3a764000083614e95565b612c069082614e82565b9050808a602001818151612c1a9190614ddb565b905250989a9799509597509495945050505050565b600080612c3b836115a9565b90508073ffffffffffffffffffffffffffffffffffffffff168473ffffffffffffffffffffffffffffffffffffffff161480612ca9575073ffffffffffffffffffffffffffffffffffffffff8082166000908152606a602090815260408083209388168352929052205460ff165b80612ce757508373ffffffffffffffffffffffffffffffffffffffff16612ccf84610b84565b73ffffffffffffffffffffffffffffffffffffffff16145b949350505050565b8273ffffffffffffffffffffffffffffffffffffffff16612d0f826115a9565b73ffffffffffffffffffffffffffffffffffffffff1614612db2576040517f08c379a000000000000000000000000000000000000000000000000000000000815260206004820152602560248201527f4552433732313a207472616e736665722066726f6d20696e636f72726563742060448201527f6f776e65720000000000000000000000000000000000000000000000000000006064820152608401610c7c565b73ffffffffffffffffffffffffffffffffffffffff8216612e54576040517f08c379a0000000000000000000000000000000000000000000000000000000008152602060048201526024808201527f4552433732313a207472616e7366657220746f20746865207a65726f2061646460448201527f72657373000000000000000000000000000000000000000000000000000000006064820152608401610c7c565b612e5f83838361403f565b612e6a600082612521565b73ffffffffffffffffffffffffffffffffffffffff83166000908152606860205260408120805460019290612ea0908490614e82565b909155505073ffffffffffffffffffffffffffffffffffffffff82166000908152606860205260408120805460019290612edb908490614ddb565b909155505060008181526067602052604080822080547fffffffffffffffffffffffff00000000000000000000000000000000000000001673ffffffffffffffffffffffffffffffffffffffff86811691821790925591518493918716917fddf252ad1be2c89b69c2b068fc378daa952ba7f163c4a11628f55a4df523b3ef91a4505050565b600081600003612f9d576040517f39d7ecde00000000000000000000000000000000000000000000000000000000815260040160405180910390fd5b7bffffffffffffffffffffffffffffffffffffffffffffffffffffffff821115612ff3576040517fa06d76af00000000000000000000000000000000000000000000000000000000815260040160405180910390fd5b61301c7f0000000000000000000000000000000000000000000000000000000000000000611b35565b60cb5460408051808201825260ce54815260cf54602080830191909152825180840190935260cc54835260cd549083015290613056614145565b935082156130aa576130718383600001518460200151613fba565b602080850182905282855260ce9290925560cf55815190820151613096918591613fba565b6020830181905281835260cc9190915560cd555b6130b48584614ddb565b60cb8190556040805160a081019091527bffffffffffffffffffffffffffffffffffffffffffffffffffffffff87168152909350602081016130f7436001614e65565b63ffffffff16815260200161310d436001614e65565b63ffffffff908116825284516020808401919091528451604093840152600088815260d082528381208551928601519093167c0100000000000000000000000000000000000000000000000000000000027bffffffffffffffffffffffffffffffffffffffffffffffffffffffff9092169190911782559183015160018201556060830151600282015560809092015160039092019190915560d280548792906131b8908490614ddb565b909155506131c89050868561415d565b50505092915050565b60d25460009081907f00000000000000000000000000000000000000000000000000000000000000006040517f70a0823100000000000000000000000000000000000000000000000000000000815230600482015290935060009073ffffffffffffffffffffffffffffffffffffffff8516906370a0823190602401602060405180830381865afa15801561326a573d6000803e3d6000fd5b505050506040513d601f19601f8201168201806040525081019061328e9190614ef7565b9050818110156132d4576040517f22f7c7fc0000000000000000000000000000000000000000000000000000000081526004810182905260248101839052604401610c7c565b6132de8282614e82565b925050509091565b6000806132f2836115a9565b73ffffffffffffffffffffffffffffffffffffffff168573ffffffffffffffffffffffffffffffffffffffff1614613358576040517fc9c0713c000000000000000000000000000000000000000000000000000000008152336004820152602401610c7c565b600083815260d06020908152604091829020825160a08101845281547bffffffffffffffffffffffffffffffffffffffffffffffffffffffff811682527c0100000000000000000000000000000000000000000000000000000000900463ffffffff1692810183905260018201549381019390935260028101546060840152600301546080830152431115806133f2575043816040015110155b15613429576040517fd9b3656c00000000000000000000000000000000000000000000000000000000815260040160405180910390fd5b60cb546134368183613f15565b945091506134448183613e70565b8151909450909250613474907bffffffffffffffffffffffffffffffffffffffffffffffffffffffff1684614ddb565b925081600001517bffffffffffffffffffffffffffffffffffffffffffffffffffffffff1660cb60008282546134aa9190614e82565b925050819055508260d260008282546134c39190614e82565b925050819055508360d160008282546134dc9190614e82565b9091555050600085815260d06020526040812081815560018101829055600281018290556003015561350d8561432b565b6135387f0000000000000000000000000000000000000000000000000000000000000000878561354c565b613542868561399d565b5050935093915050565b8060000361355957505050565b73ffffffffffffffffffffffffffffffffffffffff83166135a6576040517f2518928d00000000000000000000000000000000000000000000000000000000815260040160405180910390fd5b6040517fa9059cbb00000000000000000000000000000000000000000000000000000000815273ffffffffffffffffffffffffffffffffffffffff8381166004830152602482018390526000919085169063a9059cbb906044016020604051808303816000875af115801561361f573d6000803e3d6000fd5b505050506040513d601f19601f820116820180604052508101906136439190614f10565b90508061202f576040517ff0798c5100000000000000000000000000000000000000000000000000000000815273ffffffffffffffffffffffffffffffffffffffff80861660048301523060248301528416604482015260648101839052608401610c7c565b600054610100900460ff16613740576040517f08c379a000000000000000000000000000000000000000000000000000000000815260206004820152602b60248201527f496e697469616c697a61626c653a20636f6e7472616374206973206e6f74206960448201527f6e697469616c697a696e670000000000000000000000000000000000000000006064820152608401610c7c565b611ed28282614404565b8060000361375757505050565b73ffffffffffffffffffffffffffffffffffffffff83166137a4576040517f2518928d00000000000000000000000000000000000000000000000000000000815260040160405180910390fd5b6040517f23b872dd00000000000000000000000000000000000000000000000000000000815273ffffffffffffffffffffffffffffffffffffffff838116600483015230602483015260448201839052600091908516906323b872dd906064016020604051808303816000875af1158015613823573d6000803e3d6000fd5b505050506040513d601f19601f820116820180604052508101906138479190614f10565b90508061202f576040517ff0798c5100000000000000000000000000000000000000000000000000000000815273ffffffffffffffffffffffffffffffffffffffff80861660048301528416602482015230604482015260648101839052608401610c7c565b60408051808201909152600080825260208201526138d3670de0b6b3a764000084614e95565b826020018181516138e49190614ddb565b905250602082015174800000000000000000000000000000000000000000116111345781602001516040517faabd6b93000000000000000000000000000000000000000000000000000000008152600401610c7c91815260200190565b60d154600090478181101561398c576040517f22f7c7fc0000000000000000000000000000000000000000000000000000000081526004810182905260248101839052604401610c7c565b6139968282614e82565b9250505090565b806000036139a9575050565b73ffffffffffffffffffffffffffffffffffffffff82166139f6576040517f6f5ec9ea00000000000000000000000000000000000000000000000000000000815260040160405180910390fd5b604051829060009073ffffffffffffffffffffffffffffffffffffffff83169084908381818185875af1925050503d8060008114613a50576040519150601f19603f3d011682016040523d82523d6000602084013e613a55565b606091505b505090508061202f576040517fb250066300000000000000000000000000000000000000000000000000000000815230600482015273ffffffffffffffffffffffffffffffffffffffff8516602482015260448101849052606401610c7c565b8173ffffffffffffffffffffffffffffffffffffffff168373ffffffffffffffffffffffffffffffffffffffff1603613b4a576040517f08c379a000000000000000000000000000000000000000000000000000000000815260206004820152601960248201527f4552433732313a20617070726f766520746f2063616c6c6572000000000000006044820152606401610c7c565b73ffffffffffffffffffffffffffffffffffffffff8381166000818152606a602090815260408083209487168084529482529182902080547fffffffffffffffffffffffffffffffffffffffffffffffffffffffffffffff001686151590811790915591519182527f17307eab39ab6107e8899845ad3d59bd9653f200f220920489ca2b5937696c31910160405180910390a3505050565b60c95460ff16151560001901613c24576040517f19efee7900000000000000000000000000000000000000000000000000000000815260040160405180910390fd5b60c980547fffffffffffffffffffffffffffffffffffffffffffffffffffffffffffffff00166001179055565b613c5c848484612cef565b613c68848484846144a5565b61202f576040517f08c379a000000000000000000000000000000000000000000000000000000000815260206004820152603260248201527f4552433732313a207472616e7366657220746f206e6f6e20455243373231526560448201527f63656976657220696d706c656d656e74657200000000000000000000000000006064820152608401610c7c565b613d4a6040518060a0016040528060007bffffffffffffffffffffffffffffffffffffffffffffffffffffffff168152602001600063ffffffff1681526020016000815260200160008152602001600081525090565b6000613d55836115a9565b90503373ffffffffffffffffffffffffffffffffffffffff821614613da8576040517fc9c0713c000000000000000000000000000000000000000000000000000000008152336004820152602401610c7c565b600083815260d060208181526040808420815160a08101835281547bffffffffffffffffffffffffffffffffffffffffffffffffffffffff811682527c0100000000000000000000000000000000000000000000000000000000900463ffffffff16818501526001820154928101839052600282015460608201526003909101546080820152938790529190529092504311611134576040517f30693fbd00000000000000000000000000000000000000000000000000000000815260040160405180910390fd5b613ec66040518060a0016040528060007bffffffffffffffffffffffffffffffffffffffffffffffffffffffff168152602001600063ffffffff1681526020016000815260200160008152602001600081525090565b6040805180820190915260cc54815260cd54602082015260808301516000918291613ef690879083908890612aae565b835160cc5560209093015160cd55608082015297909650945050505050565b613f6b6040518060a0016040528060007bffffffffffffffffffffffffffffffffffffffffffffffffffffffff168152602001600063ffffffff1681526020016000815260200160008152602001600081525090565b6040805180820190915260ce54815260cf54602082015260608301516000918291613f9b90879083908890612aae565b835160ce5560209093015160cf55606082015297909650945050505050565b6000808415614035576000613fcf8685614ee3565b9050613fdb8682614e95565b613fe59085614e82565b9350613ff18186614ddb565b945074ffffffffffffffffffffffffffffffffffffffffff85111561403357614030750100000000000000000000000000000000000000000086614f2d565b94505b505b5091939092509050565b73ffffffffffffffffffffffffffffffffffffffff83166140a7576140a281609980546000838152609a60205260408120829055600182018355919091527f72a152ddfb8e864297c917af52ea6c1c68aead0fee1a62673fcc7e0c94979d000155565b6140e4565b8173ffffffffffffffffffffffffffffffffffffffff168373ffffffffffffffffffffffffffffffffffffffff16146140e4576140e48382614698565b73ffffffffffffffffffffffffffffffffffffffff821661410857610d448161474f565b8273ffffffffffffffffffffffffffffffffffffffff168273ffffffffffffffffffffffffffffffffffffffff1614610d4457610d4482826147fe565b60ca54614153600182614ddb565b60ca819055919050565b73ffffffffffffffffffffffffffffffffffffffff82166141da576040517f08c379a000000000000000000000000000000000000000000000000000000000815260206004820181905260248201527f4552433732313a206d696e7420746f20746865207a65726f20616464726573736044820152606401610c7c565b60008181526067602052604090205473ffffffffffffffffffffffffffffffffffffffff1615614266576040517f08c379a000000000000000000000000000000000000000000000000000000000815260206004820152601c60248201527f4552433732313a20746f6b656e20616c7265616479206d696e746564000000006044820152606401610c7c565b6142726000838361403f565b73ffffffffffffffffffffffffffffffffffffffff821660009081526068602052604081208054600192906142a8908490614ddb565b909155505060008181526067602052604080822080547fffffffffffffffffffffffff00000000000000000000000000000000000000001673ffffffffffffffffffffffffffffffffffffffff861690811790915590518392907fddf252ad1be2c89b69c2b068fc378daa952ba7f163c4a11628f55a4df523b3ef908290a45050565b6000614336826115a9565b90506143448160008461403f565b61434f600083612521565b73ffffffffffffffffffffffffffffffffffffffff81166000908152606860205260408120805460019290614385908490614e82565b909155505060008281526067602052604080822080547fffffffffffffffffffffffff00000000000000000000000000000000000000001690555183919073ffffffffffffffffffffffffffffffffffffffff8416907fddf252ad1be2c89b69c2b068fc378daa952ba7f163c4a11628f55a4df523b3ef908390a45050565b600054610100900460ff1661449b576040517f08c379a000000000000000000000000000000000000000000000000000000000815260206004820152602b60248201527f496e697469616c697a61626c653a20636f6e7472616374206973206e6f74206960448201527f6e697469616c697a696e670000000000000000000000000000000000000000006064820152608401610c7c565b611ed2828261484f565b600073ffffffffffffffffffffffffffffffffffffffff84163b1561468d576040517f150b7a0200000000000000000000000000000000000000000000000000000000815273ffffffffffffffffffffffffffffffffffffffff85169063150b7a029061451c903390899088908890600401614f41565b6020604051808303816000875af1925050508015614575575060408051601f3d9081017fffffffffffffffffffffffffffffffffffffffffffffffffffffffffffffffe016820190925261457291810190614f8a565b60015b614642573d8080156145a3576040519150601f19603f3d011682016040523d82523d6000602084013e6145a8565b606091505b50805160000361463a576040517f08c379a000000000000000000000000000000000000000000000000000000000815260206004820152603260248201527f4552433732313a207472616e7366657220746f206e6f6e20455243373231526560448201527f63656976657220696d706c656d656e74657200000000000000000000000000006064820152608401610c7c565b805181602001fd5b7fffffffff00000000000000000000000000000000000000000000000000000000167f150b7a0200000000000000000000000000000000000000000000000000000000149050612ce7565b506001949350505050565b600060016146a584611635565b6146af9190614e82565b60008381526098602052604090205490915080821461470f5773ffffffffffffffffffffffffffffffffffffffff841660009081526097602090815260408083208584528252808320548484528184208190558352609890915290208190555b50600091825260986020908152604080842084905573ffffffffffffffffffffffffffffffffffffffff9094168352609781528383209183525290812055565b60995460009061476190600190614e82565b6000838152609a60205260408120546099805493945090928490811061478957614789614d7d565b9060005260206000200154905080609983815481106147aa576147aa614d7d565b6000918252602080832090910192909255828152609a909152604080822084905585825281205560998054806147e2576147e2614fa7565b6001900381819060005260206000200160009055905550505050565b600061480983611635565b73ffffffffffffffffffffffffffffffffffffffff9093166000908152609760209081526040808320868452825280832085905593825260989052919091209190915550565b600054610100900460ff166148e6576040517f08c379a000000000000000000000000000000000000000000000000000000000815260206004820152602b60248201527f496e697469616c697a61626c653a20636f6e7472616374206973206e6f74206960448201527f6e697469616c697a696e670000000000000000000000000000000000000000006064820152608401610c7c565b60656148f28382615024565b506066610d448282615024565b7fffffffff0000000000000000000000000000000000000000000000000000000081168114611a8857600080fd5b60006020828403121561493f57600080fd5b8135610ef4816148ff565b60005b8381101561496557818101518382015260200161494d565b50506000910152565b6000815180845261498681602086016020860161494a565b601f017fffffffffffffffffffffffffffffffffffffffffffffffffffffffffffffffe0169290920160200192915050565b602081526000610ef4602083018461496e565b6000602082840312156149dd57600080fd5b5035919050565b803573ffffffffffffffffffffffffffffffffffffffff811681146117db57600080fd5b60008060408385031215614a1b57600080fd5b614a24836149e4565b946020939093013593505050565b600080600060608486031215614a4757600080fd5b614a50846149e4565b95602085013595506040909401359392505050565b60008060408385031215614a7857600080fd5b50508035926020909101359150565b600080600060608486031215614a9c57600080fd5b614aa5846149e4565b9250614ab3602085016149e4565b9150604084013590509250925092565b600060208284031215614ad557600080fd5b610ef4826149e4565b803560ff811681146117db57600080fd5b60008060408385031215614b0257600080fd5b614a2483614ade565b60008060408385031215614b1e57600080fd5b82359150614b2e602084016149e4565b90509250929050565b600060208284031215614b4957600080fd5b610ef482614ade565b8015158114611a8857600080fd5b60008060408385031215614b7357600080fd5b614b7c836149e4565b91506020830135614b8c81614b52565b809150509250929050565b7f4e487b7100000000000000000000000000000000000000000000000000000000600052604160045260246000fd5b604051601f82017fffffffffffffffffffffffffffffffffffffffffffffffffffffffffffffffe016810167ffffffffffffffff81118282101715614c0d57614c0d614b97565b604052919050565b600067ffffffffffffffff821115614c2f57614c2f614b97565b50601f017fffffffffffffffffffffffffffffffffffffffffffffffffffffffffffffffe01660200190565b60008060008060808587031215614c7157600080fd5b614c7a856149e4565b9350614c88602086016149e4565b925060408501359150606085013567ffffffffffffffff811115614cab57600080fd5b8501601f81018713614cbc57600080fd5b8035614ccf614cca82614c15565b614bc6565b818152886020838501011115614ce457600080fd5b8160208401602083013760006020838301015280935050505092959194509250565b60008060408385031215614d1957600080fd5b614d22836149e4565b9150614b2e602084016149e4565b600181811c90821680614d4457607f821691505b602082108103611134577f4e487b7100000000000000000000000000000000000000000000000000000000600052602260045260246000fd5b7f4e487b7100000000000000000000000000000000000000000000000000000000600052603260045260246000fd5b7f4e487b7100000000000000000000000000000000000000000000000000000000600052601160045260246000fd5b80820180821115610aec57610aec614dac565b600060208284031215614e0057600080fd5b815167ffffffffffffffff811115614e1757600080fd5b8201601f81018413614e2857600080fd5b8051614e36614cca82614c15565b818152856020838501011115614e4b57600080fd5b614e5c82602083016020860161494a565b95945050505050565b63ffffffff81811683821601908082111561276657612766614dac565b81810381811115610aec57610aec614dac565b6000816000190483118215151615614eaf57614eaf614dac565b500290565b7f4e487b7100000000000000000000000000000000000000000000000000000000600052601260045260246000fd5b600082614ef257614ef2614eb4565b500490565b600060208284031215614f0957600080fd5b5051919050565b600060208284031215614f2257600080fd5b8151610ef481614b52565b600082614f3c57614f3c614eb4565b500690565b600073ffffffffffffffffffffffffffffffffffffffff808716835280861660208401525083604083015260806060830152614f80608083018461496e565b9695505050505050565b600060208284031215614f9c57600080fd5b8151610ef4816148ff565b7f4e487b7100000000000000000000000000000000000000000000000000000000600052603160045260246000fd5b601f821115610d4457600081815260208120601f850160051c81016020861015614ffd5750805b601f850160051c820191505b8181101561501c57828155600101615009565b505050505050565b815167ffffffffffffffff81111561503e5761503e614b97565b6150528161504c8454614d30565b84614fd6565b602080601f831160018114615087576000841561506f5750858301515b600019600386901b1c1916600185901b17855561501c565b6000858152602081207fffffffffffffffffffffffffffffffffffffffffffffffffffffffffffffffe08616915b828110156150d4578886015182559484019460019091019084016150b5565b50858210156150f25787850151600019600388901b60f8161c191681555b5050505050600190811b0190555056fea2646970667358221220bec8c31e4940626d0dbf5687254e33b88081d9060c6937e98af19fbe6033b0a464736f6c63430008100033",
    "linkReferences": {},
    "deployedLinkReferences": {}
}