{
  "_format": "hh-sol-artifact-1",
  "contractName": "StakingRouterV1",
  "sourceName": "contracts/StakingRouterV1.sol",
  "abi": [
    {
      "inputs": [],
      "stateMutability": "nonpayable",
      "type": "constructor"
    },
    {
      "inputs": [],
      "name": "CannotCallContractMethodsOnZeroAddress",
      "type": "error"
    },
    {
      "inputs": [
        {
          "internalType": "address",
          "name": "erc20Address",
          "type": "address"
        },
        {
          "internalType": "address",
          "name": "from",
          "type": "address"
        },
        {
          "internalType": "address",
          "name": "to",
          "type": "address"
        },
        {
          "internalType": "uint256",
          "name": "amount",
          "type": "uint256"
        }
      ],
      "name": "Erc20TransferFailed",
      "type": "error"
    },
    {
      "inputs": [
        {
          "internalType": "uint256",
          "name": "stakingAmount",
          "type": "uint256"
        },
        {
          "internalType": "uint256",
          "name": "migratedAmount",
          "type": "uint256"
        }
      ],
      "name": "InvalidStakingAmount",
      "type": "error"
    },
    {
      "inputs": [
        {
          "internalType": "address",
          "name": "sender",
          "type": "address"
        },
        {
          "internalType": "address",
          "name": "expected",
          "type": "address"
        }
      ],
      "name": "OnlyAToken",
      "type": "error"
    },
    {
      "inputs": [
        {
          "internalType": "address",
          "name": "sender",
          "type": "address"
        },
        {
          "internalType": "address",
          "name": "expected",
          "type": "address"
        }
      ],
      "name": "OnlyFactory",
      "type": "error"
    },
    {
      "inputs": [
        {
          "internalType": "address",
          "name": "sender",
          "type": "address"
        },
        {
          "internalType": "address",
          "name": "expected",
          "type": "address"
        }
      ],
      "name": "OnlyPublicStaking",
      "type": "error"
    },
    {
      "inputs": [],
      "name": "getLegacyTokenAddress",
      "outputs": [
        {
          "internalType": "address",
          "name": "",
          "type": "address"
        }
      ],
      "stateMutability": "view",
      "type": "function"
    },
    {
      "inputs": [
        {
          "internalType": "bytes32",
          "name": "_salt",
          "type": "bytes32"
        },
        {
          "internalType": "address",
          "name": "_factory",
          "type": "address"
        }
      ],
      "name": "getMetamorphicContractAddress",
      "outputs": [
        {
          "internalType": "address",
          "name": "",
          "type": "address"
        }
      ],
      "stateMutability": "pure",
      "type": "function"
    },
    {
      "inputs": [
        {
          "internalType": "address",
          "name": "to_",
          "type": "address"
        },
        {
          "internalType": "uint256",
          "name": "migrationAmount_",
          "type": "uint256"
        },
        {
          "internalType": "uint256",
          "name": "stakingAmount_",
          "type": "uint256"
        }
      ],
      "name": "migrateAndStake",
      "outputs": [],
      "stateMutability": "nonpayable",
      "type": "function"
    },
    {
      "inputs": [
        {
          "internalType": "address",
          "name": "to_",
          "type": "address"
        },
        {
          "internalType": "uint256",
          "name": "migrationAmount_",
          "type": "uint256"
        },
        {
          "internalType": "uint256",
          "name": "stakingAmount_",
          "type": "uint256"
        }
      ],
      "name": "migrateStakeAndLock",
      "outputs": [],
      "stateMutability": "nonpayable",
      "type": "function"
    },
    {
      "inputs": [
        {
          "internalType": "address",
          "name": "to_",
          "type": "address"
        },
        {
          "internalType": "uint256",
          "name": "stakingAmount_",
          "type": "uint256"
        }
      ],
      "name": "stakeAndLock",
      "outputs": [],
      "stateMutability": "nonpayable",
      "type": "function"
    }
  ],
  "bytecode": "0x61012060405234801561001157600080fd5b50336080526100c56c5075626c69635374616b696e6760981b61003360805190565b6040517fff0000000000000000000000000000000000000000000000000000000000000060208201526001600160601b0319606083901b166021820152603581018390527f1c0bf703a3415cada9785e89e9d70314c3111ae7d8e04f33bb42eb1d264088be6055820181905260009160750160408051601f198184030181529190528051602090910120949350505050565b6001600160a01b0390811660a05260805160405163f39ec1f760e01b81526520aa37b5b2b760d11b600482015291169063f39ec1f790602401602060405180830381865afa15801561011b573d6000803e3d6000fd5b505050506040513d601f19601f8201168201806040525081019061013f9190610242565b6001600160a01b031660c08190526001600160a01b031663035c70996040518163ffffffff1660e01b8152600401602060405180830381865afa15801561018a573d6000803e3d6000fd5b505050506040513d601f19601f820116820180604052508101906101ae9190610242565b6001600160a01b031660e05260805160405163f39ec1f760e01b81526504c6f636b75760d41b60048201526001600160a01b03919091169063f39ec1f790602401602060405180830381865afa15801561020c573d6000803e3d6000fd5b505050506040513d601f19601f820116820180604052508101906102309190610242565b6001600160a01b031661010052610272565b60006020828403121561025457600080fd5b81516001600160a01b038116811461026b57600080fd5b9392505050565b60805160a05160c05160e05161010051610be16102f86000396000818161014f015281816101c30152818161025a01526102ce015260008181606e015281816103e5015261042201526000818161022d015281816104490152818161054901528181610620015261065001526000818161068c0152610795015260005050610be16000f3fe608060405234801561001057600080fd5b50600436106100675760003560e01c80631873799a116100505780631873799a146100cc5780633ce55336146100df5780638653a465146100f257600080fd5b8063035c70991461006c578063143f769b146100b7575b600080fd5b7f00000000000000000000000000000000000000000000000000000000000000005b60405173ffffffffffffffffffffffffffffffffffffffff909116815260200160405180910390f35b6100ca6100c5366004610aad565b610105565b005b6100ca6100da366004610aad565b61012f565b6100ca6100ed366004610ae0565b610228565b61008e610100366004610b0a565b610331565b600061011133846103de565b905061011e8482846105be565b610128848361064c565b5050505050565b600061013b30846103de565b90506101488482846105be565b60006101747f00000000000000000000000000000000000000000000000000000000000000008461064c565b6040517f14567f370000000000000000000000000000000000000000000000000000000081526004810182905273ffffffffffffffffffffffffffffffffffffffff87811660248301529192507f0000000000000000000000000000000000000000000000000000000000000000909116906314567f3790604401600060405180830381600087803b15801561020957600080fd5b505af115801561021d573d6000803e3d6000fd5b505050505050505050565b6102537f000000000000000000000000000000000000000000000000000000000000000030836107c4565b600061027f7f00000000000000000000000000000000000000000000000000000000000000008361064c565b6040517f14567f370000000000000000000000000000000000000000000000000000000081526004810182905273ffffffffffffffffffffffffffffffffffffffff85811660248301529192507f0000000000000000000000000000000000000000000000000000000000000000909116906314567f3790604401600060405180830381600087803b15801561031457600080fd5b505af1158015610328573d6000803e3d6000fd5b50505050505050565b6040517fff0000000000000000000000000000000000000000000000000000000000000060208201527fffffffffffffffffffffffffffffffffffffffff000000000000000000000000606083901b166021820152603581018390527f1c0bf703a3415cada9785e89e9d70314c3111ae7d8e04f33bb42eb1d264088be605582018190526000916075016040516020818303038152906040528051906020012060001c9150505b92915050565b600061040b7f000000000000000000000000000000000000000000000000000000000000000084846107c4565b73ffffffffffffffffffffffffffffffffffffffff7f00000000000000000000000000000000000000000000000000000000000000001663095ea7b37f00000000000000000000000000000000000000000000000000000000000000006040517fffffffff0000000000000000000000000000000000000000000000000000000060e084901b16815273ffffffffffffffffffffffffffffffffffffffff9091166004820152602481018590526044016020604051808303816000875af11580156104da573d6000803e3d6000fd5b505050506040513d601f19601f820116820180604052508101906104fe9190610b36565b506040517f0d213d310000000000000000000000000000000000000000000000000000000081523060048201526024810183905273ffffffffffffffffffffffffffffffffffffffff7f00000000000000000000000000000000000000000000000000000000000000001690630d213d31906044015b6020604051808303816000875af1158015610593573d6000803e3d6000fd5b505050506040513d601f19601f820116820180604052508101906105b79190610b58565b9392505050565b81811115610607576040517fa2dd20ef00000000000000000000000000000000000000000000000000000000815260048101829052602481018390526044015b60405180910390fd5b60006106138284610b71565b90508015610646576106467f00000000000000000000000000000000000000000000000000000000000000008583610927565b50505050565b60007f000000000000000000000000000000000000000000000000000000000000000073ffffffffffffffffffffffffffffffffffffffff1663095ea7b37f00000000000000000000000000000000000000000000000000000000000000006040517fffffffff0000000000000000000000000000000000000000000000000000000060e084901b16815273ffffffffffffffffffffffffffffffffffffffff9091166004820152602481018590526044016020604051808303816000875af115801561071d573d6000803e3d6000fd5b505050506040513d601f19601f820116820180604052508101906107419190610b36565b506040517f2baf2acb00000000000000000000000000000000000000000000000000000000815273ffffffffffffffffffffffffffffffffffffffff848116600483015260248201849052600060448301527f00000000000000000000000000000000000000000000000000000000000000001690632baf2acb90606401610574565b806000036107d157505050565b73ffffffffffffffffffffffffffffffffffffffff831661081e576040517f2518928d00000000000000000000000000000000000000000000000000000000815260040160405180910390fd5b6040517f23b872dd00000000000000000000000000000000000000000000000000000000815273ffffffffffffffffffffffffffffffffffffffff838116600483015230602483015260448201839052600091908516906323b872dd906064016020604051808303816000875af115801561089d573d6000803e3d6000fd5b505050506040513d601f19601f820116820180604052508101906108c19190610b36565b905080610646576040517ff0798c5100000000000000000000000000000000000000000000000000000000815273ffffffffffffffffffffffffffffffffffffffff808616600483015284166024820152306044820152606481018390526084016105fe565b8060000361093457505050565b73ffffffffffffffffffffffffffffffffffffffff8316610981576040517f2518928d00000000000000000000000000000000000000000000000000000000815260040160405180910390fd5b6040517fa9059cbb00000000000000000000000000000000000000000000000000000000815273ffffffffffffffffffffffffffffffffffffffff8381166004830152602482018390526000919085169063a9059cbb906044016020604051808303816000875af11580156109fa573d6000803e3d6000fd5b505050506040513d601f19601f82011682018060405250810190610a1e9190610b36565b905080610646576040517ff0798c5100000000000000000000000000000000000000000000000000000000815273ffffffffffffffffffffffffffffffffffffffff808616600483015230602483015284166044820152606481018390526084016105fe565b803573ffffffffffffffffffffffffffffffffffffffff81168114610aa857600080fd5b919050565b600080600060608486031215610ac257600080fd5b610acb84610a84565b95602085013595506040909401359392505050565b60008060408385031215610af357600080fd5b610afc83610a84565b946020939093013593505050565b60008060408385031215610b1d57600080fd5b82359150610b2d60208401610a84565b90509250929050565b600060208284031215610b4857600080fd5b815180151581146105b757600080fd5b600060208284031215610b6a57600080fd5b5051919050565b818103818111156103d8577f4e487b7100000000000000000000000000000000000000000000000000000000600052601160045260246000fdfea264697066735822122071f2c267b325ae51b6aab857177dec8b352c30f599f23d80897231ebfd61a0f764736f6c63430008100033",
  "linkReferences": {},
  "deployedLinkReferences": {}
}