{
    "_format": "hh-sol-artifact-1",
    "contractName": "ValidatorStaking",
    "sourceName": "contracts/ValidatorStaking.sol",
    "abi": [
        {
            "inputs": [],
            "stateMutability": "nonpayable",
            "type": "constructor"
        },
        {
            "inputs": [
                {
                    "internalType": "uint256",
                    "name": "magic",
                    "type": "uint256"
                }
            ],
            "name": "BadMagic",
            "type": "error"
        },
        {
            "inputs": [
                {
                    "internalType": "uint256",
                    "name": "balance",
                    "type": "uint256"
                },
                {
                    "internalType": "uint256",
                    "name": "reserve",
                    "type": "uint256"
                }
            ],
            "name": "BalanceLessThanReserve",
            "type": "error"
        },
        {
            "inputs": [
                {
                    "internalType": "address",
                    "name": "caller",
                    "type": "address"
                }
            ],
            "name": "CallerNotTokenOwner",
            "type": "error"
        },
        {
            "inputs": [],
            "name": "CannotCallContractMethodsOnZeroAddress",
            "type": "error"
        },
        {
            "inputs": [],
            "name": "CannotTransferToZeroAddress",
            "type": "error"
        },
        {
            "inputs": [],
            "name": "CircuitBreakerOpened",
            "type": "error"
        },
        {
            "inputs": [
                {
                    "internalType": "address",
                    "name": "erc20Address",
                    "type": "address"
                },
                {
                    "internalType": "address",
                    "name": "from",
                    "type": "address"
                },
                {
                    "internalType": "address",
                    "name": "to",
                    "type": "address"
                },
                {
                    "internalType": "uint256",
                    "name": "amount",
                    "type": "uint256"
                }
            ],
            "name": "Erc20TransferFailed",
            "type": "error"
        },
        {
            "inputs": [
                {
                    "internalType": "address",
                    "name": "from",
                    "type": "address"
                },
                {
                    "internalType": "address",
                    "name": "to",
                    "type": "address"
                },
                {
                    "internalType": "uint256",
                    "name": "amount",
                    "type": "uint256"
                }
            ],
            "name": "EthTransferFailed",
            "type": "error"
        },
        {
            "inputs": [],
            "name": "FreeAfterTimeNotReached",
            "type": "error"
        },
        {
            "inputs": [
                {
                    "internalType": "uint256",
                    "name": "tokenId",
                    "type": "uint256"
                }
            ],
            "name": "InvalidTokenId",
            "type": "error"
        },
        {
            "inputs": [],
            "name": "LockDurationGreaterThanGovernanceLock",
            "type": "error"
        },
        {
            "inputs": [],
            "name": "LockDurationGreaterThanMintLock",
            "type": "error"
        },
        {
            "inputs": [],
            "name": "LockDurationWithdrawTimeNotReached",
            "type": "error"
        },
        {
            "inputs": [],
            "name": "MintAmountExceedsMaximumSupply",
            "type": "error"
        },
        {
            "inputs": [],
            "name": "MintAmountZero",
            "type": "error"
        },
        {
            "inputs": [
                {
                    "internalType": "address",
                    "name": "sender",
                    "type": "address"
                },
                {
                    "internalType": "address",
                    "name": "expected",
                    "type": "address"
                }
            ],
            "name": "OnlyAToken",
            "type": "error"
        },
        {
            "inputs": [
                {
                    "internalType": "address",
                    "name": "sender",
                    "type": "address"
                },
                {
                    "internalType": "address",
                    "name": "expected",
                    "type": "address"
                }
            ],
            "name": "OnlyFactory",
            "type": "error"
        },
        {
            "inputs": [
                {
                    "internalType": "address",
                    "name": "sender",
                    "type": "address"
                },
                {
                    "internalType": "address",
                    "name": "expected",
                    "type": "address"
                }
            ],
            "name": "OnlyGovernance",
            "type": "error"
        },
        {
            "inputs": [
                {
                    "internalType": "address",
                    "name": "sender",
                    "type": "address"
                },
                {
                    "internalType": "address",
                    "name": "expected",
                    "type": "address"
                }
            ],
            "name": "OnlyStakingPositionDescriptor",
            "type": "error"
        },
        {
            "inputs": [
                {
                    "internalType": "address",
                    "name": "sender",
                    "type": "address"
                },
                {
                    "internalType": "address",
                    "name": "expected",
                    "type": "address"
                }
            ],
            "name": "OnlyValidatorPool",
            "type": "error"
        },
        {
            "inputs": [
                {
                    "internalType": "uint256",
                    "name": "slush",
                    "type": "uint256"
                }
            ],
            "name": "SlushTooLarge",
            "type": "error"
        },
        {
            "anonymous": false,
            "inputs": [
                {
                    "indexed": true,
                    "internalType": "address",
                    "name": "owner",
                    "type": "address"
                },
                {
                    "indexed": true,
                    "internalType": "address",
                    "name": "approved",
                    "type": "address"
                },
                {
                    "indexed": true,
                    "internalType": "uint256",
                    "name": "tokenId",
                    "type": "uint256"
                }
            ],
            "name": "Approval",
            "type": "event"
        },
        {
            "anonymous": false,
            "inputs": [
                {
                    "indexed": true,
                    "internalType": "address",
                    "name": "owner",
                    "type": "address"
                },
                {
                    "indexed": true,
                    "internalType": "address",
                    "name": "operator",
                    "type": "address"
                },
                {
                    "indexed": false,
                    "internalType": "bool",
                    "name": "approved",
                    "type": "bool"
                }
            ],
            "name": "ApprovalForAll",
            "type": "event"
        },
        {
            "anonymous": false,
            "inputs": [
                {
                    "indexed": false,
                    "internalType": "uint8",
                    "name": "version",
                    "type": "uint8"
                }
            ],
            "name": "Initialized",
            "type": "event"
        },
        {
            "anonymous": false,
            "inputs": [
                {
                    "indexed": true,
                    "internalType": "address",
                    "name": "from",
                    "type": "address"
                },
                {
                    "indexed": true,
                    "internalType": "address",
                    "name": "to",
                    "type": "address"
                },
                {
                    "indexed": true,
                    "internalType": "uint256",
                    "name": "tokenId",
                    "type": "uint256"
                }
            ],
            "name": "Transfer",
            "type": "event"
        },
        {
            "inputs": [
                {
                    "internalType": "address",
                    "name": "to",
                    "type": "address"
                },
                {
                    "internalType": "uint256",
                    "name": "tokenId",
                    "type": "uint256"
                }
            ],
            "name": "approve",
            "outputs": [],
            "stateMutability": "nonpayable",
            "type": "function"
        },
        {
            "inputs": [
                {
                    "internalType": "address",
                    "name": "owner",
                    "type": "address"
                }
            ],
            "name": "balanceOf",
            "outputs": [
                {
                    "internalType": "uint256",
                    "name": "",
                    "type": "uint256"
                }
            ],
            "stateMutability": "view",
            "type": "function"
        },
        {
            "inputs": [
                {
                    "internalType": "uint256",
                    "name": "tokenID_",
                    "type": "uint256"
                }
            ],
            "name": "burn",
            "outputs": [
                {
                    "internalType": "uint256",
                    "name": "payoutEth",
                    "type": "uint256"
                },
                {
                    "internalType": "uint256",
                    "name": "payoutAToken",
                    "type": "uint256"
                }
            ],
            "stateMutability": "nonpayable",
            "type": "function"
        },
        {
            "inputs": [
                {
                    "internalType": "address",
                    "name": "to_",
                    "type": "address"
                },
                {
                    "internalType": "uint256",
                    "name": "tokenID_",
                    "type": "uint256"
                }
            ],
            "name": "burnTo",
            "outputs": [
                {
                    "internalType": "uint256",
                    "name": "payoutEth",
                    "type": "uint256"
                },
                {
                    "internalType": "uint256",
                    "name": "payoutAToken",
                    "type": "uint256"
                }
            ],
            "stateMutability": "nonpayable",
            "type": "function"
        },
        {
            "inputs": [],
            "name": "circuitBreakerState",
            "outputs": [
                {
                    "internalType": "bool",
                    "name": "",
                    "type": "bool"
                }
            ],
            "stateMutability": "view",
            "type": "function"
        },
        {
            "inputs": [
                {
                    "internalType": "uint256",
                    "name": "tokenID_",
                    "type": "uint256"
                }
            ],
            "name": "collectAllProfits",
            "outputs": [
                {
                    "internalType": "uint256",
                    "name": "payoutEth",
                    "type": "uint256"
                },
                {
                    "internalType": "uint256",
                    "name": "payoutToken",
                    "type": "uint256"
                }
            ],
            "stateMutability": "nonpayable",
            "type": "function"
        },
        {
            "inputs": [
                {
                    "internalType": "address",
                    "name": "to_",
                    "type": "address"
                },
                {
                    "internalType": "uint256",
                    "name": "tokenID_",
                    "type": "uint256"
                }
            ],
            "name": "collectAllProfitsTo",
            "outputs": [
                {
                    "internalType": "uint256",
                    "name": "payoutEth",
                    "type": "uint256"
                },
                {
                    "internalType": "uint256",
                    "name": "payoutToken",
                    "type": "uint256"
                }
            ],
            "stateMutability": "nonpayable",
            "type": "function"
        },
        {
            "inputs": [
                {
                    "internalType": "uint256",
                    "name": "tokenID_",
                    "type": "uint256"
                }
            ],
            "name": "collectEth",
            "outputs": [
                {
                    "internalType": "uint256",
                    "name": "payout",
                    "type": "uint256"
                }
            ],
            "stateMutability": "nonpayable",
            "type": "function"
        },
        {
            "inputs": [
                {
                    "internalType": "address",
                    "name": "to_",
                    "type": "address"
                },
                {
                    "internalType": "uint256",
                    "name": "tokenID_",
                    "type": "uint256"
                }
            ],
            "name": "collectEthTo",
            "outputs": [
                {
                    "internalType": "uint256",
                    "name": "payout",
                    "type": "uint256"
                }
            ],
            "stateMutability": "nonpayable",
            "type": "function"
        },
        {
            "inputs": [
                {
                    "internalType": "uint256",
                    "name": "tokenID_",
                    "type": "uint256"
                }
            ],
            "name": "collectToken",
            "outputs": [
                {
                    "internalType": "uint256",
                    "name": "payout",
                    "type": "uint256"
                }
            ],
            "stateMutability": "nonpayable",
            "type": "function"
        },
        {
            "inputs": [
                {
                    "internalType": "address",
                    "name": "to_",
                    "type": "address"
                },
                {
                    "internalType": "uint256",
                    "name": "tokenID_",
                    "type": "uint256"
                }
            ],
            "name": "collectTokenTo",
            "outputs": [
                {
                    "internalType": "uint256",
                    "name": "payout",
                    "type": "uint256"
                }
            ],
            "stateMutability": "nonpayable",
            "type": "function"
        },
        {
            "inputs": [
                {
                    "internalType": "uint8",
                    "name": "magic_",
                    "type": "uint8"
                }
            ],
            "name": "depositEth",
            "outputs": [],
            "stateMutability": "payable",
            "type": "function"
        },
        {
            "inputs": [
                {
                    "internalType": "uint8",
                    "name": "magic_",
                    "type": "uint8"
                },
                {
                    "internalType": "uint256",
                    "name": "amount_",
                    "type": "uint256"
                }
            ],
            "name": "depositToken",
            "outputs": [],
            "stateMutability": "nonpayable",
            "type": "function"
        },
        {
            "inputs": [
                {
                    "internalType": "uint256",
                    "name": "tokenID_",
                    "type": "uint256"
                }
            ],
            "name": "estimateAllProfits",
            "outputs": [
                {
                    "internalType": "uint256",
                    "name": "payoutEth",
                    "type": "uint256"
                },
                {
                    "internalType": "uint256",
                    "name": "payoutToken",
                    "type": "uint256"
                }
            ],
            "stateMutability": "view",
            "type": "function"
        },
        {
            "inputs": [
                {
                    "internalType": "uint256",
                    "name": "tokenID_",
                    "type": "uint256"
                }
            ],
            "name": "estimateEthCollection",
            "outputs": [
                {
                    "internalType": "uint256",
                    "name": "payout",
                    "type": "uint256"
                }
            ],
            "stateMutability": "view",
            "type": "function"
        },
        {
            "inputs": [],
            "name": "estimateExcessEth",
            "outputs": [
                {
                    "internalType": "uint256",
                    "name": "excess",
                    "type": "uint256"
                }
            ],
            "stateMutability": "view",
            "type": "function"
        },
        {
            "inputs": [],
            "name": "estimateExcessToken",
            "outputs": [
                {
                    "internalType": "uint256",
                    "name": "excess",
                    "type": "uint256"
                }
            ],
            "stateMutability": "view",
            "type": "function"
        },
        {
            "inputs": [
                {
                    "internalType": "uint256",
                    "name": "tokenID_",
                    "type": "uint256"
                }
            ],
            "name": "estimateTokenCollection",
            "outputs": [
                {
                    "internalType": "uint256",
                    "name": "payout",
                    "type": "uint256"
                }
            ],
            "stateMutability": "view",
            "type": "function"
        },
        {
            "inputs": [],
            "name": "getAccumulatorScaleFactor",
            "outputs": [
                {
                    "internalType": "uint256",
                    "name": "",
                    "type": "uint256"
                }
            ],
            "stateMutability": "pure",
            "type": "function"
        },
        {
            "inputs": [
                {
                    "internalType": "uint256",
                    "name": "tokenId",
                    "type": "uint256"
                }
            ],
            "name": "getApproved",
            "outputs": [
                {
                    "internalType": "address",
                    "name": "",
                    "type": "address"
                }
            ],
            "stateMutability": "view",
            "type": "function"
        },
        {
            "inputs": [],
            "name": "getEthAccumulator",
            "outputs": [
                {
                    "internalType": "uint256",
                    "name": "accumulator",
                    "type": "uint256"
                },
                {
                    "internalType": "uint256",
                    "name": "slush",
                    "type": "uint256"
                }
            ],
            "stateMutability": "view",
            "type": "function"
        },
        {
            "inputs": [],
            "name": "getLatestMintedPositionID",
            "outputs": [
                {
                    "internalType": "uint256",
                    "name": "",
                    "type": "uint256"
                }
            ],
            "stateMutability": "view",
            "type": "function"
        },
        {
            "inputs": [],
            "name": "getMaxGovernanceLock",
            "outputs": [
                {
                    "internalType": "uint256",
                    "name": "",
                    "type": "uint256"
                }
            ],
            "stateMutability": "pure",
            "type": "function"
        },
        {
            "inputs": [],
            "name": "getMaxMintLock",
            "outputs": [
                {
                    "internalType": "uint256",
                    "name": "",
                    "type": "uint256"
                }
            ],
            "stateMutability": "pure",
            "type": "function"
        },
        {
            "inputs": [
                {
                    "internalType": "bytes32",
                    "name": "_salt",
                    "type": "bytes32"
                },
                {
                    "internalType": "address",
                    "name": "_factory",
                    "type": "address"
                }
            ],
            "name": "getMetamorphicContractAddress",
            "outputs": [
                {
                    "internalType": "address",
                    "name": "",
                    "type": "address"
                }
            ],
            "stateMutability": "pure",
            "type": "function"
        },
        {
            "inputs": [
                {
                    "internalType": "uint256",
                    "name": "tokenID_",
                    "type": "uint256"
                }
            ],
            "name": "getPosition",
            "outputs": [
                {
                    "internalType": "uint256",
                    "name": "shares",
                    "type": "uint256"
                },
                {
                    "internalType": "uint256",
                    "name": "freeAfter",
                    "type": "uint256"
                },
                {
                    "internalType": "uint256",
                    "name": "withdrawFreeAfter",
                    "type": "uint256"
                },
                {
                    "internalType": "uint256",
                    "name": "accumulatorEth",
                    "type": "uint256"
                },
                {
                    "internalType": "uint256",
                    "name": "accumulatorToken",
                    "type": "uint256"
                }
            ],
            "stateMutability": "view",
            "type": "function"
        },
        {
            "inputs": [],
            "name": "getTokenAccumulator",
            "outputs": [
                {
                    "internalType": "uint256",
                    "name": "accumulator",
                    "type": "uint256"
                },
                {
                    "internalType": "uint256",
                    "name": "slush",
                    "type": "uint256"
                }
            ],
            "stateMutability": "view",
            "type": "function"
        },
        {
            "inputs": [],
            "name": "getTotalReserveAToken",
            "outputs": [
                {
                    "internalType": "uint256",
                    "name": "",
                    "type": "uint256"
                }
            ],
            "stateMutability": "view",
            "type": "function"
        },
        {
            "inputs": [],
            "name": "getTotalReserveEth",
            "outputs": [
                {
                    "internalType": "uint256",
                    "name": "",
                    "type": "uint256"
                }
            ],
            "stateMutability": "view",
            "type": "function"
        },
        {
            "inputs": [],
            "name": "getTotalShares",
            "outputs": [
                {
                    "internalType": "uint256",
                    "name": "",
                    "type": "uint256"
                }
            ],
            "stateMutability": "view",
            "type": "function"
        },
        {
            "inputs": [],
            "name": "initialize",
            "outputs": [],
            "stateMutability": "nonpayable",
            "type": "function"
        },
        {
            "inputs": [
                {
                    "internalType": "address",
                    "name": "owner",
                    "type": "address"
                },
                {
                    "internalType": "address",
                    "name": "operator",
                    "type": "address"
                }
            ],
            "name": "isApprovedForAll",
            "outputs": [
                {
                    "internalType": "bool",
                    "name": "",
                    "type": "bool"
                }
            ],
            "stateMutability": "view",
            "type": "function"
        },
        {
            "inputs": [
                {
                    "internalType": "uint256",
                    "name": "tokenID_",
                    "type": "uint256"
                },
                {
                    "internalType": "uint256",
                    "name": "lockDuration_",
                    "type": "uint256"
                }
            ],
            "name": "lockOwnPosition",
            "outputs": [
                {
                    "internalType": "uint256",
                    "name": "",
                    "type": "uint256"
                }
            ],
            "stateMutability": "nonpayable",
            "type": "function"
        },
        {
            "inputs": [
                {
                    "internalType": "address",
                    "name": "caller_",
                    "type": "address"
                },
                {
                    "internalType": "uint256",
                    "name": "tokenID_",
                    "type": "uint256"
                },
                {
                    "internalType": "uint256",
                    "name": "lockDuration_",
                    "type": "uint256"
                }
            ],
            "name": "lockPosition",
            "outputs": [
                {
                    "internalType": "uint256",
                    "name": "",
                    "type": "uint256"
                }
            ],
            "stateMutability": "nonpayable",
            "type": "function"
        },
        {
            "inputs": [
                {
                    "internalType": "uint256",
                    "name": "tokenID_",
                    "type": "uint256"
                },
                {
                    "internalType": "uint256",
                    "name": "lockDuration_",
                    "type": "uint256"
                }
            ],
            "name": "lockWithdraw",
            "outputs": [
                {
                    "internalType": "uint256",
                    "name": "",
                    "type": "uint256"
                }
            ],
            "stateMutability": "nonpayable",
            "type": "function"
        },
        {
            "inputs": [
                {
                    "internalType": "uint256",
                    "name": "amount_",
                    "type": "uint256"
                }
            ],
            "name": "mint",
            "outputs": [
                {
                    "internalType": "uint256",
                    "name": "tokenID",
                    "type": "uint256"
                }
            ],
            "stateMutability": "nonpayable",
            "type": "function"
        },
        {
            "inputs": [
                {
                    "internalType": "address",
                    "name": "to_",
                    "type": "address"
                },
                {
                    "internalType": "uint256",
                    "name": "amount_",
                    "type": "uint256"
                },
                {
                    "internalType": "uint256",
                    "name": "lockDuration_",
                    "type": "uint256"
                }
            ],
            "name": "mintTo",
            "outputs": [
                {
                    "internalType": "uint256",
                    "name": "tokenID",
                    "type": "uint256"
                }
            ],
            "stateMutability": "nonpayable",
            "type": "function"
        },
        {
            "inputs": [],
            "name": "name",
            "outputs": [
                {
                    "internalType": "string",
                    "name": "",
                    "type": "string"
                }
            ],
            "stateMutability": "view",
            "type": "function"
        },
        {
            "inputs": [
                {
                    "internalType": "uint256",
                    "name": "tokenId",
                    "type": "uint256"
                }
            ],
            "name": "ownerOf",
            "outputs": [
                {
                    "internalType": "address",
                    "name": "",
                    "type": "address"
                }
            ],
            "stateMutability": "view",
            "type": "function"
        },
        {
            "inputs": [
                {
                    "internalType": "address",
                    "name": "from",
                    "type": "address"
                },
                {
                    "internalType": "address",
                    "name": "to",
                    "type": "address"
                },
                {
                    "internalType": "uint256",
                    "name": "tokenId",
                    "type": "uint256"
                }
            ],
            "name": "safeTransferFrom",
            "outputs": [],
            "stateMutability": "nonpayable",
            "type": "function"
        },
        {
            "inputs": [
                {
                    "internalType": "address",
                    "name": "from",
                    "type": "address"
                },
                {
                    "internalType": "address",
                    "name": "to",
                    "type": "address"
                },
                {
                    "internalType": "uint256",
                    "name": "tokenId",
                    "type": "uint256"
                },
                {
                    "internalType": "bytes",
                    "name": "data",
                    "type": "bytes"
                }
            ],
            "name": "safeTransferFrom",
            "outputs": [],
            "stateMutability": "nonpayable",
            "type": "function"
        },
        {
            "inputs": [
                {
                    "internalType": "address",
                    "name": "operator",
                    "type": "address"
                },
                {
                    "internalType": "bool",
                    "name": "approved",
                    "type": "bool"
                }
            ],
            "name": "setApprovalForAll",
            "outputs": [],
            "stateMutability": "nonpayable",
            "type": "function"
        },
        {
            "inputs": [
                {
                    "internalType": "address",
                    "name": "to_",
                    "type": "address"
                }
            ],
            "name": "skimExcessEth",
            "outputs": [
                {
                    "internalType": "uint256",
                    "name": "excess",
                    "type": "uint256"
                }
            ],
            "stateMutability": "nonpayable",
            "type": "function"
        },
        {
            "inputs": [
                {
                    "internalType": "address",
                    "name": "to_",
                    "type": "address"
                }
            ],
            "name": "skimExcessToken",
            "outputs": [
                {
                    "internalType": "uint256",
                    "name": "excess",
                    "type": "uint256"
                }
            ],
            "stateMutability": "nonpayable",
            "type": "function"
        },
        {
            "inputs": [
                {
                    "internalType": "bytes4",
                    "name": "interfaceId",
                    "type": "bytes4"
                }
            ],
            "name": "supportsInterface",
            "outputs": [
                {
                    "internalType": "bool",
                    "name": "",
                    "type": "bool"
                }
            ],
            "stateMutability": "view",
            "type": "function"
        },
        {
            "inputs": [],
            "name": "symbol",
            "outputs": [
                {
                    "internalType": "string",
                    "name": "",
                    "type": "string"
                }
            ],
            "stateMutability": "view",
            "type": "function"
        },
        {
            "inputs": [
                {
                    "internalType": "uint256",
                    "name": "index",
                    "type": "uint256"
                }
            ],
            "name": "tokenByIndex",
            "outputs": [
                {
                    "internalType": "uint256",
                    "name": "",
                    "type": "uint256"
                }
            ],
            "stateMutability": "view",
            "type": "function"
        },
        {
            "inputs": [
                {
                    "internalType": "address",
                    "name": "owner",
                    "type": "address"
                },
                {
                    "internalType": "uint256",
                    "name": "index",
                    "type": "uint256"
                }
            ],
            "name": "tokenOfOwnerByIndex",
            "outputs": [
                {
                    "internalType": "uint256",
                    "name": "",
                    "type": "uint256"
                }
            ],
            "stateMutability": "view",
            "type": "function"
        },
        {
            "inputs": [
                {
                    "internalType": "uint256",
                    "name": "tokenID_",
                    "type": "uint256"
                }
            ],
            "name": "tokenURI",
            "outputs": [
                {
                    "internalType": "string",
                    "name": "",
                    "type": "string"
                }
            ],
            "stateMutability": "view",
            "type": "function"
        },
        {
            "inputs": [],
            "name": "totalSupply",
            "outputs": [
                {
                    "internalType": "uint256",
                    "name": "",
                    "type": "uint256"
                }
            ],
            "stateMutability": "view",
            "type": "function"
        },
        {
            "inputs": [
                {
                    "internalType": "address",
                    "name": "from",
                    "type": "address"
                },
                {
                    "internalType": "address",
                    "name": "to",
                    "type": "address"
                },
                {
                    "internalType": "uint256",
                    "name": "tokenId",
                    "type": "uint256"
                }
            ],
            "name": "transferFrom",
            "outputs": [],
            "stateMutability": "nonpayable",
            "type": "function"
        },
        {
            "inputs": [],
            "name": "tripCB",
            "outputs": [],
            "stateMutability": "nonpayable",
            "type": "function"
        }
    ],
    "bytecode": "0x6101206040523480156200001257600080fd5b5033608052620000c86c15985b1a59185d1bdc941bdbdb609a1b6200003660805190565b6040517fff0000000000000000000000000000000000000000000000000000000000000060208201526001600160601b0319606083901b166021820152603581018390527f1c0bf703a3415cada9785e89e9d70314c3111ae7d8e04f33bb42eb1d264088be6055820181905260009160750160408051601f198184030181529190528051602090910120949350505050565b6001600160a01b0390811660a05260805160405163f39ec1f760e01b81526520aa37b5b2b760d11b600482015291169063f39ec1f790602401602060405180830381865afa1580156200011f573d6000803e3d6000fd5b505050506040513d601f19601f82011682018060405250810190620001459190620001bb565b6001600160a01b031660c0526200016d69476f7665726e616e636560b01b6200003660805190565b6001600160a01b031660e052620001a87f5374616b696e67506f736974696f6e44657363726970746f72000000000000006200003660805190565b6001600160a01b031661010052620001ed565b600060208284031215620001ce57600080fd5b81516001600160a01b0381168114620001e657600080fd5b9392505050565b60805160a05160c05160e051610100516153ec620002b760003960006122b4015260008181610da60152610e0e015260008181611c6f01528181612adf015281816132ac0152818161348f01526137c6015260008181611244015281816112ac01528181611449015281816114b10152818161202f01528181612097015281816124ae0152612516015260008181611887015281816118ef01528181611a7601528181611ade01528181611e5801528181611ec0015281816120f5015261215d01526153ec6000f3fe60806040526004361061033f5760003560e01c80638191f5e5116101b0578063a22cb465116100ec578063d5002f2e11610095578063e985e9c51161006f578063e985e9c5146109c2578063ea785a5e14610a18578063eb02c30114610a38578063f44d258b14610a8057600080fd5b8063d5002f2e1461096d578063e35c3e2814610982578063e42a673c146109a257600080fd5b8063be444379116100c6578063be44437914610915578063c47c6e1414610935578063c87b56dd1461094d57600080fd5b8063a22cb465146108c0578063adfdc03f146108e0578063b88d4fde146108f557600080fd5b8063905953ed11610159578063971b505b11610133578063971b505b14610852578063997851321461087257806399a89ecc1461088d578063a0712d68146108a057600080fd5b8063905953ed1461080857806393c5748d1461081d57806395d89b411461083d57600080fd5b80638653a4651161018a5780638653a465146106ed5780638853b950146107d057806389465c62146107f057600080fd5b80638191f5e5146106985780638303fef7146106b8578063856de8d2146106d857600080fd5b80632baf2acb1161027f5780634fc8638f1161022857806370a082311161020257806370a082311461062e57806379bb09851461064e5780637aa507fb146106635780638129fc1c1461068357600080fd5b80634fc8638f146105d6578063548652d2146105f65780636352211e1461060e57600080fd5b806342842e0e1161025957806342842e0e1461057657806342966c68146105965780634f6ccce7146105b657600080fd5b80632baf2acb146105215780632f745c59146105415780633eed3eff1461056157600080fd5b80630df4b2dd116102ec57806319b8be2f116102c657806319b8be2f146104ac57806320ea0d48146104c157806323b872dd146104e15780632a0d8bd11461050157600080fd5b80630df4b2dd146104425780630e4eb15b1461047757806318160ddd1461049757600080fd5b8063090f70f01161031d578063090f70f0146103e0578063095ea7b3146104005780630cc65dfb1461042257600080fd5b806301ffc9a71461034457806306fdde0314610379578063081812fc1461039b575b600080fd5b34801561035057600080fd5b5061036461035f366004614be1565b610a96565b60405190151581526020015b60405180910390f35b34801561038557600080fd5b5061038e610af2565b6040516103709190614c6c565b3480156103a757600080fd5b506103bb6103b6366004614c7f565b610b84565b60405173ffffffffffffffffffffffffffffffffffffffff9091168152602001610370565b3480156103ec57600080fd5b5062100a405b604051908152602001610370565b34801561040c57600080fd5b5061042061041b366004614cbc565b610bb8565b005b34801561042e57600080fd5b506103f261043d366004614ce6565b610d49565b34801561044e57600080fd5b5061046261045d366004614c7f565b610efb565b60408051928352602083019190915201610370565b34801561048357600080fd5b506103f2610492366004614d19565b610f1b565b3480156104a357600080fd5b506099546103f2565b3480156104b857600080fd5b5060d1546103f2565b3480156104cd57600080fd5b506103f26104dc366004614c7f565b611016565b3480156104ed57600080fd5b506104206104fc366004614d3b565b61113a565b34801561050d57600080fd5b506103f261051c366004614c7f565b6111db565b34801561052d57600080fd5b506103f261053c366004614ce6565b6111e7565b34801561054d57600080fd5b506103f261055c366004614cbc565b61133a565b34801561056d57600080fd5b506103f2611409565b34801561058257600080fd5b50610420610591366004614d3b565b611413565b3480156105a257600080fd5b506104626105b1366004614c7f565b61142e565b3480156105c257600080fd5b506103f26105d1366004614c7f565b6114f2565b3480156105e257600080fd5b506104626105f1366004614c7f565b6115b0565b34801561060257600080fd5b5060ce5460cf54610462565b34801561061a57600080fd5b506103bb610629366004614c7f565b611703565b34801561063a57600080fd5b506103f2610649366004614d77565b61178f565b34801561065a57600080fd5b506103f261185d565b34801561066f57600080fd5b506103f261067e366004614d77565b61186d565b34801561068f57600080fd5b5061042061193a565b3480156106a457600080fd5b506104206106b3366004614da3565b611be5565b3480156106c457600080fd5b506104626106d3366004614cbc565b611ce3565b3480156106e457600080fd5b5060d2546103f2565b3480156106f957600080fd5b506103bb610708366004614dbf565b6040517fff0000000000000000000000000000000000000000000000000000000000000060208201527fffffffffffffffffffffffffffffffffffffffff000000000000000000000000606083901b166021820152603581018390527f1c0bf703a3415cada9785e89e9d70314c3111ae7d8e04f33bb42eb1d264088be60558201819052600091607501604080517fffffffffffffffffffffffffffffffffffffffffffffffffffffffffffffffe08184030181529190528051602090910120949350505050565b3480156107dc57600080fd5b506103f26107eb366004614cbc565b611d05565b3480156107fc57600080fd5b5060c95460ff16610364565b34801561081457600080fd5b506103f2611d11565b34801561082957600080fd5b506103f2610838366004614c7f565b611d1b565b34801561084957600080fd5b5061038e611e2f565b34801561085e57600080fd5b506103f261086d366004614d77565b611e3e565b34801561087e57600080fd5b50670de0b6b3a76400006103f2565b61042061089b366004614deb565b611f01565b3480156108ac57600080fd5b506103f26108bb366004614c7f565b611fd2565b3480156108cc57600080fd5b506104206108db366004614e14565b6120ce565b3480156108ec57600080fd5b506104206120dd565b34801561090157600080fd5b50610420610910366004614f0f565b612194565b34801561092157600080fd5b506103f2610930366004614cbc565b61223c565b34801561094157600080fd5b5060cc5460cd54610462565b34801561095957600080fd5b5061038e610968366004614c7f565b612248565b34801561097957600080fd5b5060cb546103f2565b34801561098e57600080fd5b506103f261099d366004614c7f565b61238c565b3480156109ae57600080fd5b506103f26109bd366004614d19565b612398565b3480156109ce57600080fd5b506103646109dd366004614fba565b73ffffffffffffffffffffffffffffffffffffffff9182166000908152606a6020908152604080832093909416825291909152205460ff1690565b348015610a2457600080fd5b50610462610a33366004614cbc565b612493565b348015610a4457600080fd5b50610a58610a53366004614c7f565b612559565b604080519586526020860194909452928401919091526060830152608082015260a001610370565b348015610a8c57600080fd5b506202a3006103f2565b60007fffffffff0000000000000000000000000000000000000000000000000000000082167f780e9d63000000000000000000000000000000000000000000000000000000001480610aec5750610aec82612667565b92915050565b606060658054610b0190614fe4565b80601f0160208091040260200160405190810160405280929190818152602001828054610b2d90614fe4565b8015610b7a5780601f10610b4f57610100808354040283529160200191610b7a565b820191906000526020600020905b815481529060010190602001808311610b5d57829003601f168201915b5050505050905090565b6000610b8f8261274a565b5060009081526069602052604090205473ffffffffffffffffffffffffffffffffffffffff1690565b6000610bc382611703565b90508073ffffffffffffffffffffffffffffffffffffffff168373ffffffffffffffffffffffffffffffffffffffff1603610c85576040517f08c379a000000000000000000000000000000000000000000000000000000000815260206004820152602160248201527f4552433732313a20617070726f76616c20746f2063757272656e74206f776e6560448201527f720000000000000000000000000000000000000000000000000000000000000060648201526084015b60405180910390fd5b3373ffffffffffffffffffffffffffffffffffffffff82161480610cae5750610cae81336109dd565b610d3a576040517f08c379a000000000000000000000000000000000000000000000000000000000815260206004820152603e60248201527f4552433732313a20617070726f76652063616c6c6572206973206e6f7420746f60448201527f6b656e206f776e6572206e6f7220617070726f76656420666f7220616c6c00006064820152608401610c7c565b610d4483836127d5565b505050565b60c95460009060ff16151560001901610d8e576040517f19efee7900000000000000000000000000000000000000000000000000000000815260040160405180910390fd5b3373ffffffffffffffffffffffffffffffffffffffff7f00000000000000000000000000000000000000000000000000000000000000001614610e3b576040517f4cb12bb900000000000000000000000000000000000000000000000000000000815233600482015273ffffffffffffffffffffffffffffffffffffffff7f0000000000000000000000000000000000000000000000000000000000000000166024820152604401610c7c565b610e4483611703565b73ffffffffffffffffffffffffffffffffffffffff168473ffffffffffffffffffffffffffffffffffffffff1614610eaa576040517fc9c0713c000000000000000000000000000000000000000000000000000000008152336004820152602401610c7c565b6202a300821115610ee7576040517f2d2e18e400000000000000000000000000000000000000000000000000000000815260040160405180910390fd5b610ef18383612875565b90505b9392505050565b600080610f083384612a21565b9050610f143384612b05565b9150915091565b60c95460009060ff16151560001901610f60576040517f19efee7900000000000000000000000000000000000000000000000000000000815260040160405180910390fd5b610f6983611703565b73ffffffffffffffffffffffffffffffffffffffff163373ffffffffffffffffffffffffffffffffffffffff1614610fcf576040517fc9c0713c000000000000000000000000000000000000000000000000000000008152336004820152602401610c7c565b6202a30082111561100c576040517f2d2e18e400000000000000000000000000000000000000000000000000000000815260040160405180910390fd5b610ef48383612bc8565b600081815260676020526040812054829073ffffffffffffffffffffffffffffffffffffffff16611076576040517fed15e6cf00000000000000000000000000000000000000000000000000000000815260048101829052602401610c7c565b600083815260d06020908152604091829020825160a08101845281547bffffffffffffffffffffffffffffffffffffffffffffffffffffffff811682527c0100000000000000000000000000000000000000000000000000000000900463ffffffff16818401526001820154818501526002820154606082019081526003909201546080820152835180850190945260ce54845260cf549284019290925260cb54905191929161112b90829084908690612d62565b97505050505050505b50919050565b6111443382612ee3565b6111d0576040517f08c379a000000000000000000000000000000000000000000000000000000000815260206004820152602e60248201527f4552433732313a2063616c6c6572206973206e6f7420746f6b656e206f776e6560448201527f72206e6f7220617070726f7665640000000000000000000000000000000000006064820152608401610c7c565b610d44838383612fa3565b6000610aec3383612b05565b60c95460009060ff1615156000190161122c576040517f19efee7900000000000000000000000000000000000000000000000000000000815260040160405180910390fd5b3373ffffffffffffffffffffffffffffffffffffffff7f000000000000000000000000000000000000000000000000000000000000000016146112d9576040517fb3e83aba00000000000000000000000000000000000000000000000000000000815233600482015273ffffffffffffffffffffffffffffffffffffffff7f0000000000000000000000000000000000000000000000000000000000000000166024820152604401610c7c565b62100a40821115611316576040517f4125ab7600000000000000000000000000000000000000000000000000000000815260040160405180910390fd5b6113208484613215565b90508115610ef4576113328183612875565b509392505050565b60006113458361178f565b82106113d3576040517f08c379a000000000000000000000000000000000000000000000000000000000815260206004820152602b60248201527f455243373231456e756d657261626c653a206f776e657220696e646578206f7560448201527f74206f6620626f756e64730000000000000000000000000000000000000000006064820152608401610c7c565b5073ffffffffffffffffffffffffffffffffffffffff919091166000908152609760209081526040808320938352929052205490565b6000610aec613485565b610d4483838360405180602001604052806000815250612194565b6000803373ffffffffffffffffffffffffffffffffffffffff7f000000000000000000000000000000000000000000000000000000000000000016146114de576040517fb3e83aba00000000000000000000000000000000000000000000000000000000815233600482015273ffffffffffffffffffffffffffffffffffffffff7f0000000000000000000000000000000000000000000000000000000000000000166024820152604401610c7c565b6114e933338561359a565b91509150915091565b60006114fd60995490565b821061158b576040517f08c379a000000000000000000000000000000000000000000000000000000000815260206004820152602c60248201527f455243373231456e756d657261626c653a20676c6f62616c20696e646578206f60448201527f7574206f6620626f756e647300000000000000000000000000000000000000006064820152608401610c7c565b6099828154811061159e5761159e615031565b90600052602060002001549050919050565b6000818152606760205260408120548190839073ffffffffffffffffffffffffffffffffffffffff16611612576040517fed15e6cf00000000000000000000000000000000000000000000000000000000815260048101829052602401610c7c565b600084815260d06020908152604091829020825160a08101845281547bffffffffffffffffffffffffffffffffffffffffffffffffffffffff811682527c0100000000000000000000000000000000000000000000000000000000900463ffffffff1681840152600182015481850152600282015460608201908152600390920154608082015260cb54845180860190955260ce54855260cf5493850193909352905190926116c5918391908590612d62565b6040805180820190915260cc54815260cd54602082015260808701519199506116f5945085935091508590612d62565b979997985050505050505050565b60008181526067602052604081205473ffffffffffffffffffffffffffffffffffffffff1680610aec576040517f08c379a000000000000000000000000000000000000000000000000000000000815260206004820152601860248201527f4552433732313a20696e76616c696420746f6b656e20494400000000000000006044820152606401610c7c565b600073ffffffffffffffffffffffffffffffffffffffff8216611834576040517f08c379a000000000000000000000000000000000000000000000000000000000815260206004820152602960248201527f4552433732313a2061646472657373207a65726f206973206e6f74206120766160448201527f6c6964206f776e657200000000000000000000000000000000000000000000006064820152608401610c7c565b5073ffffffffffffffffffffffffffffffffffffffff1660009081526068602052604090205490565b600061186860ca5490565b905090565b60003373ffffffffffffffffffffffffffffffffffffffff7f0000000000000000000000000000000000000000000000000000000000000000161461191c576040517f0f634fbe00000000000000000000000000000000000000000000000000000000815233600482015273ffffffffffffffffffffffffffffffffffffffff7f0000000000000000000000000000000000000000000000000000000000000000166024820152604401610c7c565b6000611926613485565b92509050611134818484613800565b919050565b600054610100900460ff161580801561195a5750600054600160ff909116105b806119745750303b158015611974575060005460ff166001145b611a00576040517f08c379a000000000000000000000000000000000000000000000000000000000815260206004820152602e60248201527f496e697469616c697a61626c653a20636f6e747261637420697320616c72656160448201527f647920696e697469616c697a65640000000000000000000000000000000000006064820152608401610c7c565b600080547fffffffffffffffffffffffffffffffffffffffffffffffffffffffffffffff001660011790558015611a5e57600080547fffffffffffffffffffffffffffffffffffffffffffffffffffffffffffff00ff166101001790555b3373ffffffffffffffffffffffffffffffffffffffff7f00000000000000000000000000000000000000000000000000000000000000001614611b0b576040517f0f634fbe00000000000000000000000000000000000000000000000000000000815233600482015273ffffffffffffffffffffffffffffffffffffffff7f0000000000000000000000000000000000000000000000000000000000000000166024820152604401610c7c565b611b7f6040518060400160405280600681526020017f4156534e465400000000000000000000000000000000000000000000000000008152506040518060400160405280600381526020017f415653000000000000000000000000000000000000000000000000000000000081525061395d565b8015611be257600080547fffffffffffffffffffffffffffffffffffffffffffffffffffffffffffff00ff169055604051600181527f7f26b83ff96e1f2b6a682f133852f6798a09c465da95921460cefb38474024989060200160405180910390a15b50565b60c95460ff16151560001901611c27576040517f19efee7900000000000000000000000000000000000000000000000000000000815260040160405180910390fd5b8160ff8116602a14611c6a576040517fe25155e900000000000000000000000000000000000000000000000000000000815260ff82166004820152602401610c7c565b611c967f00000000000000000000000000000000000000000000000000000000000000005b33846139fe565b6040805180820190915260cc54815260cd546020820152611cb8908390613b61565b805160cc556020015160cd5560d28054839190600090611cd990849061508f565b9091555050505050565b600080611cf08484612a21565b9050611cfc8484612b05565b91509250929050565b6000610ef48383612a21565b6000611868613bf5565b600081815260676020526040812054829073ffffffffffffffffffffffffffffffffffffffff16611d7b576040517fed15e6cf00000000000000000000000000000000000000000000000000000000815260048101829052602401610c7c565b600083815260d06020908152604091829020825160a08101845281547bffffffffffffffffffffffffffffffffffffffffffffffffffffffff811682527c0100000000000000000000000000000000000000000000000000000000900463ffffffff1681840152600182015481850152600282015460608201526003909101546080820190815260cb54845180860190955260cc54855260cd54938501939093525190929061112b90839083908690612d62565b606060668054610b0190614fe4565b60003373ffffffffffffffffffffffffffffffffffffffff7f00000000000000000000000000000000000000000000000000000000000000001614611eed576040517f0f634fbe00000000000000000000000000000000000000000000000000000000815233600482015273ffffffffffffffffffffffffffffffffffffffff7f0000000000000000000000000000000000000000000000000000000000000000166024820152604401610c7c565b611ef5613bf5565b90506119358282613c51565b60c95460ff16151560001901611f43576040517f19efee7900000000000000000000000000000000000000000000000000000000815260040160405180910390fd5b8060ff8116602a14611f86576040517fe25155e900000000000000000000000000000000000000000000000000000000815260ff82166004820152602401610c7c565b6040805180820190915260ce54815260cf546020820152611fa8903490613b61565b805160ce556020015160cf5560d18054349190600090611fc990849061508f565b90915550505050565b60c95460009060ff16151560001901612017576040517f19efee7900000000000000000000000000000000000000000000000000000000815260040160405180910390fd5b3373ffffffffffffffffffffffffffffffffffffffff7f000000000000000000000000000000000000000000000000000000000000000016146120c4576040517fb3e83aba00000000000000000000000000000000000000000000000000000000815233600482015273ffffffffffffffffffffffffffffffffffffffff7f0000000000000000000000000000000000000000000000000000000000000000166024820152604401610c7c565b610aec3383613215565b6120d9338383613d69565b5050565b3373ffffffffffffffffffffffffffffffffffffffff7f0000000000000000000000000000000000000000000000000000000000000000161461218a576040517f0f634fbe00000000000000000000000000000000000000000000000000000000815233600482015273ffffffffffffffffffffffffffffffffffffffff7f0000000000000000000000000000000000000000000000000000000000000000166024820152604401610c7c565b612192613e96565b565b61219e3383612ee3565b61222a576040517f08c379a000000000000000000000000000000000000000000000000000000000815260206004820152602e60248201527f4552433732313a2063616c6c6572206973206e6f7420746f6b656e206f776e6560448201527f72206e6f7220617070726f7665640000000000000000000000000000000000006064820152608401610c7c565b61223684848484613f05565b50505050565b6000610ef48383612b05565b6060816122798160009081526067602052604090205473ffffffffffffffffffffffffffffffffffffffff16151590565b6122b2576040517fed15e6cf00000000000000000000000000000000000000000000000000000000815260048101829052602401610c7c565b7f00000000000000000000000000000000000000000000000000000000000000006040517fe9dc63750000000000000000000000000000000000000000000000000000000081523060048201526024810185905273ffffffffffffffffffffffffffffffffffffffff919091169063e9dc637590604401600060405180830381865afa158015612346573d6000803e3d6000fd5b505050506040513d6000823e601f3d9081017fffffffffffffffffffffffffffffffffffffffffffffffffffffffffffffffe0168201604052610ef491908101906150a2565b6000610aec3383612a21565b60c95460009060ff161515600019016123dd576040517f19efee7900000000000000000000000000000000000000000000000000000000815260040160405180910390fd5b6123e683611703565b73ffffffffffffffffffffffffffffffffffffffff163373ffffffffffffffffffffffffffffffffffffffff161461244c576040517fc9c0713c000000000000000000000000000000000000000000000000000000008152336004820152602401610c7c565b6202a300821115612489576040517f2d2e18e400000000000000000000000000000000000000000000000000000000815260040160405180910390fd5b610ef48383612875565b6000803373ffffffffffffffffffffffffffffffffffffffff7f00000000000000000000000000000000000000000000000000000000000000001614612543576040517fb3e83aba00000000000000000000000000000000000000000000000000000000815233600482015273ffffffffffffffffffffffffffffffffffffffff7f0000000000000000000000000000000000000000000000000000000000000000166024820152604401610c7c565b61254e33858561359a565b915091509250929050565b6000806000806000856125908160009081526067602052604090205473ffffffffffffffffffffffffffffffffffffffff16151590565b6125c9576040517fed15e6cf00000000000000000000000000000000000000000000000000000000815260048101829052602401610c7c565b5050506000938452505060d06020908152604092839020835160a08101855281547bffffffffffffffffffffffffffffffffffffffffffffffffffffffff81168083527c010000000000000000000000000000000000000000000000000000000090910463ffffffff169382018490526001830154958201869052600283015460608301819052600390930154608090920182905295929493509091565b60007fffffffff0000000000000000000000000000000000000000000000000000000082167f80ac58cd0000000000000000000000000000000000000000000000000000000014806126fa57507fffffffff0000000000000000000000000000000000000000000000000000000082167f5b5e139f00000000000000000000000000000000000000000000000000000000145b80610aec57507f01ffc9a7000000000000000000000000000000000000000000000000000000007fffffffff00000000000000000000000000000000000000000000000000000000831614610aec565b60008181526067602052604090205473ffffffffffffffffffffffffffffffffffffffff16611be2576040517f08c379a000000000000000000000000000000000000000000000000000000000815260206004820152601860248201527f4552433732313a20696e76616c696420746f6b656e20494400000000000000006044820152606401610c7c565b600081815260696020526040902080547fffffffffffffffffffffffff00000000000000000000000000000000000000001673ffffffffffffffffffffffffffffffffffffffff8416908117909155819061282f82611703565b73ffffffffffffffffffffffffffffffffffffffff167f8c5be1e5ebec7d5bd14f71427d1e84f3dd0314c0f7b2291e5b200ac8c7c3b92560405160405180910390a45050565b600082815260676020526040812054839073ffffffffffffffffffffffffffffffffffffffff166128d5576040517fed15e6cf00000000000000000000000000000000000000000000000000000000815260048101829052602401610c7c565b600084815260d060209081526040808320815160a08101835281547bffffffffffffffffffffffffffffffffffffffffffffffffffffffff811682527c0100000000000000000000000000000000000000000000000000000000900463ffffffff169381019390935260018101549183019190915260028101546060830152600301546080820152906129688543615119565b9050816020015163ffffffff168163ffffffff161161298b57816020015161298d565b805b63ffffffff9081166020808501918252600089815260d0909152604090819020855192519093167c0100000000000000000000000000000000000000000000000000000000027bffffffffffffffffffffffffffffffffffffffffffffffffffffffff90921691821783558401516001830155606084015160028301556080909301516003909101555091505b5092915050565b600080612a2d83613fa8565b9050612a3b60cb5482614124565b600085815260d06020908152604080832085519286015163ffffffff167c0100000000000000000000000000000000000000000000000000000000027bffffffffffffffffffffffffffffffffffffffffffffffffffffffff90931692909217825584015160018201556060840151600282015560809093015160039093019290925560d2805491945084929091612ad4908490615136565b90915550612a1a90507f00000000000000000000000000000000000000000000000000000000000000008584613800565b600080612b1183613fa8565b9050612b1f60cb54826141c9565b600085815260d06020908152604080832085519286015163ffffffff167c0100000000000000000000000000000000000000000000000000000000027bffffffffffffffffffffffffffffffffffffffffffffffffffffffff90931692909217825584015160018201556060840151600282015560809093015160039093019290925560d1805491945084929091612bb8908490615136565b90915550612a1a90508483613c51565b600082815260676020526040812054839073ffffffffffffffffffffffffffffffffffffffff16612c28576040517fed15e6cf00000000000000000000000000000000000000000000000000000000815260048101829052602401610c7c565b600084815260d060209081526040808320815160a08101835281547bffffffffffffffffffffffffffffffffffffffffffffffffffffffff811682527c0100000000000000000000000000000000000000000000000000000000900463ffffffff16938101939093526001810154918301919091526002810154606083015260030154608082015290612cbb854361508f565b905081604001518111612cd2578160400151612cd4565b805b6040808401918252600088815260d0602090815291902084519185015163ffffffff167c0100000000000000000000000000000000000000000000000000000000027bffffffffffffffffffffffffffffffffffffffffffffffffffffffff909216918217815591516001830155606084015160028301556080909301516003909101555091505092915050565b60408051808201825260008082526020808301829052835160a08101855282815290810182905292830181905260608301819052608083015290600080612db2888860000151896020015161426e565b6020890152808852600090861115612dfe57612de4867501000000000000000000000000000000000000000000615136565b8851909150612df3908261508f565b885196509050612e1a565b8751612e0b908790615136565b9050612e17818761508f565b95505b8651600090612e47907bffffffffffffffffffffffffffffffffffffffffffffffffffffffff1683615149565b88519091507bffffffffffffffffffffffffffffffffffffffffffffffffffffffff168a03612e89576020890151612e7f908261508f565b600060208b015290505b80612e9c670de0b6b3a764000082615197565b9150612eb0670de0b6b3a764000083615149565b612eba9082615136565b9050808a602001818151612ece919061508f565b905250989a9799509597509495945050505050565b600080612eef83611703565b90508073ffffffffffffffffffffffffffffffffffffffff168473ffffffffffffffffffffffffffffffffffffffff161480612f5d575073ffffffffffffffffffffffffffffffffffffffff8082166000908152606a602090815260408083209388168352929052205460ff165b80612f9b57508373ffffffffffffffffffffffffffffffffffffffff16612f8384610b84565b73ffffffffffffffffffffffffffffffffffffffff16145b949350505050565b8273ffffffffffffffffffffffffffffffffffffffff16612fc382611703565b73ffffffffffffffffffffffffffffffffffffffff1614613066576040517f08c379a000000000000000000000000000000000000000000000000000000000815260206004820152602560248201527f4552433732313a207472616e736665722066726f6d20696e636f72726563742060448201527f6f776e65720000000000000000000000000000000000000000000000000000006064820152608401610c7c565b73ffffffffffffffffffffffffffffffffffffffff8216613108576040517f08c379a0000000000000000000000000000000000000000000000000000000008152602060048201526024808201527f4552433732313a207472616e7366657220746f20746865207a65726f2061646460448201527f72657373000000000000000000000000000000000000000000000000000000006064820152608401610c7c565b6131138383836142f3565b61311e6000826127d5565b73ffffffffffffffffffffffffffffffffffffffff83166000908152606860205260408120805460019290613154908490615136565b909155505073ffffffffffffffffffffffffffffffffffffffff8216600090815260686020526040812080546001929061318f90849061508f565b909155505060008181526067602052604080822080547fffffffffffffffffffffffff00000000000000000000000000000000000000001673ffffffffffffffffffffffffffffffffffffffff86811691821790925591518493918716917fddf252ad1be2c89b69c2b068fc378daa952ba7f163c4a11628f55a4df523b3ef91a4505050565b600081600003613251576040517f39d7ecde00000000000000000000000000000000000000000000000000000000815260040160405180910390fd5b7bffffffffffffffffffffffffffffffffffffffffffffffffffffffff8211156132a7576040517fa06d76af00000000000000000000000000000000000000000000000000000000815260040160405180910390fd5b6132d07f0000000000000000000000000000000000000000000000000000000000000000611c8f565b60cb5460408051808201825260ce54815260cf54602080830191909152825180840190935260cc54835260cd54908301529061330a6143f9565b9350821561335e57613325838360000151846020015161426e565b602080850182905282855260ce9290925560cf5581519082015161334a91859161426e565b6020830181905281835260cc9190915560cd555b613368858461508f565b60cb8190556040805160a081019091527bffffffffffffffffffffffffffffffffffffffffffffffffffffffff87168152909350602081016133ab436001615119565b63ffffffff1681526020016133c1436001615119565b63ffffffff908116825284516020808401919091528451604093840152600088815260d082528381208551928601519093167c0100000000000000000000000000000000000000000000000000000000027bffffffffffffffffffffffffffffffffffffffffffffffffffffffff9092169190911782559183015160018201556060830151600282015560809092015160039092019190915560d2805487929061346c90849061508f565b9091555061347c90508685614411565b50505092915050565b60d25460009081907f00000000000000000000000000000000000000000000000000000000000000006040517f70a0823100000000000000000000000000000000000000000000000000000000815230600482015290935060009073ffffffffffffffffffffffffffffffffffffffff8516906370a0823190602401602060405180830381865afa15801561351e573d6000803e3d6000fd5b505050506040513d601f19601f8201168201806040525081019061354291906151ab565b905081811015613588576040517f22f7c7fc0000000000000000000000000000000000000000000000000000000081526004810182905260248101839052604401610c7c565b6135928282615136565b925050509091565b6000806135a683611703565b73ffffffffffffffffffffffffffffffffffffffff168573ffffffffffffffffffffffffffffffffffffffff161461360c576040517fc9c0713c000000000000000000000000000000000000000000000000000000008152336004820152602401610c7c565b600083815260d06020908152604091829020825160a08101845281547bffffffffffffffffffffffffffffffffffffffffffffffffffffffff811682527c0100000000000000000000000000000000000000000000000000000000900463ffffffff1692810183905260018201549381019390935260028101546060840152600301546080830152431115806136a6575043816040015110155b156136dd576040517fd9b3656c00000000000000000000000000000000000000000000000000000000815260040160405180910390fd5b60cb546136ea81836141c9565b945091506136f88183614124565b8151909450909250613728907bffffffffffffffffffffffffffffffffffffffffffffffffffffffff168461508f565b925081600001517bffffffffffffffffffffffffffffffffffffffffffffffffffffffff1660cb600082825461375e9190615136565b925050819055508260d260008282546137779190615136565b925050819055508360d160008282546137909190615136565b9091555050600085815260d0602052604081208181556001810182905560028101829055600301556137c1856145df565b6137ec7f00000000000000000000000000000000000000000000000000000000000000008785613800565b6137f68685613c51565b5050935093915050565b8060000361380d57505050565b73ffffffffffffffffffffffffffffffffffffffff831661385a576040517f2518928d00000000000000000000000000000000000000000000000000000000815260040160405180910390fd5b6040517fa9059cbb00000000000000000000000000000000000000000000000000000000815273ffffffffffffffffffffffffffffffffffffffff8381166004830152602482018390526000919085169063a9059cbb906044016020604051808303816000875af11580156138d3573d6000803e3d6000fd5b505050506040513d601f19601f820116820180604052508101906138f791906151c4565b905080612236576040517ff0798c5100000000000000000000000000000000000000000000000000000000815273ffffffffffffffffffffffffffffffffffffffff80861660048301523060248301528416604482015260648101839052608401610c7c565b600054610100900460ff166139f4576040517f08c379a000000000000000000000000000000000000000000000000000000000815260206004820152602b60248201527f496e697469616c697a61626c653a20636f6e7472616374206973206e6f74206960448201527f6e697469616c697a696e670000000000000000000000000000000000000000006064820152608401610c7c565b6120d982826146b8565b80600003613a0b57505050565b73ffffffffffffffffffffffffffffffffffffffff8316613a58576040517f2518928d00000000000000000000000000000000000000000000000000000000815260040160405180910390fd5b6040517f23b872dd00000000000000000000000000000000000000000000000000000000815273ffffffffffffffffffffffffffffffffffffffff838116600483015230602483015260448201839052600091908516906323b872dd906064016020604051808303816000875af1158015613ad7573d6000803e3d6000fd5b505050506040513d601f19601f82011682018060405250810190613afb91906151c4565b905080612236576040517ff0798c5100000000000000000000000000000000000000000000000000000000815273ffffffffffffffffffffffffffffffffffffffff80861660048301528416602482015230604482015260648101839052608401610c7c565b6040805180820190915260008082526020820152613b87670de0b6b3a764000084615149565b82602001818151613b98919061508f565b905250602082015174800000000000000000000000000000000000000000116111345781602001516040517faabd6b93000000000000000000000000000000000000000000000000000000008152600401610c7c91815260200190565b60d1546000904781811015613c40576040517f22f7c7fc0000000000000000000000000000000000000000000000000000000081526004810182905260248101839052604401610c7c565b613c4a8282615136565b9250505090565b80600003613c5d575050565b73ffffffffffffffffffffffffffffffffffffffff8216613caa576040517f6f5ec9ea00000000000000000000000000000000000000000000000000000000815260040160405180910390fd5b604051829060009073ffffffffffffffffffffffffffffffffffffffff83169084908381818185875af1925050503d8060008114613d04576040519150601f19603f3d011682016040523d82523d6000602084013e613d09565b606091505b5050905080612236576040517fb250066300000000000000000000000000000000000000000000000000000000815230600482015273ffffffffffffffffffffffffffffffffffffffff8516602482015260448101849052606401610c7c565b8173ffffffffffffffffffffffffffffffffffffffff168373ffffffffffffffffffffffffffffffffffffffff1603613dfe576040517f08c379a000000000000000000000000000000000000000000000000000000000815260206004820152601960248201527f4552433732313a20617070726f766520746f2063616c6c6572000000000000006044820152606401610c7c565b73ffffffffffffffffffffffffffffffffffffffff8381166000818152606a602090815260408083209487168084529482529182902080547fffffffffffffffffffffffffffffffffffffffffffffffffffffffffffffff001686151590811790915591519182527f17307eab39ab6107e8899845ad3d59bd9653f200f220920489ca2b5937696c31910160405180910390a3505050565b60c95460ff16151560001901613ed8576040517f19efee7900000000000000000000000000000000000000000000000000000000815260040160405180910390fd5b60c980547fffffffffffffffffffffffffffffffffffffffffffffffffffffffffffffff00166001179055565b613f10848484612fa3565b613f1c84848484614759565b612236576040517f08c379a000000000000000000000000000000000000000000000000000000000815260206004820152603260248201527f4552433732313a207472616e7366657220746f206e6f6e20455243373231526560448201527f63656976657220696d706c656d656e74657200000000000000000000000000006064820152608401610c7c565b613ffe6040518060a0016040528060007bffffffffffffffffffffffffffffffffffffffffffffffffffffffff168152602001600063ffffffff1681526020016000815260200160008152602001600081525090565b600061400983611703565b90503373ffffffffffffffffffffffffffffffffffffffff82161461405c576040517fc9c0713c000000000000000000000000000000000000000000000000000000008152336004820152602401610c7c565b600083815260d060208181526040808420815160a08101835281547bffffffffffffffffffffffffffffffffffffffffffffffffffffffff811682527c0100000000000000000000000000000000000000000000000000000000900463ffffffff16818501526001820154928101839052600282015460608201526003909101546080820152938790529190529092504311611134576040517f30693fbd00000000000000000000000000000000000000000000000000000000815260040160405180910390fd5b61417a6040518060a0016040528060007bffffffffffffffffffffffffffffffffffffffffffffffffffffffff168152602001600063ffffffff1681526020016000815260200160008152602001600081525090565b6040805180820190915260cc54815260cd546020820152608083015160009182916141aa90879083908890612d62565b835160cc5560209093015160cd55608082015297909650945050505050565b61421f6040518060a0016040528060007bffffffffffffffffffffffffffffffffffffffffffffffffffffffff168152602001600063ffffffff1681526020016000815260200160008152602001600081525090565b6040805180820190915260ce54815260cf5460208201526060830151600091829161424f90879083908890612d62565b835160ce5560209093015160cf55606082015297909650945050505050565b60008084156142e95760006142838685615197565b905061428f8682615149565b6142999085615136565b93506142a5818661508f565b945074ffffffffffffffffffffffffffffffffffffffffff8511156142e7576142e47501000000000000000000000000000000000000000000866151e1565b94505b505b5091939092509050565b73ffffffffffffffffffffffffffffffffffffffff831661435b5761435681609980546000838152609a60205260408120829055600182018355919091527f72a152ddfb8e864297c917af52ea6c1c68aead0fee1a62673fcc7e0c94979d000155565b614398565b8173ffffffffffffffffffffffffffffffffffffffff168373ffffffffffffffffffffffffffffffffffffffff161461439857614398838261494c565b73ffffffffffffffffffffffffffffffffffffffff82166143bc57610d4481614a03565b8273ffffffffffffffffffffffffffffffffffffffff168273ffffffffffffffffffffffffffffffffffffffff1614610d4457610d448282614ab2565b60ca5461440760018261508f565b60ca819055919050565b73ffffffffffffffffffffffffffffffffffffffff821661448e576040517f08c379a000000000000000000000000000000000000000000000000000000000815260206004820181905260248201527f4552433732313a206d696e7420746f20746865207a65726f20616464726573736044820152606401610c7c565b60008181526067602052604090205473ffffffffffffffffffffffffffffffffffffffff161561451a576040517f08c379a000000000000000000000000000000000000000000000000000000000815260206004820152601c60248201527f4552433732313a20746f6b656e20616c7265616479206d696e746564000000006044820152606401610c7c565b614526600083836142f3565b73ffffffffffffffffffffffffffffffffffffffff8216600090815260686020526040812080546001929061455c90849061508f565b909155505060008181526067602052604080822080547fffffffffffffffffffffffff00000000000000000000000000000000000000001673ffffffffffffffffffffffffffffffffffffffff861690811790915590518392907fddf252ad1be2c89b69c2b068fc378daa952ba7f163c4a11628f55a4df523b3ef908290a45050565b60006145ea82611703565b90506145f8816000846142f3565b6146036000836127d5565b73ffffffffffffffffffffffffffffffffffffffff81166000908152606860205260408120805460019290614639908490615136565b909155505060008281526067602052604080822080547fffffffffffffffffffffffff00000000000000000000000000000000000000001690555183919073ffffffffffffffffffffffffffffffffffffffff8416907fddf252ad1be2c89b69c2b068fc378daa952ba7f163c4a11628f55a4df523b3ef908390a45050565b600054610100900460ff1661474f576040517f08c379a000000000000000000000000000000000000000000000000000000000815260206004820152602b60248201527f496e697469616c697a61626c653a20636f6e7472616374206973206e6f74206960448201527f6e697469616c697a696e670000000000000000000000000000000000000000006064820152608401610c7c565b6120d98282614b03565b600073ffffffffffffffffffffffffffffffffffffffff84163b15614941576040517f150b7a0200000000000000000000000000000000000000000000000000000000815273ffffffffffffffffffffffffffffffffffffffff85169063150b7a02906147d09033908990889088906004016151f5565b6020604051808303816000875af1925050508015614829575060408051601f3d9081017fffffffffffffffffffffffffffffffffffffffffffffffffffffffffffffffe01682019092526148269181019061523e565b60015b6148f6573d808015614857576040519150601f19603f3d011682016040523d82523d6000602084013e61485c565b606091505b5080516000036148ee576040517f08c379a000000000000000000000000000000000000000000000000000000000815260206004820152603260248201527f4552433732313a207472616e7366657220746f206e6f6e20455243373231526560448201527f63656976657220696d706c656d656e74657200000000000000000000000000006064820152608401610c7c565b805181602001fd5b7fffffffff00000000000000000000000000000000000000000000000000000000167f150b7a0200000000000000000000000000000000000000000000000000000000149050612f9b565b506001949350505050565b600060016149598461178f565b6149639190615136565b6000838152609860205260409020549091508082146149c35773ffffffffffffffffffffffffffffffffffffffff841660009081526097602090815260408083208584528252808320548484528184208190558352609890915290208190555b50600091825260986020908152604080842084905573ffffffffffffffffffffffffffffffffffffffff9094168352609781528383209183525290812055565b609954600090614a1590600190615136565b6000838152609a602052604081205460998054939450909284908110614a3d57614a3d615031565b906000526020600020015490508060998381548110614a5e57614a5e615031565b6000918252602080832090910192909255828152609a90915260408082208490558582528120556099805480614a9657614a9661525b565b6001900381819060005260206000200160009055905550505050565b6000614abd8361178f565b73ffffffffffffffffffffffffffffffffffffffff9093166000908152609760209081526040808320868452825280832085905593825260989052919091209190915550565b600054610100900460ff16614b9a576040517f08c379a000000000000000000000000000000000000000000000000000000000815260206004820152602b60248201527f496e697469616c697a61626c653a20636f6e7472616374206973206e6f74206960448201527f6e697469616c697a696e670000000000000000000000000000000000000000006064820152608401610c7c565b6065614ba683826152d8565b506066610d4482826152d8565b7fffffffff0000000000000000000000000000000000000000000000000000000081168114611be257600080fd5b600060208284031215614bf357600080fd5b8135610ef481614bb3565b60005b83811015614c19578181015183820152602001614c01565b50506000910152565b60008151808452614c3a816020860160208601614bfe565b601f017fffffffffffffffffffffffffffffffffffffffffffffffffffffffffffffffe0169290920160200192915050565b602081526000610ef46020830184614c22565b600060208284031215614c9157600080fd5b5035919050565b803573ffffffffffffffffffffffffffffffffffffffff8116811461193557600080fd5b60008060408385031215614ccf57600080fd5b614cd883614c98565b946020939093013593505050565b600080600060608486031215614cfb57600080fd5b614d0484614c98565b95602085013595506040909401359392505050565b60008060408385031215614d2c57600080fd5b50508035926020909101359150565b600080600060608486031215614d5057600080fd5b614d5984614c98565b9250614d6760208501614c98565b9150604084013590509250925092565b600060208284031215614d8957600080fd5b610ef482614c98565b803560ff8116811461193557600080fd5b60008060408385031215614db657600080fd5b614cd883614d92565b60008060408385031215614dd257600080fd5b82359150614de260208401614c98565b90509250929050565b600060208284031215614dfd57600080fd5b610ef482614d92565b8015158114611be257600080fd5b60008060408385031215614e2757600080fd5b614e3083614c98565b91506020830135614e4081614e06565b809150509250929050565b7f4e487b7100000000000000000000000000000000000000000000000000000000600052604160045260246000fd5b604051601f82017fffffffffffffffffffffffffffffffffffffffffffffffffffffffffffffffe016810167ffffffffffffffff81118282101715614ec157614ec1614e4b565b604052919050565b600067ffffffffffffffff821115614ee357614ee3614e4b565b50601f017fffffffffffffffffffffffffffffffffffffffffffffffffffffffffffffffe01660200190565b60008060008060808587031215614f2557600080fd5b614f2e85614c98565b9350614f3c60208601614c98565b925060408501359150606085013567ffffffffffffffff811115614f5f57600080fd5b8501601f81018713614f7057600080fd5b8035614f83614f7e82614ec9565b614e7a565b818152886020838501011115614f9857600080fd5b8160208401602083013760006020838301015280935050505092959194509250565b60008060408385031215614fcd57600080fd5b614fd683614c98565b9150614de260208401614c98565b600181811c90821680614ff857607f821691505b602082108103611134577f4e487b7100000000000000000000000000000000000000000000000000000000600052602260045260246000fd5b7f4e487b7100000000000000000000000000000000000000000000000000000000600052603260045260246000fd5b7f4e487b7100000000000000000000000000000000000000000000000000000000600052601160045260246000fd5b80820180821115610aec57610aec615060565b6000602082840312156150b457600080fd5b815167ffffffffffffffff8111156150cb57600080fd5b8201601f810184136150dc57600080fd5b80516150ea614f7e82614ec9565b8181528560208385010111156150ff57600080fd5b615110826020830160208601614bfe565b95945050505050565b63ffffffff818116838216019080821115612a1a57612a1a615060565b81810381811115610aec57610aec615060565b600081600019048311821515161561516357615163615060565b500290565b7f4e487b7100000000000000000000000000000000000000000000000000000000600052601260045260246000fd5b6000826151a6576151a6615168565b500490565b6000602082840312156151bd57600080fd5b5051919050565b6000602082840312156151d657600080fd5b8151610ef481614e06565b6000826151f0576151f0615168565b500690565b600073ffffffffffffffffffffffffffffffffffffffff8087168352808616602084015250836040830152608060608301526152346080830184614c22565b9695505050505050565b60006020828403121561525057600080fd5b8151610ef481614bb3565b7f4e487b7100000000000000000000000000000000000000000000000000000000600052603160045260246000fd5b601f821115610d4457600081815260208120601f850160051c810160208610156152b15750805b601f850160051c820191505b818110156152d0578281556001016152bd565b505050505050565b815167ffffffffffffffff8111156152f2576152f2614e4b565b615306816153008454614fe4565b8461528a565b602080601f83116001811461533b57600084156153235750858301515b600019600386901b1c1916600185901b1785556152d0565b6000858152602081207fffffffffffffffffffffffffffffffffffffffffffffffffffffffffffffffe08616915b8281101561538857888601518255948401946001909101908401615369565b50858210156153a65787850151600019600388901b60f8161c191681555b5050505050600190811b0190555056fea2646970667358221220fe94d1c16044bc0c08cb10a9322e7dda2a6e65f81e83b892c6929d545e3ae7ca64736f6c63430008100033",
    "linkReferences": {},
    "deployedLinkReferences": {}
}