{
  "_format": "hh-sol-artifact-1",
  "contractName": "ValidatorStaking",
  "sourceName": "contracts/ValidatorStaking.sol",
  "abi": [
    {
      "inputs": [],
      "stateMutability": "nonpayable",
      "type": "constructor"
    },
    {
      "inputs": [
        {
          "internalType": "uint256",
          "name": "magic",
          "type": "uint256"
        }
      ],
      "name": "BadMagic",
      "type": "error"
    },
    {
      "inputs": [
        {
          "internalType": "uint256",
          "name": "balance",
          "type": "uint256"
        },
        {
          "internalType": "uint256",
          "name": "reserve",
          "type": "uint256"
        }
      ],
      "name": "BalanceLessThanReserve",
      "type": "error"
    },
    {
      "inputs": [
        {
          "internalType": "address",
          "name": "caller",
          "type": "address"
        }
      ],
      "name": "CallerNotTokenOwner",
      "type": "error"
    },
    {
      "inputs": [],
      "name": "CannotCallContractMethodsOnZeroAddress",
      "type": "error"
    },
    {
      "inputs": [],
      "name": "CannotTransferToZeroAddress",
      "type": "error"
    },
    {
      "inputs": [],
      "name": "CircuitBreakerOpened",
      "type": "error"
    },
    {
      "inputs": [
        {
          "internalType": "address",
          "name": "erc20Address",
          "type": "address"
        },
        {
          "internalType": "address",
          "name": "from",
          "type": "address"
        },
        {
          "internalType": "address",
          "name": "to",
          "type": "address"
        },
        {
          "internalType": "uint256",
          "name": "amount",
          "type": "uint256"
        }
      ],
      "name": "Erc20TransferFailed",
      "type": "error"
    },
    {
      "inputs": [
        {
          "internalType": "address",
          "name": "from",
          "type": "address"
        },
        {
          "internalType": "address",
          "name": "to",
          "type": "address"
        },
        {
          "internalType": "uint256",
          "name": "amount",
          "type": "uint256"
        }
      ],
      "name": "EthTransferFailed",
      "type": "error"
    },
    {
      "inputs": [],
      "name": "FreeAfterTimeNotReached",
      "type": "error"
    },
    {
      "inputs": [
        {
          "internalType": "uint256",
          "name": "tokenId",
          "type": "uint256"
        }
      ],
      "name": "InvalidTokenId",
      "type": "error"
    },
    {
      "inputs": [],
      "name": "LockDurationGreaterThanGovernanceLock",
      "type": "error"
    },
    {
      "inputs": [],
      "name": "LockDurationGreaterThanMintLock",
      "type": "error"
    },
    {
      "inputs": [],
      "name": "LockDurationWithdrawTimeNotReached",
      "type": "error"
    },
    {
      "inputs": [],
      "name": "MintAmountExceedsMaximumSupply",
      "type": "error"
    },
    {
      "inputs": [],
      "name": "MintAmountZero",
      "type": "error"
    },
    {
      "inputs": [
        {
          "internalType": "address",
          "name": "sender",
          "type": "address"
        },
        {
          "internalType": "address",
          "name": "expected",
          "type": "address"
        }
      ],
      "name": "OnlyALCA",
      "type": "error"
    },
    {
      "inputs": [
        {
          "internalType": "address",
          "name": "sender",
          "type": "address"
        },
        {
          "internalType": "address",
          "name": "expected",
          "type": "address"
        }
      ],
      "name": "OnlyFactory",
      "type": "error"
    },
    {
      "inputs": [
        {
          "internalType": "address",
          "name": "sender",
          "type": "address"
        },
        {
          "internalType": "address",
          "name": "expected",
          "type": "address"
        }
      ],
      "name": "OnlyGovernance",
      "type": "error"
    },
    {
      "inputs": [
        {
          "internalType": "address",
          "name": "sender",
          "type": "address"
        },
        {
          "internalType": "address",
          "name": "expected",
          "type": "address"
        }
      ],
      "name": "OnlyStakingPositionDescriptor",
      "type": "error"
    },
    {
      "inputs": [
        {
          "internalType": "address",
          "name": "sender",
          "type": "address"
        },
        {
          "internalType": "address",
          "name": "expected",
          "type": "address"
        }
      ],
      "name": "OnlyValidatorPool",
      "type": "error"
    },
    {
      "inputs": [
        {
          "internalType": "uint256",
          "name": "slush",
          "type": "uint256"
        }
      ],
      "name": "SlushTooLarge",
      "type": "error"
    },
    {
      "anonymous": false,
      "inputs": [
        {
          "indexed": true,
          "internalType": "address",
          "name": "owner",
          "type": "address"
        },
        {
          "indexed": true,
          "internalType": "address",
          "name": "approved",
          "type": "address"
        },
        {
          "indexed": true,
          "internalType": "uint256",
          "name": "tokenId",
          "type": "uint256"
        }
      ],
      "name": "Approval",
      "type": "event"
    },
    {
      "anonymous": false,
      "inputs": [
        {
          "indexed": true,
          "internalType": "address",
          "name": "owner",
          "type": "address"
        },
        {
          "indexed": true,
          "internalType": "address",
          "name": "operator",
          "type": "address"
        },
        {
          "indexed": false,
          "internalType": "bool",
          "name": "approved",
          "type": "bool"
        }
      ],
      "name": "ApprovalForAll",
      "type": "event"
    },
    {
      "anonymous": false,
      "inputs": [
        {
          "indexed": false,
          "internalType": "uint8",
          "name": "version",
          "type": "uint8"
        }
      ],
      "name": "Initialized",
      "type": "event"
    },
    {
      "anonymous": false,
      "inputs": [
        {
          "indexed": true,
          "internalType": "address",
          "name": "from",
          "type": "address"
        },
        {
          "indexed": true,
          "internalType": "address",
          "name": "to",
          "type": "address"
        },
        {
          "indexed": true,
          "internalType": "uint256",
          "name": "tokenId",
          "type": "uint256"
        }
      ],
      "name": "Transfer",
      "type": "event"
    },
    {
      "inputs": [
        {
          "internalType": "address",
          "name": "to",
          "type": "address"
        },
        {
          "internalType": "uint256",
          "name": "tokenId",
          "type": "uint256"
        }
      ],
      "name": "approve",
      "outputs": [],
      "stateMutability": "nonpayable",
      "type": "function"
    },
    {
      "inputs": [
        {
          "internalType": "address",
          "name": "owner",
          "type": "address"
        }
      ],
      "name": "balanceOf",
      "outputs": [
        {
          "internalType": "uint256",
          "name": "",
          "type": "uint256"
        }
      ],
      "stateMutability": "view",
      "type": "function"
    },
    {
      "inputs": [
        {
          "internalType": "uint256",
          "name": "tokenID_",
          "type": "uint256"
        }
      ],
      "name": "burn",
      "outputs": [
        {
          "internalType": "uint256",
          "name": "payoutEth",
          "type": "uint256"
        },
        {
          "internalType": "uint256",
          "name": "payoutALCA",
          "type": "uint256"
        }
      ],
      "stateMutability": "nonpayable",
      "type": "function"
    },
    {
      "inputs": [
        {
          "internalType": "address",
          "name": "to_",
          "type": "address"
        },
        {
          "internalType": "uint256",
          "name": "tokenID_",
          "type": "uint256"
        }
      ],
      "name": "burnTo",
      "outputs": [
        {
          "internalType": "uint256",
          "name": "payoutEth",
          "type": "uint256"
        },
        {
          "internalType": "uint256",
          "name": "payoutALCA",
          "type": "uint256"
        }
      ],
      "stateMutability": "nonpayable",
      "type": "function"
    },
    {
      "inputs": [],
      "name": "circuitBreakerState",
      "outputs": [
        {
          "internalType": "bool",
          "name": "",
          "type": "bool"
        }
      ],
      "stateMutability": "view",
      "type": "function"
    },
    {
      "inputs": [
        {
          "internalType": "uint256",
          "name": "tokenID_",
          "type": "uint256"
        }
      ],
      "name": "collectAllProfits",
      "outputs": [
        {
          "internalType": "uint256",
          "name": "payoutEth",
          "type": "uint256"
        },
        {
          "internalType": "uint256",
          "name": "payoutToken",
          "type": "uint256"
        }
      ],
      "stateMutability": "nonpayable",
      "type": "function"
    },
    {
      "inputs": [
        {
          "internalType": "address",
          "name": "to_",
          "type": "address"
        },
        {
          "internalType": "uint256",
          "name": "tokenID_",
          "type": "uint256"
        }
      ],
      "name": "collectAllProfitsTo",
      "outputs": [
        {
          "internalType": "uint256",
          "name": "payoutEth",
          "type": "uint256"
        },
        {
          "internalType": "uint256",
          "name": "payoutToken",
          "type": "uint256"
        }
      ],
      "stateMutability": "nonpayable",
      "type": "function"
    },
    {
      "inputs": [
        {
          "internalType": "uint256",
          "name": "tokenID_",
          "type": "uint256"
        }
      ],
      "name": "collectEth",
      "outputs": [
        {
          "internalType": "uint256",
          "name": "payout",
          "type": "uint256"
        }
      ],
      "stateMutability": "nonpayable",
      "type": "function"
    },
    {
      "inputs": [
        {
          "internalType": "address",
          "name": "to_",
          "type": "address"
        },
        {
          "internalType": "uint256",
          "name": "tokenID_",
          "type": "uint256"
        }
      ],
      "name": "collectEthTo",
      "outputs": [
        {
          "internalType": "uint256",
          "name": "payout",
          "type": "uint256"
        }
      ],
      "stateMutability": "nonpayable",
      "type": "function"
    },
    {
      "inputs": [
        {
          "internalType": "uint256",
          "name": "tokenID_",
          "type": "uint256"
        }
      ],
      "name": "collectToken",
      "outputs": [
        {
          "internalType": "uint256",
          "name": "payout",
          "type": "uint256"
        }
      ],
      "stateMutability": "nonpayable",
      "type": "function"
    },
    {
      "inputs": [
        {
          "internalType": "address",
          "name": "to_",
          "type": "address"
        },
        {
          "internalType": "uint256",
          "name": "tokenID_",
          "type": "uint256"
        }
      ],
      "name": "collectTokenTo",
      "outputs": [
        {
          "internalType": "uint256",
          "name": "payout",
          "type": "uint256"
        }
      ],
      "stateMutability": "nonpayable",
      "type": "function"
    },
    {
      "inputs": [
        {
          "internalType": "uint8",
          "name": "magic_",
          "type": "uint8"
        }
      ],
      "name": "depositEth",
      "outputs": [],
      "stateMutability": "payable",
      "type": "function"
    },
    {
      "inputs": [
        {
          "internalType": "uint8",
          "name": "magic_",
          "type": "uint8"
        },
        {
          "internalType": "uint256",
          "name": "amount_",
          "type": "uint256"
        }
      ],
      "name": "depositToken",
      "outputs": [],
      "stateMutability": "nonpayable",
      "type": "function"
    },
    {
      "inputs": [
        {
          "internalType": "uint256",
          "name": "tokenID_",
          "type": "uint256"
        }
      ],
      "name": "estimateAllProfits",
      "outputs": [
        {
          "internalType": "uint256",
          "name": "payoutEth",
          "type": "uint256"
        },
        {
          "internalType": "uint256",
          "name": "payoutToken",
          "type": "uint256"
        }
      ],
      "stateMutability": "view",
      "type": "function"
    },
    {
      "inputs": [
        {
          "internalType": "uint256",
          "name": "tokenID_",
          "type": "uint256"
        }
      ],
      "name": "estimateEthCollection",
      "outputs": [
        {
          "internalType": "uint256",
          "name": "payout",
          "type": "uint256"
        }
      ],
      "stateMutability": "view",
      "type": "function"
    },
    {
      "inputs": [],
      "name": "estimateExcessEth",
      "outputs": [
        {
          "internalType": "uint256",
          "name": "excess",
          "type": "uint256"
        }
      ],
      "stateMutability": "view",
      "type": "function"
    },
    {
      "inputs": [],
      "name": "estimateExcessToken",
      "outputs": [
        {
          "internalType": "uint256",
          "name": "excess",
          "type": "uint256"
        }
      ],
      "stateMutability": "view",
      "type": "function"
    },
    {
      "inputs": [
        {
          "internalType": "uint256",
          "name": "tokenID_",
          "type": "uint256"
        }
      ],
      "name": "estimateTokenCollection",
      "outputs": [
        {
          "internalType": "uint256",
          "name": "payout",
          "type": "uint256"
        }
      ],
      "stateMutability": "view",
      "type": "function"
    },
    {
      "inputs": [],
      "name": "getAccumulatorScaleFactor",
      "outputs": [
        {
          "internalType": "uint256",
          "name": "",
          "type": "uint256"
        }
      ],
      "stateMutability": "pure",
      "type": "function"
    },
    {
      "inputs": [
        {
          "internalType": "uint256",
          "name": "tokenId",
          "type": "uint256"
        }
      ],
      "name": "getApproved",
      "outputs": [
        {
          "internalType": "address",
          "name": "",
          "type": "address"
        }
      ],
      "stateMutability": "view",
      "type": "function"
    },
    {
      "inputs": [],
      "name": "getEthAccumulator",
      "outputs": [
        {
          "internalType": "uint256",
          "name": "accumulator",
          "type": "uint256"
        },
        {
          "internalType": "uint256",
          "name": "slush",
          "type": "uint256"
        }
      ],
      "stateMutability": "view",
      "type": "function"
    },
    {
      "inputs": [],
      "name": "getLatestMintedPositionID",
      "outputs": [
        {
          "internalType": "uint256",
          "name": "",
          "type": "uint256"
        }
      ],
      "stateMutability": "view",
      "type": "function"
    },
    {
      "inputs": [],
      "name": "getMaxGovernanceLock",
      "outputs": [
        {
          "internalType": "uint256",
          "name": "",
          "type": "uint256"
        }
      ],
      "stateMutability": "pure",
      "type": "function"
    },
    {
      "inputs": [],
      "name": "getMaxMintLock",
      "outputs": [
        {
          "internalType": "uint256",
          "name": "",
          "type": "uint256"
        }
      ],
      "stateMutability": "pure",
      "type": "function"
    },
    {
      "inputs": [
        {
          "internalType": "bytes32",
          "name": "_salt",
          "type": "bytes32"
        },
        {
          "internalType": "address",
          "name": "_factory",
          "type": "address"
        }
      ],
      "name": "getMetamorphicContractAddress",
      "outputs": [
        {
          "internalType": "address",
          "name": "",
          "type": "address"
        }
      ],
      "stateMutability": "pure",
      "type": "function"
    },
    {
      "inputs": [
        {
          "internalType": "uint256",
          "name": "tokenID_",
          "type": "uint256"
        }
      ],
      "name": "getPosition",
      "outputs": [
        {
          "internalType": "uint256",
          "name": "shares",
          "type": "uint256"
        },
        {
          "internalType": "uint256",
          "name": "freeAfter",
          "type": "uint256"
        },
        {
          "internalType": "uint256",
          "name": "withdrawFreeAfter",
          "type": "uint256"
        },
        {
          "internalType": "uint256",
          "name": "accumulatorEth",
          "type": "uint256"
        },
        {
          "internalType": "uint256",
          "name": "accumulatorToken",
          "type": "uint256"
        }
      ],
      "stateMutability": "view",
      "type": "function"
    },
    {
      "inputs": [],
      "name": "getTokenAccumulator",
      "outputs": [
        {
          "internalType": "uint256",
          "name": "accumulator",
          "type": "uint256"
        },
        {
          "internalType": "uint256",
          "name": "slush",
          "type": "uint256"
        }
      ],
      "stateMutability": "view",
      "type": "function"
    },
    {
      "inputs": [],
      "name": "getTotalReserveALCA",
      "outputs": [
        {
          "internalType": "uint256",
          "name": "",
          "type": "uint256"
        }
      ],
      "stateMutability": "view",
      "type": "function"
    },
    {
      "inputs": [],
      "name": "getTotalReserveEth",
      "outputs": [
        {
          "internalType": "uint256",
          "name": "",
          "type": "uint256"
        }
      ],
      "stateMutability": "view",
      "type": "function"
    },
    {
      "inputs": [],
      "name": "getTotalShares",
      "outputs": [
        {
          "internalType": "uint256",
          "name": "",
          "type": "uint256"
        }
      ],
      "stateMutability": "view",
      "type": "function"
    },
    {
      "inputs": [],
      "name": "initialize",
      "outputs": [],
      "stateMutability": "nonpayable",
      "type": "function"
    },
    {
      "inputs": [
        {
          "internalType": "address",
          "name": "owner",
          "type": "address"
        },
        {
          "internalType": "address",
          "name": "operator",
          "type": "address"
        }
      ],
      "name": "isApprovedForAll",
      "outputs": [
        {
          "internalType": "bool",
          "name": "",
          "type": "bool"
        }
      ],
      "stateMutability": "view",
      "type": "function"
    },
    {
      "inputs": [
        {
          "internalType": "uint256",
          "name": "tokenID_",
          "type": "uint256"
        },
        {
          "internalType": "uint256",
          "name": "lockDuration_",
          "type": "uint256"
        }
      ],
      "name": "lockOwnPosition",
      "outputs": [
        {
          "internalType": "uint256",
          "name": "",
          "type": "uint256"
        }
      ],
      "stateMutability": "nonpayable",
      "type": "function"
    },
    {
      "inputs": [
        {
          "internalType": "address",
          "name": "caller_",
          "type": "address"
        },
        {
          "internalType": "uint256",
          "name": "tokenID_",
          "type": "uint256"
        },
        {
          "internalType": "uint256",
          "name": "lockDuration_",
          "type": "uint256"
        }
      ],
      "name": "lockPosition",
      "outputs": [
        {
          "internalType": "uint256",
          "name": "",
          "type": "uint256"
        }
      ],
      "stateMutability": "nonpayable",
      "type": "function"
    },
    {
      "inputs": [
        {
          "internalType": "uint256",
          "name": "tokenID_",
          "type": "uint256"
        },
        {
          "internalType": "uint256",
          "name": "lockDuration_",
          "type": "uint256"
        }
      ],
      "name": "lockWithdraw",
      "outputs": [
        {
          "internalType": "uint256",
          "name": "",
          "type": "uint256"
        }
      ],
      "stateMutability": "nonpayable",
      "type": "function"
    },
    {
      "inputs": [
        {
          "internalType": "uint256",
          "name": "amount_",
          "type": "uint256"
        }
      ],
      "name": "mint",
      "outputs": [
        {
          "internalType": "uint256",
          "name": "tokenID",
          "type": "uint256"
        }
      ],
      "stateMutability": "nonpayable",
      "type": "function"
    },
    {
      "inputs": [
        {
          "internalType": "address",
          "name": "to_",
          "type": "address"
        },
        {
          "internalType": "uint256",
          "name": "amount_",
          "type": "uint256"
        },
        {
          "internalType": "uint256",
          "name": "lockDuration_",
          "type": "uint256"
        }
      ],
      "name": "mintTo",
      "outputs": [
        {
          "internalType": "uint256",
          "name": "tokenID",
          "type": "uint256"
        }
      ],
      "stateMutability": "nonpayable",
      "type": "function"
    },
    {
      "inputs": [],
      "name": "name",
      "outputs": [
        {
          "internalType": "string",
          "name": "",
          "type": "string"
        }
      ],
      "stateMutability": "view",
      "type": "function"
    },
    {
      "inputs": [
        {
          "internalType": "uint256",
          "name": "tokenId",
          "type": "uint256"
        }
      ],
      "name": "ownerOf",
      "outputs": [
        {
          "internalType": "address",
          "name": "",
          "type": "address"
        }
      ],
      "stateMutability": "view",
      "type": "function"
    },
    {
      "inputs": [
        {
          "internalType": "address",
          "name": "from",
          "type": "address"
        },
        {
          "internalType": "address",
          "name": "to",
          "type": "address"
        },
        {
          "internalType": "uint256",
          "name": "tokenId",
          "type": "uint256"
        }
      ],
      "name": "safeTransferFrom",
      "outputs": [],
      "stateMutability": "nonpayable",
      "type": "function"
    },
    {
      "inputs": [
        {
          "internalType": "address",
          "name": "from",
          "type": "address"
        },
        {
          "internalType": "address",
          "name": "to",
          "type": "address"
        },
        {
          "internalType": "uint256",
          "name": "tokenId",
          "type": "uint256"
        },
        {
          "internalType": "bytes",
          "name": "data",
          "type": "bytes"
        }
      ],
      "name": "safeTransferFrom",
      "outputs": [],
      "stateMutability": "nonpayable",
      "type": "function"
    },
    {
      "inputs": [
        {
          "internalType": "address",
          "name": "operator",
          "type": "address"
        },
        {
          "internalType": "bool",
          "name": "approved",
          "type": "bool"
        }
      ],
      "name": "setApprovalForAll",
      "outputs": [],
      "stateMutability": "nonpayable",
      "type": "function"
    },
    {
      "inputs": [
        {
          "internalType": "address",
          "name": "to_",
          "type": "address"
        }
      ],
      "name": "skimExcessEth",
      "outputs": [
        {
          "internalType": "uint256",
          "name": "excess",
          "type": "uint256"
        }
      ],
      "stateMutability": "nonpayable",
      "type": "function"
    },
    {
      "inputs": [
        {
          "internalType": "address",
          "name": "to_",
          "type": "address"
        }
      ],
      "name": "skimExcessToken",
      "outputs": [
        {
          "internalType": "uint256",
          "name": "excess",
          "type": "uint256"
        }
      ],
      "stateMutability": "nonpayable",
      "type": "function"
    },
    {
      "inputs": [
        {
          "internalType": "bytes4",
          "name": "interfaceId",
          "type": "bytes4"
        }
      ],
      "name": "supportsInterface",
      "outputs": [
        {
          "internalType": "bool",
          "name": "",
          "type": "bool"
        }
      ],
      "stateMutability": "view",
      "type": "function"
    },
    {
      "inputs": [],
      "name": "symbol",
      "outputs": [
        {
          "internalType": "string",
          "name": "",
          "type": "string"
        }
      ],
      "stateMutability": "view",
      "type": "function"
    },
    {
      "inputs": [
        {
          "internalType": "uint256",
          "name": "index",
          "type": "uint256"
        }
      ],
      "name": "tokenByIndex",
      "outputs": [
        {
          "internalType": "uint256",
          "name": "",
          "type": "uint256"
        }
      ],
      "stateMutability": "view",
      "type": "function"
    },
    {
      "inputs": [
        {
          "internalType": "address",
          "name": "owner",
          "type": "address"
        },
        {
          "internalType": "uint256",
          "name": "index",
          "type": "uint256"
        }
      ],
      "name": "tokenOfOwnerByIndex",
      "outputs": [
        {
          "internalType": "uint256",
          "name": "",
          "type": "uint256"
        }
      ],
      "stateMutability": "view",
      "type": "function"
    },
    {
      "inputs": [
        {
          "internalType": "uint256",
          "name": "tokenID_",
          "type": "uint256"
        }
      ],
      "name": "tokenURI",
      "outputs": [
        {
          "internalType": "string",
          "name": "",
          "type": "string"
        }
      ],
      "stateMutability": "view",
      "type": "function"
    },
    {
      "inputs": [],
      "name": "totalSupply",
      "outputs": [
        {
          "internalType": "uint256",
          "name": "",
          "type": "uint256"
        }
      ],
      "stateMutability": "view",
      "type": "function"
    },
    {
      "inputs": [
        {
          "internalType": "address",
          "name": "from",
          "type": "address"
        },
        {
          "internalType": "address",
          "name": "to",
          "type": "address"
        },
        {
          "internalType": "uint256",
          "name": "tokenId",
          "type": "uint256"
        }
      ],
      "name": "transferFrom",
      "outputs": [],
      "stateMutability": "nonpayable",
      "type": "function"
    },
    {
      "inputs": [],
      "name": "tripCB",
      "outputs": [],
      "stateMutability": "nonpayable",
      "type": "function"
    }
  ],
  "bytecode": "0x6101206040523480156200001257600080fd5b5033608052620000c86c15985b1a59185d1bdc941bdbdb609a1b6200003660805190565b6040517fff0000000000000000000000000000000000000000000000000000000000000060208201526001600160601b0319606083901b166021820152603581018390527f1c0bf703a3415cada9785e89e9d70314c3111ae7d8e04f33bb42eb1d264088be6055820181905260009160750160408051601f198184030181529190528051602090910120949350505050565b6001600160a01b0390811660a05260805160405163f39ec1f760e01b815263414c434160e01b600482015291169063f39ec1f790602401602060405180830381865afa1580156200011d573d6000803e3d6000fd5b505050506040513d601f19601f82011682018060405250810190620001439190620001b9565b6001600160a01b031660c0526200016b69476f7665726e616e636560b01b6200003660805190565b6001600160a01b031660e052620001a67f5374616b696e67506f736974696f6e44657363726970746f72000000000000006200003660805190565b6001600160a01b031661010052620001eb565b600060208284031215620001cc57600080fd5b81516001600160a01b0381168114620001e457600080fd5b9392505050565b60805160a05160c05160e05161010051615158620002b560003960006120fa015260008181610d4b0152610da6015260008181611b1d015281816128a30152818161304c0152818161322f015261353f01526000818161118e015281816111e90152818161136c015281816113c701528181611ea901528181611f04015281816122c0015261231b01526000818161175c015281816117b7015281816119310152818161198c01528181611cec01528181611d4701528181611f550152611fb001526151586000f3fe60806040526004361061033f5760003560e01c80638129fc1c116101b0578063a22cb465116100ec578063d5002f2e11610095578063e985e9c51161006f578063e985e9c5146109b5578063ea785a5e146109fe578063eb02c30114610a1e578063f44d258b14610a6657600080fd5b8063d5002f2e14610960578063e35c3e2814610975578063e42a673c1461099557600080fd5b8063be444379116100c6578063be44437914610908578063c47c6e1414610928578063c87b56dd1461094057600080fd5b8063a22cb465146108b3578063adfdc03f146108d3578063b88d4fde146108e857600080fd5b8063905953ed11610159578063971b505b11610133578063971b505b14610845578063997851321461086557806399a89ecc14610880578063a0712d681461089357600080fd5b8063905953ed146107fb57806393c5748d1461081057806395d89b411461083057600080fd5b80638653a4651161018a5780638653a465146106e05780638853b950146107c357806389465c62146107e357600080fd5b80638129fc1c1461068b5780638191f5e5146106a05780638303fef7146106c057600080fd5b80632baf2acb1161027f5780634f6ccce7116102285780636352211e116102025780636352211e1461061657806370a082311461063657806379bb0985146106565780637aa507fb1461066b57600080fd5b80634f6ccce7146105be5780634fc8638f146105de578063548652d2146105fe57600080fd5b80633eed3eff116102595780633eed3eff1461056957806342842e0e1461057e57806342966c681461059e57600080fd5b80632baf2acb146105145780632f745c59146105345780633d8fe8791461055457600080fd5b80630df4b2dd116102ec57806319b8be2f116102c657806319b8be2f1461049f57806320ea0d48146104b457806323b872dd146104d45780632a0d8bd1146104f457600080fd5b80630df4b2dd146104355780630e4eb15b1461046a57806318160ddd1461048a57600080fd5b8063090f70f01161031d578063090f70f0146103d3578063095ea7b3146103f35780630cc65dfb1461041557600080fd5b806301ffc9a71461034457806306fdde0314610379578063081812fc1461039b575b600080fd5b34801561035057600080fd5b5061036461035f366004614967565b610a7c565b60405190151581526020015b60405180910390f35b34801561038557600080fd5b5061038e610ad8565b60405161037091906149f2565b3480156103a757600080fd5b506103bb6103b6366004614a05565b610b6a565b6040516001600160a01b039091168152602001610370565b3480156103df57600080fd5b5062100a405b604051908152602001610370565b3480156103ff57600080fd5b5061041361040e366004614a35565b610b91565b005b34801561042157600080fd5b506103e5610430366004614a5f565b610cfb565b34801561044157600080fd5b50610455610450366004614a05565b610e79565b60408051928352602083019190915201610370565b34801561047657600080fd5b506103e5610485366004614a92565b610e99565b34801561049657600080fd5b506099546103e5565b3480156104ab57600080fd5b5060d1546103e5565b3480156104c057600080fd5b506103e56104cf366004614a05565b610f7a565b3480156104e057600080fd5b506104136104ef366004614ab4565b611091565b34801561050057600080fd5b506103e561050f366004614a05565b611132565b34801561052057600080fd5b506103e561052f366004614a5f565b61113e565b34801561054057600080fd5b506103e561054f366004614a35565b611277565b34801561056057600080fd5b5060d2546103e5565b34801561057557600080fd5b506103e5611339565b34801561058a57600080fd5b50610413610599366004614ab4565b611343565b3480156105aa57600080fd5b506104556105b9366004614a05565b61135e565b3480156105ca57600080fd5b506103e56105d9366004614a05565b611408565b3480156105ea57600080fd5b506104556105f9366004614a05565b6114c6565b34801561060a57600080fd5b5060ce5460cf54610455565b34801561062257600080fd5b506103bb610631366004614a05565b61160c565b34801561064257600080fd5b506103e5610651366004614af0565b61168b565b34801561066257600080fd5b506103e561173f565b34801561067757600080fd5b506103e5610686366004614af0565b61174f565b34801561069757600080fd5b50610413611802565b3480156106ac57600080fd5b506104136106bb366004614b1c565b611a93565b3480156106cc57600080fd5b506104556106db366004614a35565b611b91565b3480156106ec57600080fd5b506103bb6106fb366004614b38565b6040517fff0000000000000000000000000000000000000000000000000000000000000060208201527fffffffffffffffffffffffffffffffffffffffff000000000000000000000000606083901b166021820152603581018390527f1c0bf703a3415cada9785e89e9d70314c3111ae7d8e04f33bb42eb1d264088be60558201819052600091607501604080517fffffffffffffffffffffffffffffffffffffffffffffffffffffffffffffffe08184030181529190528051602090910120949350505050565b3480156107cf57600080fd5b506103e56107de366004614a35565b611bb3565b3480156107ef57600080fd5b5060c95460ff16610364565b34801561080757600080fd5b506103e5611bbf565b34801561081c57600080fd5b506103e561082b366004614a05565b611bc9565b34801561083c57600080fd5b5061038e611cd0565b34801561085157600080fd5b506103e5610860366004614af0565b611cdf565b34801561087157600080fd5b50670de0b6b3a76400006103e5565b61041361088e366004614b64565b611d88565b34801561089f57600080fd5b506103e56108ae366004614a05565b611e59565b3480156108bf57600080fd5b506104136108ce366004614b8d565b611f3b565b3480156108df57600080fd5b50610413611f4a565b3480156108f457600080fd5b50610413610903366004614c88565b611fe7565b34801561091457600080fd5b506103e5610923366004614a35565b61208f565b34801561093457600080fd5b5060cc5460cd54610455565b34801561094c57600080fd5b5061038e61095b366004614a05565b61209b565b34801561096c57600080fd5b5060cb546103e5565b34801561098157600080fd5b506103e5610990366004614a05565b6121c5565b3480156109a157600080fd5b506103e56109b0366004614a92565b6121d1565b3480156109c157600080fd5b506103646109d0366004614d33565b6001600160a01b039182166000908152606a6020908152604080832093909416825291909152205460ff1690565b348015610a0a57600080fd5b50610455610a19366004614a35565b6122b2565b348015610a2a57600080fd5b50610a3e610a39366004614a05565b61235e565b604080519586526020860194909452928401919091526060830152608082015260a001610370565b348015610a7257600080fd5b506202a3006103e5565b60007fffffffff0000000000000000000000000000000000000000000000000000000082167f780e9d63000000000000000000000000000000000000000000000000000000001480610ad25750610ad28261245f565b92915050565b606060658054610ae790614d5d565b80601f0160208091040260200160405190810160405280929190818152602001828054610b1390614d5d565b8015610b605780601f10610b3557610100808354040283529160200191610b60565b820191906000526020600020905b815481529060010190602001808311610b4357829003601f168201915b5050505050905090565b6000610b7582612542565b506000908152606960205260409020546001600160a01b031690565b6000610b9c8261160c565b9050806001600160a01b0316836001600160a01b031603610c44576040517f08c379a000000000000000000000000000000000000000000000000000000000815260206004820152602160248201527f4552433732313a20617070726f76616c20746f2063757272656e74206f776e6560448201527f720000000000000000000000000000000000000000000000000000000000000060648201526084015b60405180910390fd5b336001600160a01b0382161480610c605750610c6081336109d0565b610cec576040517f08c379a000000000000000000000000000000000000000000000000000000000815260206004820152603d60248201527f4552433732313a20617070726f76652063616c6c6572206973206e6f7420746f60448201527f6b656e206f776e6572206f7220617070726f76656420666f7220616c6c0000006064820152608401610c3b565b610cf683836125c0565b505050565b60c95460009060ff16151560001901610d40576040517f19efee7900000000000000000000000000000000000000000000000000000000815260040160405180910390fd5b336001600160a01b037f00000000000000000000000000000000000000000000000000000000000000001614610dd3576040517f4cb12bb90000000000000000000000000000000000000000000000000000000081523360048201526001600160a01b037f0000000000000000000000000000000000000000000000000000000000000000166024820152604401610c3b565b610ddc8361160c565b6001600160a01b0316846001600160a01b031614610e28576040517fc9c0713c000000000000000000000000000000000000000000000000000000008152336004820152602401610c3b565b6202a300821115610e65576040517f2d2e18e400000000000000000000000000000000000000000000000000000000815260040160405180910390fd5b610e6f8383612646565b90505b9392505050565b600080610e8633846127e5565b9050610e9233846128c9565b9150915091565b60c95460009060ff16151560001901610ede576040517f19efee7900000000000000000000000000000000000000000000000000000000815260040160405180910390fd5b610ee78361160c565b6001600160a01b0316336001600160a01b031614610f33576040517fc9c0713c000000000000000000000000000000000000000000000000000000008152336004820152602401610c3b565b6202a300821115610f70576040517f2d2e18e400000000000000000000000000000000000000000000000000000000815260040160405180910390fd5b610e72838361298c565b60008181526067602052604081205482906001600160a01b0316610fcd576040517fed15e6cf00000000000000000000000000000000000000000000000000000000815260048101829052602401610c3b565b600083815260d06020908152604091829020825160a08101845281547bffffffffffffffffffffffffffffffffffffffffffffffffffffffff811682527c0100000000000000000000000000000000000000000000000000000000900463ffffffff16818401526001820154818501526002820154606082019081526003909201546080820152835180850190945260ce54845260cf549284019290925260cb54905191929161108290829084908690612b19565b97505050505050505b50919050565b61109b3382612c9a565b611127576040517f08c379a000000000000000000000000000000000000000000000000000000000815260206004820152602d60248201527f4552433732313a2063616c6c6572206973206e6f7420746f6b656e206f776e6560448201527f72206f7220617070726f766564000000000000000000000000000000000000006064820152608401610c3b565b610cf6838383612d19565b6000610ad233836128c9565b60c95460009060ff16151560001901611183576040517f19efee7900000000000000000000000000000000000000000000000000000000815260040160405180910390fd5b336001600160a01b037f00000000000000000000000000000000000000000000000000000000000000001614611216576040517fb3e83aba0000000000000000000000000000000000000000000000000000000081523360048201526001600160a01b037f0000000000000000000000000000000000000000000000000000000000000000166024820152604401610c3b565b62100a40821115611253576040517f4125ab7600000000000000000000000000000000000000000000000000000000815260040160405180910390fd5b61125d8484612fb5565b90508115610e725761126f8183612646565b509392505050565b60006112828361168b565b8210611310576040517f08c379a000000000000000000000000000000000000000000000000000000000815260206004820152602b60248201527f455243373231456e756d657261626c653a206f776e657220696e646578206f7560448201527f74206f6620626f756e64730000000000000000000000000000000000000000006064820152608401610c3b565b506001600160a01b03919091166000908152609760209081526040808320938352929052205490565b6000610ad2613225565b610cf683838360405180602001604052806000815250611fe7565b600080336001600160a01b037f000000000000000000000000000000000000000000000000000000000000000016146113f4576040517fb3e83aba0000000000000000000000000000000000000000000000000000000081523360048201526001600160a01b037f0000000000000000000000000000000000000000000000000000000000000000166024820152604401610c3b565b6113ff33338561332d565b91509150915091565b600061141360995490565b82106114a1576040517f08c379a000000000000000000000000000000000000000000000000000000000815260206004820152602c60248201527f455243373231456e756d657261626c653a20676c6f62616c20696e646578206f60448201527f7574206f6620626f756e647300000000000000000000000000000000000000006064820152608401610c3b565b609982815481106114b4576114b4614daa565b90600052602060002001549050919050565b600081815260676020526040812054819083906001600160a01b031661151b576040517fed15e6cf00000000000000000000000000000000000000000000000000000000815260048101829052602401610c3b565b600084815260d06020908152604091829020825160a08101845281547bffffffffffffffffffffffffffffffffffffffffffffffffffffffff811682527c0100000000000000000000000000000000000000000000000000000000900463ffffffff1681840152600182015481850152600282015460608201908152600390920154608082015260cb54845180860190955260ce54855260cf5493850193909352905190926115ce918391908590612b19565b6040805180820190915260cc54815260cd54602082015260808701519199506115fe945085935091508590612b19565b979997985050505050505050565b6000818152606760205260408120546001600160a01b031680610ad2576040517f08c379a000000000000000000000000000000000000000000000000000000000815260206004820152601860248201527f4552433732313a20696e76616c696420746f6b656e20494400000000000000006044820152606401610c3b565b60006001600160a01b038216611723576040517f08c379a000000000000000000000000000000000000000000000000000000000815260206004820152602960248201527f4552433732313a2061646472657373207a65726f206973206e6f74206120766160448201527f6c6964206f776e657200000000000000000000000000000000000000000000006064820152608401610c3b565b506001600160a01b031660009081526068602052604090205490565b600061174a60ca5490565b905090565b6000336001600160a01b037f000000000000000000000000000000000000000000000000000000000000000016146117e4576040517f0f634fbe0000000000000000000000000000000000000000000000000000000081523360048201526001600160a01b037f0000000000000000000000000000000000000000000000000000000000000000166024820152604401610c3b565b60006117ee613225565b9250905061108b818484613579565b919050565b600054610100900460ff16158080156118225750600054600160ff909116105b8061183c5750303b15801561183c575060005460ff166001145b6118c8576040517f08c379a000000000000000000000000000000000000000000000000000000000815260206004820152602e60248201527f496e697469616c697a61626c653a20636f6e747261637420697320616c72656160448201527f647920696e697469616c697a65640000000000000000000000000000000000006064820152608401610c3b565b600080547fffffffffffffffffffffffffffffffffffffffffffffffffffffffffffffff00166001179055801561192657600080547fffffffffffffffffffffffffffffffffffffffffffffffffffffffffffff00ff166101001790555b336001600160a01b037f000000000000000000000000000000000000000000000000000000000000000016146119b9576040517f0f634fbe0000000000000000000000000000000000000000000000000000000081523360048201526001600160a01b037f0000000000000000000000000000000000000000000000000000000000000000166024820152604401610c3b565b611a2d6040518060400160405280600681526020017f4156534e465400000000000000000000000000000000000000000000000000008152506040518060400160405280600381526020017f41565300000000000000000000000000000000000000000000000000000000008152506136af565b8015611a9057600080547fffffffffffffffffffffffffffffffffffffffffffffffffffffffffffff00ff169055604051600181527f7f26b83ff96e1f2b6a682f133852f6798a09c465da95921460cefb38474024989060200160405180910390a15b50565b60c95460ff16151560001901611ad5576040517f19efee7900000000000000000000000000000000000000000000000000000000815260040160405180910390fd5b8160ff8116602a14611b18576040517fe25155e900000000000000000000000000000000000000000000000000000000815260ff82166004820152602401610c3b565b611b447f00000000000000000000000000000000000000000000000000000000000000005b3384613750565b6040805180820190915260cc54815260cd546020820152611b6690839061388c565b805160cc556020015160cd5560d28054839190600090611b87908490614e08565b9091555050505050565b600080611b9e84846127e5565b9050611baa84846128c9565b91509250929050565b6000610e7283836127e5565b600061174a613920565b60008181526067602052604081205482906001600160a01b0316611c1c576040517fed15e6cf00000000000000000000000000000000000000000000000000000000815260048101829052602401610c3b565b600083815260d06020908152604091829020825160a08101845281547bffffffffffffffffffffffffffffffffffffffffffffffffffffffff811682527c0100000000000000000000000000000000000000000000000000000000900463ffffffff1681840152600182015481850152600282015460608201526003909101546080820190815260cb54845180860190955260cc54855260cd54938501939093525190929061108290839083908690612b19565b606060668054610ae790614d5d565b6000336001600160a01b037f00000000000000000000000000000000000000000000000000000000000000001614611d74576040517f0f634fbe0000000000000000000000000000000000000000000000000000000081523360048201526001600160a01b037f0000000000000000000000000000000000000000000000000000000000000000166024820152604401610c3b565b611d7c613920565b90506117fd828261397c565b60c95460ff16151560001901611dca576040517f19efee7900000000000000000000000000000000000000000000000000000000815260040160405180910390fd5b8060ff8116602a14611e0d576040517fe25155e900000000000000000000000000000000000000000000000000000000815260ff82166004820152602401610c3b565b6040805180820190915260ce54815260cf546020820152611e2f90349061388c565b805160ce556020015160cf5560d18054349190600090611e50908490614e08565b90915550505050565b60c95460009060ff16151560001901611e9e576040517f19efee7900000000000000000000000000000000000000000000000000000000815260040160405180910390fd5b336001600160a01b037f00000000000000000000000000000000000000000000000000000000000000001614611f31576040517fb3e83aba0000000000000000000000000000000000000000000000000000000081523360048201526001600160a01b037f0000000000000000000000000000000000000000000000000000000000000000166024820152604401610c3b565b610ad23383612fb5565b611f46338383613a6d565b5050565b336001600160a01b037f00000000000000000000000000000000000000000000000000000000000000001614611fdd576040517f0f634fbe0000000000000000000000000000000000000000000000000000000081523360048201526001600160a01b037f0000000000000000000000000000000000000000000000000000000000000000166024820152604401610c3b565b611fe5613b73565b565b611ff13383612c9a565b61207d576040517f08c379a000000000000000000000000000000000000000000000000000000000815260206004820152602d60248201527f4552433732313a2063616c6c6572206973206e6f7420746f6b656e206f776e6560448201527f72206f7220617070726f766564000000000000000000000000000000000000006064820152608401610c3b565b61208984848484613be2565b50505050565b6000610e7283836128c9565b6060816120bf816000908152606760205260409020546001600160a01b0316151590565b6120f8576040517fed15e6cf00000000000000000000000000000000000000000000000000000000815260048101829052602401610c3b565b7f00000000000000000000000000000000000000000000000000000000000000006040517fe9dc6375000000000000000000000000000000000000000000000000000000008152306004820152602481018590526001600160a01b03919091169063e9dc637590604401600060405180830381865afa15801561217f573d6000803e3d6000fd5b505050506040513d6000823e601f3d9081017fffffffffffffffffffffffffffffffffffffffffffffffffffffffffffffffe0168201604052610e729190810190614e1b565b6000610ad233836127e5565b60c95460009060ff16151560001901612216576040517f19efee7900000000000000000000000000000000000000000000000000000000815260040160405180910390fd5b61221f8361160c565b6001600160a01b0316336001600160a01b03161461226b576040517fc9c0713c000000000000000000000000000000000000000000000000000000008152336004820152602401610c3b565b6202a3008211156122a8576040517f2d2e18e400000000000000000000000000000000000000000000000000000000815260040160405180910390fd5b610e728383612646565b600080336001600160a01b037f00000000000000000000000000000000000000000000000000000000000000001614612348576040517fb3e83aba0000000000000000000000000000000000000000000000000000000081523360048201526001600160a01b037f0000000000000000000000000000000000000000000000000000000000000000166024820152604401610c3b565b61235333858561332d565b915091509250929050565b600080600080600085612388816000908152606760205260409020546001600160a01b0316151590565b6123c1576040517fed15e6cf00000000000000000000000000000000000000000000000000000000815260048101829052602401610c3b565b5050506000938452505060d06020908152604092839020835160a08101855281547bffffffffffffffffffffffffffffffffffffffffffffffffffffffff81168083527c010000000000000000000000000000000000000000000000000000000090910463ffffffff169382018490526001830154958201869052600283015460608301819052600390930154608090920182905295929493509091565b60007fffffffff0000000000000000000000000000000000000000000000000000000082167f80ac58cd0000000000000000000000000000000000000000000000000000000014806124f257507fffffffff0000000000000000000000000000000000000000000000000000000082167f5b5e139f00000000000000000000000000000000000000000000000000000000145b80610ad257507f01ffc9a7000000000000000000000000000000000000000000000000000000007fffffffff00000000000000000000000000000000000000000000000000000000831614610ad2565b6000818152606760205260409020546001600160a01b0316611a90576040517f08c379a000000000000000000000000000000000000000000000000000000000815260206004820152601860248201527f4552433732313a20696e76616c696420746f6b656e20494400000000000000006044820152606401610c3b565b600081815260696020526040902080547fffffffffffffffffffffffff0000000000000000000000000000000000000000166001600160a01b038416908117909155819061260d8261160c565b6001600160a01b03167f8c5be1e5ebec7d5bd14f71427d1e84f3dd0314c0f7b2291e5b200ac8c7c3b92560405160405180910390a45050565b60008281526067602052604081205483906001600160a01b0316612699576040517fed15e6cf00000000000000000000000000000000000000000000000000000000815260048101829052602401610c3b565b600084815260d060209081526040808320815160a08101835281547bffffffffffffffffffffffffffffffffffffffffffffffffffffffff811682527c0100000000000000000000000000000000000000000000000000000000900463ffffffff1693810193909352600181015491830191909152600281015460608301526003015460808201529061272c8543614e92565b9050816020015163ffffffff168163ffffffff161161274f578160200151612751565b805b63ffffffff9081166020808501918252600089815260d0909152604090819020855192519093167c0100000000000000000000000000000000000000000000000000000000027bffffffffffffffffffffffffffffffffffffffffffffffffffffffff90921691821783558401516001830155606084015160028301556080909301516003909101555091505b5092915050565b6000806127f183613c85565b90506127ff60cb5482613df4565b600085815260d06020908152604080832085519286015163ffffffff167c0100000000000000000000000000000000000000000000000000000000027bffffffffffffffffffffffffffffffffffffffffffffffffffffffff90931692909217825584015160018201556060840151600282015560809093015160039093019290925560d2805491945084929091612898908490614eaf565b909155506127de90507f00000000000000000000000000000000000000000000000000000000000000008584613579565b6000806128d583613c85565b90506128e360cb5482613e99565b600085815260d06020908152604080832085519286015163ffffffff167c0100000000000000000000000000000000000000000000000000000000027bffffffffffffffffffffffffffffffffffffffffffffffffffffffff90931692909217825584015160018201556060840151600282015560809093015160039093019290925560d180549194508492909161297c908490614eaf565b909155506127de9050848361397c565b60008281526067602052604081205483906001600160a01b03166129df576040517fed15e6cf00000000000000000000000000000000000000000000000000000000815260048101829052602401610c3b565b600084815260d060209081526040808320815160a08101835281547bffffffffffffffffffffffffffffffffffffffffffffffffffffffff811682527c0100000000000000000000000000000000000000000000000000000000900463ffffffff16938101939093526001810154918301919091526002810154606083015260030154608082015290612a728543614e08565b905081604001518111612a89578160400151612a8b565b805b6040808401918252600088815260d0602090815291902084519185015163ffffffff167c0100000000000000000000000000000000000000000000000000000000027bffffffffffffffffffffffffffffffffffffffffffffffffffffffff909216918217815591516001830155606084015160028301556080909301516003909101555091505092915050565b60408051808201825260008082526020808301829052835160a08101855282815290810182905292830181905260608301819052608083015290600080612b698888600001518960200151613f3e565b6020890152808852600090861115612bb557612b9b867501000000000000000000000000000000000000000000614eaf565b8851909150612baa9082614e08565b885196509050612bd1565b8751612bc2908790614eaf565b9050612bce8187614e08565b95505b8651600090612bfe907bffffffffffffffffffffffffffffffffffffffffffffffffffffffff1683614ec2565b88519091507bffffffffffffffffffffffffffffffffffffffffffffffffffffffff168a03612c40576020890151612c369082614e08565b600060208b015290505b80612c53670de0b6b3a764000082614f10565b9150612c67670de0b6b3a764000083614ec2565b612c719082614eaf565b9050808a602001818151612c859190614e08565b905250989a9799509597509495945050505050565b600080612ca68361160c565b9050806001600160a01b0316846001600160a01b03161480612ced57506001600160a01b038082166000908152606a602090815260408083209388168352929052205460ff165b80612d115750836001600160a01b0316612d0684610b6a565b6001600160a01b0316145b949350505050565b826001600160a01b0316612d2c8261160c565b6001600160a01b031614612dc2576040517f08c379a000000000000000000000000000000000000000000000000000000000815260206004820152602560248201527f4552433732313a207472616e736665722066726f6d20696e636f72726563742060448201527f6f776e65720000000000000000000000000000000000000000000000000000006064820152608401610c3b565b6001600160a01b038216612e57576040517f08c379a0000000000000000000000000000000000000000000000000000000008152602060048201526024808201527f4552433732313a207472616e7366657220746f20746865207a65726f2061646460448201527f72657373000000000000000000000000000000000000000000000000000000006064820152608401610c3b565b612e648383836001613fc3565b826001600160a01b0316612e778261160c565b6001600160a01b031614612f0d576040517f08c379a000000000000000000000000000000000000000000000000000000000815260206004820152602560248201527f4552433732313a207472616e736665722066726f6d20696e636f72726563742060448201527f6f776e65720000000000000000000000000000000000000000000000000000006064820152608401610c3b565b600081815260696020908152604080832080547fffffffffffffffffffffffff00000000000000000000000000000000000000009081169091556001600160a01b0387811680865260688552838620805460001901905590871680865283862080546001019055868652606790945282852080549092168417909155905184937fddf252ad1be2c89b69c2b068fc378daa952ba7f163c4a11628f55a4df523b3ef91a4505050565b600081600003612ff1576040517f39d7ecde00000000000000000000000000000000000000000000000000000000815260040160405180910390fd5b7bffffffffffffffffffffffffffffffffffffffffffffffffffffffff821115613047576040517fa06d76af00000000000000000000000000000000000000000000000000000000815260040160405180910390fd5b6130707f0000000000000000000000000000000000000000000000000000000000000000611b3d565b60cb5460408051808201825260ce54815260cf54602080830191909152825180840190935260cc54835260cd5490830152906130aa614125565b935082156130fe576130c58383600001518460200151613f3e565b602080850182905282855260ce9290925560cf558151908201516130ea918591613f3e565b6020830181905281835260cc9190915560cd555b6131088584614e08565b60cb8190556040805160a081019091527bffffffffffffffffffffffffffffffffffffffffffffffffffffffff871681529093506020810161314b436001614e92565b63ffffffff168152602001613161436001614e92565b63ffffffff908116825284516020808401919091528451604093840152600088815260d082528381208551928601519093167c0100000000000000000000000000000000000000000000000000000000027bffffffffffffffffffffffffffffffffffffffffffffffffffffffff9092169190911782559183015160018201556060830151600282015560809092015160039092019190915560d2805487929061320c908490614e08565b9091555061321c9050868561413d565b50505092915050565b60d25460009081907f00000000000000000000000000000000000000000000000000000000000000006040517f70a082310000000000000000000000000000000000000000000000000000000081523060048201529093506000906001600160a01b038516906370a0823190602401602060405180830381865afa1580156132b1573d6000803e3d6000fd5b505050506040513d601f19601f820116820180604052508101906132d59190614f24565b90508181101561331b576040517f22f7c7fc0000000000000000000000000000000000000000000000000000000081526004810182905260248101839052604401610c3b565b6133258282614eaf565b925050509091565b6000806133398361160c565b6001600160a01b0316856001600160a01b031614613385576040517fc9c0713c000000000000000000000000000000000000000000000000000000008152336004820152602401610c3b565b600083815260d06020908152604091829020825160a08101845281547bffffffffffffffffffffffffffffffffffffffffffffffffffffffff811682527c0100000000000000000000000000000000000000000000000000000000900463ffffffff16928101839052600182015493810193909352600281015460608401526003015460808301524311158061341f575043816040015110155b15613456576040517fd9b3656c00000000000000000000000000000000000000000000000000000000815260040160405180910390fd5b60cb546134638183613e99565b945091506134718183613df4565b81519094509092506134a1907bffffffffffffffffffffffffffffffffffffffffffffffffffffffff1684614e08565b925081600001517bffffffffffffffffffffffffffffffffffffffffffffffffffffffff1660cb60008282546134d79190614eaf565b925050819055508260d260008282546134f09190614eaf565b925050819055508360d160008282546135099190614eaf565b9091555050600085815260d06020526040812081815560018101829055600281018290556003015561353a8561433c565b6135657f00000000000000000000000000000000000000000000000000000000000000008785613579565b61356f868561397c565b5050935093915050565b8060000361358657505050565b6001600160a01b0383166135c6576040517f2518928d00000000000000000000000000000000000000000000000000000000815260040160405180910390fd5b6040517fa9059cbb0000000000000000000000000000000000000000000000000000000081526001600160a01b038381166004830152602482018390526000919085169063a9059cbb906044016020604051808303816000875af1158015613632573d6000803e3d6000fd5b505050506040513d601f19601f820116820180604052508101906136569190614f3d565b905080612089576040517ff0798c510000000000000000000000000000000000000000000000000000000081526001600160a01b0380861660048301523060248301528416604482015260648101839052608401610c3b565b600054610100900460ff16613746576040517f08c379a000000000000000000000000000000000000000000000000000000000815260206004820152602b60248201527f496e697469616c697a61626c653a20636f6e7472616374206973206e6f74206960448201527f6e697469616c697a696e670000000000000000000000000000000000000000006064820152608401610c3b565b611f4682826143f7565b8060000361375d57505050565b6001600160a01b03831661379d576040517f2518928d00000000000000000000000000000000000000000000000000000000815260040160405180910390fd5b6040517f23b872dd0000000000000000000000000000000000000000000000000000000081526001600160a01b03838116600483015230602483015260448201839052600091908516906323b872dd906064016020604051808303816000875af115801561380f573d6000803e3d6000fd5b505050506040513d601f19601f820116820180604052508101906138339190614f3d565b905080612089576040517ff0798c510000000000000000000000000000000000000000000000000000000081526001600160a01b0380861660048301528416602482015230604482015260648101839052608401610c3b565b60408051808201909152600080825260208201526138b2670de0b6b3a764000084614ec2565b826020018181516138c39190614e08565b9052506020820151748000000000000000000000000000000000000000001161108b5781602001516040517faabd6b93000000000000000000000000000000000000000000000000000000008152600401610c3b91815260200190565b60d154600090478181101561396b576040517f22f7c7fc0000000000000000000000000000000000000000000000000000000081526004810182905260248101839052604401610c3b565b6139758282614eaf565b9250505090565b80600003613988575050565b6001600160a01b0382166139c8576040517f6f5ec9ea00000000000000000000000000000000000000000000000000000000815260040160405180910390fd5b60405182906000906001600160a01b0383169084908381818185875af1925050503d8060008114613a15576040519150601f19603f3d011682016040523d82523d6000602084013e613a1a565b606091505b5050905080612089576040517fb25006630000000000000000000000000000000000000000000000000000000081523060048201526001600160a01b038516602482015260448101849052606401610c3b565b816001600160a01b0316836001600160a01b031603613ae8576040517f08c379a000000000000000000000000000000000000000000000000000000000815260206004820152601960248201527f4552433732313a20617070726f766520746f2063616c6c6572000000000000006044820152606401610c3b565b6001600160a01b038381166000818152606a602090815260408083209487168084529482529182902080547fffffffffffffffffffffffffffffffffffffffffffffffffffffffffffffff001686151590811790915591519182527f17307eab39ab6107e8899845ad3d59bd9653f200f220920489ca2b5937696c31910160405180910390a3505050565b60c95460ff16151560001901613bb5576040517f19efee7900000000000000000000000000000000000000000000000000000000815260040160405180910390fd5b60c980547fffffffffffffffffffffffffffffffffffffffffffffffffffffffffffffff00166001179055565b613bed848484612d19565b613bf984848484614498565b612089576040517f08c379a000000000000000000000000000000000000000000000000000000000815260206004820152603260248201527f4552433732313a207472616e7366657220746f206e6f6e20455243373231526560448201527f63656976657220696d706c656d656e74657200000000000000000000000000006064820152608401610c3b565b613cdb6040518060a0016040528060007bffffffffffffffffffffffffffffffffffffffffffffffffffffffff168152602001600063ffffffff1681526020016000815260200160008152602001600081525090565b6000613ce68361160c565b9050336001600160a01b03821614613d2c576040517fc9c0713c000000000000000000000000000000000000000000000000000000008152336004820152602401610c3b565b600083815260d060208181526040808420815160a08101835281547bffffffffffffffffffffffffffffffffffffffffffffffffffffffff811682527c0100000000000000000000000000000000000000000000000000000000900463ffffffff1681850152600182015492810183905260028201546060820152600390910154608082015293879052919052909250431161108b576040517f30693fbd00000000000000000000000000000000000000000000000000000000815260040160405180910390fd5b613e4a6040518060a0016040528060007bffffffffffffffffffffffffffffffffffffffffffffffffffffffff168152602001600063ffffffff1681526020016000815260200160008152602001600081525090565b6040805180820190915260cc54815260cd54602082015260808301516000918291613e7a90879083908890612b19565b835160cc5560209093015160cd55608082015297909650945050505050565b613eef6040518060a0016040528060007bffffffffffffffffffffffffffffffffffffffffffffffffffffffff168152602001600063ffffffff1681526020016000815260200160008152602001600081525090565b6040805180820190915260ce54815260cf54602082015260608301516000918291613f1f90879083908890612b19565b835160ce5560209093015160cf55606082015297909650945050505050565b6000808415613fb9576000613f538685614f10565b9050613f5f8682614ec2565b613f699085614eaf565b9350613f758186614e08565b945074ffffffffffffffffffffffffffffffffffffffffff851115613fb757613fb4750100000000000000000000000000000000000000000086614f5a565b94505b505b5091939092509050565b613fcf84848484614671565b6001811115614060576040517f08c379a000000000000000000000000000000000000000000000000000000000815260206004820152603560248201527f455243373231456e756d657261626c653a20636f6e736563757469766520747260448201527f616e7366657273206e6f7420737570706f7274656400000000000000000000006064820152608401610c3b565b816001600160a01b0385166140bc576140b781609980546000838152609a60205260408120829055600182018355919091527f72a152ddfb8e864297c917af52ea6c1c68aead0fee1a62673fcc7e0c94979d000155565b6140df565b836001600160a01b0316856001600160a01b0316146140df576140df85826146f9565b6001600160a01b0384166140fb576140f681614796565b61411e565b846001600160a01b0316846001600160a01b03161461411e5761411e8482614845565b5050505050565b60ca54614133600182614e08565b60ca819055919050565b6001600160a01b0382166141ad576040517f08c379a000000000000000000000000000000000000000000000000000000000815260206004820181905260248201527f4552433732313a206d696e7420746f20746865207a65726f20616464726573736044820152606401610c3b565b6000818152606760205260409020546001600160a01b03161561422c576040517f08c379a000000000000000000000000000000000000000000000000000000000815260206004820152601c60248201527f4552433732313a20746f6b656e20616c7265616479206d696e746564000000006044820152606401610c3b565b61423a600083836001613fc3565b6000818152606760205260409020546001600160a01b0316156142b9576040517f08c379a000000000000000000000000000000000000000000000000000000000815260206004820152601c60248201527f4552433732313a20746f6b656e20616c7265616479206d696e746564000000006044820152606401610c3b565b6001600160a01b038216600081815260686020908152604080832080546001019055848352606790915280822080547fffffffffffffffffffffffff0000000000000000000000000000000000000000168417905551839291907fddf252ad1be2c89b69c2b068fc378daa952ba7f163c4a11628f55a4df523b3ef908290a45050565b60006143478261160c565b9050614357816000846001613fc3565b6143608261160c565b600083815260696020908152604080832080547fffffffffffffffffffffffff00000000000000000000000000000000000000009081169091556001600160a01b0385168085526068845282852080546000190190558785526067909352818420805490911690555192935084927fddf252ad1be2c89b69c2b068fc378daa952ba7f163c4a11628f55a4df523b3ef908390a45050565b600054610100900460ff1661448e576040517f08c379a000000000000000000000000000000000000000000000000000000000815260206004820152602b60248201527f496e697469616c697a61626c653a20636f6e7472616374206973206e6f74206960448201527f6e697469616c697a696e670000000000000000000000000000000000000000006064820152608401610c3b565b611f468282614889565b60006001600160a01b0384163b15614666576040517f150b7a020000000000000000000000000000000000000000000000000000000081526001600160a01b0385169063150b7a02906144f5903390899088908890600401614f6e565b6020604051808303816000875af192505050801561454e575060408051601f3d9081017fffffffffffffffffffffffffffffffffffffffffffffffffffffffffffffffe016820190925261454b91810190614faa565b60015b61461b573d80801561457c576040519150601f19603f3d011682016040523d82523d6000602084013e614581565b606091505b508051600003614613576040517f08c379a000000000000000000000000000000000000000000000000000000000815260206004820152603260248201527f4552433732313a207472616e7366657220746f206e6f6e20455243373231526560448201527f63656976657220696d706c656d656e74657200000000000000000000000000006064820152608401610c3b565b805181602001fd5b7fffffffff00000000000000000000000000000000000000000000000000000000167f150b7a0200000000000000000000000000000000000000000000000000000000149050612d11565b506001949350505050565b6001811115612089576001600160a01b038416156146b7576001600160a01b038416600090815260686020526040812080548392906146b1908490614eaf565b90915550505b6001600160a01b03831615612089576001600160a01b038316600090815260686020526040812080548392906146ee908490614e08565b909155505050505050565b600060016147068461168b565b6147109190614eaf565b600083815260986020526040902054909150808214614763576001600160a01b03841660009081526097602090815260408083208584528252808320548484528184208190558352609890915290208190555b5060009182526098602090815260408084208490556001600160a01b039094168352609781528383209183525290812055565b6099546000906147a890600190614eaf565b6000838152609a6020526040812054609980549394509092849081106147d0576147d0614daa565b9060005260206000200154905080609983815481106147f1576147f1614daa565b6000918252602080832090910192909255828152609a9091526040808220849055858252812055609980548061482957614829614fc7565b6001900381819060005260206000200160009055905550505050565b60006148508361168b565b6001600160a01b039093166000908152609760209081526040808320868452825280832085905593825260989052919091209190915550565b600054610100900460ff16614920576040517f08c379a000000000000000000000000000000000000000000000000000000000815260206004820152602b60248201527f496e697469616c697a61626c653a20636f6e7472616374206973206e6f74206960448201527f6e697469616c697a696e670000000000000000000000000000000000000000006064820152608401610c3b565b606561492c8382615044565b506066610cf68282615044565b7fffffffff0000000000000000000000000000000000000000000000000000000081168114611a9057600080fd5b60006020828403121561497957600080fd5b8135610e7281614939565b60005b8381101561499f578181015183820152602001614987565b50506000910152565b600081518084526149c0816020860160208601614984565b601f017fffffffffffffffffffffffffffffffffffffffffffffffffffffffffffffffe0169290920160200192915050565b602081526000610e7260208301846149a8565b600060208284031215614a1757600080fd5b5035919050565b80356001600160a01b03811681146117fd57600080fd5b60008060408385031215614a4857600080fd5b614a5183614a1e565b946020939093013593505050565b600080600060608486031215614a7457600080fd5b614a7d84614a1e565b95602085013595506040909401359392505050565b60008060408385031215614aa557600080fd5b50508035926020909101359150565b600080600060608486031215614ac957600080fd5b614ad284614a1e565b9250614ae060208501614a1e565b9150604084013590509250925092565b600060208284031215614b0257600080fd5b610e7282614a1e565b803560ff811681146117fd57600080fd5b60008060408385031215614b2f57600080fd5b614a5183614b0b565b60008060408385031215614b4b57600080fd5b82359150614b5b60208401614a1e565b90509250929050565b600060208284031215614b7657600080fd5b610e7282614b0b565b8015158114611a9057600080fd5b60008060408385031215614ba057600080fd5b614ba983614a1e565b91506020830135614bb981614b7f565b809150509250929050565b7f4e487b7100000000000000000000000000000000000000000000000000000000600052604160045260246000fd5b604051601f82017fffffffffffffffffffffffffffffffffffffffffffffffffffffffffffffffe016810167ffffffffffffffff81118282101715614c3a57614c3a614bc4565b604052919050565b600067ffffffffffffffff821115614c5c57614c5c614bc4565b50601f017fffffffffffffffffffffffffffffffffffffffffffffffffffffffffffffffe01660200190565b60008060008060808587031215614c9e57600080fd5b614ca785614a1e565b9350614cb560208601614a1e565b925060408501359150606085013567ffffffffffffffff811115614cd857600080fd5b8501601f81018713614ce957600080fd5b8035614cfc614cf782614c42565b614bf3565b818152886020838501011115614d1157600080fd5b8160208401602083013760006020838301015280935050505092959194509250565b60008060408385031215614d4657600080fd5b614d4f83614a1e565b9150614b5b60208401614a1e565b600181811c90821680614d7157607f821691505b60208210810361108b577f4e487b7100000000000000000000000000000000000000000000000000000000600052602260045260246000fd5b7f4e487b7100000000000000000000000000000000000000000000000000000000600052603260045260246000fd5b7f4e487b7100000000000000000000000000000000000000000000000000000000600052601160045260246000fd5b80820180821115610ad257610ad2614dd9565b600060208284031215614e2d57600080fd5b815167ffffffffffffffff811115614e4457600080fd5b8201601f81018413614e5557600080fd5b8051614e63614cf782614c42565b818152856020838501011115614e7857600080fd5b614e89826020830160208601614984565b95945050505050565b63ffffffff8181168382160190808211156127de576127de614dd9565b81810381811115610ad257610ad2614dd9565b6000816000190483118215151615614edc57614edc614dd9565b500290565b7f4e487b7100000000000000000000000000000000000000000000000000000000600052601260045260246000fd5b600082614f1f57614f1f614ee1565b500490565b600060208284031215614f3657600080fd5b5051919050565b600060208284031215614f4f57600080fd5b8151610e7281614b7f565b600082614f6957614f69614ee1565b500690565b60006001600160a01b03808716835280861660208401525083604083015260806060830152614fa060808301846149a8565b9695505050505050565b600060208284031215614fbc57600080fd5b8151610e7281614939565b7f4e487b7100000000000000000000000000000000000000000000000000000000600052603160045260246000fd5b601f821115610cf657600081815260208120601f850160051c8101602086101561501d5750805b601f850160051c820191505b8181101561503c57828155600101615029565b505050505050565b815167ffffffffffffffff81111561505e5761505e614bc4565b6150728161506c8454614d5d565b84614ff6565b602080601f8311600181146150a7576000841561508f5750858301515b600019600386901b1c1916600185901b17855561503c565b6000858152602081207fffffffffffffffffffffffffffffffffffffffffffffffffffffffffffffffe08616915b828110156150f4578886015182559484019460019091019084016150d5565b50858210156151125787850151600019600388901b60f8161c191681555b5050505050600190811b0190555056fea264697066735822122065581f7f95f986be0401d0ab81b6d3898a217148510d133daff4074effe96cd364736f6c63430008100033",
  "linkReferences": {},
  "deployedLinkReferences": {}
}